{
	"contracts/InsertionSort.sol": {
		"InsertionSort": {
			"abi": [
				{
					"inputs": [],
					"name": "doWhileTest",
					"outputs": [
						{
							"internalType": "uint256",
							"name": "",
							"type": "uint256"
						}
					],
					"stateMutability": "pure",
					"type": "function"
				},
				{
					"inputs": [],
					"name": "forLoopTest",
					"outputs": [
						{
							"internalType": "uint256",
							"name": "",
							"type": "uint256"
						}
					],
					"stateMutability": "pure",
					"type": "function"
				},
				{
					"inputs": [
						{
							"internalType": "uint256",
							"name": "_number",
							"type": "uint256"
						}
					],
					"name": "ifElseTest",
					"outputs": [
						{
							"internalType": "bool",
							"name": "",
							"type": "bool"
						}
					],
					"stateMutability": "pure",
					"type": "function"
				},
				{
					"inputs": [
						{
							"internalType": "uint256[]",
							"name": "a",
							"type": "uint256[]"
						}
					],
					"name": "insertionSort",
					"outputs": [
						{
							"internalType": "uint256[]",
							"name": "",
							"type": "uint256[]"
						}
					],
					"stateMutability": "pure",
					"type": "function"
				},
				{
					"inputs": [
						{
							"internalType": "uint256[]",
							"name": "a",
							"type": "uint256[]"
						}
					],
					"name": "insertionSortWrong",
					"outputs": [
						{
							"internalType": "uint256[]",
							"name": "",
							"type": "uint256[]"
						}
					],
					"stateMutability": "pure",
					"type": "function"
				},
				{
					"inputs": [
						{
							"internalType": "uint256",
							"name": "x",
							"type": "uint256"
						},
						{
							"internalType": "uint256",
							"name": "y",
							"type": "uint256"
						}
					],
					"name": "ternaryTest",
					"outputs": [
						{
							"internalType": "uint256",
							"name": "",
							"type": "uint256"
						}
					],
					"stateMutability": "pure",
					"type": "function"
				},
				{
					"inputs": [],
					"name": "whileTest",
					"outputs": [
						{
							"internalType": "uint256",
							"name": "",
							"type": "uint256"
						}
					],
					"stateMutability": "pure",
					"type": "function"
				}
			],
			"devdoc": {
				"kind": "dev",
				"methods": {},
				"version": 1
			},
			"evm": {
				"assembly": "    /* \"contracts/InsertionSort.sol\":57:1665  contract InsertionSort {... */\n  mstore(0x40, 0x80)\n  callvalue\n  dup1\n  iszero\n  tag_1\n  jumpi\n  0x00\n  dup1\n  revert\ntag_1:\n  pop\n  dataSize(sub_0)\n  dup1\n  dataOffset(sub_0)\n  0x00\n  codecopy\n  0x00\n  return\nstop\n\nsub_0: assembly {\n        /* \"contracts/InsertionSort.sol\":57:1665  contract InsertionSort {... */\n      mstore(0x40, 0x80)\n      callvalue\n      dup1\n      iszero\n      tag_1\n      jumpi\n      0x00\n      dup1\n      revert\n    tag_1:\n      pop\n      jumpi(tag_2, lt(calldatasize, 0x04))\n      shr(0xe0, calldataload(0x00))\n      dup1\n      0x6188a6c0\n      gt\n      tag_10\n      jumpi\n      dup1\n      0x6188a6c0\n      eq\n      tag_6\n      jumpi\n      dup1\n      0x6297206f\n      eq\n      tag_7\n      jumpi\n      dup1\n      0x7141fb00\n      eq\n      tag_8\n      jumpi\n      dup1\n      0xb0cfa9fc\n      eq\n      tag_9\n      jumpi\n      jump(tag_2)\n    tag_10:\n      dup1\n      0x28766320\n      eq\n      tag_3\n      jumpi\n      dup1\n      0x2bbacaaa\n      eq\n      tag_4\n      jumpi\n      dup1\n      0x5d14639d\n      eq\n      tag_5\n      jumpi\n    tag_2:\n      0x00\n      dup1\n      revert\n        /* \"contracts/InsertionSort.sol\":839:942  function ternaryTest(uint256 x,uint y) public pure returns (uint256){... */\n    tag_3:\n      tag_11\n      0x04\n      dup1\n      calldatasize\n      sub\n      dup2\n      add\n      swap1\n      tag_12\n      swap2\n      swap1\n      tag_13\n      jump\t// in\n    tag_12:\n      tag_14\n      jump\t// in\n    tag_11:\n      mload(0x40)\n      tag_15\n      swap2\n      swap1\n      tag_16\n      jump\t// in\n    tag_15:\n      mload(0x40)\n      dup1\n      swap2\n      sub\n      swap1\n      return\n        /* \"contracts/InsertionSort.sol\":636:833  function doWhileTest() public pure returns (uint256){... */\n    tag_4:\n      tag_17\n      tag_18\n      jump\t// in\n    tag_17:\n      mload(0x40)\n      tag_19\n      swap2\n      swap1\n      tag_16\n      jump\t// in\n    tag_19:\n      mload(0x40)\n      dup1\n      swap2\n      sub\n      swap1\n      return\n        /* \"contracts/InsertionSort.sol\":441:630  function whileTest() public pure returns(uint256){... */\n    tag_5:\n      tag_20\n      tag_21\n      jump\t// in\n    tag_20:\n      mload(0x40)\n      tag_22\n      swap2\n      swap1\n      tag_16\n      jump\t// in\n    tag_22:\n      mload(0x40)\n      dup1\n      swap2\n      sub\n      swap1\n      return\n        /* \"contracts/InsertionSort.sol\":948:1306  function insertionSortWrong(uint[] memory a) public pure  returns (uint [] memory) {... */\n    tag_6:\n      tag_23\n      0x04\n      dup1\n      calldatasize\n      sub\n      dup2\n      add\n      swap1\n      tag_24\n      swap2\n      swap1\n      tag_25\n      jump\t// in\n    tag_24:\n      tag_26\n      jump\t// in\n    tag_23:\n      mload(0x40)\n      tag_27\n      swap2\n      swap1\n      tag_28\n      jump\t// in\n    tag_27:\n      mload(0x40)\n      dup1\n      swap2\n      sub\n      swap1\n      return\n        /* \"contracts/InsertionSort.sol\":1312:1663  function insertionSort(uint[] memory a) public pure  returns (uint [] memory) {... */\n    tag_7:\n      tag_29\n      0x04\n      dup1\n      calldatasize\n      sub\n      dup2\n      add\n      swap1\n      tag_30\n      swap2\n      swap1\n      tag_25\n      jump\t// in\n    tag_30:\n      tag_31\n      jump\t// in\n    tag_29:\n      mload(0x40)\n      tag_32\n      swap2\n      swap1\n      tag_28\n      jump\t// in\n    tag_32:\n      mload(0x40)\n      dup1\n      swap2\n      sub\n      swap1\n      return\n        /* \"contracts/InsertionSort.sol\":86:260  function ifElseTest(uint256 _number) public pure returns (bool) {... */\n    tag_8:\n      tag_33\n      0x04\n      dup1\n      calldatasize\n      sub\n      dup2\n      add\n      swap1\n      tag_34\n      swap2\n      swap1\n      tag_35\n      jump\t// in\n    tag_34:\n      tag_36\n      jump\t// in\n    tag_33:\n      mload(0x40)\n      tag_37\n      swap2\n      swap1\n      tag_38\n      jump\t// in\n    tag_37:\n      mload(0x40)\n      dup1\n      swap2\n      sub\n      swap1\n      return\n        /* \"contracts/InsertionSort.sol\":266:435  function forLoopTest() public pure returns(uint256) {... */\n    tag_9:\n      tag_39\n      tag_40\n      jump\t// in\n    tag_39:\n      mload(0x40)\n      tag_41\n      swap2\n      swap1\n      tag_16\n      jump\t// in\n    tag_41:\n      mload(0x40)\n      dup1\n      swap2\n      sub\n      swap1\n      return\n        /* \"contracts/InsertionSort.sol\":839:942  function ternaryTest(uint256 x,uint y) public pure returns (uint256){... */\n    tag_14:\n        /* \"contracts/InsertionSort.sol\":899:906  uint256 */\n      0x00\n        /* \"contracts/InsertionSort.sol\":928:929  y */\n      dup2\n        /* \"contracts/InsertionSort.sol\":926:927  x */\n      dup4\n        /* \"contracts/InsertionSort.sol\":926:929  x>y */\n      gt\n        /* \"contracts/InsertionSort.sol\":925:934  (x>y)?x:y */\n      tag_43\n      jumpi\n        /* \"contracts/InsertionSort.sol\":933:934  y */\n      dup2\n        /* \"contracts/InsertionSort.sol\":925:934  (x>y)?x:y */\n      jump(tag_44)\n    tag_43:\n        /* \"contracts/InsertionSort.sol\":931:932  x */\n      dup3\n        /* \"contracts/InsertionSort.sol\":925:934  (x>y)?x:y */\n    tag_44:\n        /* \"contracts/InsertionSort.sol\":917:935  return ((x>y)?x:y) */\n      swap1\n      pop\n        /* \"contracts/InsertionSort.sol\":839:942  function ternaryTest(uint256 x,uint y) public pure returns (uint256){... */\n      swap3\n      swap2\n      pop\n      pop\n      jump\t// out\n        /* \"contracts/InsertionSort.sol\":636:833  function doWhileTest() public pure returns (uint256){... */\n    tag_18:\n        /* \"contracts/InsertionSort.sol\":680:687  uint256 */\n      0x00\n        /* \"contracts/InsertionSort.sol\":698:706  uint sum */\n      dup1\n        /* \"contracts/InsertionSort.sol\":709:710  0 */\n      0x00\n        /* \"contracts/InsertionSort.sol\":698:710  uint sum = 0 */\n      swap1\n      pop\n        /* \"contracts/InsertionSort.sol\":720:726  uint i */\n      0x00\n        /* \"contracts/InsertionSort.sol\":740:805  do {... */\n    tag_46:\n        /* \"contracts/InsertionSort.sol\":762:763  i */\n      dup1\n        /* \"contracts/InsertionSort.sol\":757:763  sum+=i */\n      dup3\n      tag_49\n      swap2\n      swap1\n      tag_50\n      jump\t// in\n    tag_49:\n      swap2\n      pop\n        /* \"contracts/InsertionSort.sol\":777:780  ++i */\n      dup1\n      tag_51\n      swap1\n      tag_52\n      jump\t// in\n    tag_51:\n      swap1\n      pop\n        /* \"contracts/InsertionSort.sol\":801:803  10 */\n      0x0a\n        /* \"contracts/InsertionSort.sol\":797:798  i */\n      dup2\n        /* \"contracts/InsertionSort.sol\":797:803  i < 10 */\n      lt\n        /* \"contracts/InsertionSort.sol\":740:805  do {... */\n      tag_46\n      jumpi\n        /* \"contracts/InsertionSort.sol\":822:825  sum */\n      dup2\n        /* \"contracts/InsertionSort.sol\":814:826  return (sum) */\n      swap3\n      pop\n      pop\n      pop\n        /* \"contracts/InsertionSort.sol\":636:833  function doWhileTest() public pure returns (uint256){... */\n      swap1\n      jump\t// out\n        /* \"contracts/InsertionSort.sol\":441:630  function whileTest() public pure returns(uint256){... */\n    tag_21:\n        /* \"contracts/InsertionSort.sol\":482:489  uint256 */\n      0x00\n        /* \"contracts/InsertionSort.sol\":500:508  uint sum */\n      dup1\n        /* \"contracts/InsertionSort.sol\":511:512  0 */\n      0x00\n        /* \"contracts/InsertionSort.sol\":500:512  uint sum = 0 */\n      swap1\n      pop\n        /* \"contracts/InsertionSort.sol\":522:528  uint i */\n      0x00\n        /* \"contracts/InsertionSort.sol\":542:602  while(i<10) {... */\n    tag_54:\n        /* \"contracts/InsertionSort.sol\":550:552  10 */\n      0x0a\n        /* \"contracts/InsertionSort.sol\":548:549  i */\n      dup2\n        /* \"contracts/InsertionSort.sol\":548:552  i<10 */\n      lt\n        /* \"contracts/InsertionSort.sol\":542:602  while(i<10) {... */\n      iszero\n      tag_55\n      jumpi\n        /* \"contracts/InsertionSort.sol\":573:574  i */\n      dup1\n        /* \"contracts/InsertionSort.sol\":568:574  sum+=i */\n      dup3\n      tag_56\n      swap2\n      swap1\n      tag_50\n      jump\t// in\n    tag_56:\n      swap2\n      pop\n        /* \"contracts/InsertionSort.sol\":588:591  ++i */\n      dup1\n      tag_57\n      swap1\n      tag_52\n      jump\t// in\n    tag_57:\n      swap1\n      pop\n        /* \"contracts/InsertionSort.sol\":542:602  while(i<10) {... */\n      jump(tag_54)\n    tag_55:\n        /* \"contracts/InsertionSort.sol\":619:622  sum */\n      dup2\n        /* \"contracts/InsertionSort.sol\":611:623  return (sum) */\n      swap3\n      pop\n      pop\n      pop\n        /* \"contracts/InsertionSort.sol\":441:630  function whileTest() public pure returns(uint256){... */\n      swap1\n      jump\t// out\n        /* \"contracts/InsertionSort.sol\":948:1306  function insertionSortWrong(uint[] memory a) public pure  returns (uint [] memory) {... */\n    tag_26:\n        /* \"contracts/InsertionSort.sol\":1015:1029  uint [] memory */\n      0x60\n        /* \"contracts/InsertionSort.sol\":1046:1052  uint i */\n      0x00\n        /* \"contracts/InsertionSort.sol\":1055:1056  1 */\n      0x01\n        /* \"contracts/InsertionSort.sol\":1046:1056  uint i = 1 */\n      swap1\n      pop\n        /* \"contracts/InsertionSort.sol\":1041:1282  for (uint i = 1; i < a.length; i++){... */\n    tag_59:\n        /* \"contracts/InsertionSort.sol\":1062:1063  a */\n      dup3\n        /* \"contracts/InsertionSort.sol\":1062:1070  a.length */\n      mload\n        /* \"contracts/InsertionSort.sol\":1058:1059  i */\n      dup2\n        /* \"contracts/InsertionSort.sol\":1058:1070  i < a.length */\n      lt\n        /* \"contracts/InsertionSort.sol\":1041:1282  for (uint i = 1; i < a.length; i++){... */\n      iszero\n      tag_60\n      jumpi\n        /* \"contracts/InsertionSort.sol\":1090:1099  uint temp */\n      0x00\n        /* \"contracts/InsertionSort.sol\":1102:1103  a */\n      dup4\n        /* \"contracts/InsertionSort.sol\":1104:1105  i */\n      dup3\n        /* \"contracts/InsertionSort.sol\":1102:1106  a[i] */\n      dup2\n      mload\n      dup2\n      lt\n      tag_62\n      jumpi\n      tag_63\n      tag_64\n      jump\t// in\n    tag_63:\n    tag_62:\n      0x20\n      mul\n      0x20\n      add\n      add\n      mload\n        /* \"contracts/InsertionSort.sol\":1090:1106  uint temp = a[i] */\n      swap1\n      pop\n        /* \"contracts/InsertionSort.sol\":1120:1126  uint j */\n      0x00\n        /* \"contracts/InsertionSort.sol\":1131:1132  1 */\n      0x01\n        /* \"contracts/InsertionSort.sol\":1129:1130  i */\n      dup4\n        /* \"contracts/InsertionSort.sol\":1129:1132  i-1 */\n      tag_65\n      swap2\n      swap1\n      tag_66\n      jump\t// in\n    tag_65:\n        /* \"contracts/InsertionSort.sol\":1120:1132  uint j = i-1 */\n      swap1\n      pop\n        /* \"contracts/InsertionSort.sol\":1146:1245  while ((j >= 0) && (temp < a[j]) ){... */\n    tag_67:\n        /* \"contracts/InsertionSort.sol\":1159:1160  0 */\n      0x00\n        /* \"contracts/InsertionSort.sol\":1154:1155  j */\n      dup2\n        /* \"contracts/InsertionSort.sol\":1154:1160  j >= 0 */\n      lt\n      iszero\n        /* \"contracts/InsertionSort.sol\":1153:1178  (j >= 0) && (temp < a[j]) */\n      dup1\n      iszero\n      tag_69\n      jumpi\n      pop\n        /* \"contracts/InsertionSort.sol\":1173:1174  a */\n      dup5\n        /* \"contracts/InsertionSort.sol\":1175:1176  j */\n      dup2\n        /* \"contracts/InsertionSort.sol\":1173:1177  a[j] */\n      dup2\n      mload\n      dup2\n      lt\n      tag_70\n      jumpi\n      tag_71\n      tag_64\n      jump\t// in\n    tag_71:\n    tag_70:\n      0x20\n      mul\n      0x20\n      add\n      add\n      mload\n        /* \"contracts/InsertionSort.sol\":1166:1170  temp */\n      dup3\n        /* \"contracts/InsertionSort.sol\":1166:1177  temp < a[j] */\n      lt\n        /* \"contracts/InsertionSort.sol\":1153:1178  (j >= 0) && (temp < a[j]) */\n    tag_69:\n        /* \"contracts/InsertionSort.sol\":1146:1245  while ((j >= 0) && (temp < a[j]) ){... */\n      iszero\n      tag_68\n      jumpi\n        /* \"contracts/InsertionSort.sol\":1205:1206  a */\n      dup5\n        /* \"contracts/InsertionSort.sol\":1207:1208  j */\n      dup2\n        /* \"contracts/InsertionSort.sol\":1205:1209  a[j] */\n      dup2\n      mload\n      dup2\n      lt\n      tag_72\n      jumpi\n      tag_73\n      tag_64\n      jump\t// in\n    tag_73:\n    tag_72:\n      0x20\n      mul\n      0x20\n      add\n      add\n      mload\n        /* \"contracts/InsertionSort.sol\":1198:1199  a */\n      dup6\n        /* \"contracts/InsertionSort.sol\":1202:1203  1 */\n      0x01\n        /* \"contracts/InsertionSort.sol\":1200:1201  j */\n      dup4\n        /* \"contracts/InsertionSort.sol\":1200:1203  j+1 */\n      tag_74\n      swap2\n      swap1\n      tag_50\n      jump\t// in\n    tag_74:\n        /* \"contracts/InsertionSort.sol\":1198:1204  a[j+1] */\n      dup2\n      mload\n      dup2\n      lt\n      tag_75\n      jumpi\n      tag_76\n      tag_64\n      jump\t// in\n    tag_76:\n    tag_75:\n      0x20\n      mul\n      0x20\n      add\n      add\n        /* \"contracts/InsertionSort.sol\":1198:1209  a[j+1]=a[j] */\n      dup2\n      dup2\n      mstore\n      pop\n      pop\n        /* \"contracts/InsertionSort.sol\":1227:1230  j-- */\n      dup1\n      dup1\n      tag_77\n      swap1\n      tag_78\n      jump\t// in\n    tag_77:\n      swap2\n      pop\n      pop\n        /* \"contracts/InsertionSort.sol\":1146:1245  while ((j >= 0) && (temp < a[j]) ){... */\n      jump(tag_67)\n    tag_68:\n        /* \"contracts/InsertionSort.sol\":1267:1271  temp */\n      dup2\n        /* \"contracts/InsertionSort.sol\":1258:1259  a */\n      dup6\n        /* \"contracts/InsertionSort.sol\":1262:1263  1 */\n      0x01\n        /* \"contracts/InsertionSort.sol\":1260:1261  j */\n      dup4\n        /* \"contracts/InsertionSort.sol\":1260:1263  j+1 */\n      tag_79\n      swap2\n      swap1\n      tag_50\n      jump\t// in\n    tag_79:\n        /* \"contracts/InsertionSort.sol\":1258:1264  a[j+1] */\n      dup2\n      mload\n      dup2\n      lt\n      tag_80\n      jumpi\n      tag_81\n      tag_64\n      jump\t// in\n    tag_81:\n    tag_80:\n      0x20\n      mul\n      0x20\n      add\n      add\n        /* \"contracts/InsertionSort.sol\":1258:1271  a[j+1] = temp */\n      dup2\n      dup2\n      mstore\n      pop\n      pop\n        /* \"contracts/InsertionSort.sol\":1076:1282  {... */\n      pop\n      pop\n        /* \"contracts/InsertionSort.sol\":1072:1075  i++ */\n      dup1\n      dup1\n      0x01\n      add\n      swap2\n      pop\n      pop\n        /* \"contracts/InsertionSort.sol\":1041:1282  for (uint i = 1; i < a.length; i++){... */\n      jump(tag_59)\n    tag_60:\n      pop\n        /* \"contracts/InsertionSort.sol\":1298:1299  a */\n      dup2\n        /* \"contracts/InsertionSort.sol\":1291:1299  return a */\n      swap1\n      pop\n        /* \"contracts/InsertionSort.sol\":948:1306  function insertionSortWrong(uint[] memory a) public pure  returns (uint [] memory) {... */\n      swap2\n      swap1\n      pop\n      jump\t// out\n        /* \"contracts/InsertionSort.sol\":1312:1663  function insertionSort(uint[] memory a) public pure  returns (uint [] memory) {... */\n    tag_31:\n        /* \"contracts/InsertionSort.sol\":1374:1388  uint [] memory */\n      0x60\n        /* \"contracts/InsertionSort.sol\":1405:1411  uint i */\n      0x00\n        /* \"contracts/InsertionSort.sol\":1414:1415  1 */\n      0x01\n        /* \"contracts/InsertionSort.sol\":1405:1415  uint i = 1 */\n      swap1\n      pop\n        /* \"contracts/InsertionSort.sol\":1400:1639  for (uint i = 1; i < a.length; i++){... */\n    tag_83:\n        /* \"contracts/InsertionSort.sol\":1421:1422  a */\n      dup3\n        /* \"contracts/InsertionSort.sol\":1421:1429  a.length */\n      mload\n        /* \"contracts/InsertionSort.sol\":1417:1418  i */\n      dup2\n        /* \"contracts/InsertionSort.sol\":1417:1429  i < a.length */\n      lt\n        /* \"contracts/InsertionSort.sol\":1400:1639  for (uint i = 1; i < a.length; i++){... */\n      iszero\n      tag_84\n      jumpi\n        /* \"contracts/InsertionSort.sol\":1449:1458  uint temp */\n      0x00\n        /* \"contracts/InsertionSort.sol\":1461:1462  a */\n      dup4\n        /* \"contracts/InsertionSort.sol\":1463:1464  i */\n      dup3\n        /* \"contracts/InsertionSort.sol\":1461:1465  a[i] */\n      dup2\n      mload\n      dup2\n      lt\n      tag_86\n      jumpi\n      tag_87\n      tag_64\n      jump\t// in\n    tag_87:\n    tag_86:\n      0x20\n      mul\n      0x20\n      add\n      add\n      mload\n        /* \"contracts/InsertionSort.sol\":1449:1465  uint temp = a[i] */\n      swap1\n      pop\n        /* \"contracts/InsertionSort.sol\":1479:1485  uint j */\n      0x00\n        /* \"contracts/InsertionSort.sol\":1488:1489  i */\n      dup3\n        /* \"contracts/InsertionSort.sol\":1479:1489  uint j = i */\n      swap1\n      pop\n        /* \"contracts/InsertionSort.sol\":1503:1604  while ((j >= 1) && (temp < a[j-1]) ){... */\n    tag_88:\n        /* \"contracts/InsertionSort.sol\":1516:1517  1 */\n      0x01\n        /* \"contracts/InsertionSort.sol\":1511:1512  j */\n      dup2\n        /* \"contracts/InsertionSort.sol\":1511:1517  j >= 1 */\n      lt\n      iszero\n        /* \"contracts/InsertionSort.sol\":1510:1537  (j >= 1) && (temp < a[j-1]) */\n      dup1\n      iszero\n      tag_90\n      jumpi\n      pop\n        /* \"contracts/InsertionSort.sol\":1530:1531  a */\n      dup5\n        /* \"contracts/InsertionSort.sol\":1534:1535  1 */\n      0x01\n        /* \"contracts/InsertionSort.sol\":1532:1533  j */\n      dup3\n        /* \"contracts/InsertionSort.sol\":1532:1535  j-1 */\n      tag_91\n      swap2\n      swap1\n      tag_66\n      jump\t// in\n    tag_91:\n        /* \"contracts/InsertionSort.sol\":1530:1536  a[j-1] */\n      dup2\n      mload\n      dup2\n      lt\n      tag_92\n      jumpi\n      tag_93\n      tag_64\n      jump\t// in\n    tag_93:\n    tag_92:\n      0x20\n      mul\n      0x20\n      add\n      add\n      mload\n        /* \"contracts/InsertionSort.sol\":1523:1527  temp */\n      dup3\n        /* \"contracts/InsertionSort.sol\":1523:1536  temp < a[j-1] */\n      lt\n        /* \"contracts/InsertionSort.sol\":1510:1537  (j >= 1) && (temp < a[j-1]) */\n    tag_90:\n        /* \"contracts/InsertionSort.sol\":1503:1604  while ((j >= 1) && (temp < a[j-1]) ){... */\n      iszero\n      tag_89\n      jumpi\n        /* \"contracts/InsertionSort.sol\":1562:1563  a */\n      dup5\n        /* \"contracts/InsertionSort.sol\":1566:1567  1 */\n      0x01\n        /* \"contracts/InsertionSort.sol\":1564:1565  j */\n      dup3\n        /* \"contracts/InsertionSort.sol\":1564:1567  j-1 */\n      tag_94\n      swap2\n      swap1\n      tag_66\n      jump\t// in\n    tag_94:\n        /* \"contracts/InsertionSort.sol\":1562:1568  a[j-1] */\n      dup2\n      mload\n      dup2\n      lt\n      tag_95\n      jumpi\n      tag_96\n      tag_64\n      jump\t// in\n    tag_96:\n    tag_95:\n      0x20\n      mul\n      0x20\n      add\n      add\n      mload\n        /* \"contracts/InsertionSort.sol\":1557:1558  a */\n      dup6\n        /* \"contracts/InsertionSort.sol\":1559:1560  j */\n      dup3\n        /* \"contracts/InsertionSort.sol\":1557:1561  a[j] */\n      dup2\n      mload\n      dup2\n      lt\n      tag_97\n      jumpi\n      tag_98\n      tag_64\n      jump\t// in\n    tag_98:\n    tag_97:\n      0x20\n      mul\n      0x20\n      add\n      add\n        /* \"contracts/InsertionSort.sol\":1557:1568  a[j]=a[j-1] */\n      dup2\n      dup2\n      mstore\n      pop\n      pop\n        /* \"contracts/InsertionSort.sol\":1586:1589  j-- */\n      dup1\n      dup1\n      tag_99\n      swap1\n      tag_78\n      jump\t// in\n    tag_99:\n      swap2\n      pop\n      pop\n        /* \"contracts/InsertionSort.sol\":1503:1604  while ((j >= 1) && (temp < a[j-1]) ){... */\n      jump(tag_88)\n    tag_89:\n        /* \"contracts/InsertionSort.sol\":1624:1628  temp */\n      dup2\n        /* \"contracts/InsertionSort.sol\":1617:1618  a */\n      dup6\n        /* \"contracts/InsertionSort.sol\":1619:1620  j */\n      dup3\n        /* \"contracts/InsertionSort.sol\":1617:1621  a[j] */\n      dup2\n      mload\n      dup2\n      lt\n      tag_100\n      jumpi\n      tag_101\n      tag_64\n      jump\t// in\n    tag_101:\n    tag_100:\n      0x20\n      mul\n      0x20\n      add\n      add\n        /* \"contracts/InsertionSort.sol\":1617:1628  a[j] = temp */\n      dup2\n      dup2\n      mstore\n      pop\n      pop\n        /* \"contracts/InsertionSort.sol\":1435:1639  {... */\n      pop\n      pop\n        /* \"contracts/InsertionSort.sol\":1431:1434  i++ */\n      dup1\n      dup1\n      0x01\n      add\n      swap2\n      pop\n      pop\n        /* \"contracts/InsertionSort.sol\":1400:1639  for (uint i = 1; i < a.length; i++){... */\n      jump(tag_83)\n    tag_84:\n      pop\n        /* \"contracts/InsertionSort.sol\":1655:1656  a */\n      dup2\n        /* \"contracts/InsertionSort.sol\":1648:1656  return a */\n      swap1\n      pop\n        /* \"contracts/InsertionSort.sol\":1312:1663  function insertionSort(uint[] memory a) public pure  returns (uint [] memory) {... */\n      swap2\n      swap1\n      pop\n      jump\t// out\n        /* \"contracts/InsertionSort.sol\":86:260  function ifElseTest(uint256 _number) public pure returns (bool) {... */\n    tag_36:\n        /* \"contracts/InsertionSort.sol\":144:148  bool */\n      0x00\n        /* \"contracts/InsertionSort.sol\":174:175  0 */\n      dup1\n        /* \"contracts/InsertionSort.sol\":163:170  _number */\n      dup3\n        /* \"contracts/InsertionSort.sol\":163:175  _number == 0 */\n      sub\n        /* \"contracts/InsertionSort.sol\":160:254  if(_number == 0){... */\n      tag_103\n      jumpi\n        /* \"contracts/InsertionSort.sol\":197:201  true */\n      0x01\n        /* \"contracts/InsertionSort.sol\":190:201  return true */\n      swap1\n      pop\n      jump(tag_102)\n        /* \"contracts/InsertionSort.sol\":160:254  if(_number == 0){... */\n    tag_103:\n        /* \"contracts/InsertionSort.sol\":238:243  false */\n      0x00\n        /* \"contracts/InsertionSort.sol\":231:243  return false */\n      swap1\n      pop\n        /* \"contracts/InsertionSort.sol\":86:260  function ifElseTest(uint256 _number) public pure returns (bool) {... */\n    tag_102:\n      swap2\n      swap1\n      pop\n      jump\t// out\n        /* \"contracts/InsertionSort.sol\":266:435  function forLoopTest() public pure returns(uint256) {... */\n    tag_40:\n        /* \"contracts/InsertionSort.sol\":309:316  uint256 */\n      0x00\n        /* \"contracts/InsertionSort.sol\":328:336  uint sum */\n      dup1\n        /* \"contracts/InsertionSort.sol\":339:340  0 */\n      0x00\n        /* \"contracts/InsertionSort.sol\":328:340  uint sum = 0 */\n      swap1\n      pop\n        /* \"contracts/InsertionSort.sol\":354:360  uint i */\n      0x00\n        /* \"contracts/InsertionSort.sol\":350:409  for(uint i = 0; i<10; i++){... */\n    tag_106:\n        /* \"contracts/InsertionSort.sol\":368:370  10 */\n      0x0a\n        /* \"contracts/InsertionSort.sol\":366:367  i */\n      dup2\n        /* \"contracts/InsertionSort.sol\":366:370  i<10 */\n      lt\n        /* \"contracts/InsertionSort.sol\":350:409  for(uint i = 0; i<10; i++){... */\n      iszero\n      tag_107\n      jumpi\n        /* \"contracts/InsertionSort.sol\":397:398  i */\n      dup1\n        /* \"contracts/InsertionSort.sol\":390:398  sum += i */\n      dup3\n      tag_109\n      swap2\n      swap1\n      tag_50\n      jump\t// in\n    tag_109:\n      swap2\n      pop\n        /* \"contracts/InsertionSort.sol\":372:375  i++ */\n      dup1\n      dup1\n      0x01\n      add\n      swap2\n      pop\n      pop\n        /* \"contracts/InsertionSort.sol\":350:409  for(uint i = 0; i<10; i++){... */\n      jump(tag_106)\n    tag_107:\n      pop\n        /* \"contracts/InsertionSort.sol\":425:428  sum */\n      dup1\n        /* \"contracts/InsertionSort.sol\":418:428  return sum */\n      swap2\n      pop\n      pop\n        /* \"contracts/InsertionSort.sol\":266:435  function forLoopTest() public pure returns(uint256) {... */\n      swap1\n      jump\t// out\n        /* \"#utility.yul\":7:82   */\n    tag_110:\n        /* \"#utility.yul\":40:46   */\n      0x00\n        /* \"#utility.yul\":73:75   */\n      0x40\n        /* \"#utility.yul\":67:76   */\n      mload\n        /* \"#utility.yul\":57:76   */\n      swap1\n      pop\n        /* \"#utility.yul\":7:82   */\n      swap1\n      jump\t// out\n        /* \"#utility.yul\":88:205   */\n    tag_111:\n        /* \"#utility.yul\":197:198   */\n      0x00\n        /* \"#utility.yul\":194:195   */\n      dup1\n        /* \"#utility.yul\":187:199   */\n      revert\n        /* \"#utility.yul\":211:328   */\n    tag_112:\n        /* \"#utility.yul\":320:321   */\n      0x00\n        /* \"#utility.yul\":317:318   */\n      dup1\n        /* \"#utility.yul\":310:322   */\n      revert\n        /* \"#utility.yul\":334:411   */\n    tag_113:\n        /* \"#utility.yul\":371:378   */\n      0x00\n        /* \"#utility.yul\":400:405   */\n      dup2\n        /* \"#utility.yul\":389:405   */\n      swap1\n      pop\n        /* \"#utility.yul\":334:411   */\n      swap2\n      swap1\n      pop\n      jump\t// out\n        /* \"#utility.yul\":417:539   */\n    tag_114:\n        /* \"#utility.yul\":490:514   */\n      tag_142\n        /* \"#utility.yul\":508:513   */\n      dup2\n        /* \"#utility.yul\":490:514   */\n      tag_113\n      jump\t// in\n    tag_142:\n        /* \"#utility.yul\":483:488   */\n      dup2\n        /* \"#utility.yul\":480:515   */\n      eq\n        /* \"#utility.yul\":470:533   */\n      tag_143\n      jumpi\n        /* \"#utility.yul\":529:530   */\n      0x00\n        /* \"#utility.yul\":526:527   */\n      dup1\n        /* \"#utility.yul\":519:531   */\n      revert\n        /* \"#utility.yul\":470:533   */\n    tag_143:\n        /* \"#utility.yul\":417:539   */\n      pop\n      jump\t// out\n        /* \"#utility.yul\":545:684   */\n    tag_115:\n        /* \"#utility.yul\":591:596   */\n      0x00\n        /* \"#utility.yul\":629:635   */\n      dup2\n        /* \"#utility.yul\":616:636   */\n      calldataload\n        /* \"#utility.yul\":607:636   */\n      swap1\n      pop\n        /* \"#utility.yul\":645:678   */\n      tag_145\n        /* \"#utility.yul\":672:677   */\n      dup2\n        /* \"#utility.yul\":645:678   */\n      tag_114\n      jump\t// in\n    tag_145:\n        /* \"#utility.yul\":545:684   */\n      swap3\n      swap2\n      pop\n      pop\n      jump\t// out\n        /* \"#utility.yul\":690:1164   */\n    tag_13:\n        /* \"#utility.yul\":758:764   */\n      0x00\n        /* \"#utility.yul\":766:772   */\n      dup1\n        /* \"#utility.yul\":815:817   */\n      0x40\n        /* \"#utility.yul\":803:812   */\n      dup4\n        /* \"#utility.yul\":794:801   */\n      dup6\n        /* \"#utility.yul\":790:813   */\n      sub\n        /* \"#utility.yul\":786:818   */\n      slt\n        /* \"#utility.yul\":783:902   */\n      iszero\n      tag_147\n      jumpi\n        /* \"#utility.yul\":821:900   */\n      tag_148\n      tag_111\n      jump\t// in\n    tag_148:\n        /* \"#utility.yul\":783:902   */\n    tag_147:\n        /* \"#utility.yul\":941:942   */\n      0x00\n        /* \"#utility.yul\":966:1019   */\n      tag_149\n        /* \"#utility.yul\":1011:1018   */\n      dup6\n        /* \"#utility.yul\":1002:1008   */\n      dup3\n        /* \"#utility.yul\":991:1000   */\n      dup7\n        /* \"#utility.yul\":987:1009   */\n      add\n        /* \"#utility.yul\":966:1019   */\n      tag_115\n      jump\t// in\n    tag_149:\n        /* \"#utility.yul\":956:1019   */\n      swap3\n      pop\n        /* \"#utility.yul\":912:1029   */\n      pop\n        /* \"#utility.yul\":1068:1070   */\n      0x20\n        /* \"#utility.yul\":1094:1147   */\n      tag_150\n        /* \"#utility.yul\":1139:1146   */\n      dup6\n        /* \"#utility.yul\":1130:1136   */\n      dup3\n        /* \"#utility.yul\":1119:1128   */\n      dup7\n        /* \"#utility.yul\":1115:1137   */\n      add\n        /* \"#utility.yul\":1094:1147   */\n      tag_115\n      jump\t// in\n    tag_150:\n        /* \"#utility.yul\":1084:1147   */\n      swap2\n      pop\n        /* \"#utility.yul\":1039:1157   */\n      pop\n        /* \"#utility.yul\":690:1164   */\n      swap3\n      pop\n      swap3\n      swap1\n      pop\n      jump\t// out\n        /* \"#utility.yul\":1170:1288   */\n    tag_116:\n        /* \"#utility.yul\":1257:1281   */\n      tag_152\n        /* \"#utility.yul\":1275:1280   */\n      dup2\n        /* \"#utility.yul\":1257:1281   */\n      tag_113\n      jump\t// in\n    tag_152:\n        /* \"#utility.yul\":1252:1255   */\n      dup3\n        /* \"#utility.yul\":1245:1282   */\n      mstore\n        /* \"#utility.yul\":1170:1288   */\n      pop\n      pop\n      jump\t// out\n        /* \"#utility.yul\":1294:1516   */\n    tag_16:\n        /* \"#utility.yul\":1387:1391   */\n      0x00\n        /* \"#utility.yul\":1425:1427   */\n      0x20\n        /* \"#utility.yul\":1414:1423   */\n      dup3\n        /* \"#utility.yul\":1410:1428   */\n      add\n        /* \"#utility.yul\":1402:1428   */\n      swap1\n      pop\n        /* \"#utility.yul\":1438:1509   */\n      tag_154\n        /* \"#utility.yul\":1506:1507   */\n      0x00\n        /* \"#utility.yul\":1495:1504   */\n      dup4\n        /* \"#utility.yul\":1491:1508   */\n      add\n        /* \"#utility.yul\":1482:1488   */\n      dup5\n        /* \"#utility.yul\":1438:1509   */\n      tag_116\n      jump\t// in\n    tag_154:\n        /* \"#utility.yul\":1294:1516   */\n      swap3\n      swap2\n      pop\n      pop\n      jump\t// out\n        /* \"#utility.yul\":1522:1639   */\n    tag_117:\n        /* \"#utility.yul\":1631:1632   */\n      0x00\n        /* \"#utility.yul\":1628:1629   */\n      dup1\n        /* \"#utility.yul\":1621:1633   */\n      revert\n        /* \"#utility.yul\":1645:1747   */\n    tag_118:\n        /* \"#utility.yul\":1686:1692   */\n      0x00\n        /* \"#utility.yul\":1737:1739   */\n      0x1f\n        /* \"#utility.yul\":1733:1740   */\n      not\n        /* \"#utility.yul\":1728:1730   */\n      0x1f\n        /* \"#utility.yul\":1721:1726   */\n      dup4\n        /* \"#utility.yul\":1717:1731   */\n      add\n        /* \"#utility.yul\":1713:1741   */\n      and\n        /* \"#utility.yul\":1703:1741   */\n      swap1\n      pop\n        /* \"#utility.yul\":1645:1747   */\n      swap2\n      swap1\n      pop\n      jump\t// out\n        /* \"#utility.yul\":1753:1933   */\n    tag_119:\n        /* \"#utility.yul\":1801:1878   */\n      0x4e487b7100000000000000000000000000000000000000000000000000000000\n        /* \"#utility.yul\":1798:1799   */\n      0x00\n        /* \"#utility.yul\":1791:1879   */\n      mstore\n        /* \"#utility.yul\":1898:1902   */\n      0x41\n        /* \"#utility.yul\":1895:1896   */\n      0x04\n        /* \"#utility.yul\":1888:1903   */\n      mstore\n        /* \"#utility.yul\":1922:1926   */\n      0x24\n        /* \"#utility.yul\":1919:1920   */\n      0x00\n        /* \"#utility.yul\":1912:1927   */\n      revert\n        /* \"#utility.yul\":1939:2220   */\n    tag_120:\n        /* \"#utility.yul\":2022:2049   */\n      tag_159\n        /* \"#utility.yul\":2044:2048   */\n      dup3\n        /* \"#utility.yul\":2022:2049   */\n      tag_118\n      jump\t// in\n    tag_159:\n        /* \"#utility.yul\":2014:2020   */\n      dup2\n        /* \"#utility.yul\":2010:2050   */\n      add\n        /* \"#utility.yul\":2152:2158   */\n      dup2\n        /* \"#utility.yul\":2140:2150   */\n      dup2\n        /* \"#utility.yul\":2137:2159   */\n      lt\n        /* \"#utility.yul\":2116:2134   */\n      0xffffffffffffffff\n        /* \"#utility.yul\":2104:2114   */\n      dup3\n        /* \"#utility.yul\":2101:2135   */\n      gt\n        /* \"#utility.yul\":2098:2160   */\n      or\n        /* \"#utility.yul\":2095:2183   */\n      iszero\n      tag_160\n      jumpi\n        /* \"#utility.yul\":2163:2181   */\n      tag_161\n      tag_119\n      jump\t// in\n    tag_161:\n        /* \"#utility.yul\":2095:2183   */\n    tag_160:\n        /* \"#utility.yul\":2203:2213   */\n      dup1\n        /* \"#utility.yul\":2199:2201   */\n      0x40\n        /* \"#utility.yul\":2192:2214   */\n      mstore\n        /* \"#utility.yul\":1982:2220   */\n      pop\n        /* \"#utility.yul\":1939:2220   */\n      pop\n      pop\n      jump\t// out\n        /* \"#utility.yul\":2226:2355   */\n    tag_121:\n        /* \"#utility.yul\":2260:2266   */\n      0x00\n        /* \"#utility.yul\":2287:2307   */\n      tag_163\n      tag_110\n      jump\t// in\n    tag_163:\n        /* \"#utility.yul\":2277:2307   */\n      swap1\n      pop\n        /* \"#utility.yul\":2316:2349   */\n      tag_164\n        /* \"#utility.yul\":2344:2348   */\n      dup3\n        /* \"#utility.yul\":2336:2342   */\n      dup3\n        /* \"#utility.yul\":2316:2349   */\n      tag_120\n      jump\t// in\n    tag_164:\n        /* \"#utility.yul\":2226:2355   */\n      swap2\n      swap1\n      pop\n      jump\t// out\n        /* \"#utility.yul\":2361:2672   */\n    tag_122:\n        /* \"#utility.yul\":2438:2442   */\n      0x00\n        /* \"#utility.yul\":2528:2546   */\n      0xffffffffffffffff\n        /* \"#utility.yul\":2520:2526   */\n      dup3\n        /* \"#utility.yul\":2517:2547   */\n      gt\n        /* \"#utility.yul\":2514:2570   */\n      iszero\n      tag_166\n      jumpi\n        /* \"#utility.yul\":2550:2568   */\n      tag_167\n      tag_119\n      jump\t// in\n    tag_167:\n        /* \"#utility.yul\":2514:2570   */\n    tag_166:\n        /* \"#utility.yul\":2600:2604   */\n      0x20\n        /* \"#utility.yul\":2592:2598   */\n      dup3\n        /* \"#utility.yul\":2588:2605   */\n      mul\n        /* \"#utility.yul\":2580:2605   */\n      swap1\n      pop\n        /* \"#utility.yul\":2660:2664   */\n      0x20\n        /* \"#utility.yul\":2654:2658   */\n      dup2\n        /* \"#utility.yul\":2650:2665   */\n      add\n        /* \"#utility.yul\":2642:2665   */\n      swap1\n      pop\n        /* \"#utility.yul\":2361:2672   */\n      swap2\n      swap1\n      pop\n      jump\t// out\n        /* \"#utility.yul\":2678:2795   */\n    tag_123:\n        /* \"#utility.yul\":2787:2788   */\n      0x00\n        /* \"#utility.yul\":2784:2785   */\n      dup1\n        /* \"#utility.yul\":2777:2789   */\n      revert\n        /* \"#utility.yul\":2818:3528   */\n    tag_124:\n        /* \"#utility.yul\":2914:2919   */\n      0x00\n        /* \"#utility.yul\":2939:3020   */\n      tag_170\n        /* \"#utility.yul\":2955:3019   */\n      tag_171\n        /* \"#utility.yul\":3012:3018   */\n      dup5\n        /* \"#utility.yul\":2955:3019   */\n      tag_122\n      jump\t// in\n    tag_171:\n        /* \"#utility.yul\":2939:3020   */\n      tag_121\n      jump\t// in\n    tag_170:\n        /* \"#utility.yul\":2930:3020   */\n      swap1\n      pop\n        /* \"#utility.yul\":3040:3045   */\n      dup1\n        /* \"#utility.yul\":3069:3075   */\n      dup4\n        /* \"#utility.yul\":3062:3067   */\n      dup3\n        /* \"#utility.yul\":3055:3076   */\n      mstore\n        /* \"#utility.yul\":3103:3107   */\n      0x20\n        /* \"#utility.yul\":3096:3101   */\n      dup3\n        /* \"#utility.yul\":3092:3108   */\n      add\n        /* \"#utility.yul\":3085:3108   */\n      swap1\n      pop\n        /* \"#utility.yul\":3156:3160   */\n      0x20\n        /* \"#utility.yul\":3148:3154   */\n      dup5\n        /* \"#utility.yul\":3144:3161   */\n      mul\n        /* \"#utility.yul\":3136:3142   */\n      dup4\n        /* \"#utility.yul\":3132:3162   */\n      add\n        /* \"#utility.yul\":3185:3188   */\n      dup6\n        /* \"#utility.yul\":3177:3183   */\n      dup2\n        /* \"#utility.yul\":3174:3189   */\n      gt\n        /* \"#utility.yul\":3171:3293   */\n      iszero\n      tag_172\n      jumpi\n        /* \"#utility.yul\":3204:3283   */\n      tag_173\n      tag_123\n      jump\t// in\n    tag_173:\n        /* \"#utility.yul\":3171:3293   */\n    tag_172:\n        /* \"#utility.yul\":3319:3325   */\n      dup4\n        /* \"#utility.yul\":3302:3522   */\n    tag_174:\n        /* \"#utility.yul\":3336:3342   */\n      dup2\n        /* \"#utility.yul\":3331:3334   */\n      dup2\n        /* \"#utility.yul\":3328:3343   */\n      lt\n        /* \"#utility.yul\":3302:3522   */\n      iszero\n      tag_176\n      jumpi\n        /* \"#utility.yul\":3411:3414   */\n      dup1\n        /* \"#utility.yul\":3440:3477   */\n      tag_177\n        /* \"#utility.yul\":3473:3476   */\n      dup9\n        /* \"#utility.yul\":3461:3471   */\n      dup3\n        /* \"#utility.yul\":3440:3477   */\n      tag_115\n      jump\t// in\n    tag_177:\n        /* \"#utility.yul\":3435:3438   */\n      dup5\n        /* \"#utility.yul\":3428:3478   */\n      mstore\n        /* \"#utility.yul\":3507:3511   */\n      0x20\n        /* \"#utility.yul\":3502:3505   */\n      dup5\n        /* \"#utility.yul\":3498:3512   */\n      add\n        /* \"#utility.yul\":3491:3512   */\n      swap4\n      pop\n        /* \"#utility.yul\":3378:3522   */\n      pop\n        /* \"#utility.yul\":3362:3366   */\n      0x20\n        /* \"#utility.yul\":3357:3360   */\n      dup2\n        /* \"#utility.yul\":3353:3367   */\n      add\n        /* \"#utility.yul\":3346:3367   */\n      swap1\n      pop\n        /* \"#utility.yul\":3302:3522   */\n      jump(tag_174)\n    tag_176:\n        /* \"#utility.yul\":3306:3327   */\n      pop\n        /* \"#utility.yul\":2920:3528   */\n      pop\n      pop\n        /* \"#utility.yul\":2818:3528   */\n      swap4\n      swap3\n      pop\n      pop\n      pop\n      jump\t// out\n        /* \"#utility.yul\":3551:3921   */\n    tag_125:\n        /* \"#utility.yul\":3622:3627   */\n      0x00\n        /* \"#utility.yul\":3671:3674   */\n      dup3\n        /* \"#utility.yul\":3664:3668   */\n      0x1f\n        /* \"#utility.yul\":3656:3662   */\n      dup4\n        /* \"#utility.yul\":3652:3669   */\n      add\n        /* \"#utility.yul\":3648:3675   */\n      slt\n        /* \"#utility.yul\":3638:3760   */\n      tag_179\n      jumpi\n        /* \"#utility.yul\":3679:3758   */\n      tag_180\n      tag_117\n      jump\t// in\n    tag_180:\n        /* \"#utility.yul\":3638:3760   */\n    tag_179:\n        /* \"#utility.yul\":3796:3802   */\n      dup2\n        /* \"#utility.yul\":3783:3803   */\n      calldataload\n        /* \"#utility.yul\":3821:3915   */\n      tag_181\n        /* \"#utility.yul\":3911:3914   */\n      dup5\n        /* \"#utility.yul\":3903:3909   */\n      dup3\n        /* \"#utility.yul\":3896:3900   */\n      0x20\n        /* \"#utility.yul\":3888:3894   */\n      dup7\n        /* \"#utility.yul\":3884:3901   */\n      add\n        /* \"#utility.yul\":3821:3915   */\n      tag_124\n      jump\t// in\n    tag_181:\n        /* \"#utility.yul\":3812:3915   */\n      swap2\n      pop\n        /* \"#utility.yul\":3628:3921   */\n      pop\n        /* \"#utility.yul\":3551:3921   */\n      swap3\n      swap2\n      pop\n      pop\n      jump\t// out\n        /* \"#utility.yul\":3927:4466   */\n    tag_25:\n        /* \"#utility.yul\":4011:4017   */\n      0x00\n        /* \"#utility.yul\":4060:4062   */\n      0x20\n        /* \"#utility.yul\":4048:4057   */\n      dup3\n        /* \"#utility.yul\":4039:4046   */\n      dup5\n        /* \"#utility.yul\":4035:4058   */\n      sub\n        /* \"#utility.yul\":4031:4063   */\n      slt\n        /* \"#utility.yul\":4028:4147   */\n      iszero\n      tag_183\n      jumpi\n        /* \"#utility.yul\":4066:4145   */\n      tag_184\n      tag_111\n      jump\t// in\n    tag_184:\n        /* \"#utility.yul\":4028:4147   */\n    tag_183:\n        /* \"#utility.yul\":4214:4215   */\n      0x00\n        /* \"#utility.yul\":4203:4212   */\n      dup3\n        /* \"#utility.yul\":4199:4216   */\n      add\n        /* \"#utility.yul\":4186:4217   */\n      calldataload\n        /* \"#utility.yul\":4244:4262   */\n      0xffffffffffffffff\n        /* \"#utility.yul\":4236:4242   */\n      dup2\n        /* \"#utility.yul\":4233:4263   */\n      gt\n        /* \"#utility.yul\":4230:4347   */\n      iszero\n      tag_185\n      jumpi\n        /* \"#utility.yul\":4266:4345   */\n      tag_186\n      tag_112\n      jump\t// in\n    tag_186:\n        /* \"#utility.yul\":4230:4347   */\n    tag_185:\n        /* \"#utility.yul\":4371:4449   */\n      tag_187\n        /* \"#utility.yul\":4441:4448   */\n      dup5\n        /* \"#utility.yul\":4432:4438   */\n      dup3\n        /* \"#utility.yul\":4421:4430   */\n      dup6\n        /* \"#utility.yul\":4417:4439   */\n      add\n        /* \"#utility.yul\":4371:4449   */\n      tag_125\n      jump\t// in\n    tag_187:\n        /* \"#utility.yul\":4361:4449   */\n      swap2\n      pop\n        /* \"#utility.yul\":4157:4459   */\n      pop\n        /* \"#utility.yul\":3927:4466   */\n      swap3\n      swap2\n      pop\n      pop\n      jump\t// out\n        /* \"#utility.yul\":4472:4586   */\n    tag_126:\n        /* \"#utility.yul\":4539:4545   */\n      0x00\n        /* \"#utility.yul\":4573:4578   */\n      dup2\n        /* \"#utility.yul\":4567:4579   */\n      mload\n        /* \"#utility.yul\":4557:4579   */\n      swap1\n      pop\n        /* \"#utility.yul\":4472:4586   */\n      swap2\n      swap1\n      pop\n      jump\t// out\n        /* \"#utility.yul\":4592:4776   */\n    tag_127:\n        /* \"#utility.yul\":4691:4702   */\n      0x00\n        /* \"#utility.yul\":4725:4731   */\n      dup3\n        /* \"#utility.yul\":4720:4723   */\n      dup3\n        /* \"#utility.yul\":4713:4732   */\n      mstore\n        /* \"#utility.yul\":4765:4769   */\n      0x20\n        /* \"#utility.yul\":4760:4763   */\n      dup3\n        /* \"#utility.yul\":4756:4770   */\n      add\n        /* \"#utility.yul\":4741:4770   */\n      swap1\n      pop\n        /* \"#utility.yul\":4592:4776   */\n      swap3\n      swap2\n      pop\n      pop\n      jump\t// out\n        /* \"#utility.yul\":4782:4914   */\n    tag_128:\n        /* \"#utility.yul\":4849:4853   */\n      0x00\n        /* \"#utility.yul\":4872:4875   */\n      dup2\n        /* \"#utility.yul\":4864:4875   */\n      swap1\n      pop\n        /* \"#utility.yul\":4902:4906   */\n      0x20\n        /* \"#utility.yul\":4897:4900   */\n      dup3\n        /* \"#utility.yul\":4893:4907   */\n      add\n        /* \"#utility.yul\":4885:4907   */\n      swap1\n      pop\n        /* \"#utility.yul\":4782:4914   */\n      swap2\n      swap1\n      pop\n      jump\t// out\n        /* \"#utility.yul\":4920:5028   */\n    tag_129:\n        /* \"#utility.yul\":4997:5021   */\n      tag_192\n        /* \"#utility.yul\":5015:5020   */\n      dup2\n        /* \"#utility.yul\":4997:5021   */\n      tag_113\n      jump\t// in\n    tag_192:\n        /* \"#utility.yul\":4992:4995   */\n      dup3\n        /* \"#utility.yul\":4985:5022   */\n      mstore\n        /* \"#utility.yul\":4920:5028   */\n      pop\n      pop\n      jump\t// out\n        /* \"#utility.yul\":5034:5213   */\n    tag_130:\n        /* \"#utility.yul\":5103:5113   */\n      0x00\n        /* \"#utility.yul\":5124:5170   */\n      tag_194\n        /* \"#utility.yul\":5166:5169   */\n      dup4\n        /* \"#utility.yul\":5158:5164   */\n      dup4\n        /* \"#utility.yul\":5124:5170   */\n      tag_129\n      jump\t// in\n    tag_194:\n        /* \"#utility.yul\":5202:5206   */\n      0x20\n        /* \"#utility.yul\":5197:5200   */\n      dup4\n        /* \"#utility.yul\":5193:5207   */\n      add\n        /* \"#utility.yul\":5179:5207   */\n      swap1\n      pop\n        /* \"#utility.yul\":5034:5213   */\n      swap3\n      swap2\n      pop\n      pop\n      jump\t// out\n        /* \"#utility.yul\":5219:5332   */\n    tag_131:\n        /* \"#utility.yul\":5289:5293   */\n      0x00\n        /* \"#utility.yul\":5321:5325   */\n      0x20\n        /* \"#utility.yul\":5316:5319   */\n      dup3\n        /* \"#utility.yul\":5312:5326   */\n      add\n        /* \"#utility.yul\":5304:5326   */\n      swap1\n      pop\n        /* \"#utility.yul\":5219:5332   */\n      swap2\n      swap1\n      pop\n      jump\t// out\n        /* \"#utility.yul\":5368:6100   */\n    tag_132:\n        /* \"#utility.yul\":5487:5490   */\n      0x00\n        /* \"#utility.yul\":5516:5570   */\n      tag_197\n        /* \"#utility.yul\":5564:5569   */\n      dup3\n        /* \"#utility.yul\":5516:5570   */\n      tag_126\n      jump\t// in\n    tag_197:\n        /* \"#utility.yul\":5586:5672   */\n      tag_198\n        /* \"#utility.yul\":5665:5671   */\n      dup2\n        /* \"#utility.yul\":5660:5663   */\n      dup6\n        /* \"#utility.yul\":5586:5672   */\n      tag_127\n      jump\t// in\n    tag_198:\n        /* \"#utility.yul\":5579:5672   */\n      swap4\n      pop\n        /* \"#utility.yul\":5696:5752   */\n      tag_199\n        /* \"#utility.yul\":5746:5751   */\n      dup4\n        /* \"#utility.yul\":5696:5752   */\n      tag_128\n      jump\t// in\n    tag_199:\n        /* \"#utility.yul\":5775:5782   */\n      dup1\n        /* \"#utility.yul\":5806:5807   */\n      0x00\n        /* \"#utility.yul\":5791:6075   */\n    tag_200:\n        /* \"#utility.yul\":5816:5822   */\n      dup4\n        /* \"#utility.yul\":5813:5814   */\n      dup2\n        /* \"#utility.yul\":5810:5823   */\n      lt\n        /* \"#utility.yul\":5791:6075   */\n      iszero\n      tag_202\n      jumpi\n        /* \"#utility.yul\":5892:5898   */\n      dup2\n        /* \"#utility.yul\":5886:5899   */\n      mload\n        /* \"#utility.yul\":5919:5982   */\n      tag_203\n        /* \"#utility.yul\":5978:5981   */\n      dup9\n        /* \"#utility.yul\":5963:5976   */\n      dup3\n        /* \"#utility.yul\":5919:5982   */\n      tag_130\n      jump\t// in\n    tag_203:\n        /* \"#utility.yul\":5912:5982   */\n      swap8\n      pop\n        /* \"#utility.yul\":6005:6065   */\n      tag_204\n        /* \"#utility.yul\":6058:6064   */\n      dup4\n        /* \"#utility.yul\":6005:6065   */\n      tag_131\n      jump\t// in\n    tag_204:\n        /* \"#utility.yul\":5995:6065   */\n      swap3\n      pop\n        /* \"#utility.yul\":5851:6075   */\n      pop\n        /* \"#utility.yul\":5838:5839   */\n      0x01\n        /* \"#utility.yul\":5835:5836   */\n      dup2\n        /* \"#utility.yul\":5831:5840   */\n      add\n        /* \"#utility.yul\":5826:5840   */\n      swap1\n      pop\n        /* \"#utility.yul\":5791:6075   */\n      jump(tag_200)\n    tag_202:\n        /* \"#utility.yul\":5795:5809   */\n      pop\n        /* \"#utility.yul\":6091:6094   */\n      dup6\n        /* \"#utility.yul\":6084:6094   */\n      swap4\n      pop\n        /* \"#utility.yul\":5492:6100   */\n      pop\n      pop\n      pop\n        /* \"#utility.yul\":5368:6100   */\n      swap3\n      swap2\n      pop\n      pop\n      jump\t// out\n        /* \"#utility.yul\":6106:6479   */\n    tag_28:\n        /* \"#utility.yul\":6249:6253   */\n      0x00\n        /* \"#utility.yul\":6287:6289   */\n      0x20\n        /* \"#utility.yul\":6276:6285   */\n      dup3\n        /* \"#utility.yul\":6272:6290   */\n      add\n        /* \"#utility.yul\":6264:6290   */\n      swap1\n      pop\n        /* \"#utility.yul\":6336:6345   */\n      dup2\n        /* \"#utility.yul\":6330:6334   */\n      dup2\n        /* \"#utility.yul\":6326:6346   */\n      sub\n        /* \"#utility.yul\":6322:6323   */\n      0x00\n        /* \"#utility.yul\":6311:6320   */\n      dup4\n        /* \"#utility.yul\":6307:6324   */\n      add\n        /* \"#utility.yul\":6300:6347   */\n      mstore\n        /* \"#utility.yul\":6364:6472   */\n      tag_206\n        /* \"#utility.yul\":6467:6471   */\n      dup2\n        /* \"#utility.yul\":6458:6464   */\n      dup5\n        /* \"#utility.yul\":6364:6472   */\n      tag_132\n      jump\t// in\n    tag_206:\n        /* \"#utility.yul\":6356:6472   */\n      swap1\n      pop\n        /* \"#utility.yul\":6106:6479   */\n      swap3\n      swap2\n      pop\n      pop\n      jump\t// out\n        /* \"#utility.yul\":6485:6814   */\n    tag_35:\n        /* \"#utility.yul\":6544:6550   */\n      0x00\n        /* \"#utility.yul\":6593:6595   */\n      0x20\n        /* \"#utility.yul\":6581:6590   */\n      dup3\n        /* \"#utility.yul\":6572:6579   */\n      dup5\n        /* \"#utility.yul\":6568:6591   */\n      sub\n        /* \"#utility.yul\":6564:6596   */\n      slt\n        /* \"#utility.yul\":6561:6680   */\n      iszero\n      tag_208\n      jumpi\n        /* \"#utility.yul\":6599:6678   */\n      tag_209\n      tag_111\n      jump\t// in\n    tag_209:\n        /* \"#utility.yul\":6561:6680   */\n    tag_208:\n        /* \"#utility.yul\":6719:6720   */\n      0x00\n        /* \"#utility.yul\":6744:6797   */\n      tag_210\n        /* \"#utility.yul\":6789:6796   */\n      dup5\n        /* \"#utility.yul\":6780:6786   */\n      dup3\n        /* \"#utility.yul\":6769:6778   */\n      dup6\n        /* \"#utility.yul\":6765:6787   */\n      add\n        /* \"#utility.yul\":6744:6797   */\n      tag_115\n      jump\t// in\n    tag_210:\n        /* \"#utility.yul\":6734:6797   */\n      swap2\n      pop\n        /* \"#utility.yul\":6690:6807   */\n      pop\n        /* \"#utility.yul\":6485:6814   */\n      swap3\n      swap2\n      pop\n      pop\n      jump\t// out\n        /* \"#utility.yul\":6820:6910   */\n    tag_133:\n        /* \"#utility.yul\":6854:6861   */\n      0x00\n        /* \"#utility.yul\":6897:6902   */\n      dup2\n        /* \"#utility.yul\":6890:6903   */\n      iszero\n        /* \"#utility.yul\":6883:6904   */\n      iszero\n        /* \"#utility.yul\":6872:6904   */\n      swap1\n      pop\n        /* \"#utility.yul\":6820:6910   */\n      swap2\n      swap1\n      pop\n      jump\t// out\n        /* \"#utility.yul\":6916:7025   */\n    tag_134:\n        /* \"#utility.yul\":6997:7018   */\n      tag_213\n        /* \"#utility.yul\":7012:7017   */\n      dup2\n        /* \"#utility.yul\":6997:7018   */\n      tag_133\n      jump\t// in\n    tag_213:\n        /* \"#utility.yul\":6992:6995   */\n      dup3\n        /* \"#utility.yul\":6985:7019   */\n      mstore\n        /* \"#utility.yul\":6916:7025   */\n      pop\n      pop\n      jump\t// out\n        /* \"#utility.yul\":7031:7241   */\n    tag_38:\n        /* \"#utility.yul\":7118:7122   */\n      0x00\n        /* \"#utility.yul\":7156:7158   */\n      0x20\n        /* \"#utility.yul\":7145:7154   */\n      dup3\n        /* \"#utility.yul\":7141:7159   */\n      add\n        /* \"#utility.yul\":7133:7159   */\n      swap1\n      pop\n        /* \"#utility.yul\":7169:7234   */\n      tag_215\n        /* \"#utility.yul\":7231:7232   */\n      0x00\n        /* \"#utility.yul\":7220:7229   */\n      dup4\n        /* \"#utility.yul\":7216:7233   */\n      add\n        /* \"#utility.yul\":7207:7213   */\n      dup5\n        /* \"#utility.yul\":7169:7234   */\n      tag_134\n      jump\t// in\n    tag_215:\n        /* \"#utility.yul\":7031:7241   */\n      swap3\n      swap2\n      pop\n      pop\n      jump\t// out\n        /* \"#utility.yul\":7247:7427   */\n    tag_135:\n        /* \"#utility.yul\":7295:7372   */\n      0x4e487b7100000000000000000000000000000000000000000000000000000000\n        /* \"#utility.yul\":7292:7293   */\n      0x00\n        /* \"#utility.yul\":7285:7373   */\n      mstore\n        /* \"#utility.yul\":7392:7396   */\n      0x11\n        /* \"#utility.yul\":7389:7390   */\n      0x04\n        /* \"#utility.yul\":7382:7397   */\n      mstore\n        /* \"#utility.yul\":7416:7420   */\n      0x24\n        /* \"#utility.yul\":7413:7414   */\n      0x00\n        /* \"#utility.yul\":7406:7421   */\n      revert\n        /* \"#utility.yul\":7433:7624   */\n    tag_50:\n        /* \"#utility.yul\":7473:7476   */\n      0x00\n        /* \"#utility.yul\":7492:7512   */\n      tag_218\n        /* \"#utility.yul\":7510:7511   */\n      dup3\n        /* \"#utility.yul\":7492:7512   */\n      tag_113\n      jump\t// in\n    tag_218:\n        /* \"#utility.yul\":7487:7512   */\n      swap2\n      pop\n        /* \"#utility.yul\":7526:7546   */\n      tag_219\n        /* \"#utility.yul\":7544:7545   */\n      dup4\n        /* \"#utility.yul\":7526:7546   */\n      tag_113\n      jump\t// in\n    tag_219:\n        /* \"#utility.yul\":7521:7546   */\n      swap3\n      pop\n        /* \"#utility.yul\":7569:7570   */\n      dup3\n        /* \"#utility.yul\":7566:7567   */\n      dup3\n        /* \"#utility.yul\":7562:7571   */\n      add\n        /* \"#utility.yul\":7555:7571   */\n      swap1\n      pop\n        /* \"#utility.yul\":7590:7593   */\n      dup1\n        /* \"#utility.yul\":7587:7588   */\n      dup3\n        /* \"#utility.yul\":7584:7594   */\n      gt\n        /* \"#utility.yul\":7581:7617   */\n      iszero\n      tag_220\n      jumpi\n        /* \"#utility.yul\":7597:7615   */\n      tag_221\n      tag_135\n      jump\t// in\n    tag_221:\n        /* \"#utility.yul\":7581:7617   */\n    tag_220:\n        /* \"#utility.yul\":7433:7624   */\n      swap3\n      swap2\n      pop\n      pop\n      jump\t// out\n        /* \"#utility.yul\":7630:7863   */\n    tag_52:\n        /* \"#utility.yul\":7669:7672   */\n      0x00\n        /* \"#utility.yul\":7692:7716   */\n      tag_223\n        /* \"#utility.yul\":7710:7715   */\n      dup3\n        /* \"#utility.yul\":7692:7716   */\n      tag_113\n      jump\t// in\n    tag_223:\n        /* \"#utility.yul\":7683:7716   */\n      swap2\n      pop\n        /* \"#utility.yul\":7738:7804   */\n      0xffffffffffffffffffffffffffffffffffffffffffffffffffffffffffffffff\n        /* \"#utility.yul\":7731:7736   */\n      dup3\n        /* \"#utility.yul\":7728:7805   */\n      sub\n        /* \"#utility.yul\":7725:7828   */\n      tag_224\n      jumpi\n        /* \"#utility.yul\":7808:7826   */\n      tag_225\n      tag_135\n      jump\t// in\n    tag_225:\n        /* \"#utility.yul\":7725:7828   */\n    tag_224:\n        /* \"#utility.yul\":7855:7856   */\n      0x01\n        /* \"#utility.yul\":7848:7853   */\n      dup3\n        /* \"#utility.yul\":7844:7857   */\n      add\n        /* \"#utility.yul\":7837:7857   */\n      swap1\n      pop\n        /* \"#utility.yul\":7630:7863   */\n      swap2\n      swap1\n      pop\n      jump\t// out\n        /* \"#utility.yul\":7869:8049   */\n    tag_64:\n        /* \"#utility.yul\":7917:7994   */\n      0x4e487b7100000000000000000000000000000000000000000000000000000000\n        /* \"#utility.yul\":7914:7915   */\n      0x00\n        /* \"#utility.yul\":7907:7995   */\n      mstore\n        /* \"#utility.yul\":8014:8018   */\n      0x32\n        /* \"#utility.yul\":8011:8012   */\n      0x04\n        /* \"#utility.yul\":8004:8019   */\n      mstore\n        /* \"#utility.yul\":8038:8042   */\n      0x24\n        /* \"#utility.yul\":8035:8036   */\n      0x00\n        /* \"#utility.yul\":8028:8043   */\n      revert\n        /* \"#utility.yul\":8055:8249   */\n    tag_66:\n        /* \"#utility.yul\":8095:8099   */\n      0x00\n        /* \"#utility.yul\":8115:8135   */\n      tag_228\n        /* \"#utility.yul\":8133:8134   */\n      dup3\n        /* \"#utility.yul\":8115:8135   */\n      tag_113\n      jump\t// in\n    tag_228:\n        /* \"#utility.yul\":8110:8135   */\n      swap2\n      pop\n        /* \"#utility.yul\":8149:8169   */\n      tag_229\n        /* \"#utility.yul\":8167:8168   */\n      dup4\n        /* \"#utility.yul\":8149:8169   */\n      tag_113\n      jump\t// in\n    tag_229:\n        /* \"#utility.yul\":8144:8169   */\n      swap3\n      pop\n        /* \"#utility.yul\":8193:8194   */\n      dup3\n        /* \"#utility.yul\":8190:8191   */\n      dup3\n        /* \"#utility.yul\":8186:8195   */\n      sub\n        /* \"#utility.yul\":8178:8195   */\n      swap1\n      pop\n        /* \"#utility.yul\":8217:8218   */\n      dup2\n        /* \"#utility.yul\":8211:8215   */\n      dup2\n        /* \"#utility.yul\":8208:8219   */\n      gt\n        /* \"#utility.yul\":8205:8242   */\n      iszero\n      tag_230\n      jumpi\n        /* \"#utility.yul\":8222:8240   */\n      tag_231\n      tag_135\n      jump\t// in\n    tag_231:\n        /* \"#utility.yul\":8205:8242   */\n    tag_230:\n        /* \"#utility.yul\":8055:8249   */\n      swap3\n      swap2\n      pop\n      pop\n      jump\t// out\n        /* \"#utility.yul\":8255:8426   */\n    tag_78:\n        /* \"#utility.yul\":8294:8297   */\n      0x00\n        /* \"#utility.yul\":8317:8341   */\n      tag_233\n        /* \"#utility.yul\":8335:8340   */\n      dup3\n        /* \"#utility.yul\":8317:8341   */\n      tag_113\n      jump\t// in\n    tag_233:\n        /* \"#utility.yul\":8308:8341   */\n      swap2\n      pop\n        /* \"#utility.yul\":8363:8367   */\n      0x00\n        /* \"#utility.yul\":8356:8361   */\n      dup3\n        /* \"#utility.yul\":8353:8368   */\n      sub\n        /* \"#utility.yul\":8350:8391   */\n      tag_234\n      jumpi\n        /* \"#utility.yul\":8371:8389   */\n      tag_235\n      tag_135\n      jump\t// in\n    tag_235:\n        /* \"#utility.yul\":8350:8391   */\n    tag_234:\n        /* \"#utility.yul\":8418:8419   */\n      0x01\n        /* \"#utility.yul\":8411:8416   */\n      dup3\n        /* \"#utility.yul\":8407:8420   */\n      sub\n        /* \"#utility.yul\":8400:8420   */\n      swap1\n      pop\n        /* \"#utility.yul\":8255:8426   */\n      swap2\n      swap1\n      pop\n      jump\t// out\n\n    auxdata: 0xa2646970667358221220ea595b9241d5a77d70b8bb4b4cf535f13d7bf16a98c09c05bb5dc8e4db37c22964736f6c634300081a0033\n}\n",
				"bytecode": {
					"linkReferences": {},
					"object": "6080604052348015600e575f80fd5b5061094b8061001c5f395ff3fe608060405234801561000f575f80fd5b506004361061007b575f3560e01c80636188a6c0116100595780636188a6c0146100eb5780636297206f1461011b5780637141fb001461014b578063b0cfa9fc1461017b5761007b565b8063287663201461007f5780632bbacaaa146100af5780635d14639d146100cd575b5f80fd5b610099600480360381019061009491906104b5565b610199565b6040516100a69190610502565b60405180910390f35b6100b76101b1565b6040516100c49190610502565b60405180910390f35b6100d56101e2565b6040516100e29190610502565b60405180910390f35b6101056004803603810190610100919061066b565b610219565b6040516101129190610769565b60405180910390f35b6101356004803603810190610130919061066b565b610324565b6040516101429190610769565b60405180910390f35b61016560048036038101906101609190610789565b610424565b60405161017291906107ce565b60405180910390f35b61018361043e565b6040516101909190610502565b60405180910390f35b5f8183116101a757816101a9565b825b905092915050565b5f805f90505f5b80826101c49190610814565b9150806101d090610847565b9050600a81106101b857819250505090565b5f805f90505f5b600a8110156102115780826101fe9190610814565b91508061020a90610847565b90506101e9565b819250505090565b60605f600190505b825181101561031b575f83828151811061023e5761023d61088e565b5b602002602001015190505f60018361025691906108bb565b90505b5f811015801561028257508481815181106102775761027661088e565b5b602002602001015182105b156102e05784818151811061029a5761029961088e565b5b6020026020010151856001836102b09190610814565b815181106102c1576102c061088e565b5b60200260200101818152505080806102d8906108ee565b915050610259565b81856001836102ef9190610814565b81518110610300576102ff61088e565b5b60200260200101818152505050508080600101915050610221565b50819050919050565b60605f600190505b825181101561041b575f8382815181106103495761034861088e565b5b602002602001015190505f8290505b6001811015801561038e57508460018261037291906108bb565b815181106103835761038261088e565b5b602002602001015182105b156103ec57846001826103a191906108bb565b815181106103b2576103b161088e565b5b60200260200101518582815181106103cd576103cc61088e565b5b60200260200101818152505080806103e4906108ee565b915050610358565b81858281518110610400576103ff61088e565b5b6020026020010181815250505050808060010191505061032c565b50819050919050565b5f8082036104355760019050610439565b5f90505b919050565b5f805f90505f5b600a81101561046957808261045a9190610814565b91508080600101915050610445565b508091505090565b5f604051905090565b5f80fd5b5f80fd5b5f819050919050565b61049481610482565b811461049e575f80fd5b50565b5f813590506104af8161048b565b92915050565b5f80604083850312156104cb576104ca61047a565b5b5f6104d8858286016104a1565b92505060206104e9858286016104a1565b9150509250929050565b6104fc81610482565b82525050565b5f6020820190506105155f8301846104f3565b92915050565b5f80fd5b5f601f19601f8301169050919050565b7f4e487b71000000000000000000000000000000000000000000000000000000005f52604160045260245ffd5b6105658261051f565b810181811067ffffffffffffffff821117156105845761058361052f565b5b80604052505050565b5f610596610471565b90506105a2828261055c565b919050565b5f67ffffffffffffffff8211156105c1576105c061052f565b5b602082029050602081019050919050565b5f80fd5b5f6105e86105e3846105a7565b61058d565b9050808382526020820190506020840283018581111561060b5761060a6105d2565b5b835b81811015610634578061062088826104a1565b84526020840193505060208101905061060d565b5050509392505050565b5f82601f8301126106525761065161051b565b5b81356106628482602086016105d6565b91505092915050565b5f602082840312156106805761067f61047a565b5b5f82013567ffffffffffffffff81111561069d5761069c61047e565b5b6106a98482850161063e565b91505092915050565b5f81519050919050565b5f82825260208201905092915050565b5f819050602082019050919050565b6106e481610482565b82525050565b5f6106f583836106db565b60208301905092915050565b5f602082019050919050565b5f610717826106b2565b61072181856106bc565b935061072c836106cc565b805f5b8381101561075c57815161074388826106ea565b975061074e83610701565b92505060018101905061072f565b5085935050505092915050565b5f6020820190508181035f830152610781818461070d565b905092915050565b5f6020828403121561079e5761079d61047a565b5b5f6107ab848285016104a1565b91505092915050565b5f8115159050919050565b6107c8816107b4565b82525050565b5f6020820190506107e15f8301846107bf565b92915050565b7f4e487b71000000000000000000000000000000000000000000000000000000005f52601160045260245ffd5b5f61081e82610482565b915061082983610482565b9250828201905080821115610841576108406107e7565b5b92915050565b5f61085182610482565b91507fffffffffffffffffffffffffffffffffffffffffffffffffffffffffffffffff8203610883576108826107e7565b5b600182019050919050565b7f4e487b71000000000000000000000000000000000000000000000000000000005f52603260045260245ffd5b5f6108c582610482565b91506108d083610482565b92508282039050818111156108e8576108e76107e7565b5b92915050565b5f6108f882610482565b91505f820361090a576109096107e7565b5b60018203905091905056fea2646970667358221220ea595b9241d5a77d70b8bb4b4cf535f13d7bf16a98c09c05bb5dc8e4db37c22964736f6c634300081a0033",
					"opcodes": "PUSH1 0x80 PUSH1 0x40 MSTORE CALLVALUE DUP1 ISZERO PUSH1 0xE JUMPI PUSH0 DUP1 REVERT JUMPDEST POP PUSH2 0x94B DUP1 PUSH2 0x1C PUSH0 CODECOPY PUSH0 RETURN INVALID PUSH1 0x80 PUSH1 0x40 MSTORE CALLVALUE DUP1 ISZERO PUSH2 0xF JUMPI PUSH0 DUP1 REVERT JUMPDEST POP PUSH1 0x4 CALLDATASIZE LT PUSH2 0x7B JUMPI PUSH0 CALLDATALOAD PUSH1 0xE0 SHR DUP1 PUSH4 0x6188A6C0 GT PUSH2 0x59 JUMPI DUP1 PUSH4 0x6188A6C0 EQ PUSH2 0xEB JUMPI DUP1 PUSH4 0x6297206F EQ PUSH2 0x11B JUMPI DUP1 PUSH4 0x7141FB00 EQ PUSH2 0x14B JUMPI DUP1 PUSH4 0xB0CFA9FC EQ PUSH2 0x17B JUMPI PUSH2 0x7B JUMP JUMPDEST DUP1 PUSH4 0x28766320 EQ PUSH2 0x7F JUMPI DUP1 PUSH4 0x2BBACAAA EQ PUSH2 0xAF JUMPI DUP1 PUSH4 0x5D14639D EQ PUSH2 0xCD JUMPI JUMPDEST PUSH0 DUP1 REVERT JUMPDEST PUSH2 0x99 PUSH1 0x4 DUP1 CALLDATASIZE SUB DUP2 ADD SWAP1 PUSH2 0x94 SWAP2 SWAP1 PUSH2 0x4B5 JUMP JUMPDEST PUSH2 0x199 JUMP JUMPDEST PUSH1 0x40 MLOAD PUSH2 0xA6 SWAP2 SWAP1 PUSH2 0x502 JUMP JUMPDEST PUSH1 0x40 MLOAD DUP1 SWAP2 SUB SWAP1 RETURN JUMPDEST PUSH2 0xB7 PUSH2 0x1B1 JUMP JUMPDEST PUSH1 0x40 MLOAD PUSH2 0xC4 SWAP2 SWAP1 PUSH2 0x502 JUMP JUMPDEST PUSH1 0x40 MLOAD DUP1 SWAP2 SUB SWAP1 RETURN JUMPDEST PUSH2 0xD5 PUSH2 0x1E2 JUMP JUMPDEST PUSH1 0x40 MLOAD PUSH2 0xE2 SWAP2 SWAP1 PUSH2 0x502 JUMP JUMPDEST PUSH1 0x40 MLOAD DUP1 SWAP2 SUB SWAP1 RETURN JUMPDEST PUSH2 0x105 PUSH1 0x4 DUP1 CALLDATASIZE SUB DUP2 ADD SWAP1 PUSH2 0x100 SWAP2 SWAP1 PUSH2 0x66B JUMP JUMPDEST PUSH2 0x219 JUMP JUMPDEST PUSH1 0x40 MLOAD PUSH2 0x112 SWAP2 SWAP1 PUSH2 0x769 JUMP JUMPDEST PUSH1 0x40 MLOAD DUP1 SWAP2 SUB SWAP1 RETURN JUMPDEST PUSH2 0x135 PUSH1 0x4 DUP1 CALLDATASIZE SUB DUP2 ADD SWAP1 PUSH2 0x130 SWAP2 SWAP1 PUSH2 0x66B JUMP JUMPDEST PUSH2 0x324 JUMP JUMPDEST PUSH1 0x40 MLOAD PUSH2 0x142 SWAP2 SWAP1 PUSH2 0x769 JUMP JUMPDEST PUSH1 0x40 MLOAD DUP1 SWAP2 SUB SWAP1 RETURN JUMPDEST PUSH2 0x165 PUSH1 0x4 DUP1 CALLDATASIZE SUB DUP2 ADD SWAP1 PUSH2 0x160 SWAP2 SWAP1 PUSH2 0x789 JUMP JUMPDEST PUSH2 0x424 JUMP JUMPDEST PUSH1 0x40 MLOAD PUSH2 0x172 SWAP2 SWAP1 PUSH2 0x7CE JUMP JUMPDEST PUSH1 0x40 MLOAD DUP1 SWAP2 SUB SWAP1 RETURN JUMPDEST PUSH2 0x183 PUSH2 0x43E JUMP JUMPDEST PUSH1 0x40 MLOAD PUSH2 0x190 SWAP2 SWAP1 PUSH2 0x502 JUMP JUMPDEST PUSH1 0x40 MLOAD DUP1 SWAP2 SUB SWAP1 RETURN JUMPDEST PUSH0 DUP2 DUP4 GT PUSH2 0x1A7 JUMPI DUP2 PUSH2 0x1A9 JUMP JUMPDEST DUP3 JUMPDEST SWAP1 POP SWAP3 SWAP2 POP POP JUMP JUMPDEST PUSH0 DUP1 PUSH0 SWAP1 POP PUSH0 JUMPDEST DUP1 DUP3 PUSH2 0x1C4 SWAP2 SWAP1 PUSH2 0x814 JUMP JUMPDEST SWAP2 POP DUP1 PUSH2 0x1D0 SWAP1 PUSH2 0x847 JUMP JUMPDEST SWAP1 POP PUSH1 0xA DUP2 LT PUSH2 0x1B8 JUMPI DUP2 SWAP3 POP POP POP SWAP1 JUMP JUMPDEST PUSH0 DUP1 PUSH0 SWAP1 POP PUSH0 JUMPDEST PUSH1 0xA DUP2 LT ISZERO PUSH2 0x211 JUMPI DUP1 DUP3 PUSH2 0x1FE SWAP2 SWAP1 PUSH2 0x814 JUMP JUMPDEST SWAP2 POP DUP1 PUSH2 0x20A SWAP1 PUSH2 0x847 JUMP JUMPDEST SWAP1 POP PUSH2 0x1E9 JUMP JUMPDEST DUP2 SWAP3 POP POP POP SWAP1 JUMP JUMPDEST PUSH1 0x60 PUSH0 PUSH1 0x1 SWAP1 POP JUMPDEST DUP3 MLOAD DUP2 LT ISZERO PUSH2 0x31B JUMPI PUSH0 DUP4 DUP3 DUP2 MLOAD DUP2 LT PUSH2 0x23E JUMPI PUSH2 0x23D PUSH2 0x88E JUMP JUMPDEST JUMPDEST PUSH1 0x20 MUL PUSH1 0x20 ADD ADD MLOAD SWAP1 POP PUSH0 PUSH1 0x1 DUP4 PUSH2 0x256 SWAP2 SWAP1 PUSH2 0x8BB JUMP JUMPDEST SWAP1 POP JUMPDEST PUSH0 DUP2 LT ISZERO DUP1 ISZERO PUSH2 0x282 JUMPI POP DUP5 DUP2 DUP2 MLOAD DUP2 LT PUSH2 0x277 JUMPI PUSH2 0x276 PUSH2 0x88E JUMP JUMPDEST JUMPDEST PUSH1 0x20 MUL PUSH1 0x20 ADD ADD MLOAD DUP3 LT JUMPDEST ISZERO PUSH2 0x2E0 JUMPI DUP5 DUP2 DUP2 MLOAD DUP2 LT PUSH2 0x29A JUMPI PUSH2 0x299 PUSH2 0x88E JUMP JUMPDEST JUMPDEST PUSH1 0x20 MUL PUSH1 0x20 ADD ADD MLOAD DUP6 PUSH1 0x1 DUP4 PUSH2 0x2B0 SWAP2 SWAP1 PUSH2 0x814 JUMP JUMPDEST DUP2 MLOAD DUP2 LT PUSH2 0x2C1 JUMPI PUSH2 0x2C0 PUSH2 0x88E JUMP JUMPDEST JUMPDEST PUSH1 0x20 MUL PUSH1 0x20 ADD ADD DUP2 DUP2 MSTORE POP POP DUP1 DUP1 PUSH2 0x2D8 SWAP1 PUSH2 0x8EE JUMP JUMPDEST SWAP2 POP POP PUSH2 0x259 JUMP JUMPDEST DUP2 DUP6 PUSH1 0x1 DUP4 PUSH2 0x2EF SWAP2 SWAP1 PUSH2 0x814 JUMP JUMPDEST DUP2 MLOAD DUP2 LT PUSH2 0x300 JUMPI PUSH2 0x2FF PUSH2 0x88E JUMP JUMPDEST JUMPDEST PUSH1 0x20 MUL PUSH1 0x20 ADD ADD DUP2 DUP2 MSTORE POP POP POP POP DUP1 DUP1 PUSH1 0x1 ADD SWAP2 POP POP PUSH2 0x221 JUMP JUMPDEST POP DUP2 SWAP1 POP SWAP2 SWAP1 POP JUMP JUMPDEST PUSH1 0x60 PUSH0 PUSH1 0x1 SWAP1 POP JUMPDEST DUP3 MLOAD DUP2 LT ISZERO PUSH2 0x41B JUMPI PUSH0 DUP4 DUP3 DUP2 MLOAD DUP2 LT PUSH2 0x349 JUMPI PUSH2 0x348 PUSH2 0x88E JUMP JUMPDEST JUMPDEST PUSH1 0x20 MUL PUSH1 0x20 ADD ADD MLOAD SWAP1 POP PUSH0 DUP3 SWAP1 POP JUMPDEST PUSH1 0x1 DUP2 LT ISZERO DUP1 ISZERO PUSH2 0x38E JUMPI POP DUP5 PUSH1 0x1 DUP3 PUSH2 0x372 SWAP2 SWAP1 PUSH2 0x8BB JUMP JUMPDEST DUP2 MLOAD DUP2 LT PUSH2 0x383 JUMPI PUSH2 0x382 PUSH2 0x88E JUMP JUMPDEST JUMPDEST PUSH1 0x20 MUL PUSH1 0x20 ADD ADD MLOAD DUP3 LT JUMPDEST ISZERO PUSH2 0x3EC JUMPI DUP5 PUSH1 0x1 DUP3 PUSH2 0x3A1 SWAP2 SWAP1 PUSH2 0x8BB JUMP JUMPDEST DUP2 MLOAD DUP2 LT PUSH2 0x3B2 JUMPI PUSH2 0x3B1 PUSH2 0x88E JUMP JUMPDEST JUMPDEST PUSH1 0x20 MUL PUSH1 0x20 ADD ADD MLOAD DUP6 DUP3 DUP2 MLOAD DUP2 LT PUSH2 0x3CD JUMPI PUSH2 0x3CC PUSH2 0x88E JUMP JUMPDEST JUMPDEST PUSH1 0x20 MUL PUSH1 0x20 ADD ADD DUP2 DUP2 MSTORE POP POP DUP1 DUP1 PUSH2 0x3E4 SWAP1 PUSH2 0x8EE JUMP JUMPDEST SWAP2 POP POP PUSH2 0x358 JUMP JUMPDEST DUP2 DUP6 DUP3 DUP2 MLOAD DUP2 LT PUSH2 0x400 JUMPI PUSH2 0x3FF PUSH2 0x88E JUMP JUMPDEST JUMPDEST PUSH1 0x20 MUL PUSH1 0x20 ADD ADD DUP2 DUP2 MSTORE POP POP POP POP DUP1 DUP1 PUSH1 0x1 ADD SWAP2 POP POP PUSH2 0x32C JUMP JUMPDEST POP DUP2 SWAP1 POP SWAP2 SWAP1 POP JUMP JUMPDEST PUSH0 DUP1 DUP3 SUB PUSH2 0x435 JUMPI PUSH1 0x1 SWAP1 POP PUSH2 0x439 JUMP JUMPDEST PUSH0 SWAP1 POP JUMPDEST SWAP2 SWAP1 POP JUMP JUMPDEST PUSH0 DUP1 PUSH0 SWAP1 POP PUSH0 JUMPDEST PUSH1 0xA DUP2 LT ISZERO PUSH2 0x469 JUMPI DUP1 DUP3 PUSH2 0x45A SWAP2 SWAP1 PUSH2 0x814 JUMP JUMPDEST SWAP2 POP DUP1 DUP1 PUSH1 0x1 ADD SWAP2 POP POP PUSH2 0x445 JUMP JUMPDEST POP DUP1 SWAP2 POP POP SWAP1 JUMP JUMPDEST PUSH0 PUSH1 0x40 MLOAD SWAP1 POP SWAP1 JUMP JUMPDEST PUSH0 DUP1 REVERT JUMPDEST PUSH0 DUP1 REVERT JUMPDEST PUSH0 DUP2 SWAP1 POP SWAP2 SWAP1 POP JUMP JUMPDEST PUSH2 0x494 DUP2 PUSH2 0x482 JUMP JUMPDEST DUP2 EQ PUSH2 0x49E JUMPI PUSH0 DUP1 REVERT JUMPDEST POP JUMP JUMPDEST PUSH0 DUP2 CALLDATALOAD SWAP1 POP PUSH2 0x4AF DUP2 PUSH2 0x48B JUMP JUMPDEST SWAP3 SWAP2 POP POP JUMP JUMPDEST PUSH0 DUP1 PUSH1 0x40 DUP4 DUP6 SUB SLT ISZERO PUSH2 0x4CB JUMPI PUSH2 0x4CA PUSH2 0x47A JUMP JUMPDEST JUMPDEST PUSH0 PUSH2 0x4D8 DUP6 DUP3 DUP7 ADD PUSH2 0x4A1 JUMP JUMPDEST SWAP3 POP POP PUSH1 0x20 PUSH2 0x4E9 DUP6 DUP3 DUP7 ADD PUSH2 0x4A1 JUMP JUMPDEST SWAP2 POP POP SWAP3 POP SWAP3 SWAP1 POP JUMP JUMPDEST PUSH2 0x4FC DUP2 PUSH2 0x482 JUMP JUMPDEST DUP3 MSTORE POP POP JUMP JUMPDEST PUSH0 PUSH1 0x20 DUP3 ADD SWAP1 POP PUSH2 0x515 PUSH0 DUP4 ADD DUP5 PUSH2 0x4F3 JUMP JUMPDEST SWAP3 SWAP2 POP POP JUMP JUMPDEST PUSH0 DUP1 REVERT JUMPDEST PUSH0 PUSH1 0x1F NOT PUSH1 0x1F DUP4 ADD AND SWAP1 POP SWAP2 SWAP1 POP JUMP JUMPDEST PUSH32 0x4E487B7100000000000000000000000000000000000000000000000000000000 PUSH0 MSTORE PUSH1 0x41 PUSH1 0x4 MSTORE PUSH1 0x24 PUSH0 REVERT JUMPDEST PUSH2 0x565 DUP3 PUSH2 0x51F JUMP JUMPDEST DUP2 ADD DUP2 DUP2 LT PUSH8 0xFFFFFFFFFFFFFFFF DUP3 GT OR ISZERO PUSH2 0x584 JUMPI PUSH2 0x583 PUSH2 0x52F JUMP JUMPDEST JUMPDEST DUP1 PUSH1 0x40 MSTORE POP POP POP JUMP JUMPDEST PUSH0 PUSH2 0x596 PUSH2 0x471 JUMP JUMPDEST SWAP1 POP PUSH2 0x5A2 DUP3 DUP3 PUSH2 0x55C JUMP JUMPDEST SWAP2 SWAP1 POP JUMP JUMPDEST PUSH0 PUSH8 0xFFFFFFFFFFFFFFFF DUP3 GT ISZERO PUSH2 0x5C1 JUMPI PUSH2 0x5C0 PUSH2 0x52F JUMP JUMPDEST JUMPDEST PUSH1 0x20 DUP3 MUL SWAP1 POP PUSH1 0x20 DUP2 ADD SWAP1 POP SWAP2 SWAP1 POP JUMP JUMPDEST PUSH0 DUP1 REVERT JUMPDEST PUSH0 PUSH2 0x5E8 PUSH2 0x5E3 DUP5 PUSH2 0x5A7 JUMP JUMPDEST PUSH2 0x58D JUMP JUMPDEST SWAP1 POP DUP1 DUP4 DUP3 MSTORE PUSH1 0x20 DUP3 ADD SWAP1 POP PUSH1 0x20 DUP5 MUL DUP4 ADD DUP6 DUP2 GT ISZERO PUSH2 0x60B JUMPI PUSH2 0x60A PUSH2 0x5D2 JUMP JUMPDEST JUMPDEST DUP4 JUMPDEST DUP2 DUP2 LT ISZERO PUSH2 0x634 JUMPI DUP1 PUSH2 0x620 DUP9 DUP3 PUSH2 0x4A1 JUMP JUMPDEST DUP5 MSTORE PUSH1 0x20 DUP5 ADD SWAP4 POP POP PUSH1 0x20 DUP2 ADD SWAP1 POP PUSH2 0x60D JUMP JUMPDEST POP POP POP SWAP4 SWAP3 POP POP POP JUMP JUMPDEST PUSH0 DUP3 PUSH1 0x1F DUP4 ADD SLT PUSH2 0x652 JUMPI PUSH2 0x651 PUSH2 0x51B JUMP JUMPDEST JUMPDEST DUP2 CALLDATALOAD PUSH2 0x662 DUP5 DUP3 PUSH1 0x20 DUP7 ADD PUSH2 0x5D6 JUMP JUMPDEST SWAP2 POP POP SWAP3 SWAP2 POP POP JUMP JUMPDEST PUSH0 PUSH1 0x20 DUP3 DUP5 SUB SLT ISZERO PUSH2 0x680 JUMPI PUSH2 0x67F PUSH2 0x47A JUMP JUMPDEST JUMPDEST PUSH0 DUP3 ADD CALLDATALOAD PUSH8 0xFFFFFFFFFFFFFFFF DUP2 GT ISZERO PUSH2 0x69D JUMPI PUSH2 0x69C PUSH2 0x47E JUMP JUMPDEST JUMPDEST PUSH2 0x6A9 DUP5 DUP3 DUP6 ADD PUSH2 0x63E JUMP JUMPDEST SWAP2 POP POP SWAP3 SWAP2 POP POP JUMP JUMPDEST PUSH0 DUP2 MLOAD SWAP1 POP SWAP2 SWAP1 POP JUMP JUMPDEST PUSH0 DUP3 DUP3 MSTORE PUSH1 0x20 DUP3 ADD SWAP1 POP SWAP3 SWAP2 POP POP JUMP JUMPDEST PUSH0 DUP2 SWAP1 POP PUSH1 0x20 DUP3 ADD SWAP1 POP SWAP2 SWAP1 POP JUMP JUMPDEST PUSH2 0x6E4 DUP2 PUSH2 0x482 JUMP JUMPDEST DUP3 MSTORE POP POP JUMP JUMPDEST PUSH0 PUSH2 0x6F5 DUP4 DUP4 PUSH2 0x6DB JUMP JUMPDEST PUSH1 0x20 DUP4 ADD SWAP1 POP SWAP3 SWAP2 POP POP JUMP JUMPDEST PUSH0 PUSH1 0x20 DUP3 ADD SWAP1 POP SWAP2 SWAP1 POP JUMP JUMPDEST PUSH0 PUSH2 0x717 DUP3 PUSH2 0x6B2 JUMP JUMPDEST PUSH2 0x721 DUP2 DUP6 PUSH2 0x6BC JUMP JUMPDEST SWAP4 POP PUSH2 0x72C DUP4 PUSH2 0x6CC JUMP JUMPDEST DUP1 PUSH0 JUMPDEST DUP4 DUP2 LT ISZERO PUSH2 0x75C JUMPI DUP2 MLOAD PUSH2 0x743 DUP9 DUP3 PUSH2 0x6EA JUMP JUMPDEST SWAP8 POP PUSH2 0x74E DUP4 PUSH2 0x701 JUMP JUMPDEST SWAP3 POP POP PUSH1 0x1 DUP2 ADD SWAP1 POP PUSH2 0x72F JUMP JUMPDEST POP DUP6 SWAP4 POP POP POP POP SWAP3 SWAP2 POP POP JUMP JUMPDEST PUSH0 PUSH1 0x20 DUP3 ADD SWAP1 POP DUP2 DUP2 SUB PUSH0 DUP4 ADD MSTORE PUSH2 0x781 DUP2 DUP5 PUSH2 0x70D JUMP JUMPDEST SWAP1 POP SWAP3 SWAP2 POP POP JUMP JUMPDEST PUSH0 PUSH1 0x20 DUP3 DUP5 SUB SLT ISZERO PUSH2 0x79E JUMPI PUSH2 0x79D PUSH2 0x47A JUMP JUMPDEST JUMPDEST PUSH0 PUSH2 0x7AB DUP5 DUP3 DUP6 ADD PUSH2 0x4A1 JUMP JUMPDEST SWAP2 POP POP SWAP3 SWAP2 POP POP JUMP JUMPDEST PUSH0 DUP2 ISZERO ISZERO SWAP1 POP SWAP2 SWAP1 POP JUMP JUMPDEST PUSH2 0x7C8 DUP2 PUSH2 0x7B4 JUMP JUMPDEST DUP3 MSTORE POP POP JUMP JUMPDEST PUSH0 PUSH1 0x20 DUP3 ADD SWAP1 POP PUSH2 0x7E1 PUSH0 DUP4 ADD DUP5 PUSH2 0x7BF JUMP JUMPDEST SWAP3 SWAP2 POP POP JUMP JUMPDEST PUSH32 0x4E487B7100000000000000000000000000000000000000000000000000000000 PUSH0 MSTORE PUSH1 0x11 PUSH1 0x4 MSTORE PUSH1 0x24 PUSH0 REVERT JUMPDEST PUSH0 PUSH2 0x81E DUP3 PUSH2 0x482 JUMP JUMPDEST SWAP2 POP PUSH2 0x829 DUP4 PUSH2 0x482 JUMP JUMPDEST SWAP3 POP DUP3 DUP3 ADD SWAP1 POP DUP1 DUP3 GT ISZERO PUSH2 0x841 JUMPI PUSH2 0x840 PUSH2 0x7E7 JUMP JUMPDEST JUMPDEST SWAP3 SWAP2 POP POP JUMP JUMPDEST PUSH0 PUSH2 0x851 DUP3 PUSH2 0x482 JUMP JUMPDEST SWAP2 POP PUSH32 0xFFFFFFFFFFFFFFFFFFFFFFFFFFFFFFFFFFFFFFFFFFFFFFFFFFFFFFFFFFFFFFFF DUP3 SUB PUSH2 0x883 JUMPI PUSH2 0x882 PUSH2 0x7E7 JUMP JUMPDEST JUMPDEST PUSH1 0x1 DUP3 ADD SWAP1 POP SWAP2 SWAP1 POP JUMP JUMPDEST PUSH32 0x4E487B7100000000000000000000000000000000000000000000000000000000 PUSH0 MSTORE PUSH1 0x32 PUSH1 0x4 MSTORE PUSH1 0x24 PUSH0 REVERT JUMPDEST PUSH0 PUSH2 0x8C5 DUP3 PUSH2 0x482 JUMP JUMPDEST SWAP2 POP PUSH2 0x8D0 DUP4 PUSH2 0x482 JUMP JUMPDEST SWAP3 POP DUP3 DUP3 SUB SWAP1 POP DUP2 DUP2 GT ISZERO PUSH2 0x8E8 JUMPI PUSH2 0x8E7 PUSH2 0x7E7 JUMP JUMPDEST JUMPDEST SWAP3 SWAP2 POP POP JUMP JUMPDEST PUSH0 PUSH2 0x8F8 DUP3 PUSH2 0x482 JUMP JUMPDEST SWAP2 POP PUSH0 DUP3 SUB PUSH2 0x90A JUMPI PUSH2 0x909 PUSH2 0x7E7 JUMP JUMPDEST JUMPDEST PUSH1 0x1 DUP3 SUB SWAP1 POP SWAP2 SWAP1 POP JUMP INVALID LOG2 PUSH5 0x6970667358 0x22 SLT KECCAK256 0xEA MSIZE JUMPDEST SWAP3 COINBASE 0xD5 0xA7 PUSH30 0x70B8BB4B4CF535F13D7BF16A98C09C05BB5DC8E4DB37C22964736F6C6343 STOP ADDMOD BYTE STOP CALLER "
				},
				"gasEstimates": {
					"creation": {
						"codeDepositCost": "475800",
						"executionCost": "509",
						"totalCost": "476309"
					},
					"external": {
						"doWhileTest()": "infinite",
						"forLoopTest()": "infinite",
						"ifElseTest(uint256)": "677",
						"insertionSort(uint256[])": "infinite",
						"insertionSortWrong(uint256[])": "infinite",
						"ternaryTest(uint256,uint256)": "infinite",
						"whileTest()": "infinite"
					}
				},
				"methodIdentifiers": {
					"doWhileTest()": "2bbacaaa",
					"forLoopTest()": "b0cfa9fc",
					"ifElseTest(uint256)": "7141fb00",
					"insertionSort(uint256[])": "6297206f",
					"insertionSortWrong(uint256[])": "6188a6c0",
					"ternaryTest(uint256,uint256)": "28766320",
					"whileTest()": "5d14639d"
				}
			},
			"storageLayout": {
				"storage": [],
				"types": null
			},
			"userdoc": {
				"kind": "user",
				"methods": {},
				"version": 1
			}
		}
	}
}