{
	"contracts/ArrayAndStruct.sol": {
		"StructTypes": {
			"abi": [
				{
					"inputs": [],
					"name": "initStudent",
					"outputs": [],
					"stateMutability": "nonpayable",
					"type": "function"
				}
			],
			"devdoc": {
				"kind": "dev",
				"methods": {},
				"version": 1
			},
			"evm": {
				"assembly": "    /* \"contracts/ArrayAndStruct.sol\":58:370  contract StructTypes {... */\n  mstore(0x40, 0x80)\n  callvalue\n  dup1\n  iszero\n  tag_1\n  jumpi\n  0x00\n  dup1\n  revert\ntag_1:\n  pop\n  dataSize(sub_0)\n  dup1\n  dataOffset(sub_0)\n  0x00\n  codecopy\n  0x00\n  return\nstop\n\nsub_0: assembly {\n        /* \"contracts/ArrayAndStruct.sol\":58:370  contract StructTypes {... */\n      mstore(0x40, 0x80)\n      callvalue\n      dup1\n      iszero\n      tag_1\n      jumpi\n      0x00\n      dup1\n      revert\n    tag_1:\n      pop\n      jumpi(tag_2, lt(calldatasize, 0x04))\n      shr(0xe0, calldataload(0x00))\n      dup1\n      0xdd49702c\n      eq\n      tag_3\n      jumpi\n    tag_2:\n      0x00\n      dup1\n      revert\n        /* \"contracts/ArrayAndStruct.sol\":174:368  function initStudent() external{... */\n    tag_3:\n      tag_4\n      tag_5\n      jump\t// in\n    tag_4:\n      stop\n    tag_5:\n        /* \"contracts/ArrayAndStruct.sol\":228:231  100 */\n      0x64\n        /* \"contracts/ArrayAndStruct.sol\":215:222  student */\n      0x00\n        /* \"contracts/ArrayAndStruct.sol\":215:225  student.id */\n      dup1\n      add\n        /* \"contracts/ArrayAndStruct.sol\":215:231  student.id = 100 */\n      dup2\n      swap1\n      sstore\n      pop\n        /* \"contracts/ArrayAndStruct.sol\":257:260  200 */\n      0xc8\n        /* \"contracts/ArrayAndStruct.sol\":241:248  student */\n      0x00\n        /* \"contracts/ArrayAndStruct.sol\":241:254  student.score */\n      0x01\n      add\n        /* \"contracts/ArrayAndStruct.sol\":241:260  student.score = 200 */\n      dup2\n      swap1\n      sstore\n      pop\n        /* \"contracts/ArrayAndStruct.sol\":270:294  Student storage _student */\n      0x00\n        /* \"contracts/ArrayAndStruct.sol\":328:331  300 */\n      0x012c\n        /* \"contracts/ArrayAndStruct.sol\":314:322  _student */\n      dup2\n        /* \"contracts/ArrayAndStruct.sol\":314:325  _student.id */\n      0x00\n      add\n        /* \"contracts/ArrayAndStruct.sol\":314:331  _student.id = 300 */\n      dup2\n      swap1\n      sstore\n      pop\n        /* \"contracts/ArrayAndStruct.sol\":358:361  400 */\n      0x0190\n        /* \"contracts/ArrayAndStruct.sol\":341:349  _student */\n      dup2\n        /* \"contracts/ArrayAndStruct.sol\":341:355  _student.score */\n      0x01\n      add\n        /* \"contracts/ArrayAndStruct.sol\":341:361  _student.score = 400 */\n      dup2\n      swap1\n      sstore\n      pop\n        /* \"contracts/ArrayAndStruct.sol\":205:368  {... */\n      pop\n        /* \"contracts/ArrayAndStruct.sol\":174:368  function initStudent() external{... */\n      jump\t// out\n\n    auxdata: 0xa26469706673582212201a2eafd86cb3904cd1b5c69e0b80b8e23f23a6821ae89690189519b7a0cf3c1264736f6c634300081a0033\n}\n",
				"bytecode": {
					"linkReferences": {},
					"object": "6080604052348015600e575f80fd5b50609480601a5f395ff3fe6080604052348015600e575f80fd5b50600436106026575f3560e01c8063dd49702c14602a575b5f80fd5b60306032565b005b60645f80018190555060c85f600101819055505f61012c815f018190555061019081600101819055505056fea26469706673582212201a2eafd86cb3904cd1b5c69e0b80b8e23f23a6821ae89690189519b7a0cf3c1264736f6c634300081a0033",
					"opcodes": "PUSH1 0x80 PUSH1 0x40 MSTORE CALLVALUE DUP1 ISZERO PUSH1 0xE JUMPI PUSH0 DUP1 REVERT JUMPDEST POP PUSH1 0x94 DUP1 PUSH1 0x1A PUSH0 CODECOPY PUSH0 RETURN INVALID PUSH1 0x80 PUSH1 0x40 MSTORE CALLVALUE DUP1 ISZERO PUSH1 0xE JUMPI PUSH0 DUP1 REVERT JUMPDEST POP PUSH1 0x4 CALLDATASIZE LT PUSH1 0x26 JUMPI PUSH0 CALLDATALOAD PUSH1 0xE0 SHR DUP1 PUSH4 0xDD49702C EQ PUSH1 0x2A JUMPI JUMPDEST PUSH0 DUP1 REVERT JUMPDEST PUSH1 0x30 PUSH1 0x32 JUMP JUMPDEST STOP JUMPDEST PUSH1 0x64 PUSH0 DUP1 ADD DUP2 SWAP1 SSTORE POP PUSH1 0xC8 PUSH0 PUSH1 0x1 ADD DUP2 SWAP1 SSTORE POP PUSH0 PUSH2 0x12C DUP2 PUSH0 ADD DUP2 SWAP1 SSTORE POP PUSH2 0x190 DUP2 PUSH1 0x1 ADD DUP2 SWAP1 SSTORE POP POP JUMP INVALID LOG2 PUSH5 0x6970667358 0x22 SLT KECCAK256 BYTE 0x2E 0xAF 0xD8 PUSH13 0xB3904CD1B5C69E0B80B8E23F23 0xA6 DUP3 BYTE 0xE8 SWAP7 SWAP1 XOR SWAP6 NOT 0xB7 LOG0 0xCF EXTCODECOPY SLT PUSH5 0x736F6C6343 STOP ADDMOD BYTE STOP CALLER "
				},
				"gasEstimates": {
					"creation": {
						"codeDepositCost": "29600",
						"executionCost": "79",
						"totalCost": "29679"
					},
					"external": {
						"initStudent()": "54402"
					}
				},
				"methodIdentifiers": {
					"initStudent()": "dd49702c"
				}
			},
			"storageLayout": {
				"storage": [
					{
						"astId": 9,
						"contract": "contracts/ArrayAndStruct.sol:StructTypes",
						"label": "student",
						"offset": 0,
						"slot": "0",
						"type": "t_struct(Student)6_storage"
					}
				],
				"types": {
					"t_struct(Student)6_storage": {
						"encoding": "inplace",
						"label": "struct StructTypes.Student",
						"members": [
							{
								"astId": 3,
								"contract": "contracts/ArrayAndStruct.sol:StructTypes",
								"label": "id",
								"offset": 0,
								"slot": "0",
								"type": "t_uint256"
							},
							{
								"astId": 5,
								"contract": "contracts/ArrayAndStruct.sol:StructTypes",
								"label": "score",
								"offset": 0,
								"slot": "1",
								"type": "t_uint256"
							}
						],
						"numberOfBytes": "64"
					},
					"t_uint256": {
						"encoding": "inplace",
						"label": "uint256",
						"numberOfBytes": "32"
					}
				}
			},
			"userdoc": {
				"kind": "user",
				"methods": {},
				"version": 1
			}
		}
	}
}