{
	"contracts/DataStorage.sol": {
		"Variables": {
			"abi": [
				{
					"inputs": [],
					"name": "bar",
					"outputs": [
						{
							"internalType": "uint256",
							"name": "",
							"type": "uint256"
						}
					],
					"stateMutability": "pure",
					"type": "function"
				},
				{
					"inputs": [],
					"name": "daysUint",
					"outputs": [
						{
							"internalType": "uint256",
							"name": "",
							"type": "uint256"
						}
					],
					"stateMutability": "pure",
					"type": "function"
				},
				{
					"inputs": [],
					"name": "etherUint",
					"outputs": [
						{
							"internalType": "uint256",
							"name": "",
							"type": "uint256"
						}
					],
					"stateMutability": "pure",
					"type": "function"
				},
				{
					"inputs": [],
					"name": "foo",
					"outputs": [],
					"stateMutability": "nonpayable",
					"type": "function"
				},
				{
					"inputs": [],
					"name": "global",
					"outputs": [
						{
							"internalType": "address",
							"name": "",
							"type": "address"
						},
						{
							"internalType": "uint256",
							"name": "",
							"type": "uint256"
						},
						{
							"internalType": "bytes",
							"name": "",
							"type": "bytes"
						}
					],
					"stateMutability": "view",
					"type": "function"
				},
				{
					"inputs": [],
					"name": "gweiUint",
					"outputs": [
						{
							"internalType": "uint256",
							"name": "",
							"type": "uint256"
						}
					],
					"stateMutability": "pure",
					"type": "function"
				},
				{
					"inputs": [],
					"name": "hoursUint",
					"outputs": [
						{
							"internalType": "uint256",
							"name": "",
							"type": "uint256"
						}
					],
					"stateMutability": "pure",
					"type": "function"
				},
				{
					"inputs": [],
					"name": "minutesUint",
					"outputs": [
						{
							"internalType": "uint256",
							"name": "",
							"type": "uint256"
						}
					],
					"stateMutability": "pure",
					"type": "function"
				},
				{
					"inputs": [],
					"name": "secondsUint",
					"outputs": [
						{
							"internalType": "uint256",
							"name": "",
							"type": "uint256"
						}
					],
					"stateMutability": "pure",
					"type": "function"
				},
				{
					"inputs": [],
					"name": "weeksUint",
					"outputs": [
						{
							"internalType": "uint256",
							"name": "",
							"type": "uint256"
						}
					],
					"stateMutability": "pure",
					"type": "function"
				},
				{
					"inputs": [],
					"name": "weiUint",
					"outputs": [
						{
							"internalType": "uint256",
							"name": "",
							"type": "uint256"
						}
					],
					"stateMutability": "pure",
					"type": "function"
				},
				{
					"inputs": [],
					"name": "x",
					"outputs": [
						{
							"internalType": "uint256",
							"name": "",
							"type": "uint256"
						}
					],
					"stateMutability": "view",
					"type": "function"
				},
				{
					"inputs": [],
					"name": "y",
					"outputs": [
						{
							"internalType": "uint256",
							"name": "",
							"type": "uint256"
						}
					],
					"stateMutability": "view",
					"type": "function"
				},
				{
					"inputs": [],
					"name": "z",
					"outputs": [
						{
							"internalType": "string",
							"name": "",
							"type": "string"
						}
					],
					"stateMutability": "view",
					"type": "function"
				}
			],
			"devdoc": {
				"kind": "dev",
				"methods": {},
				"version": 1
			},
			"evm": {
				"assembly": "    /* \"contracts/DataStorage.sol\":520:2435  contract Variables {... */\n  mstore(0x40, 0x80)\n    /* \"contracts/DataStorage.sol\":561:562  1 */\n  0x01\n    /* \"contracts/DataStorage.sol\":545:562  uint public x = 1 */\n  0x00\n  sstore\n    /* \"contracts/DataStorage.sol\":520:2435  contract Variables {... */\n  callvalue\n  dup1\n  iszero\n  tag_1\n  jumpi\n  0x00\n  dup1\n  revert\ntag_1:\n  pop\n  dataSize(sub_0)\n  dup1\n  dataOffset(sub_0)\n  0x00\n  codecopy\n  0x00\n  return\nstop\n\nsub_0: assembly {\n        /* \"contracts/DataStorage.sol\":520:2435  contract Variables {... */\n      mstore(0x40, 0x80)\n      callvalue\n      dup1\n      iszero\n      tag_1\n      jumpi\n      0x00\n      dup1\n      revert\n    tag_1:\n      pop\n      jumpi(tag_2, lt(calldatasize, 0x04))\n      shr(0xe0, calldataload(0x00))\n      dup1\n      0xa05f9906\n      gt\n      tag_17\n      jumpi\n      dup1\n      0xc2985578\n      gt\n      tag_18\n      jumpi\n      dup1\n      0xc2985578\n      eq\n      tag_13\n      jumpi\n      dup1\n      0xc5d7802e\n      eq\n      tag_14\n      jumpi\n      dup1\n      0xcc97e238\n      eq\n      tag_15\n      jumpi\n      dup1\n      0xfebb0f7e\n      eq\n      tag_16\n      jumpi\n      jump(tag_2)\n    tag_18:\n      dup1\n      0xa05f9906\n      eq\n      tag_10\n      jumpi\n      dup1\n      0xa56dfe4a\n      eq\n      tag_11\n      jumpi\n      dup1\n      0xb932d448\n      eq\n      tag_12\n      jumpi\n      jump(tag_2)\n    tag_17:\n      dup1\n      0x2da422fe\n      gt\n      tag_19\n      jumpi\n      dup1\n      0x2da422fe\n      eq\n      tag_6\n      jumpi\n      dup1\n      0x39ab09a7\n      eq\n      tag_7\n      jumpi\n      dup1\n      0x556b90b2\n      eq\n      tag_8\n      jumpi\n      dup1\n      0x6ee41262\n      eq\n      tag_9\n      jumpi\n      jump(tag_2)\n    tag_19:\n      dup1\n      0x0c55699c\n      eq\n      tag_3\n      jumpi\n      dup1\n      0x22d05d60\n      eq\n      tag_4\n      jumpi\n      dup1\n      0x23004238\n      eq\n      tag_5\n      jumpi\n    tag_2:\n      0x00\n      dup1\n      revert\n        /* \"contracts/DataStorage.sol\":545:562  uint public x = 1 */\n    tag_3:\n      tag_20\n      tag_21\n      jump\t// in\n    tag_20:\n      mload(0x40)\n      tag_22\n      swap2\n      swap1\n      tag_23\n      jump\t// in\n    tag_22:\n      mload(0x40)\n      dup1\n      swap2\n      sub\n      swap1\n      return\n        /* \"contracts/DataStorage.sol\":1370:1536  function etherUint() external pure returns (uint) {... */\n    tag_4:\n      tag_24\n      tag_25\n      jump\t// in\n    tag_24:\n      mload(0x40)\n      tag_26\n      swap2\n      swap1\n      tag_23\n      jump\t// in\n    tag_26:\n      mload(0x40)\n      dup1\n      swap2\n      sub\n      swap1\n      return\n        /* \"contracts/DataStorage.sol\":1833:2030  function hoursUint() external  pure  returns (uint){... */\n    tag_5:\n      tag_27\n      tag_28\n      jump\t// in\n    tag_27:\n      mload(0x40)\n      tag_29\n      swap2\n      swap1\n      tag_23\n      jump\t// in\n    tag_29:\n      mload(0x40)\n      dup1\n      swap2\n      sub\n      swap1\n      return\n        /* \"contracts/DataStorage.sol\":1075:1210  function weiUint() external pure returns (uint) {... */\n    tag_6:\n      tag_30\n      tag_31\n      jump\t// in\n    tag_30:\n      mload(0x40)\n      tag_32\n      swap2\n      swap1\n      tag_23\n      jump\t// in\n    tag_32:\n      mload(0x40)\n      dup1\n      swap2\n      sub\n      swap1\n      return\n        /* \"contracts/DataStorage.sol\":1216:1364  function gweiUint() external pure returns (uint) {... */\n    tag_7:\n      tag_33\n      tag_34\n      jump\t// in\n    tag_33:\n      mload(0x40)\n      tag_35\n      swap2\n      swap1\n      tag_23\n      jump\t// in\n    tag_35:\n      mload(0x40)\n      dup1\n      swap2\n      sub\n      swap1\n      return\n        /* \"contracts/DataStorage.sol\":2282:2433  function weeksUint() external pure returns (uint) {... */\n    tag_8:\n      tag_36\n      tag_37\n      jump\t// in\n    tag_36:\n      mload(0x40)\n      tag_38\n      swap2\n      swap1\n      tag_23\n      jump\t// in\n    tag_38:\n      mload(0x40)\n      dup1\n      swap2\n      sub\n      swap1\n      return\n        /* \"contracts/DataStorage.sol\":1542:1660  function secondsUint() external  pure  returns (uint){... */\n    tag_9:\n      tag_39\n      tag_40\n      jump\t// in\n    tag_39:\n      mload(0x40)\n      tag_41\n      swap2\n      swap1\n      tag_23\n      jump\t// in\n    tag_41:\n      mload(0x40)\n      dup1\n      swap2\n      sub\n      swap1\n      return\n        /* \"contracts/DataStorage.sol\":840:1069  function global() external view returns (address, uint, bytes memory){... */\n    tag_10:\n      tag_42\n      tag_43\n      jump\t// in\n    tag_42:\n      mload(0x40)\n      tag_44\n      swap4\n      swap3\n      swap2\n      swap1\n      tag_45\n      jump\t// in\n    tag_44:\n      mload(0x40)\n      dup1\n      swap2\n      sub\n      swap1\n      return\n        /* \"contracts/DataStorage.sol\":568:581  uint public y */\n    tag_11:\n      tag_46\n      tag_47\n      jump\t// in\n    tag_46:\n      mload(0x40)\n      tag_48\n      swap2\n      swap1\n      tag_23\n      jump\t// in\n    tag_48:\n      mload(0x40)\n      dup1\n      swap2\n      sub\n      swap1\n      return\n        /* \"contracts/DataStorage.sol\":1666:1827  function minutesUint() external  pure  returns (uint) {... */\n    tag_12:\n      tag_49\n      tag_50\n      jump\t// in\n    tag_49:\n      mload(0x40)\n      tag_51\n      swap2\n      swap1\n      tag_23\n      jump\t// in\n    tag_51:\n      mload(0x40)\n      dup1\n      swap2\n      sub\n      swap1\n      return\n        /* \"contracts/DataStorage.sol\":609:690  function foo() external {... */\n    tag_13:\n      tag_52\n      tag_53\n      jump\t// in\n    tag_52:\n      stop\n        /* \"contracts/DataStorage.sol\":587:602  string public z */\n    tag_14:\n      tag_54\n      tag_55\n      jump\t// in\n    tag_54:\n      mload(0x40)\n      tag_56\n      swap2\n      swap1\n      tag_57\n      jump\t// in\n    tag_56:\n      mload(0x40)\n      dup1\n      swap2\n      sub\n      swap1\n      return\n        /* \"contracts/DataStorage.sol\":2036:2276  function daysUint() external pure returns (uint){... */\n    tag_15:\n      tag_58\n      tag_59\n      jump\t// in\n    tag_58:\n      mload(0x40)\n      tag_60\n      swap2\n      swap1\n      tag_23\n      jump\t// in\n    tag_60:\n      mload(0x40)\n      dup1\n      swap2\n      sub\n      swap1\n      return\n        /* \"contracts/DataStorage.sol\":696:834  function bar() external pure returns (uint){... */\n    tag_16:\n      tag_61\n      tag_62\n      jump\t// in\n    tag_61:\n      mload(0x40)\n      tag_63\n      swap2\n      swap1\n      tag_23\n      jump\t// in\n    tag_63:\n      mload(0x40)\n      dup1\n      swap2\n      sub\n      swap1\n      return\n        /* \"contracts/DataStorage.sol\":545:562  uint public x = 1 */\n    tag_21:\n      sload(0x00)\n      dup2\n      jump\t// out\n        /* \"contracts/DataStorage.sol\":1370:1536  function etherUint() external pure returns (uint) {... */\n    tag_25:\n        /* \"contracts/DataStorage.sol\":1414:1418  uint */\n      0x00\n        /* \"contracts/DataStorage.sol\":1449:1453  1e18 */\n      0x0de0b6b3a7640000\n        /* \"contracts/DataStorage.sol\":1438:1445  1 ether */\n      dup1\n        /* \"contracts/DataStorage.sol\":1438:1453  1 ether == 1e18 */\n      eq\n        /* \"contracts/DataStorage.sol\":1431:1454  assert(1 ether == 1e18) */\n      tag_65\n      jumpi\n      tag_66\n      tag_67\n      jump\t// in\n    tag_66:\n    tag_65:\n        /* \"contracts/DataStorage.sol\":1483:1503  10000000000000000000 */\n      0x8ac7230489e80000\n        /* \"contracts/DataStorage.sol\":1472:1479  1 ether */\n      0x0de0b6b3a7640000\n        /* \"contracts/DataStorage.sol\":1472:1503  1 ether == 10000000000000000000 */\n      eq\n        /* \"contracts/DataStorage.sol\":1465:1504  assert(1 ether == 10000000000000000000) */\n      tag_68\n      jumpi\n      tag_69\n      tag_67\n      jump\t// in\n    tag_69:\n    tag_68:\n        /* \"contracts/DataStorage.sol\":1522:1529  1 ether */\n      0x0de0b6b3a7640000\n        /* \"contracts/DataStorage.sol\":1515:1529  return 1 ether */\n      swap1\n      pop\n        /* \"contracts/DataStorage.sol\":1370:1536  function etherUint() external pure returns (uint) {... */\n      swap1\n      jump\t// out\n        /* \"contracts/DataStorage.sol\":1833:2030  function hoursUint() external  pure  returns (uint){... */\n    tag_28:\n        /* \"contracts/DataStorage.sol\":1879:1883  uint */\n      0x00\n        /* \"contracts/DataStorage.sol\":1914:1918  3600 */\n      0x0e10\n        /* \"contracts/DataStorage.sol\":1902:1909  1 hours */\n      dup1\n        /* \"contracts/DataStorage.sol\":1902:1918  1 hours ==  3600 */\n      eq\n        /* \"contracts/DataStorage.sol\":1895:1919  assert(1 hours ==  3600) */\n      tag_71\n      jumpi\n      tag_72\n      tag_67\n      jump\t// in\n    tag_72:\n    tag_71:\n        /* \"contracts/DataStorage.sol\":1987:1997  60 minutes */\n      0x0e10\n        /* \"contracts/DataStorage.sol\":1976:1983  1 hours */\n      dup1\n        /* \"contracts/DataStorage.sol\":1976:1997  1 hours == 60 minutes */\n      eq\n        /* \"contracts/DataStorage.sol\":1969:1998  assert(1 hours == 60 minutes) */\n      tag_73\n      jumpi\n      tag_74\n      tag_67\n      jump\t// in\n    tag_74:\n    tag_73:\n        /* \"contracts/DataStorage.sol\":2016:2023  1 hours */\n      0x0e10\n        /* \"contracts/DataStorage.sol\":2009:2023  return 1 hours */\n      swap1\n      pop\n        /* \"contracts/DataStorage.sol\":1833:2030  function hoursUint() external  pure  returns (uint){... */\n      swap1\n      jump\t// out\n        /* \"contracts/DataStorage.sol\":1075:1210  function weiUint() external pure returns (uint) {... */\n    tag_31:\n        /* \"contracts/DataStorage.sol\":1117:1121  uint */\n      0x00\n        /* \"contracts/DataStorage.sol\":1149:1152  1e0 */\n      0x01\n        /* \"contracts/DataStorage.sol\":1140:1145  1 wei */\n      dup1\n        /* \"contracts/DataStorage.sol\":1140:1152  1 wei == 1e0 */\n      eq\n        /* \"contracts/DataStorage.sol\":1133:1153  assert(1 wei == 1e0) */\n      tag_76\n      jumpi\n      tag_77\n      tag_67\n      jump\t// in\n    tag_77:\n    tag_76:\n        /* \"contracts/DataStorage.sol\":1179:1180  1 */\n      0x01\n        /* \"contracts/DataStorage.sol\":1170:1175  1 wei */\n      dup1\n        /* \"contracts/DataStorage.sol\":1170:1180  1 wei == 1 */\n      eq\n        /* \"contracts/DataStorage.sol\":1163:1181  assert(1 wei == 1) */\n      tag_78\n      jumpi\n      tag_79\n      tag_67\n      jump\t// in\n    tag_79:\n    tag_78:\n        /* \"contracts/DataStorage.sol\":1198:1203  1 wei */\n      0x01\n        /* \"contracts/DataStorage.sol\":1191:1203  return 1 wei */\n      swap1\n      pop\n        /* \"contracts/DataStorage.sol\":1075:1210  function weiUint() external pure returns (uint) {... */\n      swap1\n      jump\t// out\n        /* \"contracts/DataStorage.sol\":1216:1364  function gweiUint() external pure returns (uint) {... */\n    tag_34:\n        /* \"contracts/DataStorage.sol\":1259:1263  uint */\n      0x00\n        /* \"contracts/DataStorage.sol\":1292:1295  1e9 */\n      0x3b9aca00\n        /* \"contracts/DataStorage.sol\":1282:1288  1 gwei */\n      dup1\n        /* \"contracts/DataStorage.sol\":1282:1295  1 gwei == 1e9 */\n      eq\n        /* \"contracts/DataStorage.sol\":1275:1296  assert(1 gwei == 1e9) */\n      tag_81\n      jumpi\n      tag_82\n      tag_67\n      jump\t// in\n    tag_82:\n    tag_81:\n        /* \"contracts/DataStorage.sol\":1323:1333  1000000000 */\n      0x3b9aca00\n        /* \"contracts/DataStorage.sol\":1313:1319  1 gwei */\n      dup1\n        /* \"contracts/DataStorage.sol\":1313:1333  1 gwei == 1000000000 */\n      eq\n        /* \"contracts/DataStorage.sol\":1306:1334  assert(1 gwei == 1000000000) */\n      tag_83\n      jumpi\n      tag_84\n      tag_67\n      jump\t// in\n    tag_84:\n    tag_83:\n        /* \"contracts/DataStorage.sol\":1351:1357  1 gwei */\n      0x3b9aca00\n        /* \"contracts/DataStorage.sol\":1344:1357  return 1 gwei */\n      swap1\n      pop\n        /* \"contracts/DataStorage.sol\":1216:1364  function gweiUint() external pure returns (uint) {... */\n      swap1\n      jump\t// out\n        /* \"contracts/DataStorage.sol\":2282:2433  function weeksUint() external pure returns (uint) {... */\n    tag_37:\n        /* \"contracts/DataStorage.sol\":2326:2330  uint */\n      0x00\n        /* \"contracts/DataStorage.sol\":2360:2366  604800 */\n      0x093a80\n        /* \"contracts/DataStorage.sol\":2349:2356  1 weeks */\n      dup1\n        /* \"contracts/DataStorage.sol\":2349:2366  1 weeks == 604800 */\n      eq\n        /* \"contracts/DataStorage.sol\":2342:2367  assert(1 weeks == 604800) */\n      tag_86\n      jumpi\n      tag_87\n      tag_67\n      jump\t// in\n    tag_87:\n    tag_86:\n        /* \"contracts/DataStorage.sol\":2395:2401  7 days */\n      0x093a80\n        /* \"contracts/DataStorage.sol\":2384:2391  1 weeks */\n      dup1\n        /* \"contracts/DataStorage.sol\":2384:2401  1 weeks == 7 days */\n      eq\n        /* \"contracts/DataStorage.sol\":2377:2402  assert(1 weeks == 7 days) */\n      tag_88\n      jumpi\n      tag_89\n      tag_67\n      jump\t// in\n    tag_89:\n    tag_88:\n        /* \"contracts/DataStorage.sol\":2419:2426  1 weeks */\n      0x093a80\n        /* \"contracts/DataStorage.sol\":2412:2426  return 1 weeks */\n      swap1\n      pop\n        /* \"contracts/DataStorage.sol\":2282:2433  function weeksUint() external pure returns (uint) {... */\n      swap1\n      jump\t// out\n        /* \"contracts/DataStorage.sol\":1542:1660  function secondsUint() external  pure  returns (uint){... */\n    tag_40:\n        /* \"contracts/DataStorage.sol\":1590:1594  uint */\n      0x00\n        /* \"contracts/DataStorage.sol\":1625:1626  1 */\n      0x01\n        /* \"contracts/DataStorage.sol\":1612:1621  1 seconds */\n      dup1\n        /* \"contracts/DataStorage.sol\":1612:1626  1 seconds == 1 */\n      eq\n        /* \"contracts/DataStorage.sol\":1605:1627  assert(1 seconds == 1) */\n      tag_91\n      jumpi\n      tag_92\n      tag_67\n      jump\t// in\n    tag_92:\n    tag_91:\n        /* \"contracts/DataStorage.sol\":1644:1653  1 seconds */\n      0x01\n        /* \"contracts/DataStorage.sol\":1637:1653  return 1 seconds */\n      swap1\n      pop\n        /* \"contracts/DataStorage.sol\":1542:1660  function secondsUint() external  pure  returns (uint){... */\n      swap1\n      jump\t// out\n        /* \"contracts/DataStorage.sol\":840:1069  function global() external view returns (address, uint, bytes memory){... */\n    tag_43:\n        /* \"contracts/DataStorage.sol\":881:888  address */\n      0x00\n        /* \"contracts/DataStorage.sol\":890:894  uint */\n      dup1\n        /* \"contracts/DataStorage.sol\":896:908  bytes memory */\n      0x60\n        /* \"contracts/DataStorage.sol\":919:933  address sender */\n      0x00\n        /* \"contracts/DataStorage.sol\":936:946  msg.sender */\n      caller\n        /* \"contracts/DataStorage.sol\":919:946  address sender = msg.sender */\n      swap1\n      pop\n        /* \"contracts/DataStorage.sol\":956:969  uint blockNum */\n      0x00\n        /* \"contracts/DataStorage.sol\":972:984  block.number */\n      number\n        /* \"contracts/DataStorage.sol\":956:984  uint blockNum = block.number */\n      swap1\n      pop\n        /* \"contracts/DataStorage.sol\":994:1011  bytes memory data */\n      0x00\n        /* \"contracts/DataStorage.sol\":1014:1022  msg.data */\n      dup1\n      calldatasize\n        /* \"contracts/DataStorage.sol\":994:1022  bytes memory data = msg.data */\n      dup1\n      dup1\n      0x1f\n      add\n      0x20\n      dup1\n      swap2\n      div\n      mul\n      0x20\n      add\n      mload(0x40)\n      swap1\n      dup2\n      add\n      0x40\n      mstore\n      dup1\n      swap4\n      swap3\n      swap2\n      swap1\n      dup2\n      dup2\n      mstore\n      0x20\n      add\n      dup4\n      dup4\n      dup1\n      dup3\n      dup5\n      calldatacopy\n      0x00\n      dup2\n      dup5\n      add\n      mstore\n      not(0x1f)\n      0x1f\n      dup3\n      add\n      and\n      swap1\n      pop\n      dup1\n      dup4\n      add\n      swap3\n      pop\n      pop\n      pop\n      pop\n      pop\n      pop\n      pop\n      swap1\n      pop\n        /* \"contracts/DataStorage.sol\":1040:1046  sender */\n      dup3\n        /* \"contracts/DataStorage.sol\":1048:1056  blockNum */\n      dup3\n        /* \"contracts/DataStorage.sol\":1057:1061  data */\n      dup3\n        /* \"contracts/DataStorage.sol\":1032:1062  return (sender, blockNum,data) */\n      swap6\n      pop\n      swap6\n      pop\n      swap6\n      pop\n      pop\n      pop\n      pop\n        /* \"contracts/DataStorage.sol\":840:1069  function global() external view returns (address, uint, bytes memory){... */\n      swap1\n      swap2\n      swap3\n      jump\t// out\n        /* \"contracts/DataStorage.sol\":568:581  uint public y */\n    tag_47:\n      sload(0x01)\n      dup2\n      jump\t// out\n        /* \"contracts/DataStorage.sol\":1666:1827  function minutesUint() external  pure  returns (uint) {... */\n    tag_50:\n        /* \"contracts/DataStorage.sol\":1714:1718  uint */\n      0x00\n        /* \"contracts/DataStorage.sol\":1750:1752  60 */\n      0x3c\n        /* \"contracts/DataStorage.sol\":1737:1746  1 minutes */\n      dup1\n        /* \"contracts/DataStorage.sol\":1737:1752  1 minutes == 60 */\n      eq\n        /* \"contracts/DataStorage.sol\":1730:1753  assert(1 minutes == 60) */\n      tag_95\n      jumpi\n      tag_96\n      tag_67\n      jump\t// in\n    tag_96:\n    tag_95:\n        /* \"contracts/DataStorage.sol\":1783:1793  60 seconds */\n      0x3c\n        /* \"contracts/DataStorage.sol\":1770:1779  1 minutes */\n      dup1\n        /* \"contracts/DataStorage.sol\":1770:1793  1 minutes == 60 seconds */\n      eq\n        /* \"contracts/DataStorage.sol\":1763:1794  assert(1 minutes == 60 seconds) */\n      tag_97\n      jumpi\n      tag_98\n      tag_67\n      jump\t// in\n    tag_98:\n    tag_97:\n        /* \"contracts/DataStorage.sol\":1811:1820  1 minutes */\n      0x3c\n        /* \"contracts/DataStorage.sol\":1804:1820  return 1 minutes */\n      swap1\n      pop\n        /* \"contracts/DataStorage.sol\":1666:1827  function minutesUint() external  pure  returns (uint) {... */\n      swap1\n      jump\t// out\n        /* \"contracts/DataStorage.sol\":609:690  function foo() external {... */\n    tag_53:\n        /* \"contracts/DataStorage.sol\":647:648  5 */\n      0x05\n        /* \"contracts/DataStorage.sol\":643:644  x */\n      0x00\n        /* \"contracts/DataStorage.sol\":643:648  x = 5 */\n      dup2\n      swap1\n      sstore\n      pop\n        /* \"contracts/DataStorage.sol\":662:663  2 */\n      0x02\n        /* \"contracts/DataStorage.sol\":658:659  y */\n      0x01\n        /* \"contracts/DataStorage.sol\":658:663  y = 2 */\n      dup2\n      swap1\n      sstore\n      pop\n        /* \"contracts/DataStorage.sol\":673:683  z = \"0xAA\" */\n      mload(0x40)\n      dup1\n      0x40\n      add\n      0x40\n      mstore\n      dup1\n      0x04\n      dup2\n      mstore\n      0x20\n      add\n      0x3078414100000000000000000000000000000000000000000000000000000000\n      dup2\n      mstore\n      pop\n        /* \"contracts/DataStorage.sol\":673:674  z */\n      0x02\n        /* \"contracts/DataStorage.sol\":673:683  z = \"0xAA\" */\n      swap1\n      dup2\n      tag_100\n      swap2\n      swap1\n      tag_101\n      jump\t// in\n    tag_100:\n      pop\n        /* \"contracts/DataStorage.sol\":609:690  function foo() external {... */\n      jump\t// out\n        /* \"contracts/DataStorage.sol\":587:602  string public z */\n    tag_55:\n      0x02\n      dup1\n      sload\n      tag_102\n      swap1\n      tag_103\n      jump\t// in\n    tag_102:\n      dup1\n      0x1f\n      add\n      0x20\n      dup1\n      swap2\n      div\n      mul\n      0x20\n      add\n      mload(0x40)\n      swap1\n      dup2\n      add\n      0x40\n      mstore\n      dup1\n      swap3\n      swap2\n      swap1\n      dup2\n      dup2\n      mstore\n      0x20\n      add\n      dup3\n      dup1\n      sload\n      tag_104\n      swap1\n      tag_103\n      jump\t// in\n    tag_104:\n      dup1\n      iszero\n      tag_105\n      jumpi\n      dup1\n      0x1f\n      lt\n      tag_106\n      jumpi\n      0x0100\n      dup1\n      dup4\n      sload\n      div\n      mul\n      dup4\n      mstore\n      swap2\n      0x20\n      add\n      swap2\n      jump(tag_105)\n    tag_106:\n      dup3\n      add\n      swap2\n      swap1\n      0x00\n      mstore\n      keccak256(0x00, 0x20)\n      swap1\n    tag_107:\n      dup2\n      sload\n      dup2\n      mstore\n      swap1\n      0x01\n      add\n      swap1\n      0x20\n      add\n      dup1\n      dup4\n      gt\n      tag_107\n      jumpi\n      dup3\n      swap1\n      sub\n      0x1f\n      and\n      dup3\n      add\n      swap2\n    tag_105:\n      pop\n      pop\n      pop\n      pop\n      pop\n      dup2\n      jump\t// out\n        /* \"contracts/DataStorage.sol\":2036:2276  function daysUint() external pure returns (uint){... */\n    tag_59:\n        /* \"contracts/DataStorage.sol\":2079:2083  uint */\n      0x00\n        /* \"contracts/DataStorage.sol\":2112:2129  3600 seconds * 24 */\n      0x015180\n        /* \"contracts/DataStorage.sol\":2101:2107  1 days */\n      dup1\n        /* \"contracts/DataStorage.sol\":2101:2129  1 days ==  3600 seconds * 24 */\n      eq\n        /* \"contracts/DataStorage.sol\":2094:2130  assert(1 days ==  3600 seconds * 24) */\n      tag_109\n      jumpi\n      tag_110\n      tag_67\n      jump\t// in\n    tag_110:\n    tag_109:\n        /* \"contracts/DataStorage.sol\":2191:2212  60 minutes * 24 hours */\n      0x128a1800\n        /* \"contracts/DataStorage.sol\":2181:2187  1 days */\n      0x015180\n        /* \"contracts/DataStorage.sol\":2181:2212  1 days == 60 minutes * 24 hours */\n      eq\n        /* \"contracts/DataStorage.sol\":2174:2213  assert(1 days == 60 minutes * 24 hours) */\n      tag_111\n      jumpi\n      tag_112\n      tag_67\n      jump\t// in\n    tag_112:\n    tag_111:\n        /* \"contracts/DataStorage.sol\":2240:2245  86400 */\n      0x015180\n        /* \"contracts/DataStorage.sol\":2230:2236  1 days */\n      dup1\n        /* \"contracts/DataStorage.sol\":2230:2245  1 days == 86400 */\n      eq\n        /* \"contracts/DataStorage.sol\":2223:2246  assert(1 days == 86400) */\n      tag_113\n      jumpi\n      tag_114\n      tag_67\n      jump\t// in\n    tag_114:\n    tag_113:\n        /* \"contracts/DataStorage.sol\":2263:2269  1 days */\n      0x015180\n        /* \"contracts/DataStorage.sol\":2256:2269  return 1 days */\n      swap1\n      pop\n        /* \"contracts/DataStorage.sol\":2036:2276  function daysUint() external pure returns (uint){... */\n      swap1\n      jump\t// out\n        /* \"contracts/DataStorage.sol\":696:834  function bar() external pure returns (uint){... */\n    tag_62:\n        /* \"contracts/DataStorage.sol\":734:738  uint */\n      0x00\n        /* \"contracts/DataStorage.sol\":749:756  uint xx */\n      dup1\n        /* \"contracts/DataStorage.sol\":759:760  1 */\n      0x01\n        /* \"contracts/DataStorage.sol\":749:760  uint xx = 1 */\n      swap1\n      pop\n        /* \"contracts/DataStorage.sol\":770:777  uint yy */\n      0x00\n        /* \"contracts/DataStorage.sol\":780:781  3 */\n      0x03\n        /* \"contracts/DataStorage.sol\":770:781  uint yy = 3 */\n      swap1\n      pop\n        /* \"contracts/DataStorage.sol\":791:798  uint zz */\n      0x00\n        /* \"contracts/DataStorage.sol\":806:808  yy */\n      dup2\n        /* \"contracts/DataStorage.sol\":801:803  xx */\n      dup4\n        /* \"contracts/DataStorage.sol\":801:808  xx + yy */\n      tag_116\n      swap2\n      swap1\n      tag_117\n      jump\t// in\n    tag_116:\n        /* \"contracts/DataStorage.sol\":791:808  uint zz = xx + yy */\n      swap1\n      pop\n        /* \"contracts/DataStorage.sol\":825:827  zz */\n      dup1\n        /* \"contracts/DataStorage.sol\":818:827  return zz */\n      swap4\n      pop\n      pop\n      pop\n      pop\n        /* \"contracts/DataStorage.sol\":696:834  function bar() external pure returns (uint){... */\n      swap1\n      jump\t// out\n        /* \"#utility.yul\":7:84   */\n    tag_118:\n        /* \"#utility.yul\":44:51   */\n      0x00\n        /* \"#utility.yul\":73:78   */\n      dup2\n        /* \"#utility.yul\":62:78   */\n      swap1\n      pop\n        /* \"#utility.yul\":7:84   */\n      swap2\n      swap1\n      pop\n      jump\t// out\n        /* \"#utility.yul\":90:208   */\n    tag_119:\n        /* \"#utility.yul\":177:201   */\n      tag_152\n        /* \"#utility.yul\":195:200   */\n      dup2\n        /* \"#utility.yul\":177:201   */\n      tag_118\n      jump\t// in\n    tag_152:\n        /* \"#utility.yul\":172:175   */\n      dup3\n        /* \"#utility.yul\":165:202   */\n      mstore\n        /* \"#utility.yul\":90:208   */\n      pop\n      pop\n      jump\t// out\n        /* \"#utility.yul\":214:436   */\n    tag_23:\n        /* \"#utility.yul\":307:311   */\n      0x00\n        /* \"#utility.yul\":345:347   */\n      0x20\n        /* \"#utility.yul\":334:343   */\n      dup3\n        /* \"#utility.yul\":330:348   */\n      add\n        /* \"#utility.yul\":322:348   */\n      swap1\n      pop\n        /* \"#utility.yul\":358:429   */\n      tag_154\n        /* \"#utility.yul\":426:427   */\n      0x00\n        /* \"#utility.yul\":415:424   */\n      dup4\n        /* \"#utility.yul\":411:428   */\n      add\n        /* \"#utility.yul\":402:408   */\n      dup5\n        /* \"#utility.yul\":358:429   */\n      tag_119\n      jump\t// in\n    tag_154:\n        /* \"#utility.yul\":214:436   */\n      swap3\n      swap2\n      pop\n      pop\n      jump\t// out\n        /* \"#utility.yul\":442:568   */\n    tag_120:\n        /* \"#utility.yul\":479:486   */\n      0x00\n        /* \"#utility.yul\":519:561   */\n      0xffffffffffffffffffffffffffffffffffffffff\n        /* \"#utility.yul\":512:517   */\n      dup3\n        /* \"#utility.yul\":508:562   */\n      and\n        /* \"#utility.yul\":497:562   */\n      swap1\n      pop\n        /* \"#utility.yul\":442:568   */\n      swap2\n      swap1\n      pop\n      jump\t// out\n        /* \"#utility.yul\":574:670   */\n    tag_121:\n        /* \"#utility.yul\":611:618   */\n      0x00\n        /* \"#utility.yul\":640:664   */\n      tag_157\n        /* \"#utility.yul\":658:663   */\n      dup3\n        /* \"#utility.yul\":640:664   */\n      tag_120\n      jump\t// in\n    tag_157:\n        /* \"#utility.yul\":629:664   */\n      swap1\n      pop\n        /* \"#utility.yul\":574:670   */\n      swap2\n      swap1\n      pop\n      jump\t// out\n        /* \"#utility.yul\":676:794   */\n    tag_122:\n        /* \"#utility.yul\":763:787   */\n      tag_159\n        /* \"#utility.yul\":781:786   */\n      dup2\n        /* \"#utility.yul\":763:787   */\n      tag_121\n      jump\t// in\n    tag_159:\n        /* \"#utility.yul\":758:761   */\n      dup3\n        /* \"#utility.yul\":751:788   */\n      mstore\n        /* \"#utility.yul\":676:794   */\n      pop\n      pop\n      jump\t// out\n        /* \"#utility.yul\":800:898   */\n    tag_123:\n        /* \"#utility.yul\":851:857   */\n      0x00\n        /* \"#utility.yul\":885:890   */\n      dup2\n        /* \"#utility.yul\":879:891   */\n      mload\n        /* \"#utility.yul\":869:891   */\n      swap1\n      pop\n        /* \"#utility.yul\":800:898   */\n      swap2\n      swap1\n      pop\n      jump\t// out\n        /* \"#utility.yul\":904:1072   */\n    tag_124:\n        /* \"#utility.yul\":987:998   */\n      0x00\n        /* \"#utility.yul\":1021:1027   */\n      dup3\n        /* \"#utility.yul\":1016:1019   */\n      dup3\n        /* \"#utility.yul\":1009:1028   */\n      mstore\n        /* \"#utility.yul\":1061:1065   */\n      0x20\n        /* \"#utility.yul\":1056:1059   */\n      dup3\n        /* \"#utility.yul\":1052:1066   */\n      add\n        /* \"#utility.yul\":1037:1066   */\n      swap1\n      pop\n        /* \"#utility.yul\":904:1072   */\n      swap3\n      swap2\n      pop\n      pop\n      jump\t// out\n        /* \"#utility.yul\":1078:1217   */\n    tag_125:\n        /* \"#utility.yul\":1167:1173   */\n      dup3\n        /* \"#utility.yul\":1162:1165   */\n      dup2\n        /* \"#utility.yul\":1157:1160   */\n      dup4\n        /* \"#utility.yul\":1151:1174   */\n      mcopy\n        /* \"#utility.yul\":1208:1209   */\n      0x00\n        /* \"#utility.yul\":1199:1205   */\n      dup4\n        /* \"#utility.yul\":1194:1197   */\n      dup4\n        /* \"#utility.yul\":1190:1206   */\n      add\n        /* \"#utility.yul\":1183:1210   */\n      mstore\n        /* \"#utility.yul\":1078:1217   */\n      pop\n      pop\n      pop\n      jump\t// out\n        /* \"#utility.yul\":1223:1325   */\n    tag_126:\n        /* \"#utility.yul\":1264:1270   */\n      0x00\n        /* \"#utility.yul\":1315:1317   */\n      0x1f\n        /* \"#utility.yul\":1311:1318   */\n      not\n        /* \"#utility.yul\":1306:1308   */\n      0x1f\n        /* \"#utility.yul\":1299:1304   */\n      dup4\n        /* \"#utility.yul\":1295:1309   */\n      add\n        /* \"#utility.yul\":1291:1319   */\n      and\n        /* \"#utility.yul\":1281:1319   */\n      swap1\n      pop\n        /* \"#utility.yul\":1223:1325   */\n      swap2\n      swap1\n      pop\n      jump\t// out\n        /* \"#utility.yul\":1331:1704   */\n    tag_127:\n        /* \"#utility.yul\":1417:1420   */\n      0x00\n        /* \"#utility.yul\":1445:1483   */\n      tag_165\n        /* \"#utility.yul\":1477:1482   */\n      dup3\n        /* \"#utility.yul\":1445:1483   */\n      tag_123\n      jump\t// in\n    tag_165:\n        /* \"#utility.yul\":1499:1569   */\n      tag_166\n        /* \"#utility.yul\":1562:1568   */\n      dup2\n        /* \"#utility.yul\":1557:1560   */\n      dup6\n        /* \"#utility.yul\":1499:1569   */\n      tag_124\n      jump\t// in\n    tag_166:\n        /* \"#utility.yul\":1492:1569   */\n      swap4\n      pop\n        /* \"#utility.yul\":1578:1643   */\n      tag_167\n        /* \"#utility.yul\":1636:1642   */\n      dup2\n        /* \"#utility.yul\":1631:1634   */\n      dup6\n        /* \"#utility.yul\":1624:1628   */\n      0x20\n        /* \"#utility.yul\":1617:1622   */\n      dup7\n        /* \"#utility.yul\":1613:1629   */\n      add\n        /* \"#utility.yul\":1578:1643   */\n      tag_125\n      jump\t// in\n    tag_167:\n        /* \"#utility.yul\":1668:1697   */\n      tag_168\n        /* \"#utility.yul\":1690:1696   */\n      dup2\n        /* \"#utility.yul\":1668:1697   */\n      tag_126\n      jump\t// in\n    tag_168:\n        /* \"#utility.yul\":1663:1666   */\n      dup5\n        /* \"#utility.yul\":1659:1698   */\n      add\n        /* \"#utility.yul\":1652:1698   */\n      swap2\n      pop\n        /* \"#utility.yul\":1421:1704   */\n      pop\n        /* \"#utility.yul\":1331:1704   */\n      swap3\n      swap2\n      pop\n      pop\n      jump\t// out\n        /* \"#utility.yul\":1710:2239   */\n    tag_45:\n        /* \"#utility.yul\":1877:1881   */\n      0x00\n        /* \"#utility.yul\":1915:1917   */\n      0x60\n        /* \"#utility.yul\":1904:1913   */\n      dup3\n        /* \"#utility.yul\":1900:1918   */\n      add\n        /* \"#utility.yul\":1892:1918   */\n      swap1\n      pop\n        /* \"#utility.yul\":1928:1999   */\n      tag_170\n        /* \"#utility.yul\":1996:1997   */\n      0x00\n        /* \"#utility.yul\":1985:1994   */\n      dup4\n        /* \"#utility.yul\":1981:1998   */\n      add\n        /* \"#utility.yul\":1972:1978   */\n      dup7\n        /* \"#utility.yul\":1928:1999   */\n      tag_122\n      jump\t// in\n    tag_170:\n        /* \"#utility.yul\":2009:2081   */\n      tag_171\n        /* \"#utility.yul\":2077:2079   */\n      0x20\n        /* \"#utility.yul\":2066:2075   */\n      dup4\n        /* \"#utility.yul\":2062:2080   */\n      add\n        /* \"#utility.yul\":2053:2059   */\n      dup6\n        /* \"#utility.yul\":2009:2081   */\n      tag_119\n      jump\t// in\n    tag_171:\n        /* \"#utility.yul\":2128:2137   */\n      dup2\n        /* \"#utility.yul\":2122:2126   */\n      dup2\n        /* \"#utility.yul\":2118:2138   */\n      sub\n        /* \"#utility.yul\":2113:2115   */\n      0x40\n        /* \"#utility.yul\":2102:2111   */\n      dup4\n        /* \"#utility.yul\":2098:2116   */\n      add\n        /* \"#utility.yul\":2091:2139   */\n      mstore\n        /* \"#utility.yul\":2156:2232   */\n      tag_172\n        /* \"#utility.yul\":2227:2231   */\n      dup2\n        /* \"#utility.yul\":2218:2224   */\n      dup5\n        /* \"#utility.yul\":2156:2232   */\n      tag_127\n      jump\t// in\n    tag_172:\n        /* \"#utility.yul\":2148:2232   */\n      swap1\n      pop\n        /* \"#utility.yul\":1710:2239   */\n      swap5\n      swap4\n      pop\n      pop\n      pop\n      pop\n      jump\t// out\n        /* \"#utility.yul\":2245:2344   */\n    tag_128:\n        /* \"#utility.yul\":2297:2303   */\n      0x00\n        /* \"#utility.yul\":2331:2336   */\n      dup2\n        /* \"#utility.yul\":2325:2337   */\n      mload\n        /* \"#utility.yul\":2315:2337   */\n      swap1\n      pop\n        /* \"#utility.yul\":2245:2344   */\n      swap2\n      swap1\n      pop\n      jump\t// out\n        /* \"#utility.yul\":2350:2519   */\n    tag_129:\n        /* \"#utility.yul\":2434:2445   */\n      0x00\n        /* \"#utility.yul\":2468:2474   */\n      dup3\n        /* \"#utility.yul\":2463:2466   */\n      dup3\n        /* \"#utility.yul\":2456:2475   */\n      mstore\n        /* \"#utility.yul\":2508:2512   */\n      0x20\n        /* \"#utility.yul\":2503:2506   */\n      dup3\n        /* \"#utility.yul\":2499:2513   */\n      add\n        /* \"#utility.yul\":2484:2513   */\n      swap1\n      pop\n        /* \"#utility.yul\":2350:2519   */\n      swap3\n      swap2\n      pop\n      pop\n      jump\t// out\n        /* \"#utility.yul\":2525:2902   */\n    tag_130:\n        /* \"#utility.yul\":2613:2616   */\n      0x00\n        /* \"#utility.yul\":2641:2680   */\n      tag_176\n        /* \"#utility.yul\":2674:2679   */\n      dup3\n        /* \"#utility.yul\":2641:2680   */\n      tag_128\n      jump\t// in\n    tag_176:\n        /* \"#utility.yul\":2696:2767   */\n      tag_177\n        /* \"#utility.yul\":2760:2766   */\n      dup2\n        /* \"#utility.yul\":2755:2758   */\n      dup6\n        /* \"#utility.yul\":2696:2767   */\n      tag_129\n      jump\t// in\n    tag_177:\n        /* \"#utility.yul\":2689:2767   */\n      swap4\n      pop\n        /* \"#utility.yul\":2776:2841   */\n      tag_178\n        /* \"#utility.yul\":2834:2840   */\n      dup2\n        /* \"#utility.yul\":2829:2832   */\n      dup6\n        /* \"#utility.yul\":2822:2826   */\n      0x20\n        /* \"#utility.yul\":2815:2820   */\n      dup7\n        /* \"#utility.yul\":2811:2827   */\n      add\n        /* \"#utility.yul\":2776:2841   */\n      tag_125\n      jump\t// in\n    tag_178:\n        /* \"#utility.yul\":2866:2895   */\n      tag_179\n        /* \"#utility.yul\":2888:2894   */\n      dup2\n        /* \"#utility.yul\":2866:2895   */\n      tag_126\n      jump\t// in\n    tag_179:\n        /* \"#utility.yul\":2861:2864   */\n      dup5\n        /* \"#utility.yul\":2857:2896   */\n      add\n        /* \"#utility.yul\":2850:2896   */\n      swap2\n      pop\n        /* \"#utility.yul\":2617:2902   */\n      pop\n        /* \"#utility.yul\":2525:2902   */\n      swap3\n      swap2\n      pop\n      pop\n      jump\t// out\n        /* \"#utility.yul\":2908:3221   */\n    tag_57:\n        /* \"#utility.yul\":3021:3025   */\n      0x00\n        /* \"#utility.yul\":3059:3061   */\n      0x20\n        /* \"#utility.yul\":3048:3057   */\n      dup3\n        /* \"#utility.yul\":3044:3062   */\n      add\n        /* \"#utility.yul\":3036:3062   */\n      swap1\n      pop\n        /* \"#utility.yul\":3108:3117   */\n      dup2\n        /* \"#utility.yul\":3102:3106   */\n      dup2\n        /* \"#utility.yul\":3098:3118   */\n      sub\n        /* \"#utility.yul\":3094:3095   */\n      0x00\n        /* \"#utility.yul\":3083:3092   */\n      dup4\n        /* \"#utility.yul\":3079:3096   */\n      add\n        /* \"#utility.yul\":3072:3119   */\n      mstore\n        /* \"#utility.yul\":3136:3214   */\n      tag_181\n        /* \"#utility.yul\":3209:3213   */\n      dup2\n        /* \"#utility.yul\":3200:3206   */\n      dup5\n        /* \"#utility.yul\":3136:3214   */\n      tag_130\n      jump\t// in\n    tag_181:\n        /* \"#utility.yul\":3128:3214   */\n      swap1\n      pop\n        /* \"#utility.yul\":2908:3221   */\n      swap3\n      swap2\n      pop\n      pop\n      jump\t// out\n        /* \"#utility.yul\":3227:3407   */\n    tag_67:\n        /* \"#utility.yul\":3275:3352   */\n      0x4e487b7100000000000000000000000000000000000000000000000000000000\n        /* \"#utility.yul\":3272:3273   */\n      0x00\n        /* \"#utility.yul\":3265:3353   */\n      mstore\n        /* \"#utility.yul\":3372:3376   */\n      0x01\n        /* \"#utility.yul\":3369:3370   */\n      0x04\n        /* \"#utility.yul\":3362:3377   */\n      mstore\n        /* \"#utility.yul\":3396:3400   */\n      0x24\n        /* \"#utility.yul\":3393:3394   */\n      0x00\n        /* \"#utility.yul\":3386:3401   */\n      revert\n        /* \"#utility.yul\":3413:3593   */\n    tag_131:\n        /* \"#utility.yul\":3461:3538   */\n      0x4e487b7100000000000000000000000000000000000000000000000000000000\n        /* \"#utility.yul\":3458:3459   */\n      0x00\n        /* \"#utility.yul\":3451:3539   */\n      mstore\n        /* \"#utility.yul\":3558:3562   */\n      0x41\n        /* \"#utility.yul\":3555:3556   */\n      0x04\n        /* \"#utility.yul\":3548:3563   */\n      mstore\n        /* \"#utility.yul\":3582:3586   */\n      0x24\n        /* \"#utility.yul\":3579:3580   */\n      0x00\n        /* \"#utility.yul\":3572:3587   */\n      revert\n        /* \"#utility.yul\":3599:3779   */\n    tag_132:\n        /* \"#utility.yul\":3647:3724   */\n      0x4e487b7100000000000000000000000000000000000000000000000000000000\n        /* \"#utility.yul\":3644:3645   */\n      0x00\n        /* \"#utility.yul\":3637:3725   */\n      mstore\n        /* \"#utility.yul\":3744:3748   */\n      0x22\n        /* \"#utility.yul\":3741:3742   */\n      0x04\n        /* \"#utility.yul\":3734:3749   */\n      mstore\n        /* \"#utility.yul\":3768:3772   */\n      0x24\n        /* \"#utility.yul\":3765:3766   */\n      0x00\n        /* \"#utility.yul\":3758:3773   */\n      revert\n        /* \"#utility.yul\":3785:4105   */\n    tag_103:\n        /* \"#utility.yul\":3829:3835   */\n      0x00\n        /* \"#utility.yul\":3866:3867   */\n      0x02\n        /* \"#utility.yul\":3860:3864   */\n      dup3\n        /* \"#utility.yul\":3856:3868   */\n      div\n        /* \"#utility.yul\":3846:3868   */\n      swap1\n      pop\n        /* \"#utility.yul\":3913:3914   */\n      0x01\n        /* \"#utility.yul\":3907:3911   */\n      dup3\n        /* \"#utility.yul\":3903:3915   */\n      and\n        /* \"#utility.yul\":3934:3952   */\n      dup1\n        /* \"#utility.yul\":3924:4005   */\n      tag_186\n      jumpi\n        /* \"#utility.yul\":3990:3994   */\n      0x7f\n        /* \"#utility.yul\":3982:3988   */\n      dup3\n        /* \"#utility.yul\":3978:3995   */\n      and\n        /* \"#utility.yul\":3968:3995   */\n      swap2\n      pop\n        /* \"#utility.yul\":3924:4005   */\n    tag_186:\n        /* \"#utility.yul\":4052:4054   */\n      0x20\n        /* \"#utility.yul\":4044:4050   */\n      dup3\n        /* \"#utility.yul\":4041:4055   */\n      lt\n        /* \"#utility.yul\":4021:4039   */\n      dup2\n        /* \"#utility.yul\":4018:4056   */\n      sub\n        /* \"#utility.yul\":4015:4099   */\n      tag_187\n      jumpi\n        /* \"#utility.yul\":4071:4089   */\n      tag_188\n      tag_132\n      jump\t// in\n    tag_188:\n        /* \"#utility.yul\":4015:4099   */\n    tag_187:\n        /* \"#utility.yul\":3836:4105   */\n      pop\n        /* \"#utility.yul\":3785:4105   */\n      swap2\n      swap1\n      pop\n      jump\t// out\n        /* \"#utility.yul\":4111:4252   */\n    tag_133:\n        /* \"#utility.yul\":4160:4164   */\n      0x00\n        /* \"#utility.yul\":4183:4186   */\n      dup2\n        /* \"#utility.yul\":4175:4186   */\n      swap1\n      pop\n        /* \"#utility.yul\":4206:4209   */\n      dup2\n        /* \"#utility.yul\":4203:4204   */\n      0x00\n        /* \"#utility.yul\":4196:4210   */\n      mstore\n        /* \"#utility.yul\":4240:4244   */\n      0x20\n        /* \"#utility.yul\":4237:4238   */\n      0x00\n        /* \"#utility.yul\":4227:4245   */\n      keccak256\n        /* \"#utility.yul\":4219:4245   */\n      swap1\n      pop\n        /* \"#utility.yul\":4111:4252   */\n      swap2\n      swap1\n      pop\n      jump\t// out\n        /* \"#utility.yul\":4258:4351   */\n    tag_134:\n        /* \"#utility.yul\":4295:4301   */\n      0x00\n        /* \"#utility.yul\":4342:4344   */\n      0x20\n        /* \"#utility.yul\":4337:4339   */\n      0x1f\n        /* \"#utility.yul\":4330:4335   */\n      dup4\n        /* \"#utility.yul\":4326:4340   */\n      add\n        /* \"#utility.yul\":4322:4345   */\n      div\n        /* \"#utility.yul\":4312:4345   */\n      swap1\n      pop\n        /* \"#utility.yul\":4258:4351   */\n      swap2\n      swap1\n      pop\n      jump\t// out\n        /* \"#utility.yul\":4357:4464   */\n    tag_135:\n        /* \"#utility.yul\":4401:4409   */\n      0x00\n        /* \"#utility.yul\":4451:4456   */\n      dup3\n        /* \"#utility.yul\":4445:4449   */\n      dup3\n        /* \"#utility.yul\":4441:4457   */\n      shl\n        /* \"#utility.yul\":4420:4457   */\n      swap1\n      pop\n        /* \"#utility.yul\":4357:4464   */\n      swap3\n      swap2\n      pop\n      pop\n      jump\t// out\n        /* \"#utility.yul\":4470:4863   */\n    tag_136:\n        /* \"#utility.yul\":4539:4545   */\n      0x00\n        /* \"#utility.yul\":4589:4590   */\n      0x08\n        /* \"#utility.yul\":4577:4587   */\n      dup4\n        /* \"#utility.yul\":4573:4591   */\n      mul\n        /* \"#utility.yul\":4612:4709   */\n      tag_193\n        /* \"#utility.yul\":4642:4708   */\n      0xffffffffffffffffffffffffffffffffffffffffffffffffffffffffffffffff\n        /* \"#utility.yul\":4631:4640   */\n      dup3\n        /* \"#utility.yul\":4612:4709   */\n      tag_135\n      jump\t// in\n    tag_193:\n        /* \"#utility.yul\":4730:4769   */\n      tag_194\n        /* \"#utility.yul\":4760:4768   */\n      dup7\n        /* \"#utility.yul\":4749:4758   */\n      dup4\n        /* \"#utility.yul\":4730:4769   */\n      tag_135\n      jump\t// in\n    tag_194:\n        /* \"#utility.yul\":4718:4769   */\n      swap6\n      pop\n        /* \"#utility.yul\":4802:4806   */\n      dup1\n        /* \"#utility.yul\":4798:4807   */\n      not\n        /* \"#utility.yul\":4791:4796   */\n      dup5\n        /* \"#utility.yul\":4787:4808   */\n      and\n        /* \"#utility.yul\":4778:4808   */\n      swap4\n      pop\n        /* \"#utility.yul\":4851:4855   */\n      dup1\n        /* \"#utility.yul\":4841:4849   */\n      dup7\n        /* \"#utility.yul\":4837:4856   */\n      and\n        /* \"#utility.yul\":4830:4835   */\n      dup5\n        /* \"#utility.yul\":4827:4857   */\n      or\n        /* \"#utility.yul\":4817:4857   */\n      swap3\n      pop\n        /* \"#utility.yul\":4546:4863   */\n      pop\n      pop\n        /* \"#utility.yul\":4470:4863   */\n      swap4\n      swap3\n      pop\n      pop\n      pop\n      jump\t// out\n        /* \"#utility.yul\":4869:4929   */\n    tag_137:\n        /* \"#utility.yul\":4897:4900   */\n      0x00\n        /* \"#utility.yul\":4918:4923   */\n      dup2\n        /* \"#utility.yul\":4911:4923   */\n      swap1\n      pop\n        /* \"#utility.yul\":4869:4929   */\n      swap2\n      swap1\n      pop\n      jump\t// out\n        /* \"#utility.yul\":4935:5077   */\n    tag_138:\n        /* \"#utility.yul\":4985:4994   */\n      0x00\n        /* \"#utility.yul\":5018:5071   */\n      tag_197\n        /* \"#utility.yul\":5036:5070   */\n      tag_198\n        /* \"#utility.yul\":5045:5069   */\n      tag_199\n        /* \"#utility.yul\":5063:5068   */\n      dup5\n        /* \"#utility.yul\":5045:5069   */\n      tag_118\n      jump\t// in\n    tag_199:\n        /* \"#utility.yul\":5036:5070   */\n      tag_137\n      jump\t// in\n    tag_198:\n        /* \"#utility.yul\":5018:5071   */\n      tag_118\n      jump\t// in\n    tag_197:\n        /* \"#utility.yul\":5005:5071   */\n      swap1\n      pop\n        /* \"#utility.yul\":4935:5077   */\n      swap2\n      swap1\n      pop\n      jump\t// out\n        /* \"#utility.yul\":5083:5158   */\n    tag_139:\n        /* \"#utility.yul\":5126:5129   */\n      0x00\n        /* \"#utility.yul\":5147:5152   */\n      dup2\n        /* \"#utility.yul\":5140:5152   */\n      swap1\n      pop\n        /* \"#utility.yul\":5083:5158   */\n      swap2\n      swap1\n      pop\n      jump\t// out\n        /* \"#utility.yul\":5164:5433   */\n    tag_140:\n        /* \"#utility.yul\":5274:5313   */\n      tag_202\n        /* \"#utility.yul\":5305:5312   */\n      dup4\n        /* \"#utility.yul\":5274:5313   */\n      tag_138\n      jump\t// in\n    tag_202:\n        /* \"#utility.yul\":5335:5426   */\n      tag_203\n        /* \"#utility.yul\":5384:5425   */\n      tag_204\n        /* \"#utility.yul\":5408:5424   */\n      dup3\n        /* \"#utility.yul\":5384:5425   */\n      tag_139\n      jump\t// in\n    tag_204:\n        /* \"#utility.yul\":5376:5382   */\n      dup5\n        /* \"#utility.yul\":5369:5373   */\n      dup5\n        /* \"#utility.yul\":5363:5374   */\n      sload\n        /* \"#utility.yul\":5335:5426   */\n      tag_136\n      jump\t// in\n    tag_203:\n        /* \"#utility.yul\":5329:5333   */\n      dup3\n        /* \"#utility.yul\":5322:5427   */\n      sstore\n        /* \"#utility.yul\":5240:5433   */\n      pop\n        /* \"#utility.yul\":5164:5433   */\n      pop\n      pop\n      pop\n      jump\t// out\n        /* \"#utility.yul\":5439:5512   */\n    tag_141:\n        /* \"#utility.yul\":5484:5487   */\n      0x00\n        /* \"#utility.yul\":5439:5512   */\n      swap1\n      jump\t// out\n        /* \"#utility.yul\":5518:5707   */\n    tag_142:\n        /* \"#utility.yul\":5595:5627   */\n      tag_207\n      tag_141\n      jump\t// in\n    tag_207:\n        /* \"#utility.yul\":5636:5701   */\n      tag_208\n        /* \"#utility.yul\":5694:5700   */\n      dup2\n        /* \"#utility.yul\":5686:5692   */\n      dup5\n        /* \"#utility.yul\":5680:5684   */\n      dup5\n        /* \"#utility.yul\":5636:5701   */\n      tag_140\n      jump\t// in\n    tag_208:\n        /* \"#utility.yul\":5571:5707   */\n      pop\n        /* \"#utility.yul\":5518:5707   */\n      pop\n      pop\n      jump\t// out\n        /* \"#utility.yul\":5713:5899   */\n    tag_143:\n        /* \"#utility.yul\":5773:5893   */\n    tag_210:\n        /* \"#utility.yul\":5790:5793   */\n      dup2\n        /* \"#utility.yul\":5783:5788   */\n      dup2\n        /* \"#utility.yul\":5780:5794   */\n      lt\n        /* \"#utility.yul\":5773:5893   */\n      iszero\n      tag_212\n      jumpi\n        /* \"#utility.yul\":5844:5883   */\n      tag_213\n        /* \"#utility.yul\":5881:5882   */\n      0x00\n        /* \"#utility.yul\":5874:5879   */\n      dup3\n        /* \"#utility.yul\":5844:5883   */\n      tag_142\n      jump\t// in\n    tag_213:\n        /* \"#utility.yul\":5817:5818   */\n      0x01\n        /* \"#utility.yul\":5810:5815   */\n      dup2\n        /* \"#utility.yul\":5806:5819   */\n      add\n        /* \"#utility.yul\":5797:5819   */\n      swap1\n      pop\n        /* \"#utility.yul\":5773:5893   */\n      jump(tag_210)\n    tag_212:\n        /* \"#utility.yul\":5713:5899   */\n      pop\n      pop\n      jump\t// out\n        /* \"#utility.yul\":5905:6448   */\n    tag_144:\n        /* \"#utility.yul\":6006:6008   */\n      0x1f\n        /* \"#utility.yul\":6001:6004   */\n      dup3\n        /* \"#utility.yul\":5998:6009   */\n      gt\n        /* \"#utility.yul\":5995:6441   */\n      iszero\n      tag_215\n      jumpi\n        /* \"#utility.yul\":6040:6078   */\n      tag_216\n        /* \"#utility.yul\":6072:6077   */\n      dup2\n        /* \"#utility.yul\":6040:6078   */\n      tag_133\n      jump\t// in\n    tag_216:\n        /* \"#utility.yul\":6124:6153   */\n      tag_217\n        /* \"#utility.yul\":6142:6152   */\n      dup5\n        /* \"#utility.yul\":6124:6153   */\n      tag_134\n      jump\t// in\n    tag_217:\n        /* \"#utility.yul\":6114:6122   */\n      dup2\n        /* \"#utility.yul\":6110:6154   */\n      add\n        /* \"#utility.yul\":6307:6309   */\n      0x20\n        /* \"#utility.yul\":6295:6305   */\n      dup6\n        /* \"#utility.yul\":6292:6310   */\n      lt\n        /* \"#utility.yul\":6289:6338   */\n      iszero\n      tag_218\n      jumpi\n        /* \"#utility.yul\":6328:6336   */\n      dup2\n        /* \"#utility.yul\":6313:6336   */\n      swap1\n      pop\n        /* \"#utility.yul\":6289:6338   */\n    tag_218:\n        /* \"#utility.yul\":6351:6431   */\n      tag_219\n        /* \"#utility.yul\":6407:6429   */\n      tag_220\n        /* \"#utility.yul\":6425:6428   */\n      dup6\n        /* \"#utility.yul\":6407:6429   */\n      tag_134\n      jump\t// in\n    tag_220:\n        /* \"#utility.yul\":6397:6405   */\n      dup4\n        /* \"#utility.yul\":6393:6430   */\n      add\n        /* \"#utility.yul\":6380:6391   */\n      dup3\n        /* \"#utility.yul\":6351:6431   */\n      tag_143\n      jump\t// in\n    tag_219:\n        /* \"#utility.yul\":6010:6441   */\n      pop\n      pop\n        /* \"#utility.yul\":5995:6441   */\n    tag_215:\n        /* \"#utility.yul\":5905:6448   */\n      pop\n      pop\n      pop\n      jump\t// out\n        /* \"#utility.yul\":6454:6571   */\n    tag_145:\n        /* \"#utility.yul\":6508:6516   */\n      0x00\n        /* \"#utility.yul\":6558:6563   */\n      dup3\n        /* \"#utility.yul\":6552:6556   */\n      dup3\n        /* \"#utility.yul\":6548:6564   */\n      shr\n        /* \"#utility.yul\":6527:6564   */\n      swap1\n      pop\n        /* \"#utility.yul\":6454:6571   */\n      swap3\n      swap2\n      pop\n      pop\n      jump\t// out\n        /* \"#utility.yul\":6577:6746   */\n    tag_146:\n        /* \"#utility.yul\":6621:6627   */\n      0x00\n        /* \"#utility.yul\":6654:6705   */\n      tag_223\n        /* \"#utility.yul\":6702:6703   */\n      0x00\n        /* \"#utility.yul\":6698:6704   */\n      not\n        /* \"#utility.yul\":6690:6695   */\n      dup5\n        /* \"#utility.yul\":6687:6688   */\n      0x08\n        /* \"#utility.yul\":6683:6696   */\n      mul\n        /* \"#utility.yul\":6654:6705   */\n      tag_145\n      jump\t// in\n    tag_223:\n        /* \"#utility.yul\":6650:6706   */\n      not\n        /* \"#utility.yul\":6735:6739   */\n      dup1\n        /* \"#utility.yul\":6729:6733   */\n      dup4\n        /* \"#utility.yul\":6725:6740   */\n      and\n        /* \"#utility.yul\":6715:6740   */\n      swap2\n      pop\n        /* \"#utility.yul\":6628:6746   */\n      pop\n        /* \"#utility.yul\":6577:6746   */\n      swap3\n      swap2\n      pop\n      pop\n      jump\t// out\n        /* \"#utility.yul\":6751:7046   */\n    tag_147:\n        /* \"#utility.yul\":6827:6831   */\n      0x00\n        /* \"#utility.yul\":6973:7002   */\n      tag_225\n        /* \"#utility.yul\":6998:7001   */\n      dup4\n        /* \"#utility.yul\":6992:6996   */\n      dup4\n        /* \"#utility.yul\":6973:7002   */\n      tag_146\n      jump\t// in\n    tag_225:\n        /* \"#utility.yul\":6965:7002   */\n      swap2\n      pop\n        /* \"#utility.yul\":7035:7038   */\n      dup3\n        /* \"#utility.yul\":7032:7033   */\n      0x02\n        /* \"#utility.yul\":7028:7039   */\n      mul\n        /* \"#utility.yul\":7022:7026   */\n      dup3\n        /* \"#utility.yul\":7019:7040   */\n      or\n        /* \"#utility.yul\":7011:7040   */\n      swap1\n      pop\n        /* \"#utility.yul\":6751:7046   */\n      swap3\n      swap2\n      pop\n      pop\n      jump\t// out\n        /* \"#utility.yul\":7051:8446   */\n    tag_101:\n        /* \"#utility.yul\":7168:7205   */\n      tag_227\n        /* \"#utility.yul\":7201:7204   */\n      dup3\n        /* \"#utility.yul\":7168:7205   */\n      tag_128\n      jump\t// in\n    tag_227:\n        /* \"#utility.yul\":7270:7288   */\n      0xffffffffffffffff\n        /* \"#utility.yul\":7262:7268   */\n      dup2\n        /* \"#utility.yul\":7259:7289   */\n      gt\n        /* \"#utility.yul\":7256:7312   */\n      iszero\n      tag_228\n      jumpi\n        /* \"#utility.yul\":7292:7310   */\n      tag_229\n      tag_131\n      jump\t// in\n    tag_229:\n        /* \"#utility.yul\":7256:7312   */\n    tag_228:\n        /* \"#utility.yul\":7336:7374   */\n      tag_230\n        /* \"#utility.yul\":7368:7372   */\n      dup3\n        /* \"#utility.yul\":7362:7373   */\n      sload\n        /* \"#utility.yul\":7336:7374   */\n      tag_103\n      jump\t// in\n    tag_230:\n        /* \"#utility.yul\":7421:7488   */\n      tag_231\n        /* \"#utility.yul\":7481:7487   */\n      dup3\n        /* \"#utility.yul\":7473:7479   */\n      dup3\n        /* \"#utility.yul\":7467:7471   */\n      dup6\n        /* \"#utility.yul\":7421:7488   */\n      tag_144\n      jump\t// in\n    tag_231:\n        /* \"#utility.yul\":7515:7516   */\n      0x00\n        /* \"#utility.yul\":7539:7543   */\n      0x20\n        /* \"#utility.yul\":7526:7543   */\n      swap1\n      pop\n        /* \"#utility.yul\":7571:7573   */\n      0x1f\n        /* \"#utility.yul\":7563:7569   */\n      dup4\n        /* \"#utility.yul\":7560:7574   */\n      gt\n        /* \"#utility.yul\":7588:7589   */\n      0x01\n        /* \"#utility.yul\":7583:8201   */\n      dup2\n      eq\n      tag_233\n      jumpi\n        /* \"#utility.yul\":8245:8246   */\n      0x00\n        /* \"#utility.yul\":8262:8268   */\n      dup5\n        /* \"#utility.yul\":8259:8336   */\n      iszero\n      tag_234\n      jumpi\n        /* \"#utility.yul\":8311:8320   */\n      dup3\n        /* \"#utility.yul\":8306:8309   */\n      dup8\n        /* \"#utility.yul\":8302:8321   */\n      add\n        /* \"#utility.yul\":8296:8322   */\n      mload\n        /* \"#utility.yul\":8287:8322   */\n      swap1\n      pop\n        /* \"#utility.yul\":8259:8336   */\n    tag_234:\n        /* \"#utility.yul\":8362:8429   */\n      tag_235\n        /* \"#utility.yul\":8422:8428   */\n      dup6\n        /* \"#utility.yul\":8415:8420   */\n      dup3\n        /* \"#utility.yul\":8362:8429   */\n      tag_147\n      jump\t// in\n    tag_235:\n        /* \"#utility.yul\":8356:8360   */\n      dup7\n        /* \"#utility.yul\":8349:8430   */\n      sstore\n        /* \"#utility.yul\":8218:8440   */\n      pop\n        /* \"#utility.yul\":7553:8440   */\n      jump(tag_232)\n        /* \"#utility.yul\":7583:8201   */\n    tag_233:\n        /* \"#utility.yul\":7635:7639   */\n      0x1f\n        /* \"#utility.yul\":7631:7640   */\n      not\n        /* \"#utility.yul\":7623:7629   */\n      dup5\n        /* \"#utility.yul\":7619:7641   */\n      and\n        /* \"#utility.yul\":7669:7706   */\n      tag_236\n        /* \"#utility.yul\":7701:7705   */\n      dup7\n        /* \"#utility.yul\":7669:7706   */\n      tag_133\n      jump\t// in\n    tag_236:\n        /* \"#utility.yul\":7728:7729   */\n      0x00\n        /* \"#utility.yul\":7742:7950   */\n    tag_237:\n        /* \"#utility.yul\":7756:7763   */\n      dup3\n        /* \"#utility.yul\":7753:7754   */\n      dup2\n        /* \"#utility.yul\":7750:7764   */\n      lt\n        /* \"#utility.yul\":7742:7950   */\n      iszero\n      tag_239\n      jumpi\n        /* \"#utility.yul\":7835:7844   */\n      dup5\n        /* \"#utility.yul\":7830:7833   */\n      dup10\n        /* \"#utility.yul\":7826:7845   */\n      add\n        /* \"#utility.yul\":7820:7846   */\n      mload\n        /* \"#utility.yul\":7812:7818   */\n      dup3\n        /* \"#utility.yul\":7805:7847   */\n      sstore\n        /* \"#utility.yul\":7886:7887   */\n      0x01\n        /* \"#utility.yul\":7878:7884   */\n      dup3\n        /* \"#utility.yul\":7874:7888   */\n      add\n        /* \"#utility.yul\":7864:7888   */\n      swap2\n      pop\n        /* \"#utility.yul\":7933:7935   */\n      0x20\n        /* \"#utility.yul\":7922:7931   */\n      dup6\n        /* \"#utility.yul\":7918:7936   */\n      add\n        /* \"#utility.yul\":7905:7936   */\n      swap5\n      pop\n        /* \"#utility.yul\":7779:7783   */\n      0x20\n        /* \"#utility.yul\":7776:7777   */\n      dup2\n        /* \"#utility.yul\":7772:7784   */\n      add\n        /* \"#utility.yul\":7767:7784   */\n      swap1\n      pop\n        /* \"#utility.yul\":7742:7950   */\n      jump(tag_237)\n    tag_239:\n        /* \"#utility.yul\":7978:7984   */\n      dup7\n        /* \"#utility.yul\":7969:7976   */\n      dup4\n        /* \"#utility.yul\":7966:7985   */\n      lt\n        /* \"#utility.yul\":7963:8142   */\n      iszero\n      tag_240\n      jumpi\n        /* \"#utility.yul\":8036:8045   */\n      dup5\n        /* \"#utility.yul\":8031:8034   */\n      dup10\n        /* \"#utility.yul\":8027:8046   */\n      add\n        /* \"#utility.yul\":8021:8047   */\n      mload\n        /* \"#utility.yul\":8079:8127   */\n      tag_241\n        /* \"#utility.yul\":8121:8125   */\n      0x1f\n        /* \"#utility.yul\":8113:8119   */\n      dup10\n        /* \"#utility.yul\":8109:8126   */\n      and\n        /* \"#utility.yul\":8098:8107   */\n      dup3\n        /* \"#utility.yul\":8079:8127   */\n      tag_146\n      jump\t// in\n    tag_241:\n        /* \"#utility.yul\":8071:8077   */\n      dup4\n        /* \"#utility.yul\":8064:8128   */\n      sstore\n        /* \"#utility.yul\":7986:8142   */\n      pop\n        /* \"#utility.yul\":7963:8142   */\n    tag_240:\n        /* \"#utility.yul\":8188:8189   */\n      0x01\n        /* \"#utility.yul\":8184:8185   */\n      0x02\n        /* \"#utility.yul\":8176:8182   */\n      dup9\n        /* \"#utility.yul\":8172:8186   */\n      mul\n        /* \"#utility.yul\":8168:8190   */\n      add\n        /* \"#utility.yul\":8162:8166   */\n      dup9\n        /* \"#utility.yul\":8155:8191   */\n      sstore\n        /* \"#utility.yul\":7590:8201   */\n      pop\n      pop\n      pop\n        /* \"#utility.yul\":7553:8440   */\n    tag_232:\n      pop\n        /* \"#utility.yul\":7143:8446   */\n      pop\n      pop\n      pop\n        /* \"#utility.yul\":7051:8446   */\n      pop\n      pop\n      jump\t// out\n        /* \"#utility.yul\":8452:8632   */\n    tag_148:\n        /* \"#utility.yul\":8500:8577   */\n      0x4e487b7100000000000000000000000000000000000000000000000000000000\n        /* \"#utility.yul\":8497:8498   */\n      0x00\n        /* \"#utility.yul\":8490:8578   */\n      mstore\n        /* \"#utility.yul\":8597:8601   */\n      0x11\n        /* \"#utility.yul\":8594:8595   */\n      0x04\n        /* \"#utility.yul\":8587:8602   */\n      mstore\n        /* \"#utility.yul\":8621:8625   */\n      0x24\n        /* \"#utility.yul\":8618:8619   */\n      0x00\n        /* \"#utility.yul\":8611:8626   */\n      revert\n        /* \"#utility.yul\":8638:8829   */\n    tag_117:\n        /* \"#utility.yul\":8678:8681   */\n      0x00\n        /* \"#utility.yul\":8697:8717   */\n      tag_244\n        /* \"#utility.yul\":8715:8716   */\n      dup3\n        /* \"#utility.yul\":8697:8717   */\n      tag_118\n      jump\t// in\n    tag_244:\n        /* \"#utility.yul\":8692:8717   */\n      swap2\n      pop\n        /* \"#utility.yul\":8731:8751   */\n      tag_245\n        /* \"#utility.yul\":8749:8750   */\n      dup4\n        /* \"#utility.yul\":8731:8751   */\n      tag_118\n      jump\t// in\n    tag_245:\n        /* \"#utility.yul\":8726:8751   */\n      swap3\n      pop\n        /* \"#utility.yul\":8774:8775   */\n      dup3\n        /* \"#utility.yul\":8771:8772   */\n      dup3\n        /* \"#utility.yul\":8767:8776   */\n      add\n        /* \"#utility.yul\":8760:8776   */\n      swap1\n      pop\n        /* \"#utility.yul\":8795:8798   */\n      dup1\n        /* \"#utility.yul\":8792:8793   */\n      dup3\n        /* \"#utility.yul\":8789:8799   */\n      gt\n        /* \"#utility.yul\":8786:8822   */\n      iszero\n      tag_246\n      jumpi\n        /* \"#utility.yul\":8802:8820   */\n      tag_247\n      tag_148\n      jump\t// in\n    tag_247:\n        /* \"#utility.yul\":8786:8822   */\n    tag_246:\n        /* \"#utility.yul\":8638:8829   */\n      swap3\n      swap2\n      pop\n      pop\n      jump\t// out\n\n    auxdata: 0xa2646970667358221220e758218e6b442f41bde5530a95f9077792640c129f52f5ea8e1dcb9c0cc812dc64736f6c634300081a0033\n}\n",
				"bytecode": {
					"linkReferences": {},
					"object": "608060405260015f553480156012575f80fd5b50610ac4806100205f395ff3fe608060405234801561000f575f80fd5b50600436106100e8575f3560e01c8063a05f99061161008a578063c298557811610064578063c29855781461021a578063c5d7802e14610224578063cc97e23814610242578063febb0f7e14610260576100e8565b8063a05f9906146101be578063a56dfe4a146101de578063b932d448146101fc576100e8565b80632da422fe116100c65780632da422fe1461014657806339ab09a714610164578063556b90b2146101825780636ee41262146101a0576100e8565b80630c55699c146100ec57806322d05d601461010a5780632300423814610128575b5f80fd5b6100f461027e565b6040516101019190610595565b60405180910390f35b610112610283565b60405161011f9190610595565b60405180910390f35b6101306102ca565b60405161013d9190610595565b60405180910390f35b61014e6102f7565b60405161015b9190610595565b60405180910390f35b61016c610321565b6040516101799190610595565b60405180910390f35b61018a610354565b6040516101979190610595565b60405180910390f35b6101a8610384565b6040516101b59190610595565b60405180910390f35b6101c661039d565b6040516101d59392919061065d565b60405180910390f35b6101e6610401565b6040516101f39190610595565b60405180910390f35b610204610407565b6040516102119190610595565b60405180910390f35b610222610431565b005b61022c610487565b60405161023991906106eb565b60405180910390f35b61024a610513565b6040516102579190610595565b60405180910390f35b61026861055a565b6040516102759190610595565b60405180910390f35b5f5481565b5f670de0b6b3a7640000801461029c5761029b61070b565b5b678ac7230489e80000670de0b6b3a7640000146102bc576102bb61070b565b5b670de0b6b3a7640000905090565b5f610e1080146102dd576102dc61070b565b5b610e1080146102ef576102ee61070b565b5b610e10905090565b5f600180146103095761030861070b565b5b6001801461031a5761031961070b565b5b6001905090565b5f633b9aca0080146103365761033561070b565b5b633b9aca00801461034a5761034961070b565b5b633b9aca00905090565b5f62093a8080146103685761036761070b565b5b62093a80801461037b5761037a61070b565b5b62093a80905090565b5f600180146103965761039561070b565b5b6001905090565b5f8060605f3390505f4390505f80368080601f0160208091040260200160405190810160405280939291908181526020018383808284375f81840152601f19601f820116905080830192505050505050509050828282955095509550505050909192565b60015481565b5f603c80146104195761041861070b565b5b603c801461042a5761042961070b565b5b603c905090565b60055f8190555060026001819055506040518060400160405280600481526020017f307841410000000000000000000000000000000000000000000000000000000081525060029081610484919061095f565b50565b6002805461049490610792565b80601f01602080910402602001604051908101604052809291908181526020018280546104c090610792565b801561050b5780601f106104e25761010080835404028352916020019161050b565b820191905f5260205f20905b8154815290600101906020018083116104ee57829003601f168201915b505050505081565b5f6201518080146105275761052661070b565b5b63128a1800620151801461053e5761053d61070b565b5b6201518080146105515761055061070b565b5b62015180905090565b5f80600190505f600390505f81836105729190610a5b565b905080935050505090565b5f819050919050565b61058f8161057d565b82525050565b5f6020820190506105a85f830184610586565b92915050565b5f73ffffffffffffffffffffffffffffffffffffffff82169050919050565b5f6105d7826105ae565b9050919050565b6105e7816105cd565b82525050565b5f81519050919050565b5f82825260208201905092915050565b8281835e5f83830152505050565b5f601f19601f8301169050919050565b5f61062f826105ed565b61063981856105f7565b9350610649818560208601610607565b61065281610615565b840191505092915050565b5f6060820190506106705f8301866105de565b61067d6020830185610586565b818103604083015261068f8184610625565b9050949350505050565b5f81519050919050565b5f82825260208201905092915050565b5f6106bd82610699565b6106c781856106a3565b93506106d7818560208601610607565b6106e081610615565b840191505092915050565b5f6020820190508181035f83015261070381846106b3565b905092915050565b7f4e487b71000000000000000000000000000000000000000000000000000000005f52600160045260245ffd5b7f4e487b71000000000000000000000000000000000000000000000000000000005f52604160045260245ffd5b7f4e487b71000000000000000000000000000000000000000000000000000000005f52602260045260245ffd5b5f60028204905060018216806107a957607f821691505b6020821081036107bc576107bb610765565b5b50919050565b5f819050815f5260205f209050919050565b5f6020601f8301049050919050565b5f82821b905092915050565b5f6008830261081e7fffffffffffffffffffffffffffffffffffffffffffffffffffffffffffffffff826107e3565b61082886836107e3565b95508019841693508086168417925050509392505050565b5f819050919050565b5f61086361085e6108598461057d565b610840565b61057d565b9050919050565b5f819050919050565b61087c83610849565b6108906108888261086a565b8484546107ef565b825550505050565b5f90565b6108a4610898565b6108af818484610873565b505050565b5b818110156108d2576108c75f8261089c565b6001810190506108b5565b5050565b601f821115610917576108e8816107c2565b6108f1846107d4565b81016020851015610900578190505b61091461090c856107d4565b8301826108b4565b50505b505050565b5f82821c905092915050565b5f6109375f198460080261091c565b1980831691505092915050565b5f61094f8383610928565b9150826002028217905092915050565b61096882610699565b67ffffffffffffffff81111561098157610980610738565b5b61098b8254610792565b6109968282856108d6565b5f60209050601f8311600181146109c7575f84156109b5578287015190505b6109bf8582610944565b865550610a26565b601f1984166109d5866107c2565b5f5b828110156109fc578489015182556001820191506020850194506020810190506109d7565b86831015610a195784890151610a15601f891682610928565b8355505b6001600288020188555050505b505050505050565b7f4e487b71000000000000000000000000000000000000000000000000000000005f52601160045260245ffd5b5f610a658261057d565b9150610a708361057d565b9250828201905080821115610a8857610a87610a2e565b5b9291505056fea2646970667358221220e758218e6b442f41bde5530a95f9077792640c129f52f5ea8e1dcb9c0cc812dc64736f6c634300081a0033",
					"opcodes": "PUSH1 0x80 PUSH1 0x40 MSTORE PUSH1 0x1 PUSH0 SSTORE CALLVALUE DUP1 ISZERO PUSH1 0x12 JUMPI PUSH0 DUP1 REVERT JUMPDEST POP PUSH2 0xAC4 DUP1 PUSH2 0x20 PUSH0 CODECOPY PUSH0 RETURN INVALID PUSH1 0x80 PUSH1 0x40 MSTORE CALLVALUE DUP1 ISZERO PUSH2 0xF JUMPI PUSH0 DUP1 REVERT JUMPDEST POP PUSH1 0x4 CALLDATASIZE LT PUSH2 0xE8 JUMPI PUSH0 CALLDATALOAD PUSH1 0xE0 SHR DUP1 PUSH4 0xA05F9906 GT PUSH2 0x8A JUMPI DUP1 PUSH4 0xC2985578 GT PUSH2 0x64 JUMPI DUP1 PUSH4 0xC2985578 EQ PUSH2 0x21A JUMPI DUP1 PUSH4 0xC5D7802E EQ PUSH2 0x224 JUMPI DUP1 PUSH4 0xCC97E238 EQ PUSH2 0x242 JUMPI DUP1 PUSH4 0xFEBB0F7E EQ PUSH2 0x260 JUMPI PUSH2 0xE8 JUMP JUMPDEST DUP1 PUSH4 0xA05F9906 EQ PUSH2 0x1BE JUMPI DUP1 PUSH4 0xA56DFE4A EQ PUSH2 0x1DE JUMPI DUP1 PUSH4 0xB932D448 EQ PUSH2 0x1FC JUMPI PUSH2 0xE8 JUMP JUMPDEST DUP1 PUSH4 0x2DA422FE GT PUSH2 0xC6 JUMPI DUP1 PUSH4 0x2DA422FE EQ PUSH2 0x146 JUMPI DUP1 PUSH4 0x39AB09A7 EQ PUSH2 0x164 JUMPI DUP1 PUSH4 0x556B90B2 EQ PUSH2 0x182 JUMPI DUP1 PUSH4 0x6EE41262 EQ PUSH2 0x1A0 JUMPI PUSH2 0xE8 JUMP JUMPDEST DUP1 PUSH4 0xC55699C EQ PUSH2 0xEC JUMPI DUP1 PUSH4 0x22D05D60 EQ PUSH2 0x10A JUMPI DUP1 PUSH4 0x23004238 EQ PUSH2 0x128 JUMPI JUMPDEST PUSH0 DUP1 REVERT JUMPDEST PUSH2 0xF4 PUSH2 0x27E JUMP JUMPDEST PUSH1 0x40 MLOAD PUSH2 0x101 SWAP2 SWAP1 PUSH2 0x595 JUMP JUMPDEST PUSH1 0x40 MLOAD DUP1 SWAP2 SUB SWAP1 RETURN JUMPDEST PUSH2 0x112 PUSH2 0x283 JUMP JUMPDEST PUSH1 0x40 MLOAD PUSH2 0x11F SWAP2 SWAP1 PUSH2 0x595 JUMP JUMPDEST PUSH1 0x40 MLOAD DUP1 SWAP2 SUB SWAP1 RETURN JUMPDEST PUSH2 0x130 PUSH2 0x2CA JUMP JUMPDEST PUSH1 0x40 MLOAD PUSH2 0x13D SWAP2 SWAP1 PUSH2 0x595 JUMP JUMPDEST PUSH1 0x40 MLOAD DUP1 SWAP2 SUB SWAP1 RETURN JUMPDEST PUSH2 0x14E PUSH2 0x2F7 JUMP JUMPDEST PUSH1 0x40 MLOAD PUSH2 0x15B SWAP2 SWAP1 PUSH2 0x595 JUMP JUMPDEST PUSH1 0x40 MLOAD DUP1 SWAP2 SUB SWAP1 RETURN JUMPDEST PUSH2 0x16C PUSH2 0x321 JUMP JUMPDEST PUSH1 0x40 MLOAD PUSH2 0x179 SWAP2 SWAP1 PUSH2 0x595 JUMP JUMPDEST PUSH1 0x40 MLOAD DUP1 SWAP2 SUB SWAP1 RETURN JUMPDEST PUSH2 0x18A PUSH2 0x354 JUMP JUMPDEST PUSH1 0x40 MLOAD PUSH2 0x197 SWAP2 SWAP1 PUSH2 0x595 JUMP JUMPDEST PUSH1 0x40 MLOAD DUP1 SWAP2 SUB SWAP1 RETURN JUMPDEST PUSH2 0x1A8 PUSH2 0x384 JUMP JUMPDEST PUSH1 0x40 MLOAD PUSH2 0x1B5 SWAP2 SWAP1 PUSH2 0x595 JUMP JUMPDEST PUSH1 0x40 MLOAD DUP1 SWAP2 SUB SWAP1 RETURN JUMPDEST PUSH2 0x1C6 PUSH2 0x39D JUMP JUMPDEST PUSH1 0x40 MLOAD PUSH2 0x1D5 SWAP4 SWAP3 SWAP2 SWAP1 PUSH2 0x65D JUMP JUMPDEST PUSH1 0x40 MLOAD DUP1 SWAP2 SUB SWAP1 RETURN JUMPDEST PUSH2 0x1E6 PUSH2 0x401 JUMP JUMPDEST PUSH1 0x40 MLOAD PUSH2 0x1F3 SWAP2 SWAP1 PUSH2 0x595 JUMP JUMPDEST PUSH1 0x40 MLOAD DUP1 SWAP2 SUB SWAP1 RETURN JUMPDEST PUSH2 0x204 PUSH2 0x407 JUMP JUMPDEST PUSH1 0x40 MLOAD PUSH2 0x211 SWAP2 SWAP1 PUSH2 0x595 JUMP JUMPDEST PUSH1 0x40 MLOAD DUP1 SWAP2 SUB SWAP1 RETURN JUMPDEST PUSH2 0x222 PUSH2 0x431 JUMP JUMPDEST STOP JUMPDEST PUSH2 0x22C PUSH2 0x487 JUMP JUMPDEST PUSH1 0x40 MLOAD PUSH2 0x239 SWAP2 SWAP1 PUSH2 0x6EB JUMP JUMPDEST PUSH1 0x40 MLOAD DUP1 SWAP2 SUB SWAP1 RETURN JUMPDEST PUSH2 0x24A PUSH2 0x513 JUMP JUMPDEST PUSH1 0x40 MLOAD PUSH2 0x257 SWAP2 SWAP1 PUSH2 0x595 JUMP JUMPDEST PUSH1 0x40 MLOAD DUP1 SWAP2 SUB SWAP1 RETURN JUMPDEST PUSH2 0x268 PUSH2 0x55A JUMP JUMPDEST PUSH1 0x40 MLOAD PUSH2 0x275 SWAP2 SWAP1 PUSH2 0x595 JUMP JUMPDEST PUSH1 0x40 MLOAD DUP1 SWAP2 SUB SWAP1 RETURN JUMPDEST PUSH0 SLOAD DUP2 JUMP JUMPDEST PUSH0 PUSH8 0xDE0B6B3A7640000 DUP1 EQ PUSH2 0x29C JUMPI PUSH2 0x29B PUSH2 0x70B JUMP JUMPDEST JUMPDEST PUSH8 0x8AC7230489E80000 PUSH8 0xDE0B6B3A7640000 EQ PUSH2 0x2BC JUMPI PUSH2 0x2BB PUSH2 0x70B JUMP JUMPDEST JUMPDEST PUSH8 0xDE0B6B3A7640000 SWAP1 POP SWAP1 JUMP JUMPDEST PUSH0 PUSH2 0xE10 DUP1 EQ PUSH2 0x2DD JUMPI PUSH2 0x2DC PUSH2 0x70B JUMP JUMPDEST JUMPDEST PUSH2 0xE10 DUP1 EQ PUSH2 0x2EF JUMPI PUSH2 0x2EE PUSH2 0x70B JUMP JUMPDEST JUMPDEST PUSH2 0xE10 SWAP1 POP SWAP1 JUMP JUMPDEST PUSH0 PUSH1 0x1 DUP1 EQ PUSH2 0x309 JUMPI PUSH2 0x308 PUSH2 0x70B JUMP JUMPDEST JUMPDEST PUSH1 0x1 DUP1 EQ PUSH2 0x31A JUMPI PUSH2 0x319 PUSH2 0x70B JUMP JUMPDEST JUMPDEST PUSH1 0x1 SWAP1 POP SWAP1 JUMP JUMPDEST PUSH0 PUSH4 0x3B9ACA00 DUP1 EQ PUSH2 0x336 JUMPI PUSH2 0x335 PUSH2 0x70B JUMP JUMPDEST JUMPDEST PUSH4 0x3B9ACA00 DUP1 EQ PUSH2 0x34A JUMPI PUSH2 0x349 PUSH2 0x70B JUMP JUMPDEST JUMPDEST PUSH4 0x3B9ACA00 SWAP1 POP SWAP1 JUMP JUMPDEST PUSH0 PUSH3 0x93A80 DUP1 EQ PUSH2 0x368 JUMPI PUSH2 0x367 PUSH2 0x70B JUMP JUMPDEST JUMPDEST PUSH3 0x93A80 DUP1 EQ PUSH2 0x37B JUMPI PUSH2 0x37A PUSH2 0x70B JUMP JUMPDEST JUMPDEST PUSH3 0x93A80 SWAP1 POP SWAP1 JUMP JUMPDEST PUSH0 PUSH1 0x1 DUP1 EQ PUSH2 0x396 JUMPI PUSH2 0x395 PUSH2 0x70B JUMP JUMPDEST JUMPDEST PUSH1 0x1 SWAP1 POP SWAP1 JUMP JUMPDEST PUSH0 DUP1 PUSH1 0x60 PUSH0 CALLER SWAP1 POP PUSH0 NUMBER SWAP1 POP PUSH0 DUP1 CALLDATASIZE DUP1 DUP1 PUSH1 0x1F ADD PUSH1 0x20 DUP1 SWAP2 DIV MUL PUSH1 0x20 ADD PUSH1 0x40 MLOAD SWAP1 DUP2 ADD PUSH1 0x40 MSTORE DUP1 SWAP4 SWAP3 SWAP2 SWAP1 DUP2 DUP2 MSTORE PUSH1 0x20 ADD DUP4 DUP4 DUP1 DUP3 DUP5 CALLDATACOPY PUSH0 DUP2 DUP5 ADD MSTORE PUSH1 0x1F NOT PUSH1 0x1F DUP3 ADD AND SWAP1 POP DUP1 DUP4 ADD SWAP3 POP POP POP POP POP POP POP SWAP1 POP DUP3 DUP3 DUP3 SWAP6 POP SWAP6 POP SWAP6 POP POP POP POP SWAP1 SWAP2 SWAP3 JUMP JUMPDEST PUSH1 0x1 SLOAD DUP2 JUMP JUMPDEST PUSH0 PUSH1 0x3C DUP1 EQ PUSH2 0x419 JUMPI PUSH2 0x418 PUSH2 0x70B JUMP JUMPDEST JUMPDEST PUSH1 0x3C DUP1 EQ PUSH2 0x42A JUMPI PUSH2 0x429 PUSH2 0x70B JUMP JUMPDEST JUMPDEST PUSH1 0x3C SWAP1 POP SWAP1 JUMP JUMPDEST PUSH1 0x5 PUSH0 DUP2 SWAP1 SSTORE POP PUSH1 0x2 PUSH1 0x1 DUP2 SWAP1 SSTORE POP PUSH1 0x40 MLOAD DUP1 PUSH1 0x40 ADD PUSH1 0x40 MSTORE DUP1 PUSH1 0x4 DUP2 MSTORE PUSH1 0x20 ADD PUSH32 0x3078414100000000000000000000000000000000000000000000000000000000 DUP2 MSTORE POP PUSH1 0x2 SWAP1 DUP2 PUSH2 0x484 SWAP2 SWAP1 PUSH2 0x95F JUMP JUMPDEST POP JUMP JUMPDEST PUSH1 0x2 DUP1 SLOAD PUSH2 0x494 SWAP1 PUSH2 0x792 JUMP JUMPDEST DUP1 PUSH1 0x1F ADD PUSH1 0x20 DUP1 SWAP2 DIV MUL PUSH1 0x20 ADD PUSH1 0x40 MLOAD SWAP1 DUP2 ADD PUSH1 0x40 MSTORE DUP1 SWAP3 SWAP2 SWAP1 DUP2 DUP2 MSTORE PUSH1 0x20 ADD DUP3 DUP1 SLOAD PUSH2 0x4C0 SWAP1 PUSH2 0x792 JUMP JUMPDEST DUP1 ISZERO PUSH2 0x50B JUMPI DUP1 PUSH1 0x1F LT PUSH2 0x4E2 JUMPI PUSH2 0x100 DUP1 DUP4 SLOAD DIV MUL DUP4 MSTORE SWAP2 PUSH1 0x20 ADD SWAP2 PUSH2 0x50B JUMP JUMPDEST DUP3 ADD SWAP2 SWAP1 PUSH0 MSTORE PUSH1 0x20 PUSH0 KECCAK256 SWAP1 JUMPDEST DUP2 SLOAD DUP2 MSTORE SWAP1 PUSH1 0x1 ADD SWAP1 PUSH1 0x20 ADD DUP1 DUP4 GT PUSH2 0x4EE JUMPI DUP3 SWAP1 SUB PUSH1 0x1F AND DUP3 ADD SWAP2 JUMPDEST POP POP POP POP POP DUP2 JUMP JUMPDEST PUSH0 PUSH3 0x15180 DUP1 EQ PUSH2 0x527 JUMPI PUSH2 0x526 PUSH2 0x70B JUMP JUMPDEST JUMPDEST PUSH4 0x128A1800 PUSH3 0x15180 EQ PUSH2 0x53E JUMPI PUSH2 0x53D PUSH2 0x70B JUMP JUMPDEST JUMPDEST PUSH3 0x15180 DUP1 EQ PUSH2 0x551 JUMPI PUSH2 0x550 PUSH2 0x70B JUMP JUMPDEST JUMPDEST PUSH3 0x15180 SWAP1 POP SWAP1 JUMP JUMPDEST PUSH0 DUP1 PUSH1 0x1 SWAP1 POP PUSH0 PUSH1 0x3 SWAP1 POP PUSH0 DUP2 DUP4 PUSH2 0x572 SWAP2 SWAP1 PUSH2 0xA5B JUMP JUMPDEST SWAP1 POP DUP1 SWAP4 POP POP POP POP SWAP1 JUMP JUMPDEST PUSH0 DUP2 SWAP1 POP SWAP2 SWAP1 POP JUMP JUMPDEST PUSH2 0x58F DUP2 PUSH2 0x57D JUMP JUMPDEST DUP3 MSTORE POP POP JUMP JUMPDEST PUSH0 PUSH1 0x20 DUP3 ADD SWAP1 POP PUSH2 0x5A8 PUSH0 DUP4 ADD DUP5 PUSH2 0x586 JUMP JUMPDEST SWAP3 SWAP2 POP POP JUMP JUMPDEST PUSH0 PUSH20 0xFFFFFFFFFFFFFFFFFFFFFFFFFFFFFFFFFFFFFFFF DUP3 AND SWAP1 POP SWAP2 SWAP1 POP JUMP JUMPDEST PUSH0 PUSH2 0x5D7 DUP3 PUSH2 0x5AE JUMP JUMPDEST SWAP1 POP SWAP2 SWAP1 POP JUMP JUMPDEST PUSH2 0x5E7 DUP2 PUSH2 0x5CD JUMP JUMPDEST DUP3 MSTORE POP POP JUMP JUMPDEST PUSH0 DUP2 MLOAD SWAP1 POP SWAP2 SWAP1 POP JUMP JUMPDEST PUSH0 DUP3 DUP3 MSTORE PUSH1 0x20 DUP3 ADD SWAP1 POP SWAP3 SWAP2 POP POP JUMP JUMPDEST DUP3 DUP2 DUP4 MCOPY PUSH0 DUP4 DUP4 ADD MSTORE POP POP POP JUMP JUMPDEST PUSH0 PUSH1 0x1F NOT PUSH1 0x1F DUP4 ADD AND SWAP1 POP SWAP2 SWAP1 POP JUMP JUMPDEST PUSH0 PUSH2 0x62F DUP3 PUSH2 0x5ED JUMP JUMPDEST PUSH2 0x639 DUP2 DUP6 PUSH2 0x5F7 JUMP JUMPDEST SWAP4 POP PUSH2 0x649 DUP2 DUP6 PUSH1 0x20 DUP7 ADD PUSH2 0x607 JUMP JUMPDEST PUSH2 0x652 DUP2 PUSH2 0x615 JUMP JUMPDEST DUP5 ADD SWAP2 POP POP SWAP3 SWAP2 POP POP JUMP JUMPDEST PUSH0 PUSH1 0x60 DUP3 ADD SWAP1 POP PUSH2 0x670 PUSH0 DUP4 ADD DUP7 PUSH2 0x5DE JUMP JUMPDEST PUSH2 0x67D PUSH1 0x20 DUP4 ADD DUP6 PUSH2 0x586 JUMP JUMPDEST DUP2 DUP2 SUB PUSH1 0x40 DUP4 ADD MSTORE PUSH2 0x68F DUP2 DUP5 PUSH2 0x625 JUMP JUMPDEST SWAP1 POP SWAP5 SWAP4 POP POP POP POP JUMP JUMPDEST PUSH0 DUP2 MLOAD SWAP1 POP SWAP2 SWAP1 POP JUMP JUMPDEST PUSH0 DUP3 DUP3 MSTORE PUSH1 0x20 DUP3 ADD SWAP1 POP SWAP3 SWAP2 POP POP JUMP JUMPDEST PUSH0 PUSH2 0x6BD DUP3 PUSH2 0x699 JUMP JUMPDEST PUSH2 0x6C7 DUP2 DUP6 PUSH2 0x6A3 JUMP JUMPDEST SWAP4 POP PUSH2 0x6D7 DUP2 DUP6 PUSH1 0x20 DUP7 ADD PUSH2 0x607 JUMP JUMPDEST PUSH2 0x6E0 DUP2 PUSH2 0x615 JUMP JUMPDEST DUP5 ADD SWAP2 POP POP SWAP3 SWAP2 POP POP JUMP JUMPDEST PUSH0 PUSH1 0x20 DUP3 ADD SWAP1 POP DUP2 DUP2 SUB PUSH0 DUP4 ADD MSTORE PUSH2 0x703 DUP2 DUP5 PUSH2 0x6B3 JUMP JUMPDEST SWAP1 POP SWAP3 SWAP2 POP POP JUMP JUMPDEST PUSH32 0x4E487B7100000000000000000000000000000000000000000000000000000000 PUSH0 MSTORE PUSH1 0x1 PUSH1 0x4 MSTORE PUSH1 0x24 PUSH0 REVERT JUMPDEST PUSH32 0x4E487B7100000000000000000000000000000000000000000000000000000000 PUSH0 MSTORE PUSH1 0x41 PUSH1 0x4 MSTORE PUSH1 0x24 PUSH0 REVERT JUMPDEST PUSH32 0x4E487B7100000000000000000000000000000000000000000000000000000000 PUSH0 MSTORE PUSH1 0x22 PUSH1 0x4 MSTORE PUSH1 0x24 PUSH0 REVERT JUMPDEST PUSH0 PUSH1 0x2 DUP3 DIV SWAP1 POP PUSH1 0x1 DUP3 AND DUP1 PUSH2 0x7A9 JUMPI PUSH1 0x7F DUP3 AND SWAP2 POP JUMPDEST PUSH1 0x20 DUP3 LT DUP2 SUB PUSH2 0x7BC JUMPI PUSH2 0x7BB PUSH2 0x765 JUMP JUMPDEST JUMPDEST POP SWAP2 SWAP1 POP JUMP JUMPDEST PUSH0 DUP2 SWAP1 POP DUP2 PUSH0 MSTORE PUSH1 0x20 PUSH0 KECCAK256 SWAP1 POP SWAP2 SWAP1 POP JUMP JUMPDEST PUSH0 PUSH1 0x20 PUSH1 0x1F DUP4 ADD DIV SWAP1 POP SWAP2 SWAP1 POP JUMP JUMPDEST PUSH0 DUP3 DUP3 SHL SWAP1 POP SWAP3 SWAP2 POP POP JUMP JUMPDEST PUSH0 PUSH1 0x8 DUP4 MUL PUSH2 0x81E PUSH32 0xFFFFFFFFFFFFFFFFFFFFFFFFFFFFFFFFFFFFFFFFFFFFFFFFFFFFFFFFFFFFFFFF DUP3 PUSH2 0x7E3 JUMP JUMPDEST PUSH2 0x828 DUP7 DUP4 PUSH2 0x7E3 JUMP JUMPDEST SWAP6 POP DUP1 NOT DUP5 AND SWAP4 POP DUP1 DUP7 AND DUP5 OR SWAP3 POP POP POP SWAP4 SWAP3 POP POP POP JUMP JUMPDEST PUSH0 DUP2 SWAP1 POP SWAP2 SWAP1 POP JUMP JUMPDEST PUSH0 PUSH2 0x863 PUSH2 0x85E PUSH2 0x859 DUP5 PUSH2 0x57D JUMP JUMPDEST PUSH2 0x840 JUMP JUMPDEST PUSH2 0x57D JUMP JUMPDEST SWAP1 POP SWAP2 SWAP1 POP JUMP JUMPDEST PUSH0 DUP2 SWAP1 POP SWAP2 SWAP1 POP JUMP JUMPDEST PUSH2 0x87C DUP4 PUSH2 0x849 JUMP JUMPDEST PUSH2 0x890 PUSH2 0x888 DUP3 PUSH2 0x86A JUMP JUMPDEST DUP5 DUP5 SLOAD PUSH2 0x7EF JUMP JUMPDEST DUP3 SSTORE POP POP POP POP JUMP JUMPDEST PUSH0 SWAP1 JUMP JUMPDEST PUSH2 0x8A4 PUSH2 0x898 JUMP JUMPDEST PUSH2 0x8AF DUP2 DUP5 DUP5 PUSH2 0x873 JUMP JUMPDEST POP POP POP JUMP JUMPDEST JUMPDEST DUP2 DUP2 LT ISZERO PUSH2 0x8D2 JUMPI PUSH2 0x8C7 PUSH0 DUP3 PUSH2 0x89C JUMP JUMPDEST PUSH1 0x1 DUP2 ADD SWAP1 POP PUSH2 0x8B5 JUMP JUMPDEST POP POP JUMP JUMPDEST PUSH1 0x1F DUP3 GT ISZERO PUSH2 0x917 JUMPI PUSH2 0x8E8 DUP2 PUSH2 0x7C2 JUMP JUMPDEST PUSH2 0x8F1 DUP5 PUSH2 0x7D4 JUMP JUMPDEST DUP2 ADD PUSH1 0x20 DUP6 LT ISZERO PUSH2 0x900 JUMPI DUP2 SWAP1 POP JUMPDEST PUSH2 0x914 PUSH2 0x90C DUP6 PUSH2 0x7D4 JUMP JUMPDEST DUP4 ADD DUP3 PUSH2 0x8B4 JUMP JUMPDEST POP POP JUMPDEST POP POP POP JUMP JUMPDEST PUSH0 DUP3 DUP3 SHR SWAP1 POP SWAP3 SWAP2 POP POP JUMP JUMPDEST PUSH0 PUSH2 0x937 PUSH0 NOT DUP5 PUSH1 0x8 MUL PUSH2 0x91C JUMP JUMPDEST NOT DUP1 DUP4 AND SWAP2 POP POP SWAP3 SWAP2 POP POP JUMP JUMPDEST PUSH0 PUSH2 0x94F DUP4 DUP4 PUSH2 0x928 JUMP JUMPDEST SWAP2 POP DUP3 PUSH1 0x2 MUL DUP3 OR SWAP1 POP SWAP3 SWAP2 POP POP JUMP JUMPDEST PUSH2 0x968 DUP3 PUSH2 0x699 JUMP JUMPDEST PUSH8 0xFFFFFFFFFFFFFFFF DUP2 GT ISZERO PUSH2 0x981 JUMPI PUSH2 0x980 PUSH2 0x738 JUMP JUMPDEST JUMPDEST PUSH2 0x98B DUP3 SLOAD PUSH2 0x792 JUMP JUMPDEST PUSH2 0x996 DUP3 DUP3 DUP6 PUSH2 0x8D6 JUMP JUMPDEST PUSH0 PUSH1 0x20 SWAP1 POP PUSH1 0x1F DUP4 GT PUSH1 0x1 DUP2 EQ PUSH2 0x9C7 JUMPI PUSH0 DUP5 ISZERO PUSH2 0x9B5 JUMPI DUP3 DUP8 ADD MLOAD SWAP1 POP JUMPDEST PUSH2 0x9BF DUP6 DUP3 PUSH2 0x944 JUMP JUMPDEST DUP7 SSTORE POP PUSH2 0xA26 JUMP JUMPDEST PUSH1 0x1F NOT DUP5 AND PUSH2 0x9D5 DUP7 PUSH2 0x7C2 JUMP JUMPDEST PUSH0 JUMPDEST DUP3 DUP2 LT ISZERO PUSH2 0x9FC JUMPI DUP5 DUP10 ADD MLOAD DUP3 SSTORE PUSH1 0x1 DUP3 ADD SWAP2 POP PUSH1 0x20 DUP6 ADD SWAP5 POP PUSH1 0x20 DUP2 ADD SWAP1 POP PUSH2 0x9D7 JUMP JUMPDEST DUP7 DUP4 LT ISZERO PUSH2 0xA19 JUMPI DUP5 DUP10 ADD MLOAD PUSH2 0xA15 PUSH1 0x1F DUP10 AND DUP3 PUSH2 0x928 JUMP JUMPDEST DUP4 SSTORE POP JUMPDEST PUSH1 0x1 PUSH1 0x2 DUP9 MUL ADD DUP9 SSTORE POP POP POP JUMPDEST POP POP POP POP POP POP JUMP JUMPDEST PUSH32 0x4E487B7100000000000000000000000000000000000000000000000000000000 PUSH0 MSTORE PUSH1 0x11 PUSH1 0x4 MSTORE PUSH1 0x24 PUSH0 REVERT JUMPDEST PUSH0 PUSH2 0xA65 DUP3 PUSH2 0x57D JUMP JUMPDEST SWAP2 POP PUSH2 0xA70 DUP4 PUSH2 0x57D JUMP JUMPDEST SWAP3 POP DUP3 DUP3 ADD SWAP1 POP DUP1 DUP3 GT ISZERO PUSH2 0xA88 JUMPI PUSH2 0xA87 PUSH2 0xA2E JUMP JUMPDEST JUMPDEST SWAP3 SWAP2 POP POP JUMP INVALID LOG2 PUSH5 0x6970667358 0x22 SLT KECCAK256 0xE7 PC 0x21 DUP15 PUSH12 0x442F41BDE5530A95F9077792 PUSH5 0xC129F52F5 0xEA DUP15 SAR 0xCB SWAP13 0xC 0xC8 SLT 0xDC PUSH5 0x736F6C6343 STOP ADDMOD BYTE STOP CALLER "
				},
				"gasEstimates": {
					"creation": {
						"codeDepositCost": "551200",
						"executionCost": "22690",
						"totalCost": "573890"
					},
					"external": {
						"bar()": "infinite",
						"daysUint()": "284",
						"etherUint()": "264",
						"foo()": "infinite",
						"global()": "infinite",
						"gweiUint()": "423",
						"hoursUint()": "446",
						"minutesUint()": "445",
						"secondsUint()": "444",
						"weeksUint()": "445",
						"weiUint()": "401",
						"x()": "2448",
						"y()": "2470",
						"z()": "infinite"
					}
				},
				"methodIdentifiers": {
					"bar()": "febb0f7e",
					"daysUint()": "cc97e238",
					"etherUint()": "22d05d60",
					"foo()": "c2985578",
					"global()": "a05f9906",
					"gweiUint()": "39ab09a7",
					"hoursUint()": "23004238",
					"minutesUint()": "b932d448",
					"secondsUint()": "6ee41262",
					"weeksUint()": "556b90b2",
					"weiUint()": "2da422fe",
					"x()": "0c55699c",
					"y()": "a56dfe4a",
					"z()": "c5d7802e"
				}
			},
			"storageLayout": {
				"storage": [
					{
						"astId": 77,
						"contract": "contracts/DataStorage.sol:Variables",
						"label": "x",
						"offset": 0,
						"slot": "0",
						"type": "t_uint256"
					},
					{
						"astId": 79,
						"contract": "contracts/DataStorage.sol:Variables",
						"label": "y",
						"offset": 0,
						"slot": "1",
						"type": "t_uint256"
					},
					{
						"astId": 81,
						"contract": "contracts/DataStorage.sol:Variables",
						"label": "z",
						"offset": 0,
						"slot": "2",
						"type": "t_string_storage"
					}
				],
				"types": {
					"t_string_storage": {
						"encoding": "bytes",
						"label": "string",
						"numberOfBytes": "32"
					},
					"t_uint256": {
						"encoding": "inplace",
						"label": "uint256",
						"numberOfBytes": "32"
					}
				}
			},
			"userdoc": {
				"kind": "user",
				"methods": {},
				"version": 1
			}
		}
	}
}