{
	"contracts/HoldAirdrop.sol": {
		"GasOptimizedAirdrop": {
			"abi": [
				{
					"inputs": [
						{
							"internalType": "address",
							"name": "_token",
							"type": "address"
						},
						{
							"internalType": "uint96",
							"name": "_minEthRequired",
							"type": "uint96"
						},
						{
							"internalType": "uint96",
							"name": "_airdropAmount",
							"type": "uint96"
						},
						{
							"internalType": "uint96",
							"name": "_maxSupply",
							"type": "uint96"
						},
						{
							"internalType": "uint64",
							"name": "_startTime",
							"type": "uint64"
						},
						{
							"internalType": "uint64",
							"name": "_endTime",
							"type": "uint64"
						}
					],
					"stateMutability": "nonpayable",
					"type": "constructor"
				},
				{
					"inputs": [],
					"name": "AlreadyClaimed",
					"type": "error"
				},
				{
					"inputs": [],
					"name": "InsufficientBalance",
					"type": "error"
				},
				{
					"inputs": [],
					"name": "InvalidAddress",
					"type": "error"
				},
				{
					"inputs": [],
					"name": "InvalidAmount",
					"type": "error"
				},
				{
					"inputs": [],
					"name": "InvalidTime",
					"type": "error"
				},
				{
					"inputs": [],
					"name": "MaxSupplyReached",
					"type": "error"
				},
				{
					"inputs": [],
					"name": "NotActive",
					"type": "error"
				},
				{
					"inputs": [
						{
							"internalType": "address",
							"name": "owner",
							"type": "address"
						}
					],
					"name": "OwnableInvalidOwner",
					"type": "error"
				},
				{
					"inputs": [
						{
							"internalType": "address",
							"name": "account",
							"type": "address"
						}
					],
					"name": "OwnableUnauthorizedAccount",
					"type": "error"
				},
				{
					"inputs": [
						{
							"internalType": "address",
							"name": "token",
							"type": "address"
						}
					],
					"name": "SafeERC20FailedOperation",
					"type": "error"
				},
				{
					"anonymous": false,
					"inputs": [
						{
							"indexed": true,
							"internalType": "address",
							"name": "user",
							"type": "address"
						},
						{
							"indexed": false,
							"internalType": "uint96",
							"name": "amount",
							"type": "uint96"
						}
					],
					"name": "AirdropClaimed",
					"type": "event"
				},
				{
					"anonymous": false,
					"inputs": [
						{
							"indexed": false,
							"internalType": "uint96",
							"name": "amount",
							"type": "uint96"
						},
						{
							"indexed": false,
							"internalType": "uint96",
							"name": "maxSupply",
							"type": "uint96"
						}
					],
					"name": "AirdropConfigUpdated",
					"type": "event"
				},
				{
					"anonymous": false,
					"inputs": [
						{
							"indexed": true,
							"internalType": "address",
							"name": "previousOwner",
							"type": "address"
						},
						{
							"indexed": true,
							"internalType": "address",
							"name": "newOwner",
							"type": "address"
						}
					],
					"name": "OwnershipTransferred",
					"type": "event"
				},
				{
					"inputs": [],
					"name": "airdropEndTime",
					"outputs": [
						{
							"internalType": "uint64",
							"name": "",
							"type": "uint64"
						}
					],
					"stateMutability": "view",
					"type": "function"
				},
				{
					"inputs": [],
					"name": "airdropStartTime",
					"outputs": [
						{
							"internalType": "uint64",
							"name": "",
							"type": "uint64"
						}
					],
					"stateMutability": "view",
					"type": "function"
				},
				{
					"inputs": [
						{
							"internalType": "address[]",
							"name": "users",
							"type": "address[]"
						}
					],
					"name": "checkEligibility",
					"outputs": [
						{
							"internalType": "bool[]",
							"name": "eligibility",
							"type": "bool[]"
						}
					],
					"stateMutability": "view",
					"type": "function"
				},
				{
					"inputs": [],
					"name": "claimAirdrop",
					"outputs": [],
					"stateMutability": "nonpayable",
					"type": "function"
				},
				{
					"inputs": [],
					"name": "config",
					"outputs": [
						{
							"internalType": "uint96",
							"name": "airdropAmount",
							"type": "uint96"
						},
						{
							"internalType": "uint96",
							"name": "maxAirdropSupply",
							"type": "uint96"
						},
						{
							"internalType": "uint64",
							"name": "totalAirdropped",
							"type": "uint64"
						}
					],
					"stateMutability": "view",
					"type": "function"
				},
				{
					"inputs": [],
					"name": "emergencyWithdraw",
					"outputs": [],
					"stateMutability": "nonpayable",
					"type": "function"
				},
				{
					"inputs": [],
					"name": "minEthRequired",
					"outputs": [
						{
							"internalType": "uint96",
							"name": "",
							"type": "uint96"
						}
					],
					"stateMutability": "view",
					"type": "function"
				},
				{
					"inputs": [],
					"name": "owner",
					"outputs": [
						{
							"internalType": "address",
							"name": "",
							"type": "address"
						}
					],
					"stateMutability": "view",
					"type": "function"
				},
				{
					"inputs": [],
					"name": "renounceOwnership",
					"outputs": [],
					"stateMutability": "nonpayable",
					"type": "function"
				},
				{
					"inputs": [],
					"name": "token",
					"outputs": [
						{
							"internalType": "contract IERC20",
							"name": "",
							"type": "address"
						}
					],
					"stateMutability": "view",
					"type": "function"
				},
				{
					"inputs": [
						{
							"internalType": "address",
							"name": "newOwner",
							"type": "address"
						}
					],
					"name": "transferOwnership",
					"outputs": [],
					"stateMutability": "nonpayable",
					"type": "function"
				}
			],
			"devdoc": {
				"errors": {
					"OwnableInvalidOwner(address)": [
						{
							"details": "The owner is not a valid owner account. (eg. `address(0)`)"
						}
					],
					"OwnableUnauthorizedAccount(address)": [
						{
							"details": "The caller account is not authorized to perform an operation."
						}
					],
					"SafeERC20FailedOperation(address)": [
						{
							"details": "An operation with an ERC-20 token failed."
						}
					]
				},
				"kind": "dev",
				"methods": {
					"checkEligibility(address[])": {
						"params": {
							"users": "要检查的地址数组"
						},
						"returns": {
							"eligibility": "每个地址的资格状态数组"
						}
					},
					"claimAirdrop()": {
						"details": "包含多重检查和状态更新的主要功能"
					},
					"constructor": {
						"params": {
							"_airdropAmount": "每个地址可领取的代币数量",
							"_endTime": "空投结束时间",
							"_maxSupply": "最大空投供应量",
							"_minEthRequired": "最小 ETH 持有量要求",
							"_startTime": "空投开始时间",
							"_token": "空投代币地址"
						}
					},
					"owner()": {
						"details": "Returns the address of the current owner."
					},
					"renounceOwnership()": {
						"details": "Leaves the contract without owner. It will not be possible to call `onlyOwner` functions. Can only be called by the current owner. NOTE: Renouncing ownership will leave the contract without an owner, thereby disabling any functionality that is only available to the owner."
					},
					"transferOwnership(address)": {
						"details": "Transfers ownership of the contract to a new account (`newOwner`). Can only be called by the current owner."
					}
				},
				"title": "GasOptimizedAirdrop",
				"version": 1
			},
			"evm": {
				"assembly": "    /* \"contracts/HoldAirdrop.sol\":1044:5894  contract GasOptimizedAirdrop is Ownable(msg.sender), ReentrancyGuard {... */\n  mstore(0x40, 0xc0)\n    /* \"contracts/HoldAirdrop.sol\":2303:3158  constructor(... */\n  callvalue\n  dup1\n  iszero\n  tag_1\n  jumpi\n  0x00\n  dup1\n  revert\ntag_1:\n  pop\n  mload(0x40)\n  sub(codesize, bytecodeSize)\n  dup1\n  bytecodeSize\n  dup4\n  codecopy\n  dup2\n  dup2\n  add\n  0x40\n  mstore\n  dup2\n  add\n  swap1\n  tag_2\n  swap2\n  swap1\n  tag_3\n  jump\t// in\ntag_2:\n    /* \"contracts/HoldAirdrop.sol\":1084:1094  msg.sender */\n  caller\n    /* \"@openzeppelin/contracts/access/Ownable.sol\":1297:1298  0 */\n  0x00\n    /* \"@openzeppelin/contracts/access/Ownable.sol\":1273:1299  initialOwner == address(0) */\n  0xffffffffffffffffffffffffffffffffffffffff\n  and\n    /* \"@openzeppelin/contracts/access/Ownable.sol\":1273:1285  initialOwner */\n  dup2\n    /* \"@openzeppelin/contracts/access/Ownable.sol\":1273:1299  initialOwner == address(0) */\n  0xffffffffffffffffffffffffffffffffffffffff\n  and\n  sub\n    /* \"@openzeppelin/contracts/access/Ownable.sol\":1269:1364  if (initialOwner == address(0)) {... */\n  tag_8\n  jumpi\n    /* \"@openzeppelin/contracts/access/Ownable.sol\":1350:1351  0 */\n  0x00\n    /* \"@openzeppelin/contracts/access/Ownable.sol\":1322:1353  OwnableInvalidOwner(address(0)) */\n  mload(0x40)\n  0x1e4fbdf700000000000000000000000000000000000000000000000000000000\n  dup2\n  mstore\n  0x04\n  add\n  tag_9\n  swap2\n  swap1\n  tag_10\n  jump\t// in\ntag_9:\n  mload(0x40)\n  dup1\n  swap2\n  sub\n  swap1\n  revert\n    /* \"@openzeppelin/contracts/access/Ownable.sol\":1269:1364  if (initialOwner == address(0)) {... */\ntag_8:\n    /* \"@openzeppelin/contracts/access/Ownable.sol\":1373:1405  _transferOwnership(initialOwner) */\n  tag_11\n    /* \"@openzeppelin/contracts/access/Ownable.sol\":1392:1404  initialOwner */\n  dup2\n    /* \"@openzeppelin/contracts/access/Ownable.sol\":1373:1391  _transferOwnership */\n  shl(0x20, tag_12)\n    /* \"@openzeppelin/contracts/access/Ownable.sol\":1373:1405  _transferOwnership(initialOwner) */\n  0x20\n  shr\n  jump\t// in\ntag_11:\n    /* \"@openzeppelin/contracts/access/Ownable.sol\":1225:1412  constructor(address initialOwner) {... */\n  pop\n    /* \"@openzeppelin/contracts/security/ReentrancyGuard.sol\":1716:1717  1 */\n  0x01\n    /* \"@openzeppelin/contracts/security/ReentrancyGuard.sol\":1821:1828  _status */\n  dup1\n    /* \"@openzeppelin/contracts/security/ReentrancyGuard.sol\":1821:1843  _status = _NOT_ENTERED */\n  dup2\n  swap1\n  sstore\n  pop\n    /* \"contracts/HoldAirdrop.sol\":2543:2544  0 */\n  0x00\n    /* \"contracts/HoldAirdrop.sol\":2525:2545  _token == address(0) */\n  0xffffffffffffffffffffffffffffffffffffffff\n  and\n    /* \"contracts/HoldAirdrop.sol\":2525:2531  _token */\n  dup7\n    /* \"contracts/HoldAirdrop.sol\":2525:2545  _token == address(0) */\n  0xffffffffffffffffffffffffffffffffffffffff\n  and\n  sub\n    /* \"contracts/HoldAirdrop.sol\":2521:2570  if (_token == address(0)) revert InvalidAddress() */\n  tag_15\n  jumpi\n    /* \"contracts/HoldAirdrop.sol\":2554:2570  InvalidAddress() */\n  mload(0x40)\n  0xe6c4247b00000000000000000000000000000000000000000000000000000000\n  dup2\n  mstore\n  0x04\n  add\n  mload(0x40)\n  dup1\n  swap2\n  sub\n  swap1\n  revert\n    /* \"contracts/HoldAirdrop.sol\":2521:2570  if (_token == address(0)) revert InvalidAddress() */\ntag_15:\n    /* \"contracts/HoldAirdrop.sol\":2602:2603  0 */\n  0x00\n    /* \"contracts/HoldAirdrop.sol\":2584:2598  _airdropAmount */\n  dup5\n    /* \"contracts/HoldAirdrop.sol\":2584:2603  _airdropAmount == 0 */\n  0xffffffffffffffffffffffff\n  and\n  sub\n    /* \"contracts/HoldAirdrop.sol\":2580:2627  if (_airdropAmount == 0) revert InvalidAmount() */\n  tag_16\n  jumpi\n    /* \"contracts/HoldAirdrop.sol\":2612:2627  InvalidAmount() */\n  mload(0x40)\n  0x2c5211c600000000000000000000000000000000000000000000000000000000\n  dup2\n  mstore\n  0x04\n  add\n  mload(0x40)\n  dup1\n  swap2\n  sub\n  swap1\n  revert\n    /* \"contracts/HoldAirdrop.sol\":2580:2627  if (_airdropAmount == 0) revert InvalidAmount() */\ntag_16:\n    /* \"contracts/HoldAirdrop.sol\":2654:2668  _airdropAmount */\n  dup4\n    /* \"contracts/HoldAirdrop.sol\":2641:2668  _maxSupply < _airdropAmount */\n  0xffffffffffffffffffffffff\n  and\n    /* \"contracts/HoldAirdrop.sol\":2641:2651  _maxSupply */\n  dup4\n    /* \"contracts/HoldAirdrop.sol\":2641:2668  _maxSupply < _airdropAmount */\n  0xffffffffffffffffffffffff\n  and\n  lt\n    /* \"contracts/HoldAirdrop.sol\":2637:2692  if (_maxSupply < _airdropAmount) revert InvalidAmount() */\n  iszero\n  tag_17\n  jumpi\n    /* \"contracts/HoldAirdrop.sol\":2677:2692  InvalidAmount() */\n  mload(0x40)\n  0x2c5211c600000000000000000000000000000000000000000000000000000000\n  dup2\n  mstore\n  0x04\n  add\n  mload(0x40)\n  dup1\n  swap2\n  sub\n  swap1\n  revert\n    /* \"contracts/HoldAirdrop.sol\":2637:2692  if (_maxSupply < _airdropAmount) revert InvalidAmount() */\ntag_17:\n    /* \"contracts/HoldAirdrop.sol\":2720:2728  _endTime */\n  dup1\n    /* \"contracts/HoldAirdrop.sol\":2706:2728  _startTime >= _endTime */\n  0xffffffffffffffff\n  and\n    /* \"contracts/HoldAirdrop.sol\":2706:2716  _startTime */\n  dup3\n    /* \"contracts/HoldAirdrop.sol\":2706:2728  _startTime >= _endTime */\n  0xffffffffffffffff\n  and\n  lt\n    /* \"contracts/HoldAirdrop.sol\":2702:2750  if (_startTime >= _endTime) revert InvalidTime() */\n  tag_18\n  jumpi\n    /* \"contracts/HoldAirdrop.sol\":2737:2750  InvalidTime() */\n  mload(0x40)\n  0x6f7eac2600000000000000000000000000000000000000000000000000000000\n  dup2\n  mstore\n  0x04\n  add\n  mload(0x40)\n  dup1\n  swap2\n  sub\n  swap1\n  revert\n    /* \"contracts/HoldAirdrop.sol\":2702:2750  if (_startTime >= _endTime) revert InvalidTime() */\ntag_18:\n    /* \"contracts/HoldAirdrop.sol\":2777:2792  block.timestamp */\n  timestamp\n    /* \"contracts/HoldAirdrop.sol\":2764:2774  _startTime */\n  dup3\n    /* \"contracts/HoldAirdrop.sol\":2764:2792  _startTime < block.timestamp */\n  0xffffffffffffffff\n  and\n  lt\n    /* \"contracts/HoldAirdrop.sol\":2760:2814  if (_startTime < block.timestamp) revert InvalidTime() */\n  iszero\n  tag_19\n  jumpi\n    /* \"contracts/HoldAirdrop.sol\":2801:2814  InvalidTime() */\n  mload(0x40)\n  0x6f7eac2600000000000000000000000000000000000000000000000000000000\n  dup2\n  mstore\n  0x04\n  add\n  mload(0x40)\n  dup1\n  swap2\n  sub\n  swap1\n  revert\n    /* \"contracts/HoldAirdrop.sol\":2760:2814  if (_startTime < block.timestamp) revert InvalidTime() */\ntag_19:\n    /* \"contracts/HoldAirdrop.sol\":2881:2887  _token */\n  dup6\n    /* \"contracts/HoldAirdrop.sol\":2866:2888  token = IERC20(_token) */\n  0xffffffffffffffffffffffffffffffffffffffff\n  and\n  0x80\n  dup2\n  0xffffffffffffffffffffffffffffffffffffffff\n  and\n  dup2\n  mstore\n  pop\n  pop\n    /* \"contracts/HoldAirdrop.sol\":2915:2930  _minEthRequired */\n  dup5\n    /* \"contracts/HoldAirdrop.sol\":2898:2930  minEthRequired = _minEthRequired */\n  0xffffffffffffffffffffffff\n  and\n  0xa0\n  dup2\n  0xffffffffffffffffffffffff\n  and\n  dup2\n  mstore\n  pop\n  pop\n    /* \"contracts/HoldAirdrop.sol\":2972:2986  _airdropAmount */\n  dup4\n    /* \"contracts/HoldAirdrop.sol\":2949:2955  config */\n  0x02\n    /* \"contracts/HoldAirdrop.sol\":2949:2969  config.airdropAmount */\n  0x00\n  add\n  0x00\n    /* \"contracts/HoldAirdrop.sol\":2949:2986  config.airdropAmount = _airdropAmount */\n  0x0100\n  exp\n  dup2\n  sload\n  dup2\n  0xffffffffffffffffffffffff\n  mul\n  not\n  and\n  swap1\n  dup4\n  0xffffffffffffffffffffffff\n  and\n  mul\n  or\n  swap1\n  sstore\n  pop\n    /* \"contracts/HoldAirdrop.sol\":3022:3032  _maxSupply */\n  dup3\n    /* \"contracts/HoldAirdrop.sol\":2996:3002  config */\n  0x02\n    /* \"contracts/HoldAirdrop.sol\":2996:3019  config.maxAirdropSupply */\n  0x00\n  add\n  0x0c\n    /* \"contracts/HoldAirdrop.sol\":2996:3032  config.maxAirdropSupply = _maxSupply */\n  0x0100\n  exp\n  dup2\n  sload\n  dup2\n  0xffffffffffffffffffffffff\n  mul\n  not\n  and\n  swap1\n  dup4\n  0xffffffffffffffffffffffff\n  and\n  mul\n  or\n  swap1\n  sstore\n  pop\n    /* \"contracts/HoldAirdrop.sol\":3067:3068  0 */\n  0x00\n    /* \"contracts/HoldAirdrop.sol\":3042:3048  config */\n  0x02\n    /* \"contracts/HoldAirdrop.sol\":3042:3064  config.totalAirdropped */\n  0x00\n  add\n  0x18\n    /* \"contracts/HoldAirdrop.sol\":3042:3068  config.totalAirdropped = 0 */\n  0x0100\n  exp\n  dup2\n  sload\n  dup2\n  0xffffffffffffffff\n  mul\n  not\n  and\n  swap1\n  dup4\n  0xffffffffffffffff\n  and\n  mul\n  or\n  swap1\n  sstore\n  pop\n    /* \"contracts/HoldAirdrop.sol\":3106:3116  _startTime */\n  dup2\n    /* \"contracts/HoldAirdrop.sol\":3087:3103  airdropStartTime */\n  0x04\n  0x00\n    /* \"contracts/HoldAirdrop.sol\":3087:3116  airdropStartTime = _startTime */\n  0x0100\n  exp\n  dup2\n  sload\n  dup2\n  0xffffffffffffffff\n  mul\n  not\n  and\n  swap1\n  dup4\n  0xffffffffffffffff\n  and\n  mul\n  or\n  swap1\n  sstore\n  pop\n    /* \"contracts/HoldAirdrop.sol\":3143:3151  _endTime */\n  dup1\n    /* \"contracts/HoldAirdrop.sol\":3126:3140  airdropEndTime */\n  0x04\n  0x08\n    /* \"contracts/HoldAirdrop.sol\":3126:3151  airdropEndTime = _endTime */\n  0x0100\n  exp\n  dup2\n  sload\n  dup2\n  0xffffffffffffffff\n  mul\n  not\n  and\n  swap1\n  dup4\n  0xffffffffffffffff\n  and\n  mul\n  or\n  swap1\n  sstore\n  pop\n    /* \"contracts/HoldAirdrop.sol\":2303:3158  constructor(... */\n  pop\n  pop\n  pop\n  pop\n  pop\n  pop\n    /* \"contracts/HoldAirdrop.sol\":1044:5894  contract GasOptimizedAirdrop is Ownable(msg.sender), ReentrancyGuard {... */\n  jump(tag_20)\n    /* \"@openzeppelin/contracts/access/Ownable.sol\":2912:3099  function _transferOwnership(address newOwner) internal virtual {... */\ntag_12:\n    /* \"@openzeppelin/contracts/access/Ownable.sol\":2985:3001  address oldOwner */\n  0x00\n    /* \"@openzeppelin/contracts/access/Ownable.sol\":3004:3010  _owner */\n  dup1\n  0x00\n  swap1\n  sload\n  swap1\n  0x0100\n  exp\n  swap1\n  div\n  0xffffffffffffffffffffffffffffffffffffffff\n  and\n    /* \"@openzeppelin/contracts/access/Ownable.sol\":2985:3010  address oldOwner = _owner */\n  swap1\n  pop\n    /* \"@openzeppelin/contracts/access/Ownable.sol\":3029:3037  newOwner */\n  dup2\n    /* \"@openzeppelin/contracts/access/Ownable.sol\":3020:3026  _owner */\n  0x00\n  dup1\n    /* \"@openzeppelin/contracts/access/Ownable.sol\":3020:3037  _owner = newOwner */\n  0x0100\n  exp\n  dup2\n  sload\n  dup2\n  0xffffffffffffffffffffffffffffffffffffffff\n  mul\n  not\n  and\n  swap1\n  dup4\n  0xffffffffffffffffffffffffffffffffffffffff\n  and\n  mul\n  or\n  swap1\n  sstore\n  pop\n    /* \"@openzeppelin/contracts/access/Ownable.sol\":3083:3091  newOwner */\n  dup2\n    /* \"@openzeppelin/contracts/access/Ownable.sol\":3052:3092  OwnershipTransferred(oldOwner, newOwner) */\n  0xffffffffffffffffffffffffffffffffffffffff\n  and\n    /* \"@openzeppelin/contracts/access/Ownable.sol\":3073:3081  oldOwner */\n  dup2\n    /* \"@openzeppelin/contracts/access/Ownable.sol\":3052:3092  OwnershipTransferred(oldOwner, newOwner) */\n  0xffffffffffffffffffffffffffffffffffffffff\n  and\n  0x8be0079c531659141344cd1fd0a4f28419497f9722a3daafe3b4186f6b6457e0\n  mload(0x40)\n  mload(0x40)\n  dup1\n  swap2\n  sub\n  swap1\n  log3\n    /* \"@openzeppelin/contracts/access/Ownable.sol\":2975:3099  {... */\n  pop\n    /* \"@openzeppelin/contracts/access/Ownable.sol\":2912:3099  function _transferOwnership(address newOwner) internal virtual {... */\n  pop\n  jump\t// out\n    /* \"#utility.yul\":88:205   */\ntag_23:\n    /* \"#utility.yul\":197:198   */\n  0x00\n    /* \"#utility.yul\":194:195   */\n  dup1\n    /* \"#utility.yul\":187:199   */\n  revert\n    /* \"#utility.yul\":334:460   */\ntag_25:\n    /* \"#utility.yul\":371:378   */\n  0x00\n    /* \"#utility.yul\":411:453   */\n  0xffffffffffffffffffffffffffffffffffffffff\n    /* \"#utility.yul\":404:409   */\n  dup3\n    /* \"#utility.yul\":400:454   */\n  and\n    /* \"#utility.yul\":389:454   */\n  swap1\n  pop\n    /* \"#utility.yul\":334:460   */\n  swap2\n  swap1\n  pop\n  jump\t// out\n    /* \"#utility.yul\":466:562   */\ntag_26:\n    /* \"#utility.yul\":503:510   */\n  0x00\n    /* \"#utility.yul\":532:556   */\n  tag_42\n    /* \"#utility.yul\":550:555   */\n  dup3\n    /* \"#utility.yul\":532:556   */\n  tag_25\n  jump\t// in\ntag_42:\n    /* \"#utility.yul\":521:556   */\n  swap1\n  pop\n    /* \"#utility.yul\":466:562   */\n  swap2\n  swap1\n  pop\n  jump\t// out\n    /* \"#utility.yul\":568:690   */\ntag_27:\n    /* \"#utility.yul\":641:665   */\n  tag_44\n    /* \"#utility.yul\":659:664   */\n  dup2\n    /* \"#utility.yul\":641:665   */\n  tag_26\n  jump\t// in\ntag_44:\n    /* \"#utility.yul\":634:639   */\n  dup2\n    /* \"#utility.yul\":631:666   */\n  eq\n    /* \"#utility.yul\":621:684   */\n  tag_45\n  jumpi\n    /* \"#utility.yul\":680:681   */\n  0x00\n    /* \"#utility.yul\":677:678   */\n  dup1\n    /* \"#utility.yul\":670:682   */\n  revert\n    /* \"#utility.yul\":621:684   */\ntag_45:\n    /* \"#utility.yul\":568:690   */\n  pop\n  jump\t// out\n    /* \"#utility.yul\":696:839   */\ntag_28:\n    /* \"#utility.yul\":753:758   */\n  0x00\n    /* \"#utility.yul\":784:790   */\n  dup2\n    /* \"#utility.yul\":778:791   */\n  mload\n    /* \"#utility.yul\":769:791   */\n  swap1\n  pop\n    /* \"#utility.yul\":800:833   */\n  tag_47\n    /* \"#utility.yul\":827:832   */\n  dup2\n    /* \"#utility.yul\":800:833   */\n  tag_27\n  jump\t// in\ntag_47:\n    /* \"#utility.yul\":696:839   */\n  swap3\n  swap2\n  pop\n  pop\n  jump\t// out\n    /* \"#utility.yul\":845:954   */\ntag_29:\n    /* \"#utility.yul\":881:888   */\n  0x00\n    /* \"#utility.yul\":921:947   */\n  0xffffffffffffffffffffffff\n    /* \"#utility.yul\":914:919   */\n  dup3\n    /* \"#utility.yul\":910:948   */\n  and\n    /* \"#utility.yul\":899:948   */\n  swap1\n  pop\n    /* \"#utility.yul\":845:954   */\n  swap2\n  swap1\n  pop\n  jump\t// out\n    /* \"#utility.yul\":960:1080   */\ntag_30:\n    /* \"#utility.yul\":1032:1055   */\n  tag_50\n    /* \"#utility.yul\":1049:1054   */\n  dup2\n    /* \"#utility.yul\":1032:1055   */\n  tag_29\n  jump\t// in\ntag_50:\n    /* \"#utility.yul\":1025:1030   */\n  dup2\n    /* \"#utility.yul\":1022:1056   */\n  eq\n    /* \"#utility.yul\":1012:1074   */\n  tag_51\n  jumpi\n    /* \"#utility.yul\":1070:1071   */\n  0x00\n    /* \"#utility.yul\":1067:1068   */\n  dup1\n    /* \"#utility.yul\":1060:1072   */\n  revert\n    /* \"#utility.yul\":1012:1074   */\ntag_51:\n    /* \"#utility.yul\":960:1080   */\n  pop\n  jump\t// out\n    /* \"#utility.yul\":1086:1227   */\ntag_31:\n    /* \"#utility.yul\":1142:1147   */\n  0x00\n    /* \"#utility.yul\":1173:1179   */\n  dup2\n    /* \"#utility.yul\":1167:1180   */\n  mload\n    /* \"#utility.yul\":1158:1180   */\n  swap1\n  pop\n    /* \"#utility.yul\":1189:1221   */\n  tag_53\n    /* \"#utility.yul\":1215:1220   */\n  dup2\n    /* \"#utility.yul\":1189:1221   */\n  tag_30\n  jump\t// in\ntag_53:\n    /* \"#utility.yul\":1086:1227   */\n  swap3\n  swap2\n  pop\n  pop\n  jump\t// out\n    /* \"#utility.yul\":1233:1334   */\ntag_32:\n    /* \"#utility.yul\":1269:1276   */\n  0x00\n    /* \"#utility.yul\":1309:1327   */\n  0xffffffffffffffff\n    /* \"#utility.yul\":1302:1307   */\n  dup3\n    /* \"#utility.yul\":1298:1328   */\n  and\n    /* \"#utility.yul\":1287:1328   */\n  swap1\n  pop\n    /* \"#utility.yul\":1233:1334   */\n  swap2\n  swap1\n  pop\n  jump\t// out\n    /* \"#utility.yul\":1340:1460   */\ntag_33:\n    /* \"#utility.yul\":1412:1435   */\n  tag_56\n    /* \"#utility.yul\":1429:1434   */\n  dup2\n    /* \"#utility.yul\":1412:1435   */\n  tag_32\n  jump\t// in\ntag_56:\n    /* \"#utility.yul\":1405:1410   */\n  dup2\n    /* \"#utility.yul\":1402:1436   */\n  eq\n    /* \"#utility.yul\":1392:1454   */\n  tag_57\n  jumpi\n    /* \"#utility.yul\":1450:1451   */\n  0x00\n    /* \"#utility.yul\":1447:1448   */\n  dup1\n    /* \"#utility.yul\":1440:1452   */\n  revert\n    /* \"#utility.yul\":1392:1454   */\ntag_57:\n    /* \"#utility.yul\":1340:1460   */\n  pop\n  jump\t// out\n    /* \"#utility.yul\":1466:1607   */\ntag_34:\n    /* \"#utility.yul\":1522:1527   */\n  0x00\n    /* \"#utility.yul\":1553:1559   */\n  dup2\n    /* \"#utility.yul\":1547:1560   */\n  mload\n    /* \"#utility.yul\":1538:1560   */\n  swap1\n  pop\n    /* \"#utility.yul\":1569:1601   */\n  tag_59\n    /* \"#utility.yul\":1595:1600   */\n  dup2\n    /* \"#utility.yul\":1569:1601   */\n  tag_33\n  jump\t// in\ntag_59:\n    /* \"#utility.yul\":1466:1607   */\n  swap3\n  swap2\n  pop\n  pop\n  jump\t// out\n    /* \"#utility.yul\":1613:2737   */\ntag_3:\n    /* \"#utility.yul\":1723:1729   */\n  0x00\n    /* \"#utility.yul\":1731:1737   */\n  dup1\n    /* \"#utility.yul\":1739:1745   */\n  0x00\n    /* \"#utility.yul\":1747:1753   */\n  dup1\n    /* \"#utility.yul\":1755:1761   */\n  0x00\n    /* \"#utility.yul\":1763:1769   */\n  dup1\n    /* \"#utility.yul\":1812:1815   */\n  0xc0\n    /* \"#utility.yul\":1800:1809   */\n  dup8\n    /* \"#utility.yul\":1791:1798   */\n  dup10\n    /* \"#utility.yul\":1787:1810   */\n  sub\n    /* \"#utility.yul\":1783:1816   */\n  slt\n    /* \"#utility.yul\":1780:1900   */\n  iszero\n  tag_61\n  jumpi\n    /* \"#utility.yul\":1819:1898   */\n  tag_62\n  tag_23\n  jump\t// in\ntag_62:\n    /* \"#utility.yul\":1780:1900   */\ntag_61:\n    /* \"#utility.yul\":1939:1940   */\n  0x00\n    /* \"#utility.yul\":1964:2028   */\n  tag_63\n    /* \"#utility.yul\":2020:2027   */\n  dup10\n    /* \"#utility.yul\":2011:2017   */\n  dup3\n    /* \"#utility.yul\":2000:2009   */\n  dup11\n    /* \"#utility.yul\":1996:2018   */\n  add\n    /* \"#utility.yul\":1964:2028   */\n  tag_28\n  jump\t// in\ntag_63:\n    /* \"#utility.yul\":1954:2028   */\n  swap7\n  pop\n    /* \"#utility.yul\":1910:2038   */\n  pop\n    /* \"#utility.yul\":2077:2079   */\n  0x20\n    /* \"#utility.yul\":2103:2166   */\n  tag_64\n    /* \"#utility.yul\":2158:2165   */\n  dup10\n    /* \"#utility.yul\":2149:2155   */\n  dup3\n    /* \"#utility.yul\":2138:2147   */\n  dup11\n    /* \"#utility.yul\":2134:2156   */\n  add\n    /* \"#utility.yul\":2103:2166   */\n  tag_31\n  jump\t// in\ntag_64:\n    /* \"#utility.yul\":2093:2166   */\n  swap6\n  pop\n    /* \"#utility.yul\":2048:2176   */\n  pop\n    /* \"#utility.yul\":2215:2217   */\n  0x40\n    /* \"#utility.yul\":2241:2304   */\n  tag_65\n    /* \"#utility.yul\":2296:2303   */\n  dup10\n    /* \"#utility.yul\":2287:2293   */\n  dup3\n    /* \"#utility.yul\":2276:2285   */\n  dup11\n    /* \"#utility.yul\":2272:2294   */\n  add\n    /* \"#utility.yul\":2241:2304   */\n  tag_31\n  jump\t// in\ntag_65:\n    /* \"#utility.yul\":2231:2304   */\n  swap5\n  pop\n    /* \"#utility.yul\":2186:2314   */\n  pop\n    /* \"#utility.yul\":2353:2355   */\n  0x60\n    /* \"#utility.yul\":2379:2442   */\n  tag_66\n    /* \"#utility.yul\":2434:2441   */\n  dup10\n    /* \"#utility.yul\":2425:2431   */\n  dup3\n    /* \"#utility.yul\":2414:2423   */\n  dup11\n    /* \"#utility.yul\":2410:2432   */\n  add\n    /* \"#utility.yul\":2379:2442   */\n  tag_31\n  jump\t// in\ntag_66:\n    /* \"#utility.yul\":2369:2442   */\n  swap4\n  pop\n    /* \"#utility.yul\":2324:2452   */\n  pop\n    /* \"#utility.yul\":2491:2494   */\n  0x80\n    /* \"#utility.yul\":2518:2581   */\n  tag_67\n    /* \"#utility.yul\":2573:2580   */\n  dup10\n    /* \"#utility.yul\":2564:2570   */\n  dup3\n    /* \"#utility.yul\":2553:2562   */\n  dup11\n    /* \"#utility.yul\":2549:2571   */\n  add\n    /* \"#utility.yul\":2518:2581   */\n  tag_34\n  jump\t// in\ntag_67:\n    /* \"#utility.yul\":2508:2581   */\n  swap3\n  pop\n    /* \"#utility.yul\":2462:2591   */\n  pop\n    /* \"#utility.yul\":2630:2633   */\n  0xa0\n    /* \"#utility.yul\":2657:2720   */\n  tag_68\n    /* \"#utility.yul\":2712:2719   */\n  dup10\n    /* \"#utility.yul\":2703:2709   */\n  dup3\n    /* \"#utility.yul\":2692:2701   */\n  dup11\n    /* \"#utility.yul\":2688:2710   */\n  add\n    /* \"#utility.yul\":2657:2720   */\n  tag_34\n  jump\t// in\ntag_68:\n    /* \"#utility.yul\":2647:2720   */\n  swap2\n  pop\n    /* \"#utility.yul\":2601:2730   */\n  pop\n    /* \"#utility.yul\":1613:2737   */\n  swap3\n  swap6\n  pop\n  swap3\n  swap6\n  pop\n  swap3\n  swap6\n  jump\t// out\n    /* \"#utility.yul\":2743:2861   */\ntag_35:\n    /* \"#utility.yul\":2830:2854   */\n  tag_70\n    /* \"#utility.yul\":2848:2853   */\n  dup2\n    /* \"#utility.yul\":2830:2854   */\n  tag_26\n  jump\t// in\ntag_70:\n    /* \"#utility.yul\":2825:2828   */\n  dup3\n    /* \"#utility.yul\":2818:2855   */\n  mstore\n    /* \"#utility.yul\":2743:2861   */\n  pop\n  pop\n  jump\t// out\n    /* \"#utility.yul\":2867:3089   */\ntag_10:\n    /* \"#utility.yul\":2960:2964   */\n  0x00\n    /* \"#utility.yul\":2998:3000   */\n  0x20\n    /* \"#utility.yul\":2987:2996   */\n  dup3\n    /* \"#utility.yul\":2983:3001   */\n  add\n    /* \"#utility.yul\":2975:3001   */\n  swap1\n  pop\n    /* \"#utility.yul\":3011:3082   */\n  tag_72\n    /* \"#utility.yul\":3079:3080   */\n  0x00\n    /* \"#utility.yul\":3068:3077   */\n  dup4\n    /* \"#utility.yul\":3064:3081   */\n  add\n    /* \"#utility.yul\":3055:3061   */\n  dup5\n    /* \"#utility.yul\":3011:3082   */\n  tag_35\n  jump\t// in\ntag_72:\n    /* \"#utility.yul\":2867:3089   */\n  swap3\n  swap2\n  pop\n  pop\n  jump\t// out\n    /* \"contracts/HoldAirdrop.sol\":1044:5894  contract GasOptimizedAirdrop is Ownable(msg.sender), ReentrancyGuard {... */\ntag_20:\n  mload(0x80)\n  mload(0xa0)\n  codecopy(0x00, dataOffset(sub_0), dataSize(sub_0))\n  0x00\n  assignImmutable(\"0x33cc19d79febe2413fb9e204aeb684d47982ef5754538b90a83e403603eda384\")\n  0x00\n  assignImmutable(\"0x02e99feef5a1e2f43445227b1399ed133121f299fd78ca24b0865c8cd3641060\")\n  return(0x00, dataSize(sub_0))\nstop\n\nsub_0: assembly {\n        /* \"contracts/HoldAirdrop.sol\":1044:5894  contract GasOptimizedAirdrop is Ownable(msg.sender), ReentrancyGuard {... */\n      mstore(0x40, 0x80)\n      callvalue\n      dup1\n      iszero\n      tag_1\n      jumpi\n      0x00\n      dup1\n      revert\n    tag_1:\n      pop\n      jumpi(tag_2, lt(calldatasize, 0x04))\n      shr(0xe0, calldataload(0x00))\n      dup1\n      0x79502c55\n      gt\n      tag_14\n      jumpi\n      dup1\n      0x79502c55\n      eq\n      tag_8\n      jumpi\n      dup1\n      0x806019c1\n      eq\n      tag_9\n      jumpi\n      dup1\n      0x8da5cb5b\n      eq\n      tag_10\n      jumpi\n      dup1\n      0xdb2e21bc\n      eq\n      tag_11\n      jumpi\n      dup1\n      0xf2fde38b\n      eq\n      tag_12\n      jumpi\n      dup1\n      0xfc0c546a\n      eq\n      tag_13\n      jumpi\n      jump(tag_2)\n    tag_14:\n      dup1\n      0x40306fb6\n      eq\n      tag_3\n      jumpi\n      dup1\n      0x43074c7f\n      eq\n      tag_4\n      jumpi\n      dup1\n      0x58262359\n      eq\n      tag_5\n      jumpi\n      dup1\n      0x5b88349d\n      eq\n      tag_6\n      jumpi\n      dup1\n      0x715018a6\n      eq\n      tag_7\n      jumpi\n    tag_2:\n      0x00\n      dup1\n      revert\n        /* \"contracts/HoldAirdrop.sol\":1498:1528  uint64 public airdropStartTime */\n    tag_3:\n      tag_15\n      tag_16\n      jump\t// in\n    tag_15:\n      mload(0x40)\n      tag_17\n      swap2\n      swap1\n      tag_18\n      jump\t// in\n    tag_17:\n      mload(0x40)\n      dup1\n      swap2\n      sub\n      swap1\n      return\n        /* \"contracts/HoldAirdrop.sol\":1240:1278  uint96 public immutable minEthRequired */\n    tag_4:\n      tag_19\n      tag_20\n      jump\t// in\n    tag_19:\n      mload(0x40)\n      tag_21\n      swap2\n      swap1\n      tag_22\n      jump\t// in\n    tag_21:\n      mload(0x40)\n      dup1\n      swap2\n      sub\n      swap1\n      return\n        /* \"contracts/HoldAirdrop.sol\":4617:4999  function checkEligibility(address[] calldata users) external view ... */\n    tag_5:\n      tag_23\n      0x04\n      dup1\n      calldatasize\n      sub\n      dup2\n      add\n      swap1\n      tag_24\n      swap2\n      swap1\n      tag_25\n      jump\t// in\n    tag_24:\n      tag_26\n      jump\t// in\n    tag_23:\n      mload(0x40)\n      tag_27\n      swap2\n      swap1\n      tag_28\n      jump\t// in\n    tag_27:\n      mload(0x40)\n      dup1\n      swap2\n      sub\n      swap1\n      return\n        /* \"contracts/HoldAirdrop.sol\":3284:3728  function claimAirdrop() external nonReentrant {... */\n    tag_6:\n      tag_29\n      tag_30\n      jump\t// in\n    tag_29:\n      stop\n        /* \"@openzeppelin/contracts/access/Ownable.sol\":2293:2394  function renounceOwnership() public virtual onlyOwner {... */\n    tag_7:\n      tag_31\n      tag_32\n      jump\t// in\n    tag_31:\n      stop\n        /* \"contracts/HoldAirdrop.sol\":1417:1444  AirdropConfig public config */\n    tag_8:\n      tag_33\n      tag_34\n      jump\t// in\n    tag_33:\n      mload(0x40)\n      tag_35\n      swap4\n      swap3\n      swap2\n      swap1\n      tag_36\n      jump\t// in\n    tag_35:\n      mload(0x40)\n      dup1\n      swap2\n      sub\n      swap1\n      return\n        /* \"contracts/HoldAirdrop.sol\":1534:1562  uint64 public airdropEndTime */\n    tag_9:\n      tag_37\n      tag_38\n      jump\t// in\n    tag_37:\n      mload(0x40)\n      tag_39\n      swap2\n      swap1\n      tag_18\n      jump\t// in\n    tag_39:\n      mload(0x40)\n      dup1\n      swap2\n      sub\n      swap1\n      return\n        /* \"@openzeppelin/contracts/access/Ownable.sol\":1638:1723  function owner() public view virtual returns (address) {... */\n    tag_10:\n      tag_40\n      tag_41\n      jump\t// in\n    tag_40:\n      mload(0x40)\n      tag_42\n      swap2\n      swap1\n      tag_43\n      jump\t// in\n    tag_42:\n      mload(0x40)\n      dup1\n      swap2\n      sub\n      swap1\n      return\n        /* \"contracts/HoldAirdrop.sol\":5674:5892  function emergencyWithdraw() external onlyOwner {... */\n    tag_11:\n      tag_44\n      tag_45\n      jump\t// in\n    tag_44:\n      stop\n        /* \"@openzeppelin/contracts/access/Ownable.sol\":2543:2758  function transferOwnership(address newOwner) public virtual onlyOwner {... */\n    tag_12:\n      tag_46\n      0x04\n      dup1\n      calldatasize\n      sub\n      dup2\n      add\n      swap1\n      tag_47\n      swap2\n      swap1\n      tag_48\n      jump\t// in\n    tag_47:\n      tag_49\n      jump\t// in\n    tag_46:\n      stop\n        /* \"contracts/HoldAirdrop.sol\":1205:1234  IERC20 public immutable token */\n    tag_13:\n      tag_50\n      tag_51\n      jump\t// in\n    tag_50:\n      mload(0x40)\n      tag_52\n      swap2\n      swap1\n      tag_53\n      jump\t// in\n    tag_52:\n      mload(0x40)\n      dup1\n      swap2\n      sub\n      swap1\n      return\n        /* \"contracts/HoldAirdrop.sol\":1498:1528  uint64 public airdropStartTime */\n    tag_16:\n      0x04\n      0x00\n      swap1\n      sload\n      swap1\n      0x0100\n      exp\n      swap1\n      div\n      0xffffffffffffffff\n      and\n      dup2\n      jump\t// out\n        /* \"contracts/HoldAirdrop.sol\":1240:1278  uint96 public immutable minEthRequired */\n    tag_20:\n      immutable(\"0x33cc19d79febe2413fb9e204aeb684d47982ef5754538b90a83e403603eda384\")\n      dup2\n      jump\t// out\n        /* \"contracts/HoldAirdrop.sol\":4617:4999  function checkEligibility(address[] calldata users) external view ... */\n    tag_26:\n        /* \"contracts/HoldAirdrop.sol\":4701:4726  bool[] memory eligibility */\n      0x60\n        /* \"contracts/HoldAirdrop.sol\":4768:4773  users */\n      dup3\n      dup3\n        /* \"contracts/HoldAirdrop.sol\":4768:4780  users.length */\n      swap1\n      pop\n        /* \"contracts/HoldAirdrop.sol\":4757:4781  new bool[](users.length) */\n      0xffffffffffffffff\n      dup2\n      gt\n      iszero\n      tag_55\n      jumpi\n      tag_56\n      tag_57\n      jump\t// in\n    tag_56:\n    tag_55:\n      mload(0x40)\n      swap1\n      dup1\n      dup3\n      mstore\n      dup1\n      0x20\n      mul\n      0x20\n      add\n      dup3\n      add\n      0x40\n      mstore\n      dup1\n      iszero\n      tag_58\n      jumpi\n      dup2\n      0x20\n      add\n      0x20\n      dup3\n      mul\n      dup1\n      calldatasize\n      dup4\n      calldatacopy\n      dup1\n      dup3\n      add\n      swap2\n      pop\n      pop\n      swap1\n      pop\n    tag_58:\n      pop\n        /* \"contracts/HoldAirdrop.sol\":4743:4781  eligibility = new bool[](users.length) */\n      swap1\n      pop\n        /* \"contracts/HoldAirdrop.sol\":4791:4810  uint256 currentTime */\n      0x00\n        /* \"contracts/HoldAirdrop.sol\":4813:4828  block.timestamp */\n      timestamp\n        /* \"contracts/HoldAirdrop.sol\":4791:4828  uint256 currentTime = block.timestamp */\n      swap1\n      pop\n        /* \"contracts/HoldAirdrop.sol\":4852:4861  uint256 i */\n      0x00\n        /* \"contracts/HoldAirdrop.sol\":4847:4993  for (uint256 i = 0; i < users.length;) {... */\n    tag_59:\n        /* \"contracts/HoldAirdrop.sol\":4871:4876  users */\n      dup5\n      dup5\n        /* \"contracts/HoldAirdrop.sol\":4871:4883  users.length */\n      swap1\n      pop\n        /* \"contracts/HoldAirdrop.sol\":4867:4868  i */\n      dup2\n        /* \"contracts/HoldAirdrop.sol\":4867:4883  i < users.length */\n      lt\n        /* \"contracts/HoldAirdrop.sol\":4847:4993  for (uint256 i = 0; i < users.length;) {... */\n      iszero\n      tag_60\n      jumpi\n        /* \"contracts/HoldAirdrop.sol\":4917:4951  _isEligible(users[i], currentTime) */\n      tag_62\n        /* \"contracts/HoldAirdrop.sol\":4929:4934  users */\n      dup6\n      dup6\n        /* \"contracts/HoldAirdrop.sol\":4935:4936  i */\n      dup4\n        /* \"contracts/HoldAirdrop.sol\":4929:4937  users[i] */\n      dup2\n      dup2\n      lt\n      tag_63\n      jumpi\n      tag_64\n      tag_65\n      jump\t// in\n    tag_64:\n    tag_63:\n      swap1\n      pop\n      0x20\n      mul\n      add\n      0x20\n      dup2\n      add\n      swap1\n      tag_66\n      swap2\n      swap1\n      tag_48\n      jump\t// in\n    tag_66:\n        /* \"contracts/HoldAirdrop.sol\":4939:4950  currentTime */\n      dup4\n        /* \"contracts/HoldAirdrop.sol\":4917:4928  _isEligible */\n      tag_67\n        /* \"contracts/HoldAirdrop.sol\":4917:4951  _isEligible(users[i], currentTime) */\n      jump\t// in\n    tag_62:\n        /* \"contracts/HoldAirdrop.sol\":4900:4911  eligibility */\n      dup4\n        /* \"contracts/HoldAirdrop.sol\":4912:4913  i */\n      dup3\n        /* \"contracts/HoldAirdrop.sol\":4900:4914  eligibility[i] */\n      dup2\n      mload\n      dup2\n      lt\n      tag_68\n      jumpi\n      tag_69\n      tag_65\n      jump\t// in\n    tag_69:\n    tag_68:\n      0x20\n      mul\n      0x20\n      add\n      add\n        /* \"contracts/HoldAirdrop.sol\":4900:4951  eligibility[i] = _isEligible(users[i], currentTime) */\n      swap1\n      iszero\n      iszero\n      swap1\n      dup2\n      iszero\n      iszero\n      dup2\n      mstore\n      pop\n      pop\n        /* \"contracts/HoldAirdrop.sol\":4977:4980  ++i */\n      dup1\n      0x01\n      add\n      swap1\n      pop\n        /* \"contracts/HoldAirdrop.sol\":4847:4993  for (uint256 i = 0; i < users.length;) {... */\n      jump(tag_59)\n    tag_60:\n      pop\n        /* \"contracts/HoldAirdrop.sol\":4733:4999  {... */\n      pop\n        /* \"contracts/HoldAirdrop.sol\":4617:4999  function checkEligibility(address[] calldata users) external view ... */\n      swap3\n      swap2\n      pop\n      pop\n      jump\t// out\n        /* \"contracts/HoldAirdrop.sol\":3284:3728  function claimAirdrop() external nonReentrant {... */\n    tag_30:\n        /* \"@openzeppelin/contracts/security/ReentrancyGuard.sol\":2261:2282  _nonReentrantBefore() */\n      tag_71\n        /* \"@openzeppelin/contracts/security/ReentrancyGuard.sol\":2261:2280  _nonReentrantBefore */\n      tag_72\n        /* \"@openzeppelin/contracts/security/ReentrancyGuard.sol\":2261:2282  _nonReentrantBefore() */\n      jump\t// in\n    tag_71:\n        /* \"contracts/HoldAirdrop.sol\":3340:3366  _validateClaim(msg.sender) */\n      tag_74\n        /* \"contracts/HoldAirdrop.sol\":3355:3365  msg.sender */\n      caller\n        /* \"contracts/HoldAirdrop.sol\":3340:3354  _validateClaim */\n      tag_75\n        /* \"contracts/HoldAirdrop.sol\":3340:3366  _validateClaim(msg.sender) */\n      jump\t// in\n    tag_74:\n        /* \"contracts/HoldAirdrop.sol\":3385:3402  uint256 userIndex */\n      0x00\n        /* \"contracts/HoldAirdrop.sol\":3421:3431  msg.sender */\n      caller\n        /* \"contracts/HoldAirdrop.sol\":3405:3433  uint256(uint160(msg.sender)) */\n      0xffffffffffffffffffffffffffffffffffffffff\n      and\n        /* \"contracts/HoldAirdrop.sol\":3385:3433  uint256 userIndex = uint256(uint160(msg.sender)) */\n      swap1\n      pop\n        /* \"contracts/HoldAirdrop.sol\":3443:3471  claimedBitMap.set(userIndex) */\n      tag_76\n        /* \"contracts/HoldAirdrop.sol\":3461:3470  userIndex */\n      dup2\n        /* \"contracts/HoldAirdrop.sol\":3443:3456  claimedBitMap */\n      0x03\n        /* \"contracts/HoldAirdrop.sol\":3443:3460  claimedBitMap.set */\n      tag_77\n      swap1\n        /* \"contracts/HoldAirdrop.sol\":3443:3471  claimedBitMap.set(userIndex) */\n      swap2\n      swap1\n      0xffffffff\n      and\n      jump\t// in\n    tag_76:\n        /* \"contracts/HoldAirdrop.sol\":3547:3553  config */\n      0x02\n        /* \"contracts/HoldAirdrop.sol\":3547:3567  config.airdropAmount */\n      0x00\n      add\n      0x00\n      swap1\n      sload\n      swap1\n      0x0100\n      exp\n      swap1\n      div\n      0xffffffffffffffffffffffff\n      and\n        /* \"contracts/HoldAirdrop.sol\":3514:3520  config */\n      0x02\n        /* \"contracts/HoldAirdrop.sol\":3514:3536  config.totalAirdropped */\n      0x00\n      add\n      0x18\n        /* \"contracts/HoldAirdrop.sol\":3514:3568  config.totalAirdropped += uint64(config.airdropAmount) */\n      dup3\n      dup3\n      dup3\n      swap1\n      sload\n      swap1\n      0x0100\n      exp\n      swap1\n      div\n      0xffffffffffffffff\n      and\n      add\n      swap3\n      pop\n      0x0100\n      exp\n      dup2\n      sload\n      dup2\n      0xffffffffffffffff\n      mul\n      not\n      and\n      swap1\n      dup4\n      0xffffffffffffffff\n      and\n      mul\n      or\n      swap1\n      sstore\n      pop\n        /* \"contracts/HoldAirdrop.sol\":3597:3649  token.safeTransfer(msg.sender, config.airdropAmount) */\n      tag_78\n        /* \"contracts/HoldAirdrop.sol\":3616:3626  msg.sender */\n      caller\n        /* \"contracts/HoldAirdrop.sol\":3628:3634  config */\n      0x02\n        /* \"contracts/HoldAirdrop.sol\":3628:3648  config.airdropAmount */\n      0x00\n      add\n      0x00\n      swap1\n      sload\n      swap1\n      0x0100\n      exp\n      swap1\n      div\n      0xffffffffffffffffffffffff\n      and\n        /* \"contracts/HoldAirdrop.sol\":3597:3649  token.safeTransfer(msg.sender, config.airdropAmount) */\n      0xffffffffffffffffffffffff\n      and\n        /* \"contracts/HoldAirdrop.sol\":3597:3602  token */\n      immutable(\"0x02e99feef5a1e2f43445227b1399ed133121f299fd78ca24b0865c8cd3641060\")\n        /* \"contracts/HoldAirdrop.sol\":3597:3615  token.safeTransfer */\n      0xffffffffffffffffffffffffffffffffffffffff\n      and\n      tag_79\n      swap1\n        /* \"contracts/HoldAirdrop.sol\":3597:3649  token.safeTransfer(msg.sender, config.airdropAmount) */\n      swap3\n      swap2\n      swap1\n      0xffffffff\n      and\n      jump\t// in\n    tag_78:\n        /* \"contracts/HoldAirdrop.sol\":3688:3698  msg.sender */\n      caller\n        /* \"contracts/HoldAirdrop.sol\":3673:3721  AirdropClaimed(msg.sender, config.airdropAmount) */\n      0xffffffffffffffffffffffffffffffffffffffff\n      and\n      0x61302c72df1000ca12d41c5583685720a0cbd3233372643a553eb042d670f076\n        /* \"contracts/HoldAirdrop.sol\":3700:3706  config */\n      0x02\n        /* \"contracts/HoldAirdrop.sol\":3700:3720  config.airdropAmount */\n      0x00\n      add\n      0x00\n      swap1\n      sload\n      swap1\n      0x0100\n      exp\n      swap1\n      div\n      0xffffffffffffffffffffffff\n      and\n        /* \"contracts/HoldAirdrop.sol\":3673:3721  AirdropClaimed(msg.sender, config.airdropAmount) */\n      mload(0x40)\n      tag_80\n      swap2\n      swap1\n      tag_22\n      jump\t// in\n    tag_80:\n      mload(0x40)\n      dup1\n      swap2\n      sub\n      swap1\n      log2\n        /* \"contracts/HoldAirdrop.sol\":3330:3728  {... */\n      pop\n        /* \"@openzeppelin/contracts/security/ReentrancyGuard.sol\":2303:2323  _nonReentrantAfter() */\n      tag_81\n        /* \"@openzeppelin/contracts/security/ReentrancyGuard.sol\":2303:2321  _nonReentrantAfter */\n      tag_82\n        /* \"@openzeppelin/contracts/security/ReentrancyGuard.sol\":2303:2323  _nonReentrantAfter() */\n      jump\t// in\n    tag_81:\n        /* \"contracts/HoldAirdrop.sol\":3284:3728  function claimAirdrop() external nonReentrant {... */\n      jump\t// out\n        /* \"@openzeppelin/contracts/access/Ownable.sol\":2293:2394  function renounceOwnership() public virtual onlyOwner {... */\n    tag_32:\n        /* \"@openzeppelin/contracts/access/Ownable.sol\":1531:1544  _checkOwner() */\n      tag_84\n        /* \"@openzeppelin/contracts/access/Ownable.sol\":1531:1542  _checkOwner */\n      tag_85\n        /* \"@openzeppelin/contracts/access/Ownable.sol\":1531:1544  _checkOwner() */\n      jump\t// in\n    tag_84:\n        /* \"@openzeppelin/contracts/access/Ownable.sol\":2357:2387  _transferOwnership(address(0)) */\n      tag_87\n        /* \"@openzeppelin/contracts/access/Ownable.sol\":2384:2385  0 */\n      0x00\n        /* \"@openzeppelin/contracts/access/Ownable.sol\":2357:2375  _transferOwnership */\n      tag_88\n        /* \"@openzeppelin/contracts/access/Ownable.sol\":2357:2387  _transferOwnership(address(0)) */\n      jump\t// in\n    tag_87:\n        /* \"@openzeppelin/contracts/access/Ownable.sol\":2293:2394  function renounceOwnership() public virtual onlyOwner {... */\n      jump\t// out\n        /* \"contracts/HoldAirdrop.sol\":1417:1444  AirdropConfig public config */\n    tag_34:\n      0x02\n      dup1\n      0x00\n      add\n      0x00\n      swap1\n      sload\n      swap1\n      0x0100\n      exp\n      swap1\n      div\n      0xffffffffffffffffffffffff\n      and\n      swap1\n      dup1\n      0x00\n      add\n      0x0c\n      swap1\n      sload\n      swap1\n      0x0100\n      exp\n      swap1\n      div\n      0xffffffffffffffffffffffff\n      and\n      swap1\n      dup1\n      0x00\n      add\n      0x18\n      swap1\n      sload\n      swap1\n      0x0100\n      exp\n      swap1\n      div\n      0xffffffffffffffff\n      and\n      swap1\n      pop\n      dup4\n      jump\t// out\n        /* \"contracts/HoldAirdrop.sol\":1534:1562  uint64 public airdropEndTime */\n    tag_38:\n      0x04\n      0x08\n      swap1\n      sload\n      swap1\n      0x0100\n      exp\n      swap1\n      div\n      0xffffffffffffffff\n      and\n      dup2\n      jump\t// out\n        /* \"@openzeppelin/contracts/access/Ownable.sol\":1638:1723  function owner() public view virtual returns (address) {... */\n    tag_41:\n        /* \"@openzeppelin/contracts/access/Ownable.sol\":1684:1691  address */\n      0x00\n        /* \"@openzeppelin/contracts/access/Ownable.sol\":1710:1716  _owner */\n      dup1\n      0x00\n      swap1\n      sload\n      swap1\n      0x0100\n      exp\n      swap1\n      div\n      0xffffffffffffffffffffffffffffffffffffffff\n      and\n        /* \"@openzeppelin/contracts/access/Ownable.sol\":1703:1716  return _owner */\n      swap1\n      pop\n        /* \"@openzeppelin/contracts/access/Ownable.sol\":1638:1723  function owner() public view virtual returns (address) {... */\n      swap1\n      jump\t// out\n        /* \"contracts/HoldAirdrop.sol\":5674:5892  function emergencyWithdraw() external onlyOwner {... */\n    tag_45:\n        /* \"@openzeppelin/contracts/access/Ownable.sol\":1531:1544  _checkOwner() */\n      tag_91\n        /* \"@openzeppelin/contracts/access/Ownable.sol\":1531:1542  _checkOwner */\n      tag_85\n        /* \"@openzeppelin/contracts/access/Ownable.sol\":1531:1544  _checkOwner() */\n      jump\t// in\n    tag_91:\n        /* \"contracts/HoldAirdrop.sol\":5732:5747  uint256 balance */\n      0x00\n        /* \"contracts/HoldAirdrop.sol\":5750:5755  token */\n      immutable(\"0x02e99feef5a1e2f43445227b1399ed133121f299fd78ca24b0865c8cd3641060\")\n        /* \"contracts/HoldAirdrop.sol\":5750:5765  token.balanceOf */\n      0xffffffffffffffffffffffffffffffffffffffff\n      and\n      0x70a08231\n        /* \"contracts/HoldAirdrop.sol\":5774:5778  this */\n      address\n        /* \"contracts/HoldAirdrop.sol\":5750:5780  token.balanceOf(address(this)) */\n      mload(0x40)\n      dup3\n      0xffffffff\n      and\n      0xe0\n      shl\n      dup2\n      mstore\n      0x04\n      add\n      tag_93\n      swap2\n      swap1\n      tag_43\n      jump\t// in\n    tag_93:\n      0x20\n      mload(0x40)\n      dup1\n      dup4\n      sub\n      dup2\n      dup7\n      gas\n      staticcall\n      iszero\n      dup1\n      iszero\n      tag_95\n      jumpi\n      returndatasize\n      0x00\n      dup1\n      returndatacopy\n      revert(0x00, returndatasize)\n    tag_95:\n      pop\n      pop\n      pop\n      pop\n      mload(0x40)\n      returndatasize\n      not(0x1f)\n      0x1f\n      dup3\n      add\n      and\n      dup3\n      add\n      dup1\n      0x40\n      mstore\n      pop\n      dup2\n      add\n      swap1\n      tag_96\n      swap2\n      swap1\n      tag_97\n      jump\t// in\n    tag_96:\n        /* \"contracts/HoldAirdrop.sol\":5732:5780  uint256 balance = token.balanceOf(address(this)) */\n      swap1\n      pop\n        /* \"contracts/HoldAirdrop.sol\":5805:5806  0 */\n      0x00\n        /* \"contracts/HoldAirdrop.sol\":5794:5801  balance */\n      dup2\n        /* \"contracts/HoldAirdrop.sol\":5794:5806  balance == 0 */\n      sub\n        /* \"contracts/HoldAirdrop.sol\":5790:5836  if (balance == 0) revert InsufficientBalance() */\n      tag_98\n      jumpi\n        /* \"contracts/HoldAirdrop.sol\":5815:5836  InsufficientBalance() */\n      mload(0x40)\n      0xf4d678b800000000000000000000000000000000000000000000000000000000\n      dup2\n      mstore\n      0x04\n      add\n      mload(0x40)\n      dup1\n      swap2\n      sub\n      swap1\n      revert\n        /* \"contracts/HoldAirdrop.sol\":5790:5836  if (balance == 0) revert InsufficientBalance() */\n    tag_98:\n        /* \"contracts/HoldAirdrop.sol\":5846:5885  token.safeTransfer(msg.sender, balance) */\n      tag_99\n        /* \"contracts/HoldAirdrop.sol\":5865:5875  msg.sender */\n      caller\n        /* \"contracts/HoldAirdrop.sol\":5877:5884  balance */\n      dup3\n        /* \"contracts/HoldAirdrop.sol\":5846:5851  token */\n      immutable(\"0x02e99feef5a1e2f43445227b1399ed133121f299fd78ca24b0865c8cd3641060\")\n        /* \"contracts/HoldAirdrop.sol\":5846:5864  token.safeTransfer */\n      0xffffffffffffffffffffffffffffffffffffffff\n      and\n      tag_79\n      swap1\n        /* \"contracts/HoldAirdrop.sol\":5846:5885  token.safeTransfer(msg.sender, balance) */\n      swap3\n      swap2\n      swap1\n      0xffffffff\n      and\n      jump\t// in\n    tag_99:\n        /* \"contracts/HoldAirdrop.sol\":5722:5892  {... */\n      pop\n        /* \"contracts/HoldAirdrop.sol\":5674:5892  function emergencyWithdraw() external onlyOwner {... */\n      jump\t// out\n        /* \"@openzeppelin/contracts/access/Ownable.sol\":2543:2758  function transferOwnership(address newOwner) public virtual onlyOwner {... */\n    tag_49:\n        /* \"@openzeppelin/contracts/access/Ownable.sol\":1531:1544  _checkOwner() */\n      tag_101\n        /* \"@openzeppelin/contracts/access/Ownable.sol\":1531:1542  _checkOwner */\n      tag_85\n        /* \"@openzeppelin/contracts/access/Ownable.sol\":1531:1544  _checkOwner() */\n      jump\t// in\n    tag_101:\n        /* \"@openzeppelin/contracts/access/Ownable.sol\":2647:2648  0 */\n      0x00\n        /* \"@openzeppelin/contracts/access/Ownable.sol\":2627:2649  newOwner == address(0) */\n      0xffffffffffffffffffffffffffffffffffffffff\n      and\n        /* \"@openzeppelin/contracts/access/Ownable.sol\":2627:2635  newOwner */\n      dup2\n        /* \"@openzeppelin/contracts/access/Ownable.sol\":2627:2649  newOwner == address(0) */\n      0xffffffffffffffffffffffffffffffffffffffff\n      and\n      sub\n        /* \"@openzeppelin/contracts/access/Ownable.sol\":2623:2714  if (newOwner == address(0)) {... */\n      tag_103\n      jumpi\n        /* \"@openzeppelin/contracts/access/Ownable.sol\":2700:2701  0 */\n      0x00\n        /* \"@openzeppelin/contracts/access/Ownable.sol\":2672:2703  OwnableInvalidOwner(address(0)) */\n      mload(0x40)\n      0x1e4fbdf700000000000000000000000000000000000000000000000000000000\n      dup2\n      mstore\n      0x04\n      add\n      tag_104\n      swap2\n      swap1\n      tag_43\n      jump\t// in\n    tag_104:\n      mload(0x40)\n      dup1\n      swap2\n      sub\n      swap1\n      revert\n        /* \"@openzeppelin/contracts/access/Ownable.sol\":2623:2714  if (newOwner == address(0)) {... */\n    tag_103:\n        /* \"@openzeppelin/contracts/access/Ownable.sol\":2723:2751  _transferOwnership(newOwner) */\n      tag_105\n        /* \"@openzeppelin/contracts/access/Ownable.sol\":2742:2750  newOwner */\n      dup2\n        /* \"@openzeppelin/contracts/access/Ownable.sol\":2723:2741  _transferOwnership */\n      tag_88\n        /* \"@openzeppelin/contracts/access/Ownable.sol\":2723:2751  _transferOwnership(newOwner) */\n      jump\t// in\n    tag_105:\n        /* \"@openzeppelin/contracts/access/Ownable.sol\":2543:2758  function transferOwnership(address newOwner) public virtual onlyOwner {... */\n      pop\n      jump\t// out\n        /* \"contracts/HoldAirdrop.sol\":1205:1234  IERC20 public immutable token */\n    tag_51:\n      immutable(\"0x02e99feef5a1e2f43445227b1399ed133121f299fd78ca24b0865c8cd3641060\")\n      dup2\n      jump\t// out\n        /* \"contracts/HoldAirdrop.sol\":5191:5582  function _isEligible(address user, uint256 currentTime) private view returns (bool) {... */\n    tag_67:\n        /* \"contracts/HoldAirdrop.sol\":5269:5273  bool */\n      0x00\n        /* \"contracts/HoldAirdrop.sol\":5320:5336  airdropStartTime */\n      0x04\n      0x00\n      swap1\n      sload\n      swap1\n      0x0100\n      exp\n      swap1\n      div\n      0xffffffffffffffff\n      and\n        /* \"contracts/HoldAirdrop.sol\":5305:5336  currentTime >= airdropStartTime */\n      0xffffffffffffffff\n      and\n        /* \"contracts/HoldAirdrop.sol\":5305:5316  currentTime */\n      dup3\n        /* \"contracts/HoldAirdrop.sol\":5305:5336  currentTime >= airdropStartTime */\n      lt\n      iszero\n        /* \"contracts/HoldAirdrop.sol\":5305:5381  currentTime >= airdropStartTime &&... */\n      dup1\n      iszero\n      tag_107\n      jumpi\n      pop\n        /* \"contracts/HoldAirdrop.sol\":5367:5381  airdropEndTime */\n      0x04\n      0x08\n      swap1\n      sload\n      swap1\n      0x0100\n      exp\n      swap1\n      div\n      0xffffffffffffffff\n      and\n        /* \"contracts/HoldAirdrop.sol\":5352:5381  currentTime <= airdropEndTime */\n      0xffffffffffffffff\n      and\n        /* \"contracts/HoldAirdrop.sol\":5352:5363  currentTime */\n      dup3\n        /* \"contracts/HoldAirdrop.sol\":5352:5381  currentTime <= airdropEndTime */\n      gt\n      iszero\n        /* \"contracts/HoldAirdrop.sol\":5305:5381  currentTime >= airdropStartTime &&... */\n    tag_107:\n        /* \"contracts/HoldAirdrop.sol\":5305:5427  currentTime >= airdropStartTime &&... */\n      dup1\n      iszero\n      tag_108\n      jumpi\n      pop\n        /* \"contracts/HoldAirdrop.sol\":5413:5427  minEthRequired */\n      immutable(\"0x33cc19d79febe2413fb9e204aeb684d47982ef5754538b90a83e403603eda384\")\n        /* \"contracts/HoldAirdrop.sol\":5397:5427  user.balance >= minEthRequired */\n      0xffffffffffffffffffffffff\n      and\n        /* \"contracts/HoldAirdrop.sol\":5397:5401  user */\n      dup4\n        /* \"contracts/HoldAirdrop.sol\":5397:5409  user.balance */\n      0xffffffffffffffffffffffffffffffffffffffff\n      and\n      balance\n        /* \"contracts/HoldAirdrop.sol\":5397:5427  user.balance >= minEthRequired */\n      lt\n      iszero\n        /* \"contracts/HoldAirdrop.sol\":5305:5427  currentTime >= airdropStartTime &&... */\n    tag_108:\n        /* \"contracts/HoldAirdrop.sol\":5305:5485  currentTime >= airdropStartTime &&... */\n      dup1\n      iszero\n      tag_109\n      jumpi\n      pop\n        /* \"contracts/HoldAirdrop.sol\":5444:5485  claimedBitMap.get(uint256(uint160(user))) */\n      tag_110\n        /* \"contracts/HoldAirdrop.sol\":5478:5482  user */\n      dup4\n        /* \"contracts/HoldAirdrop.sol\":5462:5484  uint256(uint160(user)) */\n      0xffffffffffffffffffffffffffffffffffffffff\n      and\n        /* \"contracts/HoldAirdrop.sol\":5444:5457  claimedBitMap */\n      0x03\n        /* \"contracts/HoldAirdrop.sol\":5444:5461  claimedBitMap.get */\n      tag_111\n      swap1\n        /* \"contracts/HoldAirdrop.sol\":5444:5485  claimedBitMap.get(uint256(uint160(user))) */\n      swap2\n      swap1\n      0xffffffff\n      and\n      jump\t// in\n    tag_110:\n        /* \"contracts/HoldAirdrop.sol\":5443:5485  !claimedBitMap.get(uint256(uint160(user))) */\n      iszero\n        /* \"contracts/HoldAirdrop.sol\":5305:5485  currentTime >= airdropStartTime &&... */\n    tag_109:\n        /* \"contracts/HoldAirdrop.sol\":5305:5575  currentTime >= airdropStartTime &&... */\n      dup1\n      iszero\n      tag_112\n      jumpi\n      pop\n        /* \"contracts/HoldAirdrop.sol\":5551:5557  config */\n      0x02\n        /* \"contracts/HoldAirdrop.sol\":5551:5574  config.maxAirdropSupply */\n      0x00\n      add\n      0x0c\n      swap1\n      sload\n      swap1\n      0x0100\n      exp\n      swap1\n      div\n      0xffffffffffffffffffffffff\n      and\n        /* \"contracts/HoldAirdrop.sol\":5502:5574  config.totalAirdropped + config.airdropAmount <= config.maxAirdropSupply */\n      0xffffffffffffffffffffffff\n      and\n        /* \"contracts/HoldAirdrop.sol\":5527:5533  config */\n      0x02\n        /* \"contracts/HoldAirdrop.sol\":5527:5547  config.airdropAmount */\n      0x00\n      add\n      0x00\n      swap1\n      sload\n      swap1\n      0x0100\n      exp\n      swap1\n      div\n      0xffffffffffffffffffffffff\n      and\n        /* \"contracts/HoldAirdrop.sol\":5502:5508  config */\n      0x02\n        /* \"contracts/HoldAirdrop.sol\":5502:5524  config.totalAirdropped */\n      0x00\n      add\n      0x18\n      swap1\n      sload\n      swap1\n      0x0100\n      exp\n      swap1\n      div\n      0xffffffffffffffff\n      and\n        /* \"contracts/HoldAirdrop.sol\":5502:5547  config.totalAirdropped + config.airdropAmount */\n      0xffffffffffffffff\n      and\n      tag_113\n      swap2\n      swap1\n      tag_114\n      jump\t// in\n    tag_113:\n        /* \"contracts/HoldAirdrop.sol\":5502:5574  config.totalAirdropped + config.airdropAmount <= config.maxAirdropSupply */\n      0xffffffffffffffffffffffff\n      and\n      gt\n      iszero\n        /* \"contracts/HoldAirdrop.sol\":5305:5575  currentTime >= airdropStartTime &&... */\n    tag_112:\n        /* \"contracts/HoldAirdrop.sol\":5285:5575  return ... */\n      swap1\n      pop\n        /* \"contracts/HoldAirdrop.sol\":5191:5582  function _isEligible(address user, uint256 currentTime) private view returns (bool) {... */\n      swap3\n      swap2\n      pop\n      pop\n      jump\t// out\n        /* \"@openzeppelin/contracts/security/ReentrancyGuard.sol\":2336:2623  function _nonReentrantBefore() private {... */\n    tag_72:\n        /* \"@openzeppelin/contracts/security/ReentrancyGuard.sol\":1759:1760  2 */\n      0x02\n        /* \"@openzeppelin/contracts/security/ReentrancyGuard.sol\":2468:2475  _status */\n      sload(0x01)\n        /* \"@openzeppelin/contracts/security/ReentrancyGuard.sol\":2468:2487  _status != _ENTERED */\n      sub\n        /* \"@openzeppelin/contracts/security/ReentrancyGuard.sol\":2460:2523  require(_status != _ENTERED, \"ReentrancyGuard: reentrant call\") */\n      tag_116\n      jumpi\n      mload(0x40)\n      0x08c379a000000000000000000000000000000000000000000000000000000000\n      dup2\n      mstore\n      0x04\n      add\n      tag_117\n      swap1\n      tag_118\n      jump\t// in\n    tag_117:\n      mload(0x40)\n      dup1\n      swap2\n      sub\n      swap1\n      revert\n    tag_116:\n        /* \"@openzeppelin/contracts/security/ReentrancyGuard.sol\":1759:1760  2 */\n      0x02\n        /* \"@openzeppelin/contracts/security/ReentrancyGuard.sol\":2598:2605  _status */\n      0x01\n        /* \"@openzeppelin/contracts/security/ReentrancyGuard.sol\":2598:2616  _status = _ENTERED */\n      dup2\n      swap1\n      sstore\n      pop\n        /* \"@openzeppelin/contracts/security/ReentrancyGuard.sol\":2336:2623  function _nonReentrantBefore() private {... */\n      jump\t// out\n        /* \"contracts/HoldAirdrop.sol\":3832:4424  function _validateClaim(address user) private view {... */\n    tag_75:\n        /* \"contracts/HoldAirdrop.sol\":3915:3931  airdropStartTime */\n      0x04\n      0x00\n      swap1\n      sload\n      swap1\n      0x0100\n      exp\n      swap1\n      div\n      0xffffffffffffffff\n      and\n        /* \"contracts/HoldAirdrop.sol\":3897:3931  block.timestamp < airdropStartTime */\n      0xffffffffffffffff\n      and\n        /* \"contracts/HoldAirdrop.sol\":3897:3912  block.timestamp */\n      timestamp\n        /* \"contracts/HoldAirdrop.sol\":3897:3931  block.timestamp < airdropStartTime */\n      lt\n        /* \"contracts/HoldAirdrop.sol\":3897:3967  block.timestamp < airdropStartTime || block.timestamp > airdropEndTime */\n      dup1\n      tag_120\n      jumpi\n      pop\n        /* \"contracts/HoldAirdrop.sol\":3953:3967  airdropEndTime */\n      0x04\n      0x08\n      swap1\n      sload\n      swap1\n      0x0100\n      exp\n      swap1\n      div\n      0xffffffffffffffff\n      and\n        /* \"contracts/HoldAirdrop.sol\":3935:3967  block.timestamp > airdropEndTime */\n      0xffffffffffffffff\n      and\n        /* \"contracts/HoldAirdrop.sol\":3935:3950  block.timestamp */\n      timestamp\n        /* \"contracts/HoldAirdrop.sol\":3935:3967  block.timestamp > airdropEndTime */\n      gt\n        /* \"contracts/HoldAirdrop.sol\":3897:3967  block.timestamp < airdropStartTime || block.timestamp > airdropEndTime */\n    tag_120:\n        /* \"contracts/HoldAirdrop.sol\":3893:4012  if (block.timestamp < airdropStartTime || block.timestamp > airdropEndTime) {... */\n      iszero\n      tag_121\n      jumpi\n        /* \"contracts/HoldAirdrop.sol\":3990:4001  NotActive() */\n      mload(0x40)\n      0x80cb55e200000000000000000000000000000000000000000000000000000000\n      dup2\n      mstore\n      0x04\n      add\n      mload(0x40)\n      dup1\n      swap2\n      sub\n      swap1\n      revert\n        /* \"contracts/HoldAirdrop.sol\":3893:4012  if (block.timestamp < airdropStartTime || block.timestamp > airdropEndTime) {... */\n    tag_121:\n        /* \"contracts/HoldAirdrop.sol\":4034:4075  claimedBitMap.get(uint256(uint160(user))) */\n      tag_122\n        /* \"contracts/HoldAirdrop.sol\":4068:4072  user */\n      dup2\n        /* \"contracts/HoldAirdrop.sol\":4052:4074  uint256(uint160(user)) */\n      0xffffffffffffffffffffffffffffffffffffffff\n      and\n        /* \"contracts/HoldAirdrop.sol\":4034:4047  claimedBitMap */\n      0x03\n        /* \"contracts/HoldAirdrop.sol\":4034:4051  claimedBitMap.get */\n      tag_111\n      swap1\n        /* \"contracts/HoldAirdrop.sol\":4034:4075  claimedBitMap.get(uint256(uint160(user))) */\n      swap2\n      swap1\n      0xffffffff\n      and\n      jump\t// in\n    tag_122:\n        /* \"contracts/HoldAirdrop.sol\":4030:4125  if (claimedBitMap.get(uint256(uint160(user)))) {... */\n      iszero\n      tag_123\n      jumpi\n        /* \"contracts/HoldAirdrop.sol\":4098:4114  AlreadyClaimed() */\n      mload(0x40)\n      0x646cf55800000000000000000000000000000000000000000000000000000000\n      dup2\n      mstore\n      0x04\n      add\n      mload(0x40)\n      dup1\n      swap2\n      sub\n      swap1\n      revert\n        /* \"contracts/HoldAirdrop.sol\":4030:4125  if (claimedBitMap.get(uint256(uint160(user)))) {... */\n    tag_123:\n        /* \"contracts/HoldAirdrop.sol\":4162:4176  minEthRequired */\n      immutable(\"0x33cc19d79febe2413fb9e204aeb684d47982ef5754538b90a83e403603eda384\")\n        /* \"contracts/HoldAirdrop.sol\":4147:4176  user.balance < minEthRequired */\n      0xffffffffffffffffffffffff\n      and\n        /* \"contracts/HoldAirdrop.sol\":4147:4151  user */\n      dup2\n        /* \"contracts/HoldAirdrop.sol\":4147:4159  user.balance */\n      0xffffffffffffffffffffffffffffffffffffffff\n      and\n      balance\n        /* \"contracts/HoldAirdrop.sol\":4147:4176  user.balance < minEthRequired */\n      lt\n        /* \"contracts/HoldAirdrop.sol\":4143:4231  if (user.balance < minEthRequired) {... */\n      iszero\n      tag_124\n      jumpi\n        /* \"contracts/HoldAirdrop.sol\":4199:4220  InsufficientBalance() */\n      mload(0x40)\n      0xf4d678b800000000000000000000000000000000000000000000000000000000\n      dup2\n      mstore\n      0x04\n      add\n      mload(0x40)\n      dup1\n      swap2\n      sub\n      swap1\n      revert\n        /* \"contracts/HoldAirdrop.sol\":4143:4231  if (user.balance < minEthRequired) {... */\n    tag_124:\n        /* \"contracts/HoldAirdrop.sol\":4325:4331  config */\n      0x02\n        /* \"contracts/HoldAirdrop.sol\":4325:4348  config.maxAirdropSupply */\n      0x00\n      add\n      0x0c\n      swap1\n      sload\n      swap1\n      0x0100\n      exp\n      swap1\n      div\n      0xffffffffffffffffffffffff\n      and\n        /* \"contracts/HoldAirdrop.sol\":4277:4348  config.totalAirdropped + config.airdropAmount > config.maxAirdropSupply */\n      0xffffffffffffffffffffffff\n      and\n        /* \"contracts/HoldAirdrop.sol\":4302:4308  config */\n      0x02\n        /* \"contracts/HoldAirdrop.sol\":4302:4322  config.airdropAmount */\n      0x00\n      add\n      0x00\n      swap1\n      sload\n      swap1\n      0x0100\n      exp\n      swap1\n      div\n      0xffffffffffffffffffffffff\n      and\n        /* \"contracts/HoldAirdrop.sol\":4277:4283  config */\n      0x02\n        /* \"contracts/HoldAirdrop.sol\":4277:4299  config.totalAirdropped */\n      0x00\n      add\n      0x18\n      swap1\n      sload\n      swap1\n      0x0100\n      exp\n      swap1\n      div\n      0xffffffffffffffff\n      and\n        /* \"contracts/HoldAirdrop.sol\":4277:4322  config.totalAirdropped + config.airdropAmount */\n      0xffffffffffffffff\n      and\n      add\n        /* \"contracts/HoldAirdrop.sol\":4277:4348  config.totalAirdropped + config.airdropAmount > config.maxAirdropSupply */\n      0xffffffffffffffffffffffff\n      and\n      gt\n        /* \"contracts/HoldAirdrop.sol\":4273:4408  if (config.totalAirdropped + config.airdropAmount > config.maxAirdropSupply) {... */\n      iszero\n      tag_125\n      jumpi\n        /* \"contracts/HoldAirdrop.sol\":4375:4393  MaxSupplyReached() */\n      mload(0x40)\n      0xd05cb60900000000000000000000000000000000000000000000000000000000\n      dup2\n      mstore\n      0x04\n      add\n      mload(0x40)\n      dup1\n      swap2\n      sub\n      swap1\n      revert\n        /* \"contracts/HoldAirdrop.sol\":4273:4408  if (config.totalAirdropped + config.airdropAmount > config.maxAirdropSupply) {... */\n    tag_125:\n        /* \"contracts/HoldAirdrop.sol\":3832:4424  function _validateClaim(address user) private view {... */\n      pop\n      jump\t// out\n        /* \"contracts/HoldAirdrop.sol\":741:917  function set(Map storage map, uint256 index) internal {... */\n    tag_77:\n        /* \"contracts/HoldAirdrop.sol\":805:819  uint256 bucket */\n      0x00\n        /* \"contracts/HoldAirdrop.sol\":831:832  8 */\n      0x08\n        /* \"contracts/HoldAirdrop.sol\":822:827  index */\n      dup3\n        /* \"contracts/HoldAirdrop.sol\":822:832  index >> 8 */\n      swap1\n      shr\n        /* \"contracts/HoldAirdrop.sol\":805:832  uint256 bucket = index >> 8 */\n      swap1\n      pop\n        /* \"contracts/HoldAirdrop.sol\":842:854  uint256 mask */\n      0x00\n        /* \"contracts/HoldAirdrop.sol\":871:875  0xff */\n      0xff\n        /* \"contracts/HoldAirdrop.sol\":863:868  index */\n      dup4\n        /* \"contracts/HoldAirdrop.sol\":863:875  index & 0xff */\n      and\n        /* \"contracts/HoldAirdrop.sol\":857:858  1 */\n      0x01\n        /* \"contracts/HoldAirdrop.sol\":857:876  1 << (index & 0xff) */\n      swap1\n      shl\n        /* \"contracts/HoldAirdrop.sol\":842:876  uint256 mask = 1 << (index & 0xff) */\n      swap1\n      pop\n        /* \"contracts/HoldAirdrop.sol\":906:910  mask */\n      dup1\n        /* \"contracts/HoldAirdrop.sol\":886:889  map */\n      dup5\n        /* \"contracts/HoldAirdrop.sol\":886:894  map.bits */\n      0x00\n      add\n        /* \"contracts/HoldAirdrop.sol\":886:902  map.bits[bucket] */\n      0x00\n        /* \"contracts/HoldAirdrop.sol\":895:901  bucket */\n      dup5\n        /* \"contracts/HoldAirdrop.sol\":886:902  map.bits[bucket] */\n      dup2\n      mstore\n      0x20\n      add\n      swap1\n      dup2\n      mstore\n      0x20\n      add\n      0x00\n      keccak256\n      0x00\n        /* \"contracts/HoldAirdrop.sol\":886:910  map.bits[bucket] |= mask */\n      dup3\n      dup3\n      sload\n      or\n      swap3\n      pop\n      pop\n      dup2\n      swap1\n      sstore\n      pop\n        /* \"contracts/HoldAirdrop.sol\":795:917  {... */\n      pop\n      pop\n        /* \"contracts/HoldAirdrop.sol\":741:917  function set(Map storage map, uint256 index) internal {... */\n      pop\n      pop\n      jump\t// out\n        /* \"@openzeppelin/contracts/token/ERC20/utils/SafeERC20.sol\":1271:1431  function safeTransfer(IERC20 token, address to, uint256 value) internal {... */\n    tag_79:\n        /* \"@openzeppelin/contracts/token/ERC20/utils/SafeERC20.sol\":1353:1424  _callOptionalReturn(token, abi.encodeCall(token.transfer, (to, value))) */\n      tag_128\n        /* \"@openzeppelin/contracts/token/ERC20/utils/SafeERC20.sol\":1373:1378  token */\n      dup4\n        /* \"@openzeppelin/contracts/token/ERC20/utils/SafeERC20.sol\":1395:1400  token */\n      dup5\n        /* \"@openzeppelin/contracts/token/ERC20/utils/SafeERC20.sol\":1395:1409  token.transfer */\n      0xffffffffffffffffffffffffffffffffffffffff\n      and\n      0xa9059cbb\n        /* \"@openzeppelin/contracts/token/ERC20/utils/SafeERC20.sol\":1412:1414  to */\n      dup6\n        /* \"@openzeppelin/contracts/token/ERC20/utils/SafeERC20.sol\":1416:1421  value */\n      dup6\n        /* \"@openzeppelin/contracts/token/ERC20/utils/SafeERC20.sol\":1380:1423  abi.encodeCall(token.transfer, (to, value)) */\n      add(0x24, mload(0x40))\n      tag_129\n      swap3\n      swap2\n      swap1\n      tag_130\n      jump\t// in\n    tag_129:\n      mload(0x40)\n      0x20\n      dup2\n      dup4\n      sub\n      sub\n      dup2\n      mstore\n      swap1\n      0x40\n      mstore\n      swap2\n      pop\n      0xe0\n      shl\n      0x20\n      dup3\n      add\n      dup1\n      mload\n      0xffffffffffffffffffffffffffffffffffffffffffffffffffffffff\n      dup4\n      dup2\n      dup4\n      and\n      or\n      dup4\n      mstore\n      pop\n      pop\n      pop\n      pop\n        /* \"@openzeppelin/contracts/token/ERC20/utils/SafeERC20.sol\":1353:1372  _callOptionalReturn */\n      tag_131\n        /* \"@openzeppelin/contracts/token/ERC20/utils/SafeERC20.sol\":1353:1424  _callOptionalReturn(token, abi.encodeCall(token.transfer, (to, value))) */\n      jump\t// in\n    tag_128:\n        /* \"@openzeppelin/contracts/token/ERC20/utils/SafeERC20.sol\":1271:1431  function safeTransfer(IERC20 token, address to, uint256 value) internal {... */\n      pop\n      pop\n      pop\n      jump\t// out\n        /* \"@openzeppelin/contracts/security/ReentrancyGuard.sol\":2629:2838  function _nonReentrantAfter() private {... */\n    tag_82:\n        /* \"@openzeppelin/contracts/security/ReentrancyGuard.sol\":1716:1717  1 */\n      0x01\n        /* \"@openzeppelin/contracts/security/ReentrancyGuard.sol\":2809:2816  _status */\n      dup1\n        /* \"@openzeppelin/contracts/security/ReentrancyGuard.sol\":2809:2831  _status = _NOT_ENTERED */\n      dup2\n      swap1\n      sstore\n      pop\n        /* \"@openzeppelin/contracts/security/ReentrancyGuard.sol\":2629:2838  function _nonReentrantAfter() private {... */\n      jump\t// out\n        /* \"@openzeppelin/contracts/access/Ownable.sol\":1796:1958  function _checkOwner() internal view virtual {... */\n    tag_85:\n        /* \"@openzeppelin/contracts/access/Ownable.sol\":1866:1878  _msgSender() */\n      tag_134\n        /* \"@openzeppelin/contracts/access/Ownable.sol\":1866:1876  _msgSender */\n      tag_135\n        /* \"@openzeppelin/contracts/access/Ownable.sol\":1866:1878  _msgSender() */\n      jump\t// in\n    tag_134:\n        /* \"@openzeppelin/contracts/access/Ownable.sol\":1855:1878  owner() != _msgSender() */\n      0xffffffffffffffffffffffffffffffffffffffff\n      and\n        /* \"@openzeppelin/contracts/access/Ownable.sol\":1855:1862  owner() */\n      tag_136\n        /* \"@openzeppelin/contracts/access/Ownable.sol\":1855:1860  owner */\n      tag_41\n        /* \"@openzeppelin/contracts/access/Ownable.sol\":1855:1862  owner() */\n      jump\t// in\n    tag_136:\n        /* \"@openzeppelin/contracts/access/Ownable.sol\":1855:1878  owner() != _msgSender() */\n      0xffffffffffffffffffffffffffffffffffffffff\n      and\n      eq\n        /* \"@openzeppelin/contracts/access/Ownable.sol\":1851:1952  if (owner() != _msgSender()) {... */\n      tag_137\n      jumpi\n        /* \"@openzeppelin/contracts/access/Ownable.sol\":1928:1940  _msgSender() */\n      tag_138\n        /* \"@openzeppelin/contracts/access/Ownable.sol\":1928:1938  _msgSender */\n      tag_135\n        /* \"@openzeppelin/contracts/access/Ownable.sol\":1928:1940  _msgSender() */\n      jump\t// in\n    tag_138:\n        /* \"@openzeppelin/contracts/access/Ownable.sol\":1901:1941  OwnableUnauthorizedAccount(_msgSender()) */\n      mload(0x40)\n      0x118cdaa700000000000000000000000000000000000000000000000000000000\n      dup2\n      mstore\n      0x04\n      add\n      tag_139\n      swap2\n      swap1\n      tag_43\n      jump\t// in\n    tag_139:\n      mload(0x40)\n      dup1\n      swap2\n      sub\n      swap1\n      revert\n        /* \"@openzeppelin/contracts/access/Ownable.sol\":1851:1952  if (owner() != _msgSender()) {... */\n    tag_137:\n        /* \"@openzeppelin/contracts/access/Ownable.sol\":1796:1958  function _checkOwner() internal view virtual {... */\n      jump\t// out\n        /* \"@openzeppelin/contracts/access/Ownable.sol\":2912:3099  function _transferOwnership(address newOwner) internal virtual {... */\n    tag_88:\n        /* \"@openzeppelin/contracts/access/Ownable.sol\":2985:3001  address oldOwner */\n      0x00\n        /* \"@openzeppelin/contracts/access/Ownable.sol\":3004:3010  _owner */\n      dup1\n      0x00\n      swap1\n      sload\n      swap1\n      0x0100\n      exp\n      swap1\n      div\n      0xffffffffffffffffffffffffffffffffffffffff\n      and\n        /* \"@openzeppelin/contracts/access/Ownable.sol\":2985:3010  address oldOwner = _owner */\n      swap1\n      pop\n        /* \"@openzeppelin/contracts/access/Ownable.sol\":3029:3037  newOwner */\n      dup2\n        /* \"@openzeppelin/contracts/access/Ownable.sol\":3020:3026  _owner */\n      0x00\n      dup1\n        /* \"@openzeppelin/contracts/access/Ownable.sol\":3020:3037  _owner = newOwner */\n      0x0100\n      exp\n      dup2\n      sload\n      dup2\n      0xffffffffffffffffffffffffffffffffffffffff\n      mul\n      not\n      and\n      swap1\n      dup4\n      0xffffffffffffffffffffffffffffffffffffffff\n      and\n      mul\n      or\n      swap1\n      sstore\n      pop\n        /* \"@openzeppelin/contracts/access/Ownable.sol\":3083:3091  newOwner */\n      dup2\n        /* \"@openzeppelin/contracts/access/Ownable.sol\":3052:3092  OwnershipTransferred(oldOwner, newOwner) */\n      0xffffffffffffffffffffffffffffffffffffffff\n      and\n        /* \"@openzeppelin/contracts/access/Ownable.sol\":3073:3081  oldOwner */\n      dup2\n        /* \"@openzeppelin/contracts/access/Ownable.sol\":3052:3092  OwnershipTransferred(oldOwner, newOwner) */\n      0xffffffffffffffffffffffffffffffffffffffff\n      and\n      0x8be0079c531659141344cd1fd0a4f28419497f9722a3daafe3b4186f6b6457e0\n      mload(0x40)\n      mload(0x40)\n      dup1\n      swap2\n      sub\n      swap1\n      log3\n        /* \"@openzeppelin/contracts/access/Ownable.sol\":2975:3099  {... */\n      pop\n        /* \"@openzeppelin/contracts/access/Ownable.sol\":2912:3099  function _transferOwnership(address newOwner) internal virtual {... */\n      pop\n      jump\t// out\n        /* \"contracts/HoldAirdrop.sol\":528:735  function get(Map storage map, uint256 index) internal view returns (bool) {... */\n    tag_111:\n        /* \"contracts/HoldAirdrop.sol\":596:600  bool */\n      0x00\n        /* \"contracts/HoldAirdrop.sol\":612:626  uint256 bucket */\n      dup1\n        /* \"contracts/HoldAirdrop.sol\":638:639  8 */\n      0x08\n        /* \"contracts/HoldAirdrop.sol\":629:634  index */\n      dup4\n        /* \"contracts/HoldAirdrop.sol\":629:639  index >> 8 */\n      swap1\n      shr\n        /* \"contracts/HoldAirdrop.sol\":612:639  uint256 bucket = index >> 8 */\n      swap1\n      pop\n        /* \"contracts/HoldAirdrop.sol\":649:661  uint256 mask */\n      0x00\n        /* \"contracts/HoldAirdrop.sol\":678:682  0xff */\n      0xff\n        /* \"contracts/HoldAirdrop.sol\":670:675  index */\n      dup5\n        /* \"contracts/HoldAirdrop.sol\":670:682  index & 0xff */\n      and\n        /* \"contracts/HoldAirdrop.sol\":664:665  1 */\n      0x01\n        /* \"contracts/HoldAirdrop.sol\":664:683  1 << (index & 0xff) */\n      swap1\n      shl\n        /* \"contracts/HoldAirdrop.sol\":649:683  uint256 mask = 1 << (index & 0xff) */\n      swap1\n      pop\n        /* \"contracts/HoldAirdrop.sol\":727:728  0 */\n      0x00\n        /* \"contracts/HoldAirdrop.sol\":719:723  mask */\n      dup2\n        /* \"contracts/HoldAirdrop.sol\":700:703  map */\n      dup7\n        /* \"contracts/HoldAirdrop.sol\":700:708  map.bits */\n      0x00\n      add\n        /* \"contracts/HoldAirdrop.sol\":700:716  map.bits[bucket] */\n      0x00\n        /* \"contracts/HoldAirdrop.sol\":709:715  bucket */\n      dup6\n        /* \"contracts/HoldAirdrop.sol\":700:716  map.bits[bucket] */\n      dup2\n      mstore\n      0x20\n      add\n      swap1\n      dup2\n      mstore\n      0x20\n      add\n      0x00\n      keccak256\n      sload\n        /* \"contracts/HoldAirdrop.sol\":700:723  map.bits[bucket] & mask */\n      and\n        /* \"contracts/HoldAirdrop.sol\":700:728  map.bits[bucket] & mask != 0 */\n      eq\n      iszero\n        /* \"contracts/HoldAirdrop.sol\":693:728  return map.bits[bucket] & mask != 0 */\n      swap3\n      pop\n      pop\n      pop\n        /* \"contracts/HoldAirdrop.sol\":528:735  function get(Map storage map, uint256 index) internal view returns (bool) {... */\n      swap3\n      swap2\n      pop\n      pop\n      jump\t// out\n        /* \"@openzeppelin/contracts/token/ERC20/utils/SafeERC20.sol\":7738:8458  function _callOptionalReturn(IERC20 token, bytes memory data) private {... */\n    tag_131:\n        /* \"@openzeppelin/contracts/token/ERC20/utils/SafeERC20.sol\":7818:7836  uint256 returnSize */\n      0x00\n        /* \"@openzeppelin/contracts/token/ERC20/utils/SafeERC20.sol\":7846:7865  uint256 returnValue */\n      dup1\n        /* \"@openzeppelin/contracts/token/ERC20/utils/SafeERC20.sol\":7984:7988  0x20 */\n      0x20\n        /* \"@openzeppelin/contracts/token/ERC20/utils/SafeERC20.sol\":7981:7982  0 */\n      0x00\n        /* \"@openzeppelin/contracts/token/ERC20/utils/SafeERC20.sol\":7974:7978  data */\n      dup5\n        /* \"@openzeppelin/contracts/token/ERC20/utils/SafeERC20.sol\":7968:7979  mload(data) */\n      mload\n        /* \"@openzeppelin/contracts/token/ERC20/utils/SafeERC20.sol\":7961:7965  0x20 */\n      0x20\n        /* \"@openzeppelin/contracts/token/ERC20/utils/SafeERC20.sol\":7955:7959  data */\n      dup7\n        /* \"@openzeppelin/contracts/token/ERC20/utils/SafeERC20.sol\":7951:7966  add(data, 0x20) */\n      add\n        /* \"@openzeppelin/contracts/token/ERC20/utils/SafeERC20.sol\":7948:7949  0 */\n      0x00\n        /* \"@openzeppelin/contracts/token/ERC20/utils/SafeERC20.sol\":7941:7946  token */\n      dup9\n        /* \"@openzeppelin/contracts/token/ERC20/utils/SafeERC20.sol\":7934:7939  gas() */\n      gas\n        /* \"@openzeppelin/contracts/token/ERC20/utils/SafeERC20.sol\":7929:7989  call(gas(), token, 0, add(data, 0x20), mload(data), 0, 0x20) */\n      call\n        /* \"@openzeppelin/contracts/token/ERC20/utils/SafeERC20.sol\":8041:8048  success */\n      dup1\n        /* \"@openzeppelin/contracts/token/ERC20/utils/SafeERC20.sol\":8031:8207  if iszero(success) {... */\n      tag_143\n      jumpi\n        /* \"@openzeppelin/contracts/token/ERC20/utils/SafeERC20.sol\":8085:8089  0x40 */\n      0x40\n        /* \"@openzeppelin/contracts/token/ERC20/utils/SafeERC20.sol\":8079:8090  mload(0x40) */\n      mload\n        /* \"@openzeppelin/contracts/token/ERC20/utils/SafeERC20.sol\":8130:8146  returndatasize() */\n      returndatasize\n        /* \"@openzeppelin/contracts/token/ERC20/utils/SafeERC20.sol\":8127:8128  0 */\n      0x00\n        /* \"@openzeppelin/contracts/token/ERC20/utils/SafeERC20.sol\":8122:8125  ptr */\n      dup3\n        /* \"@openzeppelin/contracts/token/ERC20/utils/SafeERC20.sol\":8107:8147  returndatacopy(ptr, 0, returndatasize()) */\n      returndatacopy\n        /* \"@openzeppelin/contracts/token/ERC20/utils/SafeERC20.sol\":8176:8192  returndatasize() */\n      returndatasize\n        /* \"@openzeppelin/contracts/token/ERC20/utils/SafeERC20.sol\":8171:8174  ptr */\n      dup2\n        /* \"@openzeppelin/contracts/token/ERC20/utils/SafeERC20.sol\":8164:8193  revert(ptr, returndatasize()) */\n      revert\n        /* \"@openzeppelin/contracts/token/ERC20/utils/SafeERC20.sol\":8031:8207  if iszero(success) {... */\n    tag_143:\n        /* \"@openzeppelin/contracts/token/ERC20/utils/SafeERC20.sol\":8234:8250  returndatasize() */\n      returndatasize\n        /* \"@openzeppelin/contracts/token/ERC20/utils/SafeERC20.sol\":8220:8250  returnSize := returndatasize() */\n      swap3\n      pop\n        /* \"@openzeppelin/contracts/token/ERC20/utils/SafeERC20.sol\":8284:8285  0 */\n      0x00\n        /* \"@openzeppelin/contracts/token/ERC20/utils/SafeERC20.sol\":8278:8286  mload(0) */\n      mload\n        /* \"@openzeppelin/contracts/token/ERC20/utils/SafeERC20.sol\":8263:8286  returnValue := mload(0) */\n      swap2\n      pop\n        /* \"@openzeppelin/contracts/token/ERC20/utils/SafeERC20.sol\":7900:8296  {... */\n      pop\n        /* \"@openzeppelin/contracts/token/ERC20/utils/SafeERC20.sol\":8324:8325  0 */\n      0x00\n        /* \"@openzeppelin/contracts/token/ERC20/utils/SafeERC20.sol\":8310:8320  returnSize */\n      dup3\n        /* \"@openzeppelin/contracts/token/ERC20/utils/SafeERC20.sol\":8310:8325  returnSize == 0 */\n      eq\n        /* \"@openzeppelin/contracts/token/ERC20/utils/SafeERC20.sol\":8310:8378  returnSize == 0 ? address(token).code.length == 0 : returnValue != 1 */\n      tag_144\n      jumpi\n        /* \"@openzeppelin/contracts/token/ERC20/utils/SafeERC20.sol\":8377:8378  1 */\n      0x01\n        /* \"@openzeppelin/contracts/token/ERC20/utils/SafeERC20.sol\":8362:8373  returnValue */\n      dup2\n        /* \"@openzeppelin/contracts/token/ERC20/utils/SafeERC20.sol\":8362:8378  returnValue != 1 */\n      eq\n      iszero\n        /* \"@openzeppelin/contracts/token/ERC20/utils/SafeERC20.sol\":8310:8378  returnSize == 0 ? address(token).code.length == 0 : returnValue != 1 */\n      jump(tag_145)\n    tag_144:\n        /* \"@openzeppelin/contracts/token/ERC20/utils/SafeERC20.sol\":8358:8359  0 */\n      0x00\n        /* \"@openzeppelin/contracts/token/ERC20/utils/SafeERC20.sol\":8336:8341  token */\n      dup5\n        /* \"@openzeppelin/contracts/token/ERC20/utils/SafeERC20.sol\":8328:8354  address(token).code.length */\n      0xffffffffffffffffffffffffffffffffffffffff\n      and\n      extcodesize\n        /* \"@openzeppelin/contracts/token/ERC20/utils/SafeERC20.sol\":8328:8359  address(token).code.length == 0 */\n      eq\n        /* \"@openzeppelin/contracts/token/ERC20/utils/SafeERC20.sol\":8310:8378  returnSize == 0 ? address(token).code.length == 0 : returnValue != 1 */\n    tag_145:\n        /* \"@openzeppelin/contracts/token/ERC20/utils/SafeERC20.sol\":8306:8452  if (returnSize == 0 ? address(token).code.length == 0 : returnValue != 1) {... */\n      iszero\n      tag_146\n      jumpi\n        /* \"@openzeppelin/contracts/token/ERC20/utils/SafeERC20.sol\":8434:8439  token */\n      dup4\n        /* \"@openzeppelin/contracts/token/ERC20/utils/SafeERC20.sol\":8401:8441  SafeERC20FailedOperation(address(token)) */\n      mload(0x40)\n      0x5274afe700000000000000000000000000000000000000000000000000000000\n      dup2\n      mstore\n      0x04\n      add\n      tag_147\n      swap2\n      swap1\n      tag_43\n      jump\t// in\n    tag_147:\n      mload(0x40)\n      dup1\n      swap2\n      sub\n      swap1\n      revert\n        /* \"@openzeppelin/contracts/token/ERC20/utils/SafeERC20.sol\":8306:8452  if (returnSize == 0 ? address(token).code.length == 0 : returnValue != 1) {... */\n    tag_146:\n        /* \"@openzeppelin/contracts/token/ERC20/utils/SafeERC20.sol\":7808:8458  {... */\n      pop\n      pop\n        /* \"@openzeppelin/contracts/token/ERC20/utils/SafeERC20.sol\":7738:8458  function _callOptionalReturn(IERC20 token, bytes memory data) private {... */\n      pop\n      pop\n      jump\t// out\n        /* \"@openzeppelin/contracts/utils/Context.sol\":656:752  function _msgSender() internal view virtual returns (address) {... */\n    tag_135:\n        /* \"@openzeppelin/contracts/utils/Context.sol\":709:716  address */\n      0x00\n        /* \"@openzeppelin/contracts/utils/Context.sol\":735:745  msg.sender */\n      caller\n        /* \"@openzeppelin/contracts/utils/Context.sol\":728:745  return msg.sender */\n      swap1\n      pop\n        /* \"@openzeppelin/contracts/utils/Context.sol\":656:752  function _msgSender() internal view virtual returns (address) {... */\n      swap1\n      jump\t// out\n        /* \"#utility.yul\":7:108   */\n    tag_149:\n        /* \"#utility.yul\":43:50   */\n      0x00\n        /* \"#utility.yul\":83:101   */\n      0xffffffffffffffff\n        /* \"#utility.yul\":76:81   */\n      dup3\n        /* \"#utility.yul\":72:102   */\n      and\n        /* \"#utility.yul\":61:102   */\n      swap1\n      pop\n        /* \"#utility.yul\":7:108   */\n      swap2\n      swap1\n      pop\n      jump\t// out\n        /* \"#utility.yul\":114:229   */\n    tag_150:\n        /* \"#utility.yul\":199:222   */\n      tag_189\n        /* \"#utility.yul\":216:221   */\n      dup2\n        /* \"#utility.yul\":199:222   */\n      tag_149\n      jump\t// in\n    tag_189:\n        /* \"#utility.yul\":194:197   */\n      dup3\n        /* \"#utility.yul\":187:223   */\n      mstore\n        /* \"#utility.yul\":114:229   */\n      pop\n      pop\n      jump\t// out\n        /* \"#utility.yul\":235:453   */\n    tag_18:\n        /* \"#utility.yul\":326:330   */\n      0x00\n        /* \"#utility.yul\":364:366   */\n      0x20\n        /* \"#utility.yul\":353:362   */\n      dup3\n        /* \"#utility.yul\":349:367   */\n      add\n        /* \"#utility.yul\":341:367   */\n      swap1\n      pop\n        /* \"#utility.yul\":377:446   */\n      tag_191\n        /* \"#utility.yul\":443:444   */\n      0x00\n        /* \"#utility.yul\":432:441   */\n      dup4\n        /* \"#utility.yul\":428:445   */\n      add\n        /* \"#utility.yul\":419:425   */\n      dup5\n        /* \"#utility.yul\":377:446   */\n      tag_150\n      jump\t// in\n    tag_191:\n        /* \"#utility.yul\":235:453   */\n      swap3\n      swap2\n      pop\n      pop\n      jump\t// out\n        /* \"#utility.yul\":459:568   */\n    tag_151:\n        /* \"#utility.yul\":495:502   */\n      0x00\n        /* \"#utility.yul\":535:561   */\n      0xffffffffffffffffffffffff\n        /* \"#utility.yul\":528:533   */\n      dup3\n        /* \"#utility.yul\":524:562   */\n      and\n        /* \"#utility.yul\":513:562   */\n      swap1\n      pop\n        /* \"#utility.yul\":459:568   */\n      swap2\n      swap1\n      pop\n      jump\t// out\n        /* \"#utility.yul\":574:689   */\n    tag_152:\n        /* \"#utility.yul\":659:682   */\n      tag_194\n        /* \"#utility.yul\":676:681   */\n      dup2\n        /* \"#utility.yul\":659:682   */\n      tag_151\n      jump\t// in\n    tag_194:\n        /* \"#utility.yul\":654:657   */\n      dup3\n        /* \"#utility.yul\":647:683   */\n      mstore\n        /* \"#utility.yul\":574:689   */\n      pop\n      pop\n      jump\t// out\n        /* \"#utility.yul\":695:913   */\n    tag_22:\n        /* \"#utility.yul\":786:790   */\n      0x00\n        /* \"#utility.yul\":824:826   */\n      0x20\n        /* \"#utility.yul\":813:822   */\n      dup3\n        /* \"#utility.yul\":809:827   */\n      add\n        /* \"#utility.yul\":801:827   */\n      swap1\n      pop\n        /* \"#utility.yul\":837:906   */\n      tag_196\n        /* \"#utility.yul\":903:904   */\n      0x00\n        /* \"#utility.yul\":892:901   */\n      dup4\n        /* \"#utility.yul\":888:905   */\n      add\n        /* \"#utility.yul\":879:885   */\n      dup5\n        /* \"#utility.yul\":837:906   */\n      tag_152\n      jump\t// in\n    tag_196:\n        /* \"#utility.yul\":695:913   */\n      swap3\n      swap2\n      pop\n      pop\n      jump\t// out\n        /* \"#utility.yul\":1000:1117   */\n    tag_154:\n        /* \"#utility.yul\":1109:1110   */\n      0x00\n        /* \"#utility.yul\":1106:1107   */\n      dup1\n        /* \"#utility.yul\":1099:1111   */\n      revert\n        /* \"#utility.yul\":1123:1240   */\n    tag_155:\n        /* \"#utility.yul\":1232:1233   */\n      0x00\n        /* \"#utility.yul\":1229:1230   */\n      dup1\n        /* \"#utility.yul\":1222:1234   */\n      revert\n        /* \"#utility.yul\":1246:1363   */\n    tag_156:\n        /* \"#utility.yul\":1355:1356   */\n      0x00\n        /* \"#utility.yul\":1352:1353   */\n      dup1\n        /* \"#utility.yul\":1345:1357   */\n      revert\n        /* \"#utility.yul\":1369:1486   */\n    tag_157:\n        /* \"#utility.yul\":1478:1479   */\n      0x00\n        /* \"#utility.yul\":1475:1476   */\n      dup1\n        /* \"#utility.yul\":1468:1480   */\n      revert\n        /* \"#utility.yul\":1492:1609   */\n    tag_158:\n        /* \"#utility.yul\":1601:1602   */\n      0x00\n        /* \"#utility.yul\":1598:1599   */\n      dup1\n        /* \"#utility.yul\":1591:1603   */\n      revert\n        /* \"#utility.yul\":1632:2200   */\n    tag_159:\n        /* \"#utility.yul\":1705:1713   */\n      0x00\n        /* \"#utility.yul\":1715:1721   */\n      dup1\n        /* \"#utility.yul\":1765:1768   */\n      dup4\n        /* \"#utility.yul\":1758:1762   */\n      0x1f\n        /* \"#utility.yul\":1750:1756   */\n      dup5\n        /* \"#utility.yul\":1746:1763   */\n      add\n        /* \"#utility.yul\":1742:1769   */\n      slt\n        /* \"#utility.yul\":1732:1854   */\n      tag_204\n      jumpi\n        /* \"#utility.yul\":1773:1852   */\n      tag_205\n      tag_156\n      jump\t// in\n    tag_205:\n        /* \"#utility.yul\":1732:1854   */\n    tag_204:\n        /* \"#utility.yul\":1886:1892   */\n      dup3\n        /* \"#utility.yul\":1873:1893   */\n      calldataload\n        /* \"#utility.yul\":1863:1893   */\n      swap1\n      pop\n        /* \"#utility.yul\":1916:1934   */\n      0xffffffffffffffff\n        /* \"#utility.yul\":1908:1914   */\n      dup2\n        /* \"#utility.yul\":1905:1935   */\n      gt\n        /* \"#utility.yul\":1902:2019   */\n      iszero\n      tag_206\n      jumpi\n        /* \"#utility.yul\":1938:2017   */\n      tag_207\n      tag_157\n      jump\t// in\n    tag_207:\n        /* \"#utility.yul\":1902:2019   */\n    tag_206:\n        /* \"#utility.yul\":2052:2056   */\n      0x20\n        /* \"#utility.yul\":2044:2050   */\n      dup4\n        /* \"#utility.yul\":2040:2057   */\n      add\n        /* \"#utility.yul\":2028:2057   */\n      swap2\n      pop\n        /* \"#utility.yul\":2106:2109   */\n      dup4\n        /* \"#utility.yul\":2098:2102   */\n      0x20\n        /* \"#utility.yul\":2090:2096   */\n      dup3\n        /* \"#utility.yul\":2086:2103   */\n      mul\n        /* \"#utility.yul\":2076:2084   */\n      dup4\n        /* \"#utility.yul\":2072:2104   */\n      add\n        /* \"#utility.yul\":2069:2110   */\n      gt\n        /* \"#utility.yul\":2066:2194   */\n      iszero\n      tag_208\n      jumpi\n        /* \"#utility.yul\":2113:2192   */\n      tag_209\n      tag_158\n      jump\t// in\n    tag_209:\n        /* \"#utility.yul\":2066:2194   */\n    tag_208:\n        /* \"#utility.yul\":1632:2200   */\n      swap3\n      pop\n      swap3\n      swap1\n      pop\n      jump\t// out\n        /* \"#utility.yul\":2206:2765   */\n    tag_25:\n        /* \"#utility.yul\":2292:2298   */\n      0x00\n        /* \"#utility.yul\":2300:2306   */\n      dup1\n        /* \"#utility.yul\":2349:2351   */\n      0x20\n        /* \"#utility.yul\":2337:2346   */\n      dup4\n        /* \"#utility.yul\":2328:2335   */\n      dup6\n        /* \"#utility.yul\":2324:2347   */\n      sub\n        /* \"#utility.yul\":2320:2352   */\n      slt\n        /* \"#utility.yul\":2317:2436   */\n      iszero\n      tag_211\n      jumpi\n        /* \"#utility.yul\":2355:2434   */\n      tag_212\n      tag_154\n      jump\t// in\n    tag_212:\n        /* \"#utility.yul\":2317:2436   */\n    tag_211:\n        /* \"#utility.yul\":2503:2504   */\n      0x00\n        /* \"#utility.yul\":2492:2501   */\n      dup4\n        /* \"#utility.yul\":2488:2505   */\n      add\n        /* \"#utility.yul\":2475:2506   */\n      calldataload\n        /* \"#utility.yul\":2533:2551   */\n      0xffffffffffffffff\n        /* \"#utility.yul\":2525:2531   */\n      dup2\n        /* \"#utility.yul\":2522:2552   */\n      gt\n        /* \"#utility.yul\":2519:2636   */\n      iszero\n      tag_213\n      jumpi\n        /* \"#utility.yul\":2555:2634   */\n      tag_214\n      tag_155\n      jump\t// in\n    tag_214:\n        /* \"#utility.yul\":2519:2636   */\n    tag_213:\n        /* \"#utility.yul\":2668:2748   */\n      tag_215\n        /* \"#utility.yul\":2740:2747   */\n      dup6\n        /* \"#utility.yul\":2731:2737   */\n      dup3\n        /* \"#utility.yul\":2720:2729   */\n      dup7\n        /* \"#utility.yul\":2716:2738   */\n      add\n        /* \"#utility.yul\":2668:2748   */\n      tag_159\n      jump\t// in\n    tag_215:\n        /* \"#utility.yul\":2650:2748   */\n      swap3\n      pop\n      swap3\n      pop\n        /* \"#utility.yul\":2446:2758   */\n      pop\n        /* \"#utility.yul\":2206:2765   */\n      swap3\n      pop\n      swap3\n      swap1\n      pop\n      jump\t// out\n        /* \"#utility.yul\":2771:2882   */\n    tag_160:\n        /* \"#utility.yul\":2835:2841   */\n      0x00\n        /* \"#utility.yul\":2869:2874   */\n      dup2\n        /* \"#utility.yul\":2863:2875   */\n      mload\n        /* \"#utility.yul\":2853:2875   */\n      swap1\n      pop\n        /* \"#utility.yul\":2771:2882   */\n      swap2\n      swap1\n      pop\n      jump\t// out\n        /* \"#utility.yul\":2888:3069   */\n    tag_161:\n        /* \"#utility.yul\":2984:2995   */\n      0x00\n        /* \"#utility.yul\":3018:3024   */\n      dup3\n        /* \"#utility.yul\":3013:3016   */\n      dup3\n        /* \"#utility.yul\":3006:3025   */\n      mstore\n        /* \"#utility.yul\":3058:3062   */\n      0x20\n        /* \"#utility.yul\":3053:3056   */\n      dup3\n        /* \"#utility.yul\":3049:3063   */\n      add\n        /* \"#utility.yul\":3034:3063   */\n      swap1\n      pop\n        /* \"#utility.yul\":2888:3069   */\n      swap3\n      swap2\n      pop\n      pop\n      jump\t// out\n        /* \"#utility.yul\":3075:3204   */\n    tag_162:\n        /* \"#utility.yul\":3139:3143   */\n      0x00\n        /* \"#utility.yul\":3162:3165   */\n      dup2\n        /* \"#utility.yul\":3154:3165   */\n      swap1\n      pop\n        /* \"#utility.yul\":3192:3196   */\n      0x20\n        /* \"#utility.yul\":3187:3190   */\n      dup3\n        /* \"#utility.yul\":3183:3197   */\n      add\n        /* \"#utility.yul\":3175:3197   */\n      swap1\n      pop\n        /* \"#utility.yul\":3075:3204   */\n      swap2\n      swap1\n      pop\n      jump\t// out\n        /* \"#utility.yul\":3210:3300   */\n    tag_163:\n        /* \"#utility.yul\":3244:3251   */\n      0x00\n        /* \"#utility.yul\":3287:3292   */\n      dup2\n        /* \"#utility.yul\":3280:3293   */\n      iszero\n        /* \"#utility.yul\":3273:3294   */\n      iszero\n        /* \"#utility.yul\":3262:3294   */\n      swap1\n      pop\n        /* \"#utility.yul\":3210:3300   */\n      swap2\n      swap1\n      pop\n      jump\t// out\n        /* \"#utility.yul\":3306:3405   */\n    tag_164:\n        /* \"#utility.yul\":3377:3398   */\n      tag_221\n        /* \"#utility.yul\":3392:3397   */\n      dup2\n        /* \"#utility.yul\":3377:3398   */\n      tag_163\n      jump\t// in\n    tag_221:\n        /* \"#utility.yul\":3372:3375   */\n      dup3\n        /* \"#utility.yul\":3365:3399   */\n      mstore\n        /* \"#utility.yul\":3306:3405   */\n      pop\n      pop\n      jump\t// out\n        /* \"#utility.yul\":3411:3578   */\n    tag_165:\n        /* \"#utility.yul\":3474:3484   */\n      0x00\n        /* \"#utility.yul\":3495:3535   */\n      tag_223\n        /* \"#utility.yul\":3531:3534   */\n      dup4\n        /* \"#utility.yul\":3523:3529   */\n      dup4\n        /* \"#utility.yul\":3495:3535   */\n      tag_164\n      jump\t// in\n    tag_223:\n        /* \"#utility.yul\":3567:3571   */\n      0x20\n        /* \"#utility.yul\":3562:3565   */\n      dup4\n        /* \"#utility.yul\":3558:3572   */\n      add\n        /* \"#utility.yul\":3544:3572   */\n      swap1\n      pop\n        /* \"#utility.yul\":3411:3578   */\n      swap3\n      swap2\n      pop\n      pop\n      jump\t// out\n        /* \"#utility.yul\":3584:3694   */\n    tag_166:\n        /* \"#utility.yul\":3651:3655   */\n      0x00\n        /* \"#utility.yul\":3683:3687   */\n      0x20\n        /* \"#utility.yul\":3678:3681   */\n      dup3\n        /* \"#utility.yul\":3674:3688   */\n      add\n        /* \"#utility.yul\":3666:3688   */\n      swap1\n      pop\n        /* \"#utility.yul\":3584:3694   */\n      swap2\n      swap1\n      pop\n      jump\t// out\n        /* \"#utility.yul\":3724:4432   */\n    tag_167:\n        /* \"#utility.yul\":3837:3840   */\n      0x00\n        /* \"#utility.yul\":3866:3917   */\n      tag_226\n        /* \"#utility.yul\":3911:3916   */\n      dup3\n        /* \"#utility.yul\":3866:3917   */\n      tag_160\n      jump\t// in\n    tag_226:\n        /* \"#utility.yul\":3933:4016   */\n      tag_227\n        /* \"#utility.yul\":4009:4015   */\n      dup2\n        /* \"#utility.yul\":4004:4007   */\n      dup6\n        /* \"#utility.yul\":3933:4016   */\n      tag_161\n      jump\t// in\n    tag_227:\n        /* \"#utility.yul\":3926:4016   */\n      swap4\n      pop\n        /* \"#utility.yul\":4040:4093   */\n      tag_228\n        /* \"#utility.yul\":4087:4092   */\n      dup4\n        /* \"#utility.yul\":4040:4093   */\n      tag_162\n      jump\t// in\n    tag_228:\n        /* \"#utility.yul\":4116:4123   */\n      dup1\n        /* \"#utility.yul\":4147:4148   */\n      0x00\n        /* \"#utility.yul\":4132:4407   */\n    tag_229:\n        /* \"#utility.yul\":4157:4163   */\n      dup4\n        /* \"#utility.yul\":4154:4155   */\n      dup2\n        /* \"#utility.yul\":4151:4164   */\n      lt\n        /* \"#utility.yul\":4132:4407   */\n      iszero\n      tag_231\n      jumpi\n        /* \"#utility.yul\":4233:4239   */\n      dup2\n        /* \"#utility.yul\":4227:4240   */\n      mload\n        /* \"#utility.yul\":4260:4317   */\n      tag_232\n        /* \"#utility.yul\":4313:4316   */\n      dup9\n        /* \"#utility.yul\":4298:4311   */\n      dup3\n        /* \"#utility.yul\":4260:4317   */\n      tag_165\n      jump\t// in\n    tag_232:\n        /* \"#utility.yul\":4253:4317   */\n      swap8\n      pop\n        /* \"#utility.yul\":4340:4397   */\n      tag_233\n        /* \"#utility.yul\":4390:4396   */\n      dup4\n        /* \"#utility.yul\":4340:4397   */\n      tag_166\n      jump\t// in\n    tag_233:\n        /* \"#utility.yul\":4330:4397   */\n      swap3\n      pop\n        /* \"#utility.yul\":4192:4407   */\n      pop\n        /* \"#utility.yul\":4179:4180   */\n      0x01\n        /* \"#utility.yul\":4176:4177   */\n      dup2\n        /* \"#utility.yul\":4172:4181   */\n      add\n        /* \"#utility.yul\":4167:4181   */\n      swap1\n      pop\n        /* \"#utility.yul\":4132:4407   */\n      jump(tag_229)\n    tag_231:\n        /* \"#utility.yul\":4136:4150   */\n      pop\n        /* \"#utility.yul\":4423:4426   */\n      dup6\n        /* \"#utility.yul\":4416:4426   */\n      swap4\n      pop\n        /* \"#utility.yul\":3842:4432   */\n      pop\n      pop\n      pop\n        /* \"#utility.yul\":3724:4432   */\n      swap3\n      swap2\n      pop\n      pop\n      jump\t// out\n        /* \"#utility.yul\":4438:4799   */\n    tag_28:\n        /* \"#utility.yul\":4575:4579   */\n      0x00\n        /* \"#utility.yul\":4613:4615   */\n      0x20\n        /* \"#utility.yul\":4602:4611   */\n      dup3\n        /* \"#utility.yul\":4598:4616   */\n      add\n        /* \"#utility.yul\":4590:4616   */\n      swap1\n      pop\n        /* \"#utility.yul\":4662:4671   */\n      dup2\n        /* \"#utility.yul\":4656:4660   */\n      dup2\n        /* \"#utility.yul\":4652:4672   */\n      sub\n        /* \"#utility.yul\":4648:4649   */\n      0x00\n        /* \"#utility.yul\":4637:4646   */\n      dup4\n        /* \"#utility.yul\":4633:4650   */\n      add\n        /* \"#utility.yul\":4626:4673   */\n      mstore\n        /* \"#utility.yul\":4690:4792   */\n      tag_235\n        /* \"#utility.yul\":4787:4791   */\n      dup2\n        /* \"#utility.yul\":4778:4784   */\n      dup5\n        /* \"#utility.yul\":4690:4792   */\n      tag_167\n      jump\t// in\n    tag_235:\n        /* \"#utility.yul\":4682:4792   */\n      swap1\n      pop\n        /* \"#utility.yul\":4438:4799   */\n      swap3\n      swap2\n      pop\n      pop\n      jump\t// out\n        /* \"#utility.yul\":4805:5235   */\n    tag_36:\n        /* \"#utility.yul\":4948:4952   */\n      0x00\n        /* \"#utility.yul\":4986:4988   */\n      0x60\n        /* \"#utility.yul\":4975:4984   */\n      dup3\n        /* \"#utility.yul\":4971:4989   */\n      add\n        /* \"#utility.yul\":4963:4989   */\n      swap1\n      pop\n        /* \"#utility.yul\":4999:5068   */\n      tag_237\n        /* \"#utility.yul\":5065:5066   */\n      0x00\n        /* \"#utility.yul\":5054:5063   */\n      dup4\n        /* \"#utility.yul\":5050:5067   */\n      add\n        /* \"#utility.yul\":5041:5047   */\n      dup7\n        /* \"#utility.yul\":4999:5068   */\n      tag_152\n      jump\t// in\n    tag_237:\n        /* \"#utility.yul\":5078:5148   */\n      tag_238\n        /* \"#utility.yul\":5144:5146   */\n      0x20\n        /* \"#utility.yul\":5133:5142   */\n      dup4\n        /* \"#utility.yul\":5129:5147   */\n      add\n        /* \"#utility.yul\":5120:5126   */\n      dup6\n        /* \"#utility.yul\":5078:5148   */\n      tag_152\n      jump\t// in\n    tag_238:\n        /* \"#utility.yul\":5158:5228   */\n      tag_239\n        /* \"#utility.yul\":5224:5226   */\n      0x40\n        /* \"#utility.yul\":5213:5222   */\n      dup4\n        /* \"#utility.yul\":5209:5227   */\n      add\n        /* \"#utility.yul\":5200:5206   */\n      dup5\n        /* \"#utility.yul\":5158:5228   */\n      tag_150\n      jump\t// in\n    tag_239:\n        /* \"#utility.yul\":4805:5235   */\n      swap5\n      swap4\n      pop\n      pop\n      pop\n      pop\n      jump\t// out\n        /* \"#utility.yul\":5241:5367   */\n    tag_168:\n        /* \"#utility.yul\":5278:5285   */\n      0x00\n        /* \"#utility.yul\":5318:5360   */\n      0xffffffffffffffffffffffffffffffffffffffff\n        /* \"#utility.yul\":5311:5316   */\n      dup3\n        /* \"#utility.yul\":5307:5361   */\n      and\n        /* \"#utility.yul\":5296:5361   */\n      swap1\n      pop\n        /* \"#utility.yul\":5241:5367   */\n      swap2\n      swap1\n      pop\n      jump\t// out\n        /* \"#utility.yul\":5373:5469   */\n    tag_169:\n        /* \"#utility.yul\":5410:5417   */\n      0x00\n        /* \"#utility.yul\":5439:5463   */\n      tag_242\n        /* \"#utility.yul\":5457:5462   */\n      dup3\n        /* \"#utility.yul\":5439:5463   */\n      tag_168\n      jump\t// in\n    tag_242:\n        /* \"#utility.yul\":5428:5463   */\n      swap1\n      pop\n        /* \"#utility.yul\":5373:5469   */\n      swap2\n      swap1\n      pop\n      jump\t// out\n        /* \"#utility.yul\":5475:5593   */\n    tag_170:\n        /* \"#utility.yul\":5562:5586   */\n      tag_244\n        /* \"#utility.yul\":5580:5585   */\n      dup2\n        /* \"#utility.yul\":5562:5586   */\n      tag_169\n      jump\t// in\n    tag_244:\n        /* \"#utility.yul\":5557:5560   */\n      dup3\n        /* \"#utility.yul\":5550:5587   */\n      mstore\n        /* \"#utility.yul\":5475:5593   */\n      pop\n      pop\n      jump\t// out\n        /* \"#utility.yul\":5599:5821   */\n    tag_43:\n        /* \"#utility.yul\":5692:5696   */\n      0x00\n        /* \"#utility.yul\":5730:5732   */\n      0x20\n        /* \"#utility.yul\":5719:5728   */\n      dup3\n        /* \"#utility.yul\":5715:5733   */\n      add\n        /* \"#utility.yul\":5707:5733   */\n      swap1\n      pop\n        /* \"#utility.yul\":5743:5814   */\n      tag_246\n        /* \"#utility.yul\":5811:5812   */\n      0x00\n        /* \"#utility.yul\":5800:5809   */\n      dup4\n        /* \"#utility.yul\":5796:5813   */\n      add\n        /* \"#utility.yul\":5787:5793   */\n      dup5\n        /* \"#utility.yul\":5743:5814   */\n      tag_170\n      jump\t// in\n    tag_246:\n        /* \"#utility.yul\":5599:5821   */\n      swap3\n      swap2\n      pop\n      pop\n      jump\t// out\n        /* \"#utility.yul\":5827:5949   */\n    tag_171:\n        /* \"#utility.yul\":5900:5924   */\n      tag_248\n        /* \"#utility.yul\":5918:5923   */\n      dup2\n        /* \"#utility.yul\":5900:5924   */\n      tag_169\n      jump\t// in\n    tag_248:\n        /* \"#utility.yul\":5893:5898   */\n      dup2\n        /* \"#utility.yul\":5890:5925   */\n      eq\n        /* \"#utility.yul\":5880:5943   */\n      tag_249\n      jumpi\n        /* \"#utility.yul\":5939:5940   */\n      0x00\n        /* \"#utility.yul\":5936:5937   */\n      dup1\n        /* \"#utility.yul\":5929:5941   */\n      revert\n        /* \"#utility.yul\":5880:5943   */\n    tag_249:\n        /* \"#utility.yul\":5827:5949   */\n      pop\n      jump\t// out\n        /* \"#utility.yul\":5955:6094   */\n    tag_172:\n        /* \"#utility.yul\":6001:6006   */\n      0x00\n        /* \"#utility.yul\":6039:6045   */\n      dup2\n        /* \"#utility.yul\":6026:6046   */\n      calldataload\n        /* \"#utility.yul\":6017:6046   */\n      swap1\n      pop\n        /* \"#utility.yul\":6055:6088   */\n      tag_251\n        /* \"#utility.yul\":6082:6087   */\n      dup2\n        /* \"#utility.yul\":6055:6088   */\n      tag_171\n      jump\t// in\n    tag_251:\n        /* \"#utility.yul\":5955:6094   */\n      swap3\n      swap2\n      pop\n      pop\n      jump\t// out\n        /* \"#utility.yul\":6100:6429   */\n    tag_48:\n        /* \"#utility.yul\":6159:6165   */\n      0x00\n        /* \"#utility.yul\":6208:6210   */\n      0x20\n        /* \"#utility.yul\":6196:6205   */\n      dup3\n        /* \"#utility.yul\":6187:6194   */\n      dup5\n        /* \"#utility.yul\":6183:6206   */\n      sub\n        /* \"#utility.yul\":6179:6211   */\n      slt\n        /* \"#utility.yul\":6176:6295   */\n      iszero\n      tag_253\n      jumpi\n        /* \"#utility.yul\":6214:6293   */\n      tag_254\n      tag_154\n      jump\t// in\n    tag_254:\n        /* \"#utility.yul\":6176:6295   */\n    tag_253:\n        /* \"#utility.yul\":6334:6335   */\n      0x00\n        /* \"#utility.yul\":6359:6412   */\n      tag_255\n        /* \"#utility.yul\":6404:6411   */\n      dup5\n        /* \"#utility.yul\":6395:6401   */\n      dup3\n        /* \"#utility.yul\":6384:6393   */\n      dup6\n        /* \"#utility.yul\":6380:6402   */\n      add\n        /* \"#utility.yul\":6359:6412   */\n      tag_172\n      jump\t// in\n    tag_255:\n        /* \"#utility.yul\":6349:6412   */\n      swap2\n      pop\n        /* \"#utility.yul\":6305:6422   */\n      pop\n        /* \"#utility.yul\":6100:6429   */\n      swap3\n      swap2\n      pop\n      pop\n      jump\t// out\n        /* \"#utility.yul\":6435:6495   */\n    tag_173:\n        /* \"#utility.yul\":6463:6466   */\n      0x00\n        /* \"#utility.yul\":6484:6489   */\n      dup2\n        /* \"#utility.yul\":6477:6489   */\n      swap1\n      pop\n        /* \"#utility.yul\":6435:6495   */\n      swap2\n      swap1\n      pop\n      jump\t// out\n        /* \"#utility.yul\":6501:6643   */\n    tag_174:\n        /* \"#utility.yul\":6551:6560   */\n      0x00\n        /* \"#utility.yul\":6584:6637   */\n      tag_258\n        /* \"#utility.yul\":6602:6636   */\n      tag_259\n        /* \"#utility.yul\":6611:6635   */\n      tag_260\n        /* \"#utility.yul\":6629:6634   */\n      dup5\n        /* \"#utility.yul\":6611:6635   */\n      tag_168\n      jump\t// in\n    tag_260:\n        /* \"#utility.yul\":6602:6636   */\n      tag_173\n      jump\t// in\n    tag_259:\n        /* \"#utility.yul\":6584:6637   */\n      tag_168\n      jump\t// in\n    tag_258:\n        /* \"#utility.yul\":6571:6637   */\n      swap1\n      pop\n        /* \"#utility.yul\":6501:6643   */\n      swap2\n      swap1\n      pop\n      jump\t// out\n        /* \"#utility.yul\":6649:6775   */\n    tag_175:\n        /* \"#utility.yul\":6699:6708   */\n      0x00\n        /* \"#utility.yul\":6732:6769   */\n      tag_262\n        /* \"#utility.yul\":6763:6768   */\n      dup3\n        /* \"#utility.yul\":6732:6769   */\n      tag_174\n      jump\t// in\n    tag_262:\n        /* \"#utility.yul\":6719:6769   */\n      swap1\n      pop\n        /* \"#utility.yul\":6649:6775   */\n      swap2\n      swap1\n      pop\n      jump\t// out\n        /* \"#utility.yul\":6781:6921   */\n    tag_176:\n        /* \"#utility.yul\":6845:6854   */\n      0x00\n        /* \"#utility.yul\":6878:6915   */\n      tag_264\n        /* \"#utility.yul\":6909:6914   */\n      dup3\n        /* \"#utility.yul\":6878:6915   */\n      tag_175\n      jump\t// in\n    tag_264:\n        /* \"#utility.yul\":6865:6915   */\n      swap1\n      pop\n        /* \"#utility.yul\":6781:6921   */\n      swap2\n      swap1\n      pop\n      jump\t// out\n        /* \"#utility.yul\":6927:7086   */\n    tag_177:\n        /* \"#utility.yul\":7028:7079   */\n      tag_266\n        /* \"#utility.yul\":7073:7078   */\n      dup2\n        /* \"#utility.yul\":7028:7079   */\n      tag_176\n      jump\t// in\n    tag_266:\n        /* \"#utility.yul\":7023:7026   */\n      dup3\n        /* \"#utility.yul\":7016:7080   */\n      mstore\n        /* \"#utility.yul\":6927:7086   */\n      pop\n      pop\n      jump\t// out\n        /* \"#utility.yul\":7092:7342   */\n    tag_53:\n        /* \"#utility.yul\":7199:7203   */\n      0x00\n        /* \"#utility.yul\":7237:7239   */\n      0x20\n        /* \"#utility.yul\":7226:7235   */\n      dup3\n        /* \"#utility.yul\":7222:7240   */\n      add\n        /* \"#utility.yul\":7214:7240   */\n      swap1\n      pop\n        /* \"#utility.yul\":7250:7335   */\n      tag_268\n        /* \"#utility.yul\":7332:7333   */\n      0x00\n        /* \"#utility.yul\":7321:7330   */\n      dup4\n        /* \"#utility.yul\":7317:7334   */\n      add\n        /* \"#utility.yul\":7308:7314   */\n      dup5\n        /* \"#utility.yul\":7250:7335   */\n      tag_177\n      jump\t// in\n    tag_268:\n        /* \"#utility.yul\":7092:7342   */\n      swap3\n      swap2\n      pop\n      pop\n      jump\t// out\n        /* \"#utility.yul\":7348:7528   */\n    tag_57:\n        /* \"#utility.yul\":7396:7473   */\n      0x4e487b7100000000000000000000000000000000000000000000000000000000\n        /* \"#utility.yul\":7393:7394   */\n      0x00\n        /* \"#utility.yul\":7386:7474   */\n      mstore\n        /* \"#utility.yul\":7493:7497   */\n      0x41\n        /* \"#utility.yul\":7490:7491   */\n      0x04\n        /* \"#utility.yul\":7483:7498   */\n      mstore\n        /* \"#utility.yul\":7517:7521   */\n      0x24\n        /* \"#utility.yul\":7514:7515   */\n      0x00\n        /* \"#utility.yul\":7507:7522   */\n      revert\n        /* \"#utility.yul\":7534:7714   */\n    tag_65:\n        /* \"#utility.yul\":7582:7659   */\n      0x4e487b7100000000000000000000000000000000000000000000000000000000\n        /* \"#utility.yul\":7579:7580   */\n      0x00\n        /* \"#utility.yul\":7572:7660   */\n      mstore\n        /* \"#utility.yul\":7679:7683   */\n      0x32\n        /* \"#utility.yul\":7676:7677   */\n      0x04\n        /* \"#utility.yul\":7669:7684   */\n      mstore\n        /* \"#utility.yul\":7703:7707   */\n      0x24\n        /* \"#utility.yul\":7700:7701   */\n      0x00\n        /* \"#utility.yul\":7693:7708   */\n      revert\n        /* \"#utility.yul\":7720:7797   */\n    tag_178:\n        /* \"#utility.yul\":7757:7764   */\n      0x00\n        /* \"#utility.yul\":7786:7791   */\n      dup2\n        /* \"#utility.yul\":7775:7791   */\n      swap1\n      pop\n        /* \"#utility.yul\":7720:7797   */\n      swap2\n      swap1\n      pop\n      jump\t// out\n        /* \"#utility.yul\":7803:7925   */\n    tag_179:\n        /* \"#utility.yul\":7876:7900   */\n      tag_273\n        /* \"#utility.yul\":7894:7899   */\n      dup2\n        /* \"#utility.yul\":7876:7900   */\n      tag_178\n      jump\t// in\n    tag_273:\n        /* \"#utility.yul\":7869:7874   */\n      dup2\n        /* \"#utility.yul\":7866:7901   */\n      eq\n        /* \"#utility.yul\":7856:7919   */\n      tag_274\n      jumpi\n        /* \"#utility.yul\":7915:7916   */\n      0x00\n        /* \"#utility.yul\":7912:7913   */\n      dup1\n        /* \"#utility.yul\":7905:7917   */\n      revert\n        /* \"#utility.yul\":7856:7919   */\n    tag_274:\n        /* \"#utility.yul\":7803:7925   */\n      pop\n      jump\t// out\n        /* \"#utility.yul\":7931:8074   */\n    tag_180:\n        /* \"#utility.yul\":7988:7993   */\n      0x00\n        /* \"#utility.yul\":8019:8025   */\n      dup2\n        /* \"#utility.yul\":8013:8026   */\n      mload\n        /* \"#utility.yul\":8004:8026   */\n      swap1\n      pop\n        /* \"#utility.yul\":8035:8068   */\n      tag_276\n        /* \"#utility.yul\":8062:8067   */\n      dup2\n        /* \"#utility.yul\":8035:8068   */\n      tag_179\n      jump\t// in\n    tag_276:\n        /* \"#utility.yul\":7931:8074   */\n      swap3\n      swap2\n      pop\n      pop\n      jump\t// out\n        /* \"#utility.yul\":8080:8431   */\n    tag_97:\n        /* \"#utility.yul\":8150:8156   */\n      0x00\n        /* \"#utility.yul\":8199:8201   */\n      0x20\n        /* \"#utility.yul\":8187:8196   */\n      dup3\n        /* \"#utility.yul\":8178:8185   */\n      dup5\n        /* \"#utility.yul\":8174:8197   */\n      sub\n        /* \"#utility.yul\":8170:8202   */\n      slt\n        /* \"#utility.yul\":8167:8286   */\n      iszero\n      tag_278\n      jumpi\n        /* \"#utility.yul\":8205:8284   */\n      tag_279\n      tag_154\n      jump\t// in\n    tag_279:\n        /* \"#utility.yul\":8167:8286   */\n    tag_278:\n        /* \"#utility.yul\":8325:8326   */\n      0x00\n        /* \"#utility.yul\":8350:8414   */\n      tag_280\n        /* \"#utility.yul\":8406:8413   */\n      dup5\n        /* \"#utility.yul\":8397:8403   */\n      dup3\n        /* \"#utility.yul\":8386:8395   */\n      dup6\n        /* \"#utility.yul\":8382:8404   */\n      add\n        /* \"#utility.yul\":8350:8414   */\n      tag_180\n      jump\t// in\n    tag_280:\n        /* \"#utility.yul\":8340:8414   */\n      swap2\n      pop\n        /* \"#utility.yul\":8296:8424   */\n      pop\n        /* \"#utility.yul\":8080:8431   */\n      swap3\n      swap2\n      pop\n      pop\n      jump\t// out\n        /* \"#utility.yul\":8437:8617   */\n    tag_181:\n        /* \"#utility.yul\":8485:8562   */\n      0x4e487b7100000000000000000000000000000000000000000000000000000000\n        /* \"#utility.yul\":8482:8483   */\n      0x00\n        /* \"#utility.yul\":8475:8563   */\n      mstore\n        /* \"#utility.yul\":8582:8586   */\n      0x11\n        /* \"#utility.yul\":8579:8580   */\n      0x04\n        /* \"#utility.yul\":8572:8587   */\n      mstore\n        /* \"#utility.yul\":8606:8610   */\n      0x24\n        /* \"#utility.yul\":8603:8604   */\n      0x00\n        /* \"#utility.yul\":8596:8611   */\n      revert\n        /* \"#utility.yul\":8623:8836   */\n    tag_114:\n        /* \"#utility.yul\":8662:8665   */\n      0x00\n        /* \"#utility.yul\":8681:8700   */\n      tag_283\n        /* \"#utility.yul\":8698:8699   */\n      dup3\n        /* \"#utility.yul\":8681:8700   */\n      tag_151\n      jump\t// in\n    tag_283:\n        /* \"#utility.yul\":8676:8700   */\n      swap2\n      pop\n        /* \"#utility.yul\":8714:8733   */\n      tag_284\n        /* \"#utility.yul\":8731:8732   */\n      dup4\n        /* \"#utility.yul\":8714:8733   */\n      tag_151\n      jump\t// in\n    tag_284:\n        /* \"#utility.yul\":8709:8733   */\n      swap3\n      pop\n        /* \"#utility.yul\":8756:8757   */\n      dup3\n        /* \"#utility.yul\":8753:8754   */\n      dup3\n        /* \"#utility.yul\":8749:8758   */\n      add\n        /* \"#utility.yul\":8742:8758   */\n      swap1\n      pop\n        /* \"#utility.yul\":8779:8805   */\n      0xffffffffffffffffffffffff\n        /* \"#utility.yul\":8774:8777   */\n      dup2\n        /* \"#utility.yul\":8771:8806   */\n      gt\n        /* \"#utility.yul\":8768:8829   */\n      iszero\n      tag_285\n      jumpi\n        /* \"#utility.yul\":8809:8827   */\n      tag_286\n      tag_181\n      jump\t// in\n    tag_286:\n        /* \"#utility.yul\":8768:8829   */\n    tag_285:\n        /* \"#utility.yul\":8623:8836   */\n      swap3\n      swap2\n      pop\n      pop\n      jump\t// out\n        /* \"#utility.yul\":8842:9011   */\n    tag_182:\n        /* \"#utility.yul\":8926:8937   */\n      0x00\n        /* \"#utility.yul\":8960:8966   */\n      dup3\n        /* \"#utility.yul\":8955:8958   */\n      dup3\n        /* \"#utility.yul\":8948:8967   */\n      mstore\n        /* \"#utility.yul\":9000:9004   */\n      0x20\n        /* \"#utility.yul\":8995:8998   */\n      dup3\n        /* \"#utility.yul\":8991:9005   */\n      add\n        /* \"#utility.yul\":8976:9005   */\n      swap1\n      pop\n        /* \"#utility.yul\":8842:9011   */\n      swap3\n      swap2\n      pop\n      pop\n      jump\t// out\n        /* \"#utility.yul\":9017:9198   */\n    tag_183:\n        /* \"#utility.yul\":9157:9190   */\n      0x5265656e7472616e637947756172643a207265656e7472616e742063616c6c00\n        /* \"#utility.yul\":9153:9154   */\n      0x00\n        /* \"#utility.yul\":9145:9151   */\n      dup3\n        /* \"#utility.yul\":9141:9155   */\n      add\n        /* \"#utility.yul\":9134:9191   */\n      mstore\n        /* \"#utility.yul\":9017:9198   */\n      pop\n      jump\t// out\n        /* \"#utility.yul\":9204:9570   */\n    tag_184:\n        /* \"#utility.yul\":9346:9349   */\n      0x00\n        /* \"#utility.yul\":9367:9434   */\n      tag_290\n        /* \"#utility.yul\":9431:9433   */\n      0x1f\n        /* \"#utility.yul\":9426:9429   */\n      dup4\n        /* \"#utility.yul\":9367:9434   */\n      tag_182\n      jump\t// in\n    tag_290:\n        /* \"#utility.yul\":9360:9434   */\n      swap2\n      pop\n        /* \"#utility.yul\":9443:9536   */\n      tag_291\n        /* \"#utility.yul\":9532:9535   */\n      dup3\n        /* \"#utility.yul\":9443:9536   */\n      tag_183\n      jump\t// in\n    tag_291:\n        /* \"#utility.yul\":9561:9563   */\n      0x20\n        /* \"#utility.yul\":9556:9559   */\n      dup3\n        /* \"#utility.yul\":9552:9564   */\n      add\n        /* \"#utility.yul\":9545:9564   */\n      swap1\n      pop\n        /* \"#utility.yul\":9204:9570   */\n      swap2\n      swap1\n      pop\n      jump\t// out\n        /* \"#utility.yul\":9576:9995   */\n    tag_118:\n        /* \"#utility.yul\":9742:9746   */\n      0x00\n        /* \"#utility.yul\":9780:9782   */\n      0x20\n        /* \"#utility.yul\":9769:9778   */\n      dup3\n        /* \"#utility.yul\":9765:9783   */\n      add\n        /* \"#utility.yul\":9757:9783   */\n      swap1\n      pop\n        /* \"#utility.yul\":9829:9838   */\n      dup2\n        /* \"#utility.yul\":9823:9827   */\n      dup2\n        /* \"#utility.yul\":9819:9839   */\n      sub\n        /* \"#utility.yul\":9815:9816   */\n      0x00\n        /* \"#utility.yul\":9804:9813   */\n      dup4\n        /* \"#utility.yul\":9800:9817   */\n      add\n        /* \"#utility.yul\":9793:9840   */\n      mstore\n        /* \"#utility.yul\":9857:9988   */\n      tag_293\n        /* \"#utility.yul\":9983:9987   */\n      dup2\n        /* \"#utility.yul\":9857:9988   */\n      tag_184\n      jump\t// in\n    tag_293:\n        /* \"#utility.yul\":9849:9988   */\n      swap1\n      pop\n        /* \"#utility.yul\":9576:9995   */\n      swap2\n      swap1\n      pop\n      jump\t// out\n        /* \"#utility.yul\":10001:10119   */\n    tag_185:\n        /* \"#utility.yul\":10088:10112   */\n      tag_295\n        /* \"#utility.yul\":10106:10111   */\n      dup2\n        /* \"#utility.yul\":10088:10112   */\n      tag_178\n      jump\t// in\n    tag_295:\n        /* \"#utility.yul\":10083:10086   */\n      dup3\n        /* \"#utility.yul\":10076:10113   */\n      mstore\n        /* \"#utility.yul\":10001:10119   */\n      pop\n      pop\n      jump\t// out\n        /* \"#utility.yul\":10125:10457   */\n    tag_130:\n        /* \"#utility.yul\":10246:10250   */\n      0x00\n        /* \"#utility.yul\":10284:10286   */\n      0x40\n        /* \"#utility.yul\":10273:10282   */\n      dup3\n        /* \"#utility.yul\":10269:10287   */\n      add\n        /* \"#utility.yul\":10261:10287   */\n      swap1\n      pop\n        /* \"#utility.yul\":10297:10368   */\n      tag_297\n        /* \"#utility.yul\":10365:10366   */\n      0x00\n        /* \"#utility.yul\":10354:10363   */\n      dup4\n        /* \"#utility.yul\":10350:10367   */\n      add\n        /* \"#utility.yul\":10341:10347   */\n      dup6\n        /* \"#utility.yul\":10297:10368   */\n      tag_170\n      jump\t// in\n    tag_297:\n        /* \"#utility.yul\":10378:10450   */\n      tag_298\n        /* \"#utility.yul\":10446:10448   */\n      0x20\n        /* \"#utility.yul\":10435:10444   */\n      dup4\n        /* \"#utility.yul\":10431:10449   */\n      add\n        /* \"#utility.yul\":10422:10428   */\n      dup5\n        /* \"#utility.yul\":10378:10450   */\n      tag_185\n      jump\t// in\n    tag_298:\n        /* \"#utility.yul\":10125:10457   */\n      swap4\n      swap3\n      pop\n      pop\n      pop\n      jump\t// out\n\n    auxdata: 0xa264697066735822122020fed0c8a7c46465c9bc7922d0be54bcc61173b989baf820086dd0e6c2b41e5d64736f6c634300081a0033\n}\n",
				"bytecode": {
					"linkReferences": {},
					"object": "60c060405234801561000f575f80fd5b506040516119143803806119148339818101604052810190610031919061052d565b335f73ffffffffffffffffffffffffffffffffffffffff168173ffffffffffffffffffffffffffffffffffffffff16036100a2575f6040517f1e4fbdf700000000000000000000000000000000000000000000000000000000815260040161009991906105c5565b60405180910390fd5b6100b18161039060201b60201c565b50600180819055505f73ffffffffffffffffffffffffffffffffffffffff168673ffffffffffffffffffffffffffffffffffffffff160361011e576040517fe6c4247b00000000000000000000000000000000000000000000000000000000815260040160405180910390fd5b5f846bffffffffffffffffffffffff1603610165576040517f2c5211c600000000000000000000000000000000000000000000000000000000815260040160405180910390fd5b836bffffffffffffffffffffffff16836bffffffffffffffffffffffff1610156101bb576040517f2c5211c600000000000000000000000000000000000000000000000000000000815260040160405180910390fd5b8067ffffffffffffffff168267ffffffffffffffff1610610208576040517f6f7eac2600000000000000000000000000000000000000000000000000000000815260040160405180910390fd5b428267ffffffffffffffff16101561024c576040517f6f7eac2600000000000000000000000000000000000000000000000000000000815260040160405180910390fd5b8573ffffffffffffffffffffffffffffffffffffffff1660808173ffffffffffffffffffffffffffffffffffffffff1681525050846bffffffffffffffffffffffff1660a0816bffffffffffffffffffffffff16815250508360025f015f6101000a8154816bffffffffffffffffffffffff02191690836bffffffffffffffffffffffff1602179055508260025f01600c6101000a8154816bffffffffffffffffffffffff02191690836bffffffffffffffffffffffff1602179055505f60025f0160186101000a81548167ffffffffffffffff021916908367ffffffffffffffff1602179055508160045f6101000a81548167ffffffffffffffff021916908367ffffffffffffffff16021790555080600460086101000a81548167ffffffffffffffff021916908367ffffffffffffffff1602179055505050505050506105de565b5f805f9054906101000a900473ffffffffffffffffffffffffffffffffffffffff169050815f806101000a81548173ffffffffffffffffffffffffffffffffffffffff021916908373ffffffffffffffffffffffffffffffffffffffff1602179055508173ffffffffffffffffffffffffffffffffffffffff168173ffffffffffffffffffffffffffffffffffffffff167f8be0079c531659141344cd1fd0a4f28419497f9722a3daafe3b4186f6b6457e060405160405180910390a35050565b5f80fd5b5f73ffffffffffffffffffffffffffffffffffffffff82169050919050565b5f61047e82610455565b9050919050565b61048e81610474565b8114610498575f80fd5b50565b5f815190506104a981610485565b92915050565b5f6bffffffffffffffffffffffff82169050919050565b6104cf816104af565b81146104d9575f80fd5b50565b5f815190506104ea816104c6565b92915050565b5f67ffffffffffffffff82169050919050565b61050c816104f0565b8114610516575f80fd5b50565b5f8151905061052781610503565b92915050565b5f805f805f8060c0878903121561054757610546610451565b5b5f61055489828a0161049b565b965050602061056589828a016104dc565b955050604061057689828a016104dc565b945050606061058789828a016104dc565b935050608061059889828a01610519565b92505060a06105a989828a01610519565b9150509295509295509295565b6105bf81610474565b82525050565b5f6020820190506105d85f8301846105b6565b92915050565b60805160a0516112f26106225f395f81816101e60152818161072f015261097301525f81816103a00152818161050f015281816105e701526106b401526112f25ff3fe608060405234801561000f575f80fd5b50600436106100a7575f3560e01c806379502c551161006f57806379502c551461012b578063806019c11461014b5780638da5cb5b14610169578063db2e21bc14610187578063f2fde38b14610191578063fc0c546a146101ad576100a7565b806340306fb6146100ab57806343074c7f146100c957806358262359146100e75780635b88349d14610117578063715018a614610121575b5f80fd5b6100b36101cb565b6040516100c09190610da6565b60405180910390f35b6100d16101e4565b6040516100de9190610de5565b60405180910390f35b61010160048036038101906100fc9190610e67565b610208565b60405161010e9190610f74565b60405180910390f35b61011f6102d2565b005b610129610458565b005b61013361046b565b60405161014293929190610f94565b60405180910390f35b6101536104c3565b6040516101609190610da6565b60405180910390f35b6101716104dd565b60405161017e9190611008565b60405180910390f35b61018f610504565b005b6101ab60048036038101906101a6919061104b565b61062e565b005b6101b56106b2565b6040516101c291906110d1565b60405180910390f35b60045f9054906101000a900467ffffffffffffffff1681565b7f000000000000000000000000000000000000000000000000000000000000000081565b60608282905067ffffffffffffffff811115610227576102266110ea565b5b6040519080825280602002602001820160405280156102555781602001602082028036833780820191505090505b5090505f4290505f5b848490508110156102ca5761029a85858381811061027f5761027e611117565b5b9050602002016020810190610294919061104b565b836106d6565b8382815181106102ad576102ac611117565b5b60200260200101901515908115158152505080600101905061025e565b505092915050565b6102da61083e565b6102e33361088d565b5f3373ffffffffffffffffffffffffffffffffffffffff169050610311816003610aa490919063ffffffff16565b60025f015f9054906101000a90046bffffffffffffffffffffffff1660025f0160188282829054906101000a900467ffffffffffffffff160192506101000a81548167ffffffffffffffff021916908367ffffffffffffffff1602179055506103e43360025f015f9054906101000a90046bffffffffffffffffffffffff166bffffffffffffffffffffffff167f000000000000000000000000000000000000000000000000000000000000000073ffffffffffffffffffffffffffffffffffffffff16610adc9092919063ffffffff16565b3373ffffffffffffffffffffffffffffffffffffffff167f61302c72df1000ca12d41c5583685720a0cbd3233372643a553eb042d670f07660025f015f9054906101000a90046bffffffffffffffffffffffff166040516104459190610de5565b60405180910390a250610456610b5b565b565b610460610b64565b6104695f610beb565b565b6002805f015f9054906101000a90046bffffffffffffffffffffffff1690805f01600c9054906101000a90046bffffffffffffffffffffffff1690805f0160189054906101000a900467ffffffffffffffff16905083565b600460089054906101000a900467ffffffffffffffff1681565b5f805f9054906101000a900473ffffffffffffffffffffffffffffffffffffffff16905090565b61050c610b64565b5f7f000000000000000000000000000000000000000000000000000000000000000073ffffffffffffffffffffffffffffffffffffffff166370a08231306040518263ffffffff1660e01b81526004016105669190611008565b602060405180830381865afa158015610581573d5f803e3d5ffd5b505050506040513d601f19601f820116820180604052508101906105a59190611177565b90505f81036105e0576040517ff4d678b800000000000000000000000000000000000000000000000000000000815260040160405180910390fd5b61062b33827f000000000000000000000000000000000000000000000000000000000000000073ffffffffffffffffffffffffffffffffffffffff16610adc9092919063ffffffff16565b50565b610636610b64565b5f73ffffffffffffffffffffffffffffffffffffffff168173ffffffffffffffffffffffffffffffffffffffff16036106a6575f6040517f1e4fbdf700000000000000000000000000000000000000000000000000000000815260040161069d9190611008565b60405180910390fd5b6106af81610beb565b50565b7f000000000000000000000000000000000000000000000000000000000000000081565b5f60045f9054906101000a900467ffffffffffffffff1667ffffffffffffffff1682101580156107265750600460089054906101000a900467ffffffffffffffff1667ffffffffffffffff168211155b801561077757507f00000000000000000000000000000000000000000000000000000000000000006bffffffffffffffffffffffff168373ffffffffffffffffffffffffffffffffffffffff163110155b80156107aa57506107a88373ffffffffffffffffffffffffffffffffffffffff166003610cac90919063ffffffff16565b155b8015610836575060025f01600c9054906101000a90046bffffffffffffffffffffffff166bffffffffffffffffffffffff1660025f015f9054906101000a90046bffffffffffffffffffffffff1660025f0160189054906101000a900467ffffffffffffffff1667ffffffffffffffff1661082591906111cf565b6bffffffffffffffffffffffff1611155b905092915050565b600260015403610883576040517f08c379a000000000000000000000000000000000000000000000000000000000815260040161087a90611268565b60405180910390fd5b6002600181905550565b60045f9054906101000a900467ffffffffffffffff1667ffffffffffffffff164210806108d95750600460089054906101000a900467ffffffffffffffff1667ffffffffffffffff1642115b15610910576040517f80cb55e200000000000000000000000000000000000000000000000000000000815260040160405180910390fd5b61093a8173ffffffffffffffffffffffffffffffffffffffff166003610cac90919063ffffffff16565b15610971576040517f646cf55800000000000000000000000000000000000000000000000000000000815260040160405180910390fd5b7f00000000000000000000000000000000000000000000000000000000000000006bffffffffffffffffffffffff168173ffffffffffffffffffffffffffffffffffffffff163110156109f0576040517ff4d678b800000000000000000000000000000000000000000000000000000000815260040160405180910390fd5b60025f01600c9054906101000a90046bffffffffffffffffffffffff166bffffffffffffffffffffffff1660025f015f9054906101000a90046bffffffffffffffffffffffff1660025f0160189054906101000a900467ffffffffffffffff1667ffffffffffffffff16016bffffffffffffffffffffffff161115610aa1576040517fd05cb60900000000000000000000000000000000000000000000000000000000815260040160405180910390fd5b50565b5f600882901c90505f60ff83166001901b905080845f015f8481526020019081526020015f205f828254179250508190555050505050565b610b56838473ffffffffffffffffffffffffffffffffffffffff1663a9059cbb8585604051602401610b0f929190611295565b604051602081830303815290604052915060e01b6020820180517bffffffffffffffffffffffffffffffffffffffffffffffffffffffff8381831617835250505050610ce2565b505050565b60018081905550565b610b6c610d7d565b73ffffffffffffffffffffffffffffffffffffffff16610b8a6104dd565b73ffffffffffffffffffffffffffffffffffffffff1614610be957610bad610d7d565b6040517f118cdaa7000000000000000000000000000000000000000000000000000000008152600401610be09190611008565b60405180910390fd5b565b5f805f9054906101000a900473ffffffffffffffffffffffffffffffffffffffff169050815f806101000a81548173ffffffffffffffffffffffffffffffffffffffff021916908373ffffffffffffffffffffffffffffffffffffffff1602179055508173ffffffffffffffffffffffffffffffffffffffff168173ffffffffffffffffffffffffffffffffffffffff167f8be0079c531659141344cd1fd0a4f28419497f9722a3daafe3b4186f6b6457e060405160405180910390a35050565b5f80600883901c90505f60ff84166001901b90505f81865f015f8581526020019081526020015f20541614159250505092915050565b5f8060205f8451602086015f885af180610d01576040513d5f823e3d81fd5b3d92505f519150505f8214610d1a576001811415610d35565b5f8473ffffffffffffffffffffffffffffffffffffffff163b145b15610d7757836040517f5274afe7000000000000000000000000000000000000000000000000000000008152600401610d6e9190611008565b60405180910390fd5b50505050565b5f33905090565b5f67ffffffffffffffff82169050919050565b610da081610d84565b82525050565b5f602082019050610db95f830184610d97565b92915050565b5f6bffffffffffffffffffffffff82169050919050565b610ddf81610dbf565b82525050565b5f602082019050610df85f830184610dd6565b92915050565b5f80fd5b5f80fd5b5f80fd5b5f80fd5b5f80fd5b5f8083601f840112610e2757610e26610e06565b5b8235905067ffffffffffffffff811115610e4457610e43610e0a565b5b602083019150836020820283011115610e6057610e5f610e0e565b5b9250929050565b5f8060208385031215610e7d57610e7c610dfe565b5b5f83013567ffffffffffffffff811115610e9a57610e99610e02565b5b610ea685828601610e12565b92509250509250929050565b5f81519050919050565b5f82825260208201905092915050565b5f819050602082019050919050565b5f8115159050919050565b610eef81610edb565b82525050565b5f610f008383610ee6565b60208301905092915050565b5f602082019050919050565b5f610f2282610eb2565b610f2c8185610ebc565b9350610f3783610ecc565b805f5b83811015610f67578151610f4e8882610ef5565b9750610f5983610f0c565b925050600181019050610f3a565b5085935050505092915050565b5f6020820190508181035f830152610f8c8184610f18565b905092915050565b5f606082019050610fa75f830186610dd6565b610fb46020830185610dd6565b610fc16040830184610d97565b949350505050565b5f73ffffffffffffffffffffffffffffffffffffffff82169050919050565b5f610ff282610fc9565b9050919050565b61100281610fe8565b82525050565b5f60208201905061101b5f830184610ff9565b92915050565b61102a81610fe8565b8114611034575f80fd5b50565b5f8135905061104581611021565b92915050565b5f602082840312156110605761105f610dfe565b5b5f61106d84828501611037565b91505092915050565b5f819050919050565b5f61109961109461108f84610fc9565b611076565b610fc9565b9050919050565b5f6110aa8261107f565b9050919050565b5f6110bb826110a0565b9050919050565b6110cb816110b1565b82525050565b5f6020820190506110e45f8301846110c2565b92915050565b7f4e487b71000000000000000000000000000000000000000000000000000000005f52604160045260245ffd5b7f4e487b71000000000000000000000000000000000000000000000000000000005f52603260045260245ffd5b5f819050919050565b61115681611144565b8114611160575f80fd5b50565b5f815190506111718161114d565b92915050565b5f6020828403121561118c5761118b610dfe565b5b5f61119984828501611163565b91505092915050565b7f4e487b71000000000000000000000000000000000000000000000000000000005f52601160045260245ffd5b5f6111d982610dbf565b91506111e483610dbf565b925082820190506bffffffffffffffffffffffff811115611208576112076111a2565b5b92915050565b5f82825260208201905092915050565b7f5265656e7472616e637947756172643a207265656e7472616e742063616c6c005f82015250565b5f611252601f8361120e565b915061125d8261121e565b602082019050919050565b5f6020820190508181035f83015261127f81611246565b9050919050565b61128f81611144565b82525050565b5f6040820190506112a85f830185610ff9565b6112b56020830184611286565b939250505056fea264697066735822122020fed0c8a7c46465c9bc7922d0be54bcc61173b989baf820086dd0e6c2b41e5d64736f6c634300081a0033",
					"opcodes": "PUSH1 0xC0 PUSH1 0x40 MSTORE CALLVALUE DUP1 ISZERO PUSH2 0xF JUMPI PUSH0 DUP1 REVERT JUMPDEST POP PUSH1 0x40 MLOAD PUSH2 0x1914 CODESIZE SUB DUP1 PUSH2 0x1914 DUP4 CODECOPY DUP2 DUP2 ADD PUSH1 0x40 MSTORE DUP2 ADD SWAP1 PUSH2 0x31 SWAP2 SWAP1 PUSH2 0x52D JUMP JUMPDEST CALLER PUSH0 PUSH20 0xFFFFFFFFFFFFFFFFFFFFFFFFFFFFFFFFFFFFFFFF AND DUP2 PUSH20 0xFFFFFFFFFFFFFFFFFFFFFFFFFFFFFFFFFFFFFFFF AND SUB PUSH2 0xA2 JUMPI PUSH0 PUSH1 0x40 MLOAD PUSH32 0x1E4FBDF700000000000000000000000000000000000000000000000000000000 DUP2 MSTORE PUSH1 0x4 ADD PUSH2 0x99 SWAP2 SWAP1 PUSH2 0x5C5 JUMP JUMPDEST PUSH1 0x40 MLOAD DUP1 SWAP2 SUB SWAP1 REVERT JUMPDEST PUSH2 0xB1 DUP2 PUSH2 0x390 PUSH1 0x20 SHL PUSH1 0x20 SHR JUMP JUMPDEST POP PUSH1 0x1 DUP1 DUP2 SWAP1 SSTORE POP PUSH0 PUSH20 0xFFFFFFFFFFFFFFFFFFFFFFFFFFFFFFFFFFFFFFFF AND DUP7 PUSH20 0xFFFFFFFFFFFFFFFFFFFFFFFFFFFFFFFFFFFFFFFF AND SUB PUSH2 0x11E JUMPI PUSH1 0x40 MLOAD PUSH32 0xE6C4247B00000000000000000000000000000000000000000000000000000000 DUP2 MSTORE PUSH1 0x4 ADD PUSH1 0x40 MLOAD DUP1 SWAP2 SUB SWAP1 REVERT JUMPDEST PUSH0 DUP5 PUSH12 0xFFFFFFFFFFFFFFFFFFFFFFFF AND SUB PUSH2 0x165 JUMPI PUSH1 0x40 MLOAD PUSH32 0x2C5211C600000000000000000000000000000000000000000000000000000000 DUP2 MSTORE PUSH1 0x4 ADD PUSH1 0x40 MLOAD DUP1 SWAP2 SUB SWAP1 REVERT JUMPDEST DUP4 PUSH12 0xFFFFFFFFFFFFFFFFFFFFFFFF AND DUP4 PUSH12 0xFFFFFFFFFFFFFFFFFFFFFFFF AND LT ISZERO PUSH2 0x1BB JUMPI PUSH1 0x40 MLOAD PUSH32 0x2C5211C600000000000000000000000000000000000000000000000000000000 DUP2 MSTORE PUSH1 0x4 ADD PUSH1 0x40 MLOAD DUP1 SWAP2 SUB SWAP1 REVERT JUMPDEST DUP1 PUSH8 0xFFFFFFFFFFFFFFFF AND DUP3 PUSH8 0xFFFFFFFFFFFFFFFF AND LT PUSH2 0x208 JUMPI PUSH1 0x40 MLOAD PUSH32 0x6F7EAC2600000000000000000000000000000000000000000000000000000000 DUP2 MSTORE PUSH1 0x4 ADD PUSH1 0x40 MLOAD DUP1 SWAP2 SUB SWAP1 REVERT JUMPDEST TIMESTAMP DUP3 PUSH8 0xFFFFFFFFFFFFFFFF AND LT ISZERO PUSH2 0x24C JUMPI PUSH1 0x40 MLOAD PUSH32 0x6F7EAC2600000000000000000000000000000000000000000000000000000000 DUP2 MSTORE PUSH1 0x4 ADD PUSH1 0x40 MLOAD DUP1 SWAP2 SUB SWAP1 REVERT JUMPDEST DUP6 PUSH20 0xFFFFFFFFFFFFFFFFFFFFFFFFFFFFFFFFFFFFFFFF AND PUSH1 0x80 DUP2 PUSH20 0xFFFFFFFFFFFFFFFFFFFFFFFFFFFFFFFFFFFFFFFF AND DUP2 MSTORE POP POP DUP5 PUSH12 0xFFFFFFFFFFFFFFFFFFFFFFFF AND PUSH1 0xA0 DUP2 PUSH12 0xFFFFFFFFFFFFFFFFFFFFFFFF AND DUP2 MSTORE POP POP DUP4 PUSH1 0x2 PUSH0 ADD PUSH0 PUSH2 0x100 EXP DUP2 SLOAD DUP2 PUSH12 0xFFFFFFFFFFFFFFFFFFFFFFFF MUL NOT AND SWAP1 DUP4 PUSH12 0xFFFFFFFFFFFFFFFFFFFFFFFF AND MUL OR SWAP1 SSTORE POP DUP3 PUSH1 0x2 PUSH0 ADD PUSH1 0xC PUSH2 0x100 EXP DUP2 SLOAD DUP2 PUSH12 0xFFFFFFFFFFFFFFFFFFFFFFFF MUL NOT AND SWAP1 DUP4 PUSH12 0xFFFFFFFFFFFFFFFFFFFFFFFF AND MUL OR SWAP1 SSTORE POP PUSH0 PUSH1 0x2 PUSH0 ADD PUSH1 0x18 PUSH2 0x100 EXP DUP2 SLOAD DUP2 PUSH8 0xFFFFFFFFFFFFFFFF MUL NOT AND SWAP1 DUP4 PUSH8 0xFFFFFFFFFFFFFFFF AND MUL OR SWAP1 SSTORE POP DUP2 PUSH1 0x4 PUSH0 PUSH2 0x100 EXP DUP2 SLOAD DUP2 PUSH8 0xFFFFFFFFFFFFFFFF MUL NOT AND SWAP1 DUP4 PUSH8 0xFFFFFFFFFFFFFFFF AND MUL OR SWAP1 SSTORE POP DUP1 PUSH1 0x4 PUSH1 0x8 PUSH2 0x100 EXP DUP2 SLOAD DUP2 PUSH8 0xFFFFFFFFFFFFFFFF MUL NOT AND SWAP1 DUP4 PUSH8 0xFFFFFFFFFFFFFFFF AND MUL OR SWAP1 SSTORE POP POP POP POP POP POP POP PUSH2 0x5DE JUMP JUMPDEST PUSH0 DUP1 PUSH0 SWAP1 SLOAD SWAP1 PUSH2 0x100 EXP SWAP1 DIV PUSH20 0xFFFFFFFFFFFFFFFFFFFFFFFFFFFFFFFFFFFFFFFF AND SWAP1 POP DUP2 PUSH0 DUP1 PUSH2 0x100 EXP DUP2 SLOAD DUP2 PUSH20 0xFFFFFFFFFFFFFFFFFFFFFFFFFFFFFFFFFFFFFFFF MUL NOT AND SWAP1 DUP4 PUSH20 0xFFFFFFFFFFFFFFFFFFFFFFFFFFFFFFFFFFFFFFFF AND MUL OR SWAP1 SSTORE POP DUP2 PUSH20 0xFFFFFFFFFFFFFFFFFFFFFFFFFFFFFFFFFFFFFFFF AND DUP2 PUSH20 0xFFFFFFFFFFFFFFFFFFFFFFFFFFFFFFFFFFFFFFFF AND PUSH32 0x8BE0079C531659141344CD1FD0A4F28419497F9722A3DAAFE3B4186F6B6457E0 PUSH1 0x40 MLOAD PUSH1 0x40 MLOAD DUP1 SWAP2 SUB SWAP1 LOG3 POP POP JUMP JUMPDEST PUSH0 DUP1 REVERT JUMPDEST PUSH0 PUSH20 0xFFFFFFFFFFFFFFFFFFFFFFFFFFFFFFFFFFFFFFFF DUP3 AND SWAP1 POP SWAP2 SWAP1 POP JUMP JUMPDEST PUSH0 PUSH2 0x47E DUP3 PUSH2 0x455 JUMP JUMPDEST SWAP1 POP SWAP2 SWAP1 POP JUMP JUMPDEST PUSH2 0x48E DUP2 PUSH2 0x474 JUMP JUMPDEST DUP2 EQ PUSH2 0x498 JUMPI PUSH0 DUP1 REVERT JUMPDEST POP JUMP JUMPDEST PUSH0 DUP2 MLOAD SWAP1 POP PUSH2 0x4A9 DUP2 PUSH2 0x485 JUMP JUMPDEST SWAP3 SWAP2 POP POP JUMP JUMPDEST PUSH0 PUSH12 0xFFFFFFFFFFFFFFFFFFFFFFFF DUP3 AND SWAP1 POP SWAP2 SWAP1 POP JUMP JUMPDEST PUSH2 0x4CF DUP2 PUSH2 0x4AF JUMP JUMPDEST DUP2 EQ PUSH2 0x4D9 JUMPI PUSH0 DUP1 REVERT JUMPDEST POP JUMP JUMPDEST PUSH0 DUP2 MLOAD SWAP1 POP PUSH2 0x4EA DUP2 PUSH2 0x4C6 JUMP JUMPDEST SWAP3 SWAP2 POP POP JUMP JUMPDEST PUSH0 PUSH8 0xFFFFFFFFFFFFFFFF DUP3 AND SWAP1 POP SWAP2 SWAP1 POP JUMP JUMPDEST PUSH2 0x50C DUP2 PUSH2 0x4F0 JUMP JUMPDEST DUP2 EQ PUSH2 0x516 JUMPI PUSH0 DUP1 REVERT JUMPDEST POP JUMP JUMPDEST PUSH0 DUP2 MLOAD SWAP1 POP PUSH2 0x527 DUP2 PUSH2 0x503 JUMP JUMPDEST SWAP3 SWAP2 POP POP JUMP JUMPDEST PUSH0 DUP1 PUSH0 DUP1 PUSH0 DUP1 PUSH1 0xC0 DUP8 DUP10 SUB SLT ISZERO PUSH2 0x547 JUMPI PUSH2 0x546 PUSH2 0x451 JUMP JUMPDEST JUMPDEST PUSH0 PUSH2 0x554 DUP10 DUP3 DUP11 ADD PUSH2 0x49B JUMP JUMPDEST SWAP7 POP POP PUSH1 0x20 PUSH2 0x565 DUP10 DUP3 DUP11 ADD PUSH2 0x4DC JUMP JUMPDEST SWAP6 POP POP PUSH1 0x40 PUSH2 0x576 DUP10 DUP3 DUP11 ADD PUSH2 0x4DC JUMP JUMPDEST SWAP5 POP POP PUSH1 0x60 PUSH2 0x587 DUP10 DUP3 DUP11 ADD PUSH2 0x4DC JUMP JUMPDEST SWAP4 POP POP PUSH1 0x80 PUSH2 0x598 DUP10 DUP3 DUP11 ADD PUSH2 0x519 JUMP JUMPDEST SWAP3 POP POP PUSH1 0xA0 PUSH2 0x5A9 DUP10 DUP3 DUP11 ADD PUSH2 0x519 JUMP JUMPDEST SWAP2 POP POP SWAP3 SWAP6 POP SWAP3 SWAP6 POP SWAP3 SWAP6 JUMP JUMPDEST PUSH2 0x5BF DUP2 PUSH2 0x474 JUMP JUMPDEST DUP3 MSTORE POP POP JUMP JUMPDEST PUSH0 PUSH1 0x20 DUP3 ADD SWAP1 POP PUSH2 0x5D8 PUSH0 DUP4 ADD DUP5 PUSH2 0x5B6 JUMP JUMPDEST SWAP3 SWAP2 POP POP JUMP JUMPDEST PUSH1 0x80 MLOAD PUSH1 0xA0 MLOAD PUSH2 0x12F2 PUSH2 0x622 PUSH0 CODECOPY PUSH0 DUP2 DUP2 PUSH2 0x1E6 ADD MSTORE DUP2 DUP2 PUSH2 0x72F ADD MSTORE PUSH2 0x973 ADD MSTORE PUSH0 DUP2 DUP2 PUSH2 0x3A0 ADD MSTORE DUP2 DUP2 PUSH2 0x50F ADD MSTORE DUP2 DUP2 PUSH2 0x5E7 ADD MSTORE PUSH2 0x6B4 ADD MSTORE PUSH2 0x12F2 PUSH0 RETURN INVALID PUSH1 0x80 PUSH1 0x40 MSTORE CALLVALUE DUP1 ISZERO PUSH2 0xF JUMPI PUSH0 DUP1 REVERT JUMPDEST POP PUSH1 0x4 CALLDATASIZE LT PUSH2 0xA7 JUMPI PUSH0 CALLDATALOAD PUSH1 0xE0 SHR DUP1 PUSH4 0x79502C55 GT PUSH2 0x6F JUMPI DUP1 PUSH4 0x79502C55 EQ PUSH2 0x12B JUMPI DUP1 PUSH4 0x806019C1 EQ PUSH2 0x14B JUMPI DUP1 PUSH4 0x8DA5CB5B EQ PUSH2 0x169 JUMPI DUP1 PUSH4 0xDB2E21BC EQ PUSH2 0x187 JUMPI DUP1 PUSH4 0xF2FDE38B EQ PUSH2 0x191 JUMPI DUP1 PUSH4 0xFC0C546A EQ PUSH2 0x1AD JUMPI PUSH2 0xA7 JUMP JUMPDEST DUP1 PUSH4 0x40306FB6 EQ PUSH2 0xAB JUMPI DUP1 PUSH4 0x43074C7F EQ PUSH2 0xC9 JUMPI DUP1 PUSH4 0x58262359 EQ PUSH2 0xE7 JUMPI DUP1 PUSH4 0x5B88349D EQ PUSH2 0x117 JUMPI DUP1 PUSH4 0x715018A6 EQ PUSH2 0x121 JUMPI JUMPDEST PUSH0 DUP1 REVERT JUMPDEST PUSH2 0xB3 PUSH2 0x1CB JUMP JUMPDEST PUSH1 0x40 MLOAD PUSH2 0xC0 SWAP2 SWAP1 PUSH2 0xDA6 JUMP JUMPDEST PUSH1 0x40 MLOAD DUP1 SWAP2 SUB SWAP1 RETURN JUMPDEST PUSH2 0xD1 PUSH2 0x1E4 JUMP JUMPDEST PUSH1 0x40 MLOAD PUSH2 0xDE SWAP2 SWAP1 PUSH2 0xDE5 JUMP JUMPDEST PUSH1 0x40 MLOAD DUP1 SWAP2 SUB SWAP1 RETURN JUMPDEST PUSH2 0x101 PUSH1 0x4 DUP1 CALLDATASIZE SUB DUP2 ADD SWAP1 PUSH2 0xFC SWAP2 SWAP1 PUSH2 0xE67 JUMP JUMPDEST PUSH2 0x208 JUMP JUMPDEST PUSH1 0x40 MLOAD PUSH2 0x10E SWAP2 SWAP1 PUSH2 0xF74 JUMP JUMPDEST PUSH1 0x40 MLOAD DUP1 SWAP2 SUB SWAP1 RETURN JUMPDEST PUSH2 0x11F PUSH2 0x2D2 JUMP JUMPDEST STOP JUMPDEST PUSH2 0x129 PUSH2 0x458 JUMP JUMPDEST STOP JUMPDEST PUSH2 0x133 PUSH2 0x46B JUMP JUMPDEST PUSH1 0x40 MLOAD PUSH2 0x142 SWAP4 SWAP3 SWAP2 SWAP1 PUSH2 0xF94 JUMP JUMPDEST PUSH1 0x40 MLOAD DUP1 SWAP2 SUB SWAP1 RETURN JUMPDEST PUSH2 0x153 PUSH2 0x4C3 JUMP JUMPDEST PUSH1 0x40 MLOAD PUSH2 0x160 SWAP2 SWAP1 PUSH2 0xDA6 JUMP JUMPDEST PUSH1 0x40 MLOAD DUP1 SWAP2 SUB SWAP1 RETURN JUMPDEST PUSH2 0x171 PUSH2 0x4DD JUMP JUMPDEST PUSH1 0x40 MLOAD PUSH2 0x17E SWAP2 SWAP1 PUSH2 0x1008 JUMP JUMPDEST PUSH1 0x40 MLOAD DUP1 SWAP2 SUB SWAP1 RETURN JUMPDEST PUSH2 0x18F PUSH2 0x504 JUMP JUMPDEST STOP JUMPDEST PUSH2 0x1AB PUSH1 0x4 DUP1 CALLDATASIZE SUB DUP2 ADD SWAP1 PUSH2 0x1A6 SWAP2 SWAP1 PUSH2 0x104B JUMP JUMPDEST PUSH2 0x62E JUMP JUMPDEST STOP JUMPDEST PUSH2 0x1B5 PUSH2 0x6B2 JUMP JUMPDEST PUSH1 0x40 MLOAD PUSH2 0x1C2 SWAP2 SWAP1 PUSH2 0x10D1 JUMP JUMPDEST PUSH1 0x40 MLOAD DUP1 SWAP2 SUB SWAP1 RETURN JUMPDEST PUSH1 0x4 PUSH0 SWAP1 SLOAD SWAP1 PUSH2 0x100 EXP SWAP1 DIV PUSH8 0xFFFFFFFFFFFFFFFF AND DUP2 JUMP JUMPDEST PUSH32 0x0 DUP2 JUMP JUMPDEST PUSH1 0x60 DUP3 DUP3 SWAP1 POP PUSH8 0xFFFFFFFFFFFFFFFF DUP2 GT ISZERO PUSH2 0x227 JUMPI PUSH2 0x226 PUSH2 0x10EA JUMP JUMPDEST JUMPDEST PUSH1 0x40 MLOAD SWAP1 DUP1 DUP3 MSTORE DUP1 PUSH1 0x20 MUL PUSH1 0x20 ADD DUP3 ADD PUSH1 0x40 MSTORE DUP1 ISZERO PUSH2 0x255 JUMPI DUP2 PUSH1 0x20 ADD PUSH1 0x20 DUP3 MUL DUP1 CALLDATASIZE DUP4 CALLDATACOPY DUP1 DUP3 ADD SWAP2 POP POP SWAP1 POP JUMPDEST POP SWAP1 POP PUSH0 TIMESTAMP SWAP1 POP PUSH0 JUMPDEST DUP5 DUP5 SWAP1 POP DUP2 LT ISZERO PUSH2 0x2CA JUMPI PUSH2 0x29A DUP6 DUP6 DUP4 DUP2 DUP2 LT PUSH2 0x27F JUMPI PUSH2 0x27E PUSH2 0x1117 JUMP JUMPDEST JUMPDEST SWAP1 POP PUSH1 0x20 MUL ADD PUSH1 0x20 DUP2 ADD SWAP1 PUSH2 0x294 SWAP2 SWAP1 PUSH2 0x104B JUMP JUMPDEST DUP4 PUSH2 0x6D6 JUMP JUMPDEST DUP4 DUP3 DUP2 MLOAD DUP2 LT PUSH2 0x2AD JUMPI PUSH2 0x2AC PUSH2 0x1117 JUMP JUMPDEST JUMPDEST PUSH1 0x20 MUL PUSH1 0x20 ADD ADD SWAP1 ISZERO ISZERO SWAP1 DUP2 ISZERO ISZERO DUP2 MSTORE POP POP DUP1 PUSH1 0x1 ADD SWAP1 POP PUSH2 0x25E JUMP JUMPDEST POP POP SWAP3 SWAP2 POP POP JUMP JUMPDEST PUSH2 0x2DA PUSH2 0x83E JUMP JUMPDEST PUSH2 0x2E3 CALLER PUSH2 0x88D JUMP JUMPDEST PUSH0 CALLER PUSH20 0xFFFFFFFFFFFFFFFFFFFFFFFFFFFFFFFFFFFFFFFF AND SWAP1 POP PUSH2 0x311 DUP2 PUSH1 0x3 PUSH2 0xAA4 SWAP1 SWAP2 SWAP1 PUSH4 0xFFFFFFFF AND JUMP JUMPDEST PUSH1 0x2 PUSH0 ADD PUSH0 SWAP1 SLOAD SWAP1 PUSH2 0x100 EXP SWAP1 DIV PUSH12 0xFFFFFFFFFFFFFFFFFFFFFFFF AND PUSH1 0x2 PUSH0 ADD PUSH1 0x18 DUP3 DUP3 DUP3 SWAP1 SLOAD SWAP1 PUSH2 0x100 EXP SWAP1 DIV PUSH8 0xFFFFFFFFFFFFFFFF AND ADD SWAP3 POP PUSH2 0x100 EXP DUP2 SLOAD DUP2 PUSH8 0xFFFFFFFFFFFFFFFF MUL NOT AND SWAP1 DUP4 PUSH8 0xFFFFFFFFFFFFFFFF AND MUL OR SWAP1 SSTORE POP PUSH2 0x3E4 CALLER PUSH1 0x2 PUSH0 ADD PUSH0 SWAP1 SLOAD SWAP1 PUSH2 0x100 EXP SWAP1 DIV PUSH12 0xFFFFFFFFFFFFFFFFFFFFFFFF AND PUSH12 0xFFFFFFFFFFFFFFFFFFFFFFFF AND PUSH32 0x0 PUSH20 0xFFFFFFFFFFFFFFFFFFFFFFFFFFFFFFFFFFFFFFFF AND PUSH2 0xADC SWAP1 SWAP3 SWAP2 SWAP1 PUSH4 0xFFFFFFFF AND JUMP JUMPDEST CALLER PUSH20 0xFFFFFFFFFFFFFFFFFFFFFFFFFFFFFFFFFFFFFFFF AND PUSH32 0x61302C72DF1000CA12D41C5583685720A0CBD3233372643A553EB042D670F076 PUSH1 0x2 PUSH0 ADD PUSH0 SWAP1 SLOAD SWAP1 PUSH2 0x100 EXP SWAP1 DIV PUSH12 0xFFFFFFFFFFFFFFFFFFFFFFFF AND PUSH1 0x40 MLOAD PUSH2 0x445 SWAP2 SWAP1 PUSH2 0xDE5 JUMP JUMPDEST PUSH1 0x40 MLOAD DUP1 SWAP2 SUB SWAP1 LOG2 POP PUSH2 0x456 PUSH2 0xB5B JUMP JUMPDEST JUMP JUMPDEST PUSH2 0x460 PUSH2 0xB64 JUMP JUMPDEST PUSH2 0x469 PUSH0 PUSH2 0xBEB JUMP JUMPDEST JUMP JUMPDEST PUSH1 0x2 DUP1 PUSH0 ADD PUSH0 SWAP1 SLOAD SWAP1 PUSH2 0x100 EXP SWAP1 DIV PUSH12 0xFFFFFFFFFFFFFFFFFFFFFFFF AND SWAP1 DUP1 PUSH0 ADD PUSH1 0xC SWAP1 SLOAD SWAP1 PUSH2 0x100 EXP SWAP1 DIV PUSH12 0xFFFFFFFFFFFFFFFFFFFFFFFF AND SWAP1 DUP1 PUSH0 ADD PUSH1 0x18 SWAP1 SLOAD SWAP1 PUSH2 0x100 EXP SWAP1 DIV PUSH8 0xFFFFFFFFFFFFFFFF AND SWAP1 POP DUP4 JUMP JUMPDEST PUSH1 0x4 PUSH1 0x8 SWAP1 SLOAD SWAP1 PUSH2 0x100 EXP SWAP1 DIV PUSH8 0xFFFFFFFFFFFFFFFF AND DUP2 JUMP JUMPDEST PUSH0 DUP1 PUSH0 SWAP1 SLOAD SWAP1 PUSH2 0x100 EXP SWAP1 DIV PUSH20 0xFFFFFFFFFFFFFFFFFFFFFFFFFFFFFFFFFFFFFFFF AND SWAP1 POP SWAP1 JUMP JUMPDEST PUSH2 0x50C PUSH2 0xB64 JUMP JUMPDEST PUSH0 PUSH32 0x0 PUSH20 0xFFFFFFFFFFFFFFFFFFFFFFFFFFFFFFFFFFFFFFFF AND PUSH4 0x70A08231 ADDRESS PUSH1 0x40 MLOAD DUP3 PUSH4 0xFFFFFFFF AND PUSH1 0xE0 SHL DUP2 MSTORE PUSH1 0x4 ADD PUSH2 0x566 SWAP2 SWAP1 PUSH2 0x1008 JUMP JUMPDEST PUSH1 0x20 PUSH1 0x40 MLOAD DUP1 DUP4 SUB DUP2 DUP7 GAS STATICCALL ISZERO DUP1 ISZERO PUSH2 0x581 JUMPI RETURNDATASIZE PUSH0 DUP1 RETURNDATACOPY RETURNDATASIZE PUSH0 REVERT JUMPDEST POP POP POP POP PUSH1 0x40 MLOAD RETURNDATASIZE PUSH1 0x1F NOT PUSH1 0x1F DUP3 ADD AND DUP3 ADD DUP1 PUSH1 0x40 MSTORE POP DUP2 ADD SWAP1 PUSH2 0x5A5 SWAP2 SWAP1 PUSH2 0x1177 JUMP JUMPDEST SWAP1 POP PUSH0 DUP2 SUB PUSH2 0x5E0 JUMPI PUSH1 0x40 MLOAD PUSH32 0xF4D678B800000000000000000000000000000000000000000000000000000000 DUP2 MSTORE PUSH1 0x4 ADD PUSH1 0x40 MLOAD DUP1 SWAP2 SUB SWAP1 REVERT JUMPDEST PUSH2 0x62B CALLER DUP3 PUSH32 0x0 PUSH20 0xFFFFFFFFFFFFFFFFFFFFFFFFFFFFFFFFFFFFFFFF AND PUSH2 0xADC SWAP1 SWAP3 SWAP2 SWAP1 PUSH4 0xFFFFFFFF AND JUMP JUMPDEST POP JUMP JUMPDEST PUSH2 0x636 PUSH2 0xB64 JUMP JUMPDEST PUSH0 PUSH20 0xFFFFFFFFFFFFFFFFFFFFFFFFFFFFFFFFFFFFFFFF AND DUP2 PUSH20 0xFFFFFFFFFFFFFFFFFFFFFFFFFFFFFFFFFFFFFFFF AND SUB PUSH2 0x6A6 JUMPI PUSH0 PUSH1 0x40 MLOAD PUSH32 0x1E4FBDF700000000000000000000000000000000000000000000000000000000 DUP2 MSTORE PUSH1 0x4 ADD PUSH2 0x69D SWAP2 SWAP1 PUSH2 0x1008 JUMP JUMPDEST PUSH1 0x40 MLOAD DUP1 SWAP2 SUB SWAP1 REVERT JUMPDEST PUSH2 0x6AF DUP2 PUSH2 0xBEB JUMP JUMPDEST POP JUMP JUMPDEST PUSH32 0x0 DUP2 JUMP JUMPDEST PUSH0 PUSH1 0x4 PUSH0 SWAP1 SLOAD SWAP1 PUSH2 0x100 EXP SWAP1 DIV PUSH8 0xFFFFFFFFFFFFFFFF AND PUSH8 0xFFFFFFFFFFFFFFFF AND DUP3 LT ISZERO DUP1 ISZERO PUSH2 0x726 JUMPI POP PUSH1 0x4 PUSH1 0x8 SWAP1 SLOAD SWAP1 PUSH2 0x100 EXP SWAP1 DIV PUSH8 0xFFFFFFFFFFFFFFFF AND PUSH8 0xFFFFFFFFFFFFFFFF AND DUP3 GT ISZERO JUMPDEST DUP1 ISZERO PUSH2 0x777 JUMPI POP PUSH32 0x0 PUSH12 0xFFFFFFFFFFFFFFFFFFFFFFFF AND DUP4 PUSH20 0xFFFFFFFFFFFFFFFFFFFFFFFFFFFFFFFFFFFFFFFF AND BALANCE LT ISZERO JUMPDEST DUP1 ISZERO PUSH2 0x7AA JUMPI POP PUSH2 0x7A8 DUP4 PUSH20 0xFFFFFFFFFFFFFFFFFFFFFFFFFFFFFFFFFFFFFFFF AND PUSH1 0x3 PUSH2 0xCAC SWAP1 SWAP2 SWAP1 PUSH4 0xFFFFFFFF AND JUMP JUMPDEST ISZERO JUMPDEST DUP1 ISZERO PUSH2 0x836 JUMPI POP PUSH1 0x2 PUSH0 ADD PUSH1 0xC SWAP1 SLOAD SWAP1 PUSH2 0x100 EXP SWAP1 DIV PUSH12 0xFFFFFFFFFFFFFFFFFFFFFFFF AND PUSH12 0xFFFFFFFFFFFFFFFFFFFFFFFF AND PUSH1 0x2 PUSH0 ADD PUSH0 SWAP1 SLOAD SWAP1 PUSH2 0x100 EXP SWAP1 DIV PUSH12 0xFFFFFFFFFFFFFFFFFFFFFFFF AND PUSH1 0x2 PUSH0 ADD PUSH1 0x18 SWAP1 SLOAD SWAP1 PUSH2 0x100 EXP SWAP1 DIV PUSH8 0xFFFFFFFFFFFFFFFF AND PUSH8 0xFFFFFFFFFFFFFFFF AND PUSH2 0x825 SWAP2 SWAP1 PUSH2 0x11CF JUMP JUMPDEST PUSH12 0xFFFFFFFFFFFFFFFFFFFFFFFF AND GT ISZERO JUMPDEST SWAP1 POP SWAP3 SWAP2 POP POP JUMP JUMPDEST PUSH1 0x2 PUSH1 0x1 SLOAD SUB PUSH2 0x883 JUMPI PUSH1 0x40 MLOAD PUSH32 0x8C379A000000000000000000000000000000000000000000000000000000000 DUP2 MSTORE PUSH1 0x4 ADD PUSH2 0x87A SWAP1 PUSH2 0x1268 JUMP JUMPDEST PUSH1 0x40 MLOAD DUP1 SWAP2 SUB SWAP1 REVERT JUMPDEST PUSH1 0x2 PUSH1 0x1 DUP2 SWAP1 SSTORE POP JUMP JUMPDEST PUSH1 0x4 PUSH0 SWAP1 SLOAD SWAP1 PUSH2 0x100 EXP SWAP1 DIV PUSH8 0xFFFFFFFFFFFFFFFF AND PUSH8 0xFFFFFFFFFFFFFFFF AND TIMESTAMP LT DUP1 PUSH2 0x8D9 JUMPI POP PUSH1 0x4 PUSH1 0x8 SWAP1 SLOAD SWAP1 PUSH2 0x100 EXP SWAP1 DIV PUSH8 0xFFFFFFFFFFFFFFFF AND PUSH8 0xFFFFFFFFFFFFFFFF AND TIMESTAMP GT JUMPDEST ISZERO PUSH2 0x910 JUMPI PUSH1 0x40 MLOAD PUSH32 0x80CB55E200000000000000000000000000000000000000000000000000000000 DUP2 MSTORE PUSH1 0x4 ADD PUSH1 0x40 MLOAD DUP1 SWAP2 SUB SWAP1 REVERT JUMPDEST PUSH2 0x93A DUP2 PUSH20 0xFFFFFFFFFFFFFFFFFFFFFFFFFFFFFFFFFFFFFFFF AND PUSH1 0x3 PUSH2 0xCAC SWAP1 SWAP2 SWAP1 PUSH4 0xFFFFFFFF AND JUMP JUMPDEST ISZERO PUSH2 0x971 JUMPI PUSH1 0x40 MLOAD PUSH32 0x646CF55800000000000000000000000000000000000000000000000000000000 DUP2 MSTORE PUSH1 0x4 ADD PUSH1 0x40 MLOAD DUP1 SWAP2 SUB SWAP1 REVERT JUMPDEST PUSH32 0x0 PUSH12 0xFFFFFFFFFFFFFFFFFFFFFFFF AND DUP2 PUSH20 0xFFFFFFFFFFFFFFFFFFFFFFFFFFFFFFFFFFFFFFFF AND BALANCE LT ISZERO PUSH2 0x9F0 JUMPI PUSH1 0x40 MLOAD PUSH32 0xF4D678B800000000000000000000000000000000000000000000000000000000 DUP2 MSTORE PUSH1 0x4 ADD PUSH1 0x40 MLOAD DUP1 SWAP2 SUB SWAP1 REVERT JUMPDEST PUSH1 0x2 PUSH0 ADD PUSH1 0xC SWAP1 SLOAD SWAP1 PUSH2 0x100 EXP SWAP1 DIV PUSH12 0xFFFFFFFFFFFFFFFFFFFFFFFF AND PUSH12 0xFFFFFFFFFFFFFFFFFFFFFFFF AND PUSH1 0x2 PUSH0 ADD PUSH0 SWAP1 SLOAD SWAP1 PUSH2 0x100 EXP SWAP1 DIV PUSH12 0xFFFFFFFFFFFFFFFFFFFFFFFF AND PUSH1 0x2 PUSH0 ADD PUSH1 0x18 SWAP1 SLOAD SWAP1 PUSH2 0x100 EXP SWAP1 DIV PUSH8 0xFFFFFFFFFFFFFFFF AND PUSH8 0xFFFFFFFFFFFFFFFF AND ADD PUSH12 0xFFFFFFFFFFFFFFFFFFFFFFFF AND GT ISZERO PUSH2 0xAA1 JUMPI PUSH1 0x40 MLOAD PUSH32 0xD05CB60900000000000000000000000000000000000000000000000000000000 DUP2 MSTORE PUSH1 0x4 ADD PUSH1 0x40 MLOAD DUP1 SWAP2 SUB SWAP1 REVERT JUMPDEST POP JUMP JUMPDEST PUSH0 PUSH1 0x8 DUP3 SWAP1 SHR SWAP1 POP PUSH0 PUSH1 0xFF DUP4 AND PUSH1 0x1 SWAP1 SHL SWAP1 POP DUP1 DUP5 PUSH0 ADD PUSH0 DUP5 DUP2 MSTORE PUSH1 0x20 ADD SWAP1 DUP2 MSTORE PUSH1 0x20 ADD PUSH0 KECCAK256 PUSH0 DUP3 DUP3 SLOAD OR SWAP3 POP POP DUP2 SWAP1 SSTORE POP POP POP POP POP JUMP JUMPDEST PUSH2 0xB56 DUP4 DUP5 PUSH20 0xFFFFFFFFFFFFFFFFFFFFFFFFFFFFFFFFFFFFFFFF AND PUSH4 0xA9059CBB DUP6 DUP6 PUSH1 0x40 MLOAD PUSH1 0x24 ADD PUSH2 0xB0F SWAP3 SWAP2 SWAP1 PUSH2 0x1295 JUMP JUMPDEST PUSH1 0x40 MLOAD PUSH1 0x20 DUP2 DUP4 SUB SUB DUP2 MSTORE SWAP1 PUSH1 0x40 MSTORE SWAP2 POP PUSH1 0xE0 SHL PUSH1 0x20 DUP3 ADD DUP1 MLOAD PUSH28 0xFFFFFFFFFFFFFFFFFFFFFFFFFFFFFFFFFFFFFFFFFFFFFFFFFFFFFFFF DUP4 DUP2 DUP4 AND OR DUP4 MSTORE POP POP POP POP PUSH2 0xCE2 JUMP JUMPDEST POP POP POP JUMP JUMPDEST PUSH1 0x1 DUP1 DUP2 SWAP1 SSTORE POP JUMP JUMPDEST PUSH2 0xB6C PUSH2 0xD7D JUMP JUMPDEST PUSH20 0xFFFFFFFFFFFFFFFFFFFFFFFFFFFFFFFFFFFFFFFF AND PUSH2 0xB8A PUSH2 0x4DD JUMP JUMPDEST PUSH20 0xFFFFFFFFFFFFFFFFFFFFFFFFFFFFFFFFFFFFFFFF AND EQ PUSH2 0xBE9 JUMPI PUSH2 0xBAD PUSH2 0xD7D JUMP JUMPDEST PUSH1 0x40 MLOAD PUSH32 0x118CDAA700000000000000000000000000000000000000000000000000000000 DUP2 MSTORE PUSH1 0x4 ADD PUSH2 0xBE0 SWAP2 SWAP1 PUSH2 0x1008 JUMP JUMPDEST PUSH1 0x40 MLOAD DUP1 SWAP2 SUB SWAP1 REVERT JUMPDEST JUMP JUMPDEST PUSH0 DUP1 PUSH0 SWAP1 SLOAD SWAP1 PUSH2 0x100 EXP SWAP1 DIV PUSH20 0xFFFFFFFFFFFFFFFFFFFFFFFFFFFFFFFFFFFFFFFF AND SWAP1 POP DUP2 PUSH0 DUP1 PUSH2 0x100 EXP DUP2 SLOAD DUP2 PUSH20 0xFFFFFFFFFFFFFFFFFFFFFFFFFFFFFFFFFFFFFFFF MUL NOT AND SWAP1 DUP4 PUSH20 0xFFFFFFFFFFFFFFFFFFFFFFFFFFFFFFFFFFFFFFFF AND MUL OR SWAP1 SSTORE POP DUP2 PUSH20 0xFFFFFFFFFFFFFFFFFFFFFFFFFFFFFFFFFFFFFFFF AND DUP2 PUSH20 0xFFFFFFFFFFFFFFFFFFFFFFFFFFFFFFFFFFFFFFFF AND PUSH32 0x8BE0079C531659141344CD1FD0A4F28419497F9722A3DAAFE3B4186F6B6457E0 PUSH1 0x40 MLOAD PUSH1 0x40 MLOAD DUP1 SWAP2 SUB SWAP1 LOG3 POP POP JUMP JUMPDEST PUSH0 DUP1 PUSH1 0x8 DUP4 SWAP1 SHR SWAP1 POP PUSH0 PUSH1 0xFF DUP5 AND PUSH1 0x1 SWAP1 SHL SWAP1 POP PUSH0 DUP2 DUP7 PUSH0 ADD PUSH0 DUP6 DUP2 MSTORE PUSH1 0x20 ADD SWAP1 DUP2 MSTORE PUSH1 0x20 ADD PUSH0 KECCAK256 SLOAD AND EQ ISZERO SWAP3 POP POP POP SWAP3 SWAP2 POP POP JUMP JUMPDEST PUSH0 DUP1 PUSH1 0x20 PUSH0 DUP5 MLOAD PUSH1 0x20 DUP7 ADD PUSH0 DUP9 GAS CALL DUP1 PUSH2 0xD01 JUMPI PUSH1 0x40 MLOAD RETURNDATASIZE PUSH0 DUP3 RETURNDATACOPY RETURNDATASIZE DUP2 REVERT JUMPDEST RETURNDATASIZE SWAP3 POP PUSH0 MLOAD SWAP2 POP POP PUSH0 DUP3 EQ PUSH2 0xD1A JUMPI PUSH1 0x1 DUP2 EQ ISZERO PUSH2 0xD35 JUMP JUMPDEST PUSH0 DUP5 PUSH20 0xFFFFFFFFFFFFFFFFFFFFFFFFFFFFFFFFFFFFFFFF AND EXTCODESIZE EQ JUMPDEST ISZERO PUSH2 0xD77 JUMPI DUP4 PUSH1 0x40 MLOAD PUSH32 0x5274AFE700000000000000000000000000000000000000000000000000000000 DUP2 MSTORE PUSH1 0x4 ADD PUSH2 0xD6E SWAP2 SWAP1 PUSH2 0x1008 JUMP JUMPDEST PUSH1 0x40 MLOAD DUP1 SWAP2 SUB SWAP1 REVERT JUMPDEST POP POP POP POP JUMP JUMPDEST PUSH0 CALLER SWAP1 POP SWAP1 JUMP JUMPDEST PUSH0 PUSH8 0xFFFFFFFFFFFFFFFF DUP3 AND SWAP1 POP SWAP2 SWAP1 POP JUMP JUMPDEST PUSH2 0xDA0 DUP2 PUSH2 0xD84 JUMP JUMPDEST DUP3 MSTORE POP POP JUMP JUMPDEST PUSH0 PUSH1 0x20 DUP3 ADD SWAP1 POP PUSH2 0xDB9 PUSH0 DUP4 ADD DUP5 PUSH2 0xD97 JUMP JUMPDEST SWAP3 SWAP2 POP POP JUMP JUMPDEST PUSH0 PUSH12 0xFFFFFFFFFFFFFFFFFFFFFFFF DUP3 AND SWAP1 POP SWAP2 SWAP1 POP JUMP JUMPDEST PUSH2 0xDDF DUP2 PUSH2 0xDBF JUMP JUMPDEST DUP3 MSTORE POP POP JUMP JUMPDEST PUSH0 PUSH1 0x20 DUP3 ADD SWAP1 POP PUSH2 0xDF8 PUSH0 DUP4 ADD DUP5 PUSH2 0xDD6 JUMP JUMPDEST SWAP3 SWAP2 POP POP JUMP JUMPDEST PUSH0 DUP1 REVERT JUMPDEST PUSH0 DUP1 REVERT JUMPDEST PUSH0 DUP1 REVERT JUMPDEST PUSH0 DUP1 REVERT JUMPDEST PUSH0 DUP1 REVERT JUMPDEST PUSH0 DUP1 DUP4 PUSH1 0x1F DUP5 ADD SLT PUSH2 0xE27 JUMPI PUSH2 0xE26 PUSH2 0xE06 JUMP JUMPDEST JUMPDEST DUP3 CALLDATALOAD SWAP1 POP PUSH8 0xFFFFFFFFFFFFFFFF DUP2 GT ISZERO PUSH2 0xE44 JUMPI PUSH2 0xE43 PUSH2 0xE0A JUMP JUMPDEST JUMPDEST PUSH1 0x20 DUP4 ADD SWAP2 POP DUP4 PUSH1 0x20 DUP3 MUL DUP4 ADD GT ISZERO PUSH2 0xE60 JUMPI PUSH2 0xE5F PUSH2 0xE0E JUMP JUMPDEST JUMPDEST SWAP3 POP SWAP3 SWAP1 POP JUMP JUMPDEST PUSH0 DUP1 PUSH1 0x20 DUP4 DUP6 SUB SLT ISZERO PUSH2 0xE7D JUMPI PUSH2 0xE7C PUSH2 0xDFE JUMP JUMPDEST JUMPDEST PUSH0 DUP4 ADD CALLDATALOAD PUSH8 0xFFFFFFFFFFFFFFFF DUP2 GT ISZERO PUSH2 0xE9A JUMPI PUSH2 0xE99 PUSH2 0xE02 JUMP JUMPDEST JUMPDEST PUSH2 0xEA6 DUP6 DUP3 DUP7 ADD PUSH2 0xE12 JUMP JUMPDEST SWAP3 POP SWAP3 POP POP SWAP3 POP SWAP3 SWAP1 POP JUMP JUMPDEST PUSH0 DUP2 MLOAD SWAP1 POP SWAP2 SWAP1 POP JUMP JUMPDEST PUSH0 DUP3 DUP3 MSTORE PUSH1 0x20 DUP3 ADD SWAP1 POP SWAP3 SWAP2 POP POP JUMP JUMPDEST PUSH0 DUP2 SWAP1 POP PUSH1 0x20 DUP3 ADD SWAP1 POP SWAP2 SWAP1 POP JUMP JUMPDEST PUSH0 DUP2 ISZERO ISZERO SWAP1 POP SWAP2 SWAP1 POP JUMP JUMPDEST PUSH2 0xEEF DUP2 PUSH2 0xEDB JUMP JUMPDEST DUP3 MSTORE POP POP JUMP JUMPDEST PUSH0 PUSH2 0xF00 DUP4 DUP4 PUSH2 0xEE6 JUMP JUMPDEST PUSH1 0x20 DUP4 ADD SWAP1 POP SWAP3 SWAP2 POP POP JUMP JUMPDEST PUSH0 PUSH1 0x20 DUP3 ADD SWAP1 POP SWAP2 SWAP1 POP JUMP JUMPDEST PUSH0 PUSH2 0xF22 DUP3 PUSH2 0xEB2 JUMP JUMPDEST PUSH2 0xF2C DUP2 DUP6 PUSH2 0xEBC JUMP JUMPDEST SWAP4 POP PUSH2 0xF37 DUP4 PUSH2 0xECC JUMP JUMPDEST DUP1 PUSH0 JUMPDEST DUP4 DUP2 LT ISZERO PUSH2 0xF67 JUMPI DUP2 MLOAD PUSH2 0xF4E DUP9 DUP3 PUSH2 0xEF5 JUMP JUMPDEST SWAP8 POP PUSH2 0xF59 DUP4 PUSH2 0xF0C JUMP JUMPDEST SWAP3 POP POP PUSH1 0x1 DUP2 ADD SWAP1 POP PUSH2 0xF3A JUMP JUMPDEST POP DUP6 SWAP4 POP POP POP POP SWAP3 SWAP2 POP POP JUMP JUMPDEST PUSH0 PUSH1 0x20 DUP3 ADD SWAP1 POP DUP2 DUP2 SUB PUSH0 DUP4 ADD MSTORE PUSH2 0xF8C DUP2 DUP5 PUSH2 0xF18 JUMP JUMPDEST SWAP1 POP SWAP3 SWAP2 POP POP JUMP JUMPDEST PUSH0 PUSH1 0x60 DUP3 ADD SWAP1 POP PUSH2 0xFA7 PUSH0 DUP4 ADD DUP7 PUSH2 0xDD6 JUMP JUMPDEST PUSH2 0xFB4 PUSH1 0x20 DUP4 ADD DUP6 PUSH2 0xDD6 JUMP JUMPDEST PUSH2 0xFC1 PUSH1 0x40 DUP4 ADD DUP5 PUSH2 0xD97 JUMP JUMPDEST SWAP5 SWAP4 POP POP POP POP JUMP JUMPDEST PUSH0 PUSH20 0xFFFFFFFFFFFFFFFFFFFFFFFFFFFFFFFFFFFFFFFF DUP3 AND SWAP1 POP SWAP2 SWAP1 POP JUMP JUMPDEST PUSH0 PUSH2 0xFF2 DUP3 PUSH2 0xFC9 JUMP JUMPDEST SWAP1 POP SWAP2 SWAP1 POP JUMP JUMPDEST PUSH2 0x1002 DUP2 PUSH2 0xFE8 JUMP JUMPDEST DUP3 MSTORE POP POP JUMP JUMPDEST PUSH0 PUSH1 0x20 DUP3 ADD SWAP1 POP PUSH2 0x101B PUSH0 DUP4 ADD DUP5 PUSH2 0xFF9 JUMP JUMPDEST SWAP3 SWAP2 POP POP JUMP JUMPDEST PUSH2 0x102A DUP2 PUSH2 0xFE8 JUMP JUMPDEST DUP2 EQ PUSH2 0x1034 JUMPI PUSH0 DUP1 REVERT JUMPDEST POP JUMP JUMPDEST PUSH0 DUP2 CALLDATALOAD SWAP1 POP PUSH2 0x1045 DUP2 PUSH2 0x1021 JUMP JUMPDEST SWAP3 SWAP2 POP POP JUMP JUMPDEST PUSH0 PUSH1 0x20 DUP3 DUP5 SUB SLT ISZERO PUSH2 0x1060 JUMPI PUSH2 0x105F PUSH2 0xDFE JUMP JUMPDEST JUMPDEST PUSH0 PUSH2 0x106D DUP5 DUP3 DUP6 ADD PUSH2 0x1037 JUMP JUMPDEST SWAP2 POP POP SWAP3 SWAP2 POP POP JUMP JUMPDEST PUSH0 DUP2 SWAP1 POP SWAP2 SWAP1 POP JUMP JUMPDEST PUSH0 PUSH2 0x1099 PUSH2 0x1094 PUSH2 0x108F DUP5 PUSH2 0xFC9 JUMP JUMPDEST PUSH2 0x1076 JUMP JUMPDEST PUSH2 0xFC9 JUMP JUMPDEST SWAP1 POP SWAP2 SWAP1 POP JUMP JUMPDEST PUSH0 PUSH2 0x10AA DUP3 PUSH2 0x107F JUMP JUMPDEST SWAP1 POP SWAP2 SWAP1 POP JUMP JUMPDEST PUSH0 PUSH2 0x10BB DUP3 PUSH2 0x10A0 JUMP JUMPDEST SWAP1 POP SWAP2 SWAP1 POP JUMP JUMPDEST PUSH2 0x10CB DUP2 PUSH2 0x10B1 JUMP JUMPDEST DUP3 MSTORE POP POP JUMP JUMPDEST PUSH0 PUSH1 0x20 DUP3 ADD SWAP1 POP PUSH2 0x10E4 PUSH0 DUP4 ADD DUP5 PUSH2 0x10C2 JUMP JUMPDEST SWAP3 SWAP2 POP POP JUMP JUMPDEST PUSH32 0x4E487B7100000000000000000000000000000000000000000000000000000000 PUSH0 MSTORE PUSH1 0x41 PUSH1 0x4 MSTORE PUSH1 0x24 PUSH0 REVERT JUMPDEST PUSH32 0x4E487B7100000000000000000000000000000000000000000000000000000000 PUSH0 MSTORE PUSH1 0x32 PUSH1 0x4 MSTORE PUSH1 0x24 PUSH0 REVERT JUMPDEST PUSH0 DUP2 SWAP1 POP SWAP2 SWAP1 POP JUMP JUMPDEST PUSH2 0x1156 DUP2 PUSH2 0x1144 JUMP JUMPDEST DUP2 EQ PUSH2 0x1160 JUMPI PUSH0 DUP1 REVERT JUMPDEST POP JUMP JUMPDEST PUSH0 DUP2 MLOAD SWAP1 POP PUSH2 0x1171 DUP2 PUSH2 0x114D JUMP JUMPDEST SWAP3 SWAP2 POP POP JUMP JUMPDEST PUSH0 PUSH1 0x20 DUP3 DUP5 SUB SLT ISZERO PUSH2 0x118C JUMPI PUSH2 0x118B PUSH2 0xDFE JUMP JUMPDEST JUMPDEST PUSH0 PUSH2 0x1199 DUP5 DUP3 DUP6 ADD PUSH2 0x1163 JUMP JUMPDEST SWAP2 POP POP SWAP3 SWAP2 POP POP JUMP JUMPDEST PUSH32 0x4E487B7100000000000000000000000000000000000000000000000000000000 PUSH0 MSTORE PUSH1 0x11 PUSH1 0x4 MSTORE PUSH1 0x24 PUSH0 REVERT JUMPDEST PUSH0 PUSH2 0x11D9 DUP3 PUSH2 0xDBF JUMP JUMPDEST SWAP2 POP PUSH2 0x11E4 DUP4 PUSH2 0xDBF JUMP JUMPDEST SWAP3 POP DUP3 DUP3 ADD SWAP1 POP PUSH12 0xFFFFFFFFFFFFFFFFFFFFFFFF DUP2 GT ISZERO PUSH2 0x1208 JUMPI PUSH2 0x1207 PUSH2 0x11A2 JUMP JUMPDEST JUMPDEST SWAP3 SWAP2 POP POP JUMP JUMPDEST PUSH0 DUP3 DUP3 MSTORE PUSH1 0x20 DUP3 ADD SWAP1 POP SWAP3 SWAP2 POP POP JUMP JUMPDEST PUSH32 0x5265656E7472616E637947756172643A207265656E7472616E742063616C6C00 PUSH0 DUP3 ADD MSTORE POP JUMP JUMPDEST PUSH0 PUSH2 0x1252 PUSH1 0x1F DUP4 PUSH2 0x120E JUMP JUMPDEST SWAP2 POP PUSH2 0x125D DUP3 PUSH2 0x121E JUMP JUMPDEST PUSH1 0x20 DUP3 ADD SWAP1 POP SWAP2 SWAP1 POP JUMP JUMPDEST PUSH0 PUSH1 0x20 DUP3 ADD SWAP1 POP DUP2 DUP2 SUB PUSH0 DUP4 ADD MSTORE PUSH2 0x127F DUP2 PUSH2 0x1246 JUMP JUMPDEST SWAP1 POP SWAP2 SWAP1 POP JUMP JUMPDEST PUSH2 0x128F DUP2 PUSH2 0x1144 JUMP JUMPDEST DUP3 MSTORE POP POP JUMP JUMPDEST PUSH0 PUSH1 0x40 DUP3 ADD SWAP1 POP PUSH2 0x12A8 PUSH0 DUP4 ADD DUP6 PUSH2 0xFF9 JUMP JUMPDEST PUSH2 0x12B5 PUSH1 0x20 DUP4 ADD DUP5 PUSH2 0x1286 JUMP JUMPDEST SWAP4 SWAP3 POP POP POP JUMP INVALID LOG2 PUSH5 0x6970667358 0x22 SLT KECCAK256 KECCAK256 INVALID 0xD0 0xC8 0xA7 0xC4 PUSH5 0x65C9BC7922 0xD0 0xBE SLOAD 0xBC 0xC6 GT PUSH20 0xB989BAF820086DD0E6C2B41E5D64736F6C634300 ADDMOD BYTE STOP CALLER "
				},
				"gasEstimates": {
					"creation": {
						"codeDepositCost": "970000",
						"executionCost": "infinite",
						"totalCost": "infinite"
					},
					"external": {
						"airdropEndTime()": "2539",
						"airdropStartTime()": "2467",
						"checkEligibility(address[])": "infinite",
						"claimAirdrop()": "infinite",
						"config()": "infinite",
						"emergencyWithdraw()": "infinite",
						"minEthRequired()": "infinite",
						"owner()": "2559",
						"renounceOwnership()": "infinite",
						"token()": "infinite",
						"transferOwnership(address)": "infinite"
					},
					"internal": {
						"_isEligible(address,uint256)": "infinite",
						"_validateClaim(address)": "infinite"
					}
				},
				"methodIdentifiers": {
					"airdropEndTime()": "806019c1",
					"airdropStartTime()": "40306fb6",
					"checkEligibility(address[])": "58262359",
					"claimAirdrop()": "5b88349d",
					"config()": "79502c55",
					"emergencyWithdraw()": "db2e21bc",
					"minEthRequired()": "43074c7f",
					"owner()": "8da5cb5b",
					"renounceOwnership()": "715018a6",
					"token()": "fc0c546a",
					"transferOwnership(address)": "f2fde38b"
				}
			},
			"storageLayout": {
				"storage": [
					{
						"astId": 8,
						"contract": "contracts/HoldAirdrop.sol:GasOptimizedAirdrop",
						"label": "_owner",
						"offset": 0,
						"slot": "0",
						"type": "t_address"
					},
					{
						"astId": 248,
						"contract": "contracts/HoldAirdrop.sol:GasOptimizedAirdrop",
						"label": "_status",
						"offset": 0,
						"slot": "1",
						"type": "t_uint256"
					},
					{
						"astId": 1224,
						"contract": "contracts/HoldAirdrop.sol:GasOptimizedAirdrop",
						"label": "config",
						"offset": 0,
						"slot": "2",
						"type": "t_struct(AirdropConfig)1221_storage"
					},
					{
						"astId": 1227,
						"contract": "contracts/HoldAirdrop.sol:GasOptimizedAirdrop",
						"label": "claimedBitMap",
						"offset": 0,
						"slot": "3",
						"type": "t_struct(Map)1126_storage"
					},
					{
						"astId": 1229,
						"contract": "contracts/HoldAirdrop.sol:GasOptimizedAirdrop",
						"label": "airdropStartTime",
						"offset": 0,
						"slot": "4",
						"type": "t_uint64"
					},
					{
						"astId": 1231,
						"contract": "contracts/HoldAirdrop.sol:GasOptimizedAirdrop",
						"label": "airdropEndTime",
						"offset": 8,
						"slot": "4",
						"type": "t_uint64"
					}
				],
				"types": {
					"t_address": {
						"encoding": "inplace",
						"label": "address",
						"numberOfBytes": "20"
					},
					"t_mapping(t_uint256,t_uint256)": {
						"encoding": "mapping",
						"key": "t_uint256",
						"label": "mapping(uint256 => uint256)",
						"numberOfBytes": "32",
						"value": "t_uint256"
					},
					"t_struct(AirdropConfig)1221_storage": {
						"encoding": "inplace",
						"label": "struct GasOptimizedAirdrop.AirdropConfig",
						"members": [
							{
								"astId": 1216,
								"contract": "contracts/HoldAirdrop.sol:GasOptimizedAirdrop",
								"label": "airdropAmount",
								"offset": 0,
								"slot": "0",
								"type": "t_uint96"
							},
							{
								"astId": 1218,
								"contract": "contracts/HoldAirdrop.sol:GasOptimizedAirdrop",
								"label": "maxAirdropSupply",
								"offset": 12,
								"slot": "0",
								"type": "t_uint96"
							},
							{
								"astId": 1220,
								"contract": "contracts/HoldAirdrop.sol:GasOptimizedAirdrop",
								"label": "totalAirdropped",
								"offset": 24,
								"slot": "0",
								"type": "t_uint64"
							}
						],
						"numberOfBytes": "32"
					},
					"t_struct(Map)1126_storage": {
						"encoding": "inplace",
						"label": "struct BitMap.Map",
						"members": [
							{
								"astId": 1125,
								"contract": "contracts/HoldAirdrop.sol:GasOptimizedAirdrop",
								"label": "bits",
								"offset": 0,
								"slot": "0",
								"type": "t_mapping(t_uint256,t_uint256)"
							}
						],
						"numberOfBytes": "32"
					},
					"t_uint256": {
						"encoding": "inplace",
						"label": "uint256",
						"numberOfBytes": "32"
					},
					"t_uint64": {
						"encoding": "inplace",
						"label": "uint64",
						"numberOfBytes": "8"
					},
					"t_uint96": {
						"encoding": "inplace",
						"label": "uint96",
						"numberOfBytes": "12"
					}
				}
			},
			"userdoc": {
				"kind": "user",
				"methods": {
					"checkEligibility(address[])": {
						"notice": "批量检查地址是否有资格领取空投"
					},
					"claimAirdrop()": {
						"notice": "用户领取空投"
					},
					"constructor": {
						"notice": "构造函数初始化空投合约"
					},
					"emergencyWithdraw()": {
						"notice": "紧急提取合约中的代币（仅合约所有者）"
					}
				},
				"notice": "一个经过 gas 优化的空投合约，使用了多种 gas 优化技术",
				"version": 1
			}
		}
	}
}