{
	"data": {
		"bytecode": {
			"linkReferences": {},
			"object": "6080604052348015600e575f80fd5b5061033d8061001c5f395ff3fe608060405234801561000f575f80fd5b5060043610610055575f3560e01c80633dece511146100595780636f590330146100795780638552dc0814610083578063cbdb30ab146100a3578063e61e4008146100c1575b5f80fd5b6100616100e1565b604051610070939291906102b9565b60405180910390f35b610081610117565b005b61008b61014c565b60405161009a939291906102b9565b60405180910390f35b6100ab610182565b6040516100b891906102ee565b60405180910390f35b6100c961018a565b6040516100d8939291906102b9565b60405180910390f35b5f806100eb6101c0565b600292505f91506040518060600160405280600181526020016002815260200160058152509050909192565b5f805f6101226101c0565b61012a6100e1565b80935081955082965050505061013e6100e1565b909150508092505050505050565b5f806101566101c0565b600180604051806060016040528060018152602001600281526020016005815250925092509250909192565b5f6002905090565b5f806101946101c0565b600180604051806060016040528060018152602001600281526020016005815250925092509250909192565b6040518060600160405280600390602082028036833780820191505090505090565b5f819050919050565b6101f4816101e2565b82525050565b5f8115159050919050565b61020e816101fa565b82525050565b5f60039050919050565b5f81905092915050565b5f819050919050565b61023a816101e2565b82525050565b5f61024b8383610231565b60208301905092915050565b5f602082019050919050565b61026c81610214565b610276818461021e565b925061028182610228565b805f5b838110156102b15781516102988782610240565b96506102a383610257565b925050600181019050610284565b505050505050565b5f60a0820190506102cc5f8301866101eb565b6102d96020830185610205565b6102e66040830184610263565b949350505050565b5f6020820190506103015f8301846101eb565b9291505056fea2646970667358221220c2d18529a2de57b479f509dfffcc715a00d57f66716f23b2c71b2fb157d4c38a64736f6c634300081a0033",
			"opcodes": "PUSH1 0x80 PUSH1 0x40 MSTORE CALLVALUE DUP1 ISZERO PUSH1 0xE JUMPI PUSH0 DUP1 REVERT JUMPDEST POP PUSH2 0x33D DUP1 PUSH2 0x1C PUSH0 CODECOPY PUSH0 RETURN INVALID PUSH1 0x80 PUSH1 0x40 MSTORE CALLVALUE DUP1 ISZERO PUSH2 0xF JUMPI PUSH0 DUP1 REVERT JUMPDEST POP PUSH1 0x4 CALLDATASIZE LT PUSH2 0x55 JUMPI PUSH0 CALLDATALOAD PUSH1 0xE0 SHR DUP1 PUSH4 0x3DECE511 EQ PUSH2 0x59 JUMPI DUP1 PUSH4 0x6F590330 EQ PUSH2 0x79 JUMPI DUP1 PUSH4 0x8552DC08 EQ PUSH2 0x83 JUMPI DUP1 PUSH4 0xCBDB30AB EQ PUSH2 0xA3 JUMPI DUP1 PUSH4 0xE61E4008 EQ PUSH2 0xC1 JUMPI JUMPDEST PUSH0 DUP1 REVERT JUMPDEST PUSH2 0x61 PUSH2 0xE1 JUMP JUMPDEST PUSH1 0x40 MLOAD PUSH2 0x70 SWAP4 SWAP3 SWAP2 SWAP1 PUSH2 0x2B9 JUMP JUMPDEST PUSH1 0x40 MLOAD DUP1 SWAP2 SUB SWAP1 RETURN JUMPDEST PUSH2 0x81 PUSH2 0x117 JUMP JUMPDEST STOP JUMPDEST PUSH2 0x8B PUSH2 0x14C JUMP JUMPDEST PUSH1 0x40 MLOAD PUSH2 0x9A SWAP4 SWAP3 SWAP2 SWAP1 PUSH2 0x2B9 JUMP JUMPDEST PUSH1 0x40 MLOAD DUP1 SWAP2 SUB SWAP1 RETURN JUMPDEST PUSH2 0xAB PUSH2 0x182 JUMP JUMPDEST PUSH1 0x40 MLOAD PUSH2 0xB8 SWAP2 SWAP1 PUSH2 0x2EE JUMP JUMPDEST PUSH1 0x40 MLOAD DUP1 SWAP2 SUB SWAP1 RETURN JUMPDEST PUSH2 0xC9 PUSH2 0x18A JUMP JUMPDEST PUSH1 0x40 MLOAD PUSH2 0xD8 SWAP4 SWAP3 SWAP2 SWAP1 PUSH2 0x2B9 JUMP JUMPDEST PUSH1 0x40 MLOAD DUP1 SWAP2 SUB SWAP1 RETURN JUMPDEST PUSH0 DUP1 PUSH2 0xEB PUSH2 0x1C0 JUMP JUMPDEST PUSH1 0x2 SWAP3 POP PUSH0 SWAP2 POP PUSH1 0x40 MLOAD DUP1 PUSH1 0x60 ADD PUSH1 0x40 MSTORE DUP1 PUSH1 0x1 DUP2 MSTORE PUSH1 0x20 ADD PUSH1 0x2 DUP2 MSTORE PUSH1 0x20 ADD PUSH1 0x5 DUP2 MSTORE POP SWAP1 POP SWAP1 SWAP2 SWAP3 JUMP JUMPDEST PUSH0 DUP1 PUSH0 PUSH2 0x122 PUSH2 0x1C0 JUMP JUMPDEST PUSH2 0x12A PUSH2 0xE1 JUMP JUMPDEST DUP1 SWAP4 POP DUP2 SWAP6 POP DUP3 SWAP7 POP POP POP POP PUSH2 0x13E PUSH2 0xE1 JUMP JUMPDEST SWAP1 SWAP2 POP POP DUP1 SWAP3 POP POP POP POP POP POP JUMP JUMPDEST PUSH0 DUP1 PUSH2 0x156 PUSH2 0x1C0 JUMP JUMPDEST PUSH1 0x1 DUP1 PUSH1 0x40 MLOAD DUP1 PUSH1 0x60 ADD PUSH1 0x40 MSTORE DUP1 PUSH1 0x1 DUP2 MSTORE PUSH1 0x20 ADD PUSH1 0x2 DUP2 MSTORE PUSH1 0x20 ADD PUSH1 0x5 DUP2 MSTORE POP SWAP3 POP SWAP3 POP SWAP3 POP SWAP1 SWAP2 SWAP3 JUMP JUMPDEST PUSH0 PUSH1 0x2 SWAP1 POP SWAP1 JUMP JUMPDEST PUSH0 DUP1 PUSH2 0x194 PUSH2 0x1C0 JUMP JUMPDEST PUSH1 0x1 DUP1 PUSH1 0x40 MLOAD DUP1 PUSH1 0x60 ADD PUSH1 0x40 MSTORE DUP1 PUSH1 0x1 DUP2 MSTORE PUSH1 0x20 ADD PUSH1 0x2 DUP2 MSTORE PUSH1 0x20 ADD PUSH1 0x5 DUP2 MSTORE POP SWAP3 POP SWAP3 POP SWAP3 POP SWAP1 SWAP2 SWAP3 JUMP JUMPDEST PUSH1 0x40 MLOAD DUP1 PUSH1 0x60 ADD PUSH1 0x40 MSTORE DUP1 PUSH1 0x3 SWAP1 PUSH1 0x20 DUP3 MUL DUP1 CALLDATASIZE DUP4 CALLDATACOPY DUP1 DUP3 ADD SWAP2 POP POP SWAP1 POP POP SWAP1 JUMP JUMPDEST PUSH0 DUP2 SWAP1 POP SWAP2 SWAP1 POP JUMP JUMPDEST PUSH2 0x1F4 DUP2 PUSH2 0x1E2 JUMP JUMPDEST DUP3 MSTORE POP POP JUMP JUMPDEST PUSH0 DUP2 ISZERO ISZERO SWAP1 POP SWAP2 SWAP1 POP JUMP JUMPDEST PUSH2 0x20E DUP2 PUSH2 0x1FA JUMP JUMPDEST DUP3 MSTORE POP POP JUMP JUMPDEST PUSH0 PUSH1 0x3 SWAP1 POP SWAP2 SWAP1 POP JUMP JUMPDEST PUSH0 DUP2 SWAP1 POP SWAP3 SWAP2 POP POP JUMP JUMPDEST PUSH0 DUP2 SWAP1 POP SWAP2 SWAP1 POP JUMP JUMPDEST PUSH2 0x23A DUP2 PUSH2 0x1E2 JUMP JUMPDEST DUP3 MSTORE POP POP JUMP JUMPDEST PUSH0 PUSH2 0x24B DUP4 DUP4 PUSH2 0x231 JUMP JUMPDEST PUSH1 0x20 DUP4 ADD SWAP1 POP SWAP3 SWAP2 POP POP JUMP JUMPDEST PUSH0 PUSH1 0x20 DUP3 ADD SWAP1 POP SWAP2 SWAP1 POP JUMP JUMPDEST PUSH2 0x26C DUP2 PUSH2 0x214 JUMP JUMPDEST PUSH2 0x276 DUP2 DUP5 PUSH2 0x21E JUMP JUMPDEST SWAP3 POP PUSH2 0x281 DUP3 PUSH2 0x228 JUMP JUMPDEST DUP1 PUSH0 JUMPDEST DUP4 DUP2 LT ISZERO PUSH2 0x2B1 JUMPI DUP2 MLOAD PUSH2 0x298 DUP8 DUP3 PUSH2 0x240 JUMP JUMPDEST SWAP7 POP PUSH2 0x2A3 DUP4 PUSH2 0x257 JUMP JUMPDEST SWAP3 POP POP PUSH1 0x1 DUP2 ADD SWAP1 POP PUSH2 0x284 JUMP JUMPDEST POP POP POP POP POP POP JUMP JUMPDEST PUSH0 PUSH1 0xA0 DUP3 ADD SWAP1 POP PUSH2 0x2CC PUSH0 DUP4 ADD DUP7 PUSH2 0x1EB JUMP JUMPDEST PUSH2 0x2D9 PUSH1 0x20 DUP4 ADD DUP6 PUSH2 0x205 JUMP JUMPDEST PUSH2 0x2E6 PUSH1 0x40 DUP4 ADD DUP5 PUSH2 0x263 JUMP JUMPDEST SWAP5 SWAP4 POP POP POP POP JUMP JUMPDEST PUSH0 PUSH1 0x20 DUP3 ADD SWAP1 POP PUSH2 0x301 PUSH0 DUP4 ADD DUP5 PUSH2 0x1EB JUMP JUMPDEST SWAP3 SWAP2 POP POP JUMP INVALID LOG2 PUSH5 0x6970667358 0x22 SLT KECCAK256 0xC2 0xD1 DUP6 0x29 LOG2 0xDE JUMPI 0xB4 PUSH26 0xF509DFFFCC715A00D57F66716F23B2C71B2FB157D4C38A64736F PUSH13 0x634300081A0033000000000000 "
		},
		"gasEstimates": {
			"creation": {
				"codeDepositCost": "165800",
				"executionCost": "206",
				"totalCost": "166006"
			},
			"external": {
				"readReturn()": "infinite",
				"returnMultiple()": "infinite",
				"returnNamed()": "infinite",
				"returnNamed2()": "infinite",
				"returnNamed3()": "376"
			}
		},
		"methodIdentifiers": {
			"readReturn()": "6f590330",
			"returnMultiple()": "e61e4008",
			"returnNamed()": "3dece511",
			"returnNamed2()": "8552dc08",
			"returnNamed3()": "cbdb30ab"
		}
	},
	"abi": [
		{
			"inputs": [],
			"name": "readReturn",
			"outputs": [],
			"stateMutability": "pure",
			"type": "function"
		},
		{
			"inputs": [],
			"name": "returnMultiple",
			"outputs": [
				{
					"internalType": "uint256",
					"name": "",
					"type": "uint256"
				},
				{
					"internalType": "bool",
					"name": "",
					"type": "bool"
				},
				{
					"internalType": "uint256[3]",
					"name": "",
					"type": "uint256[3]"
				}
			],
			"stateMutability": "pure",
			"type": "function"
		},
		{
			"inputs": [],
			"name": "returnNamed",
			"outputs": [
				{
					"internalType": "uint256",
					"name": "_number",
					"type": "uint256"
				},
				{
					"internalType": "bool",
					"name": "_bool",
					"type": "bool"
				},
				{
					"internalType": "uint256[3]",
					"name": "_array",
					"type": "uint256[3]"
				}
			],
			"stateMutability": "pure",
			"type": "function"
		},
		{
			"inputs": [],
			"name": "returnNamed2",
			"outputs": [
				{
					"internalType": "uint256",
					"name": "_number",
					"type": "uint256"
				},
				{
					"internalType": "bool",
					"name": "_bool",
					"type": "bool"
				},
				{
					"internalType": "uint256[3]",
					"name": "_array",
					"type": "uint256[3]"
				}
			],
			"stateMutability": "pure",
			"type": "function"
		},
		{
			"inputs": [],
			"name": "returnNamed3",
			"outputs": [
				{
					"internalType": "uint256",
					"name": "_number",
					"type": "uint256"
				}
			],
			"stateMutability": "pure",
			"type": "function"
		}
	]
}