{
	"data": {
		"bytecode": {
			"linkReferences": {},
			"object": "6080604052348015600e575f80fd5b506101448061001c5f395ff3fe608060405234801561000f575f80fd5b506004361061004a575f3560e01c8063298fd62b1461004e5780633b8354cb14610058578063a8b63e6f14610062578063f21fb0d41461006c575b5f80fd5b610056610076565b005b6100606100b1565b005b61006a6100e0565b005b6100746100f7565b005b604051806040016040528062563163815260200160028152505f80820151815f015560208201518160010155905050600a5f60010181905550565b60405180604001604052806004815260200160648152505f80820151815f015560208201518160010155905050565b5f600b815f01819055506064816001018190555050565b625631635f800181905550600a5f6001018190555056fea26469706673582212208a6711eb39ee6181a93de2f46cb1b5043898a0a630c08557cb0746c7c0d5673164736f6c634300081a0033",
			"opcodes": "PUSH1 0x80 PUSH1 0x40 MSTORE CALLVALUE DUP1 ISZERO PUSH1 0xE JUMPI PUSH0 DUP1 REVERT JUMPDEST POP PUSH2 0x144 DUP1 PUSH2 0x1C PUSH0 CODECOPY PUSH0 RETURN INVALID PUSH1 0x80 PUSH1 0x40 MSTORE CALLVALUE DUP1 ISZERO PUSH2 0xF JUMPI PUSH0 DUP1 REVERT JUMPDEST POP PUSH1 0x4 CALLDATASIZE LT PUSH2 0x4A JUMPI PUSH0 CALLDATALOAD PUSH1 0xE0 SHR DUP1 PUSH4 0x298FD62B EQ PUSH2 0x4E JUMPI DUP1 PUSH4 0x3B8354CB EQ PUSH2 0x58 JUMPI DUP1 PUSH4 0xA8B63E6F EQ PUSH2 0x62 JUMPI DUP1 PUSH4 0xF21FB0D4 EQ PUSH2 0x6C JUMPI JUMPDEST PUSH0 DUP1 REVERT JUMPDEST PUSH2 0x56 PUSH2 0x76 JUMP JUMPDEST STOP JUMPDEST PUSH2 0x60 PUSH2 0xB1 JUMP JUMPDEST STOP JUMPDEST PUSH2 0x6A PUSH2 0xE0 JUMP JUMPDEST STOP JUMPDEST PUSH2 0x74 PUSH2 0xF7 JUMP JUMPDEST STOP JUMPDEST PUSH1 0x40 MLOAD DUP1 PUSH1 0x40 ADD PUSH1 0x40 MSTORE DUP1 PUSH3 0x563163 DUP2 MSTORE PUSH1 0x20 ADD PUSH1 0x2 DUP2 MSTORE POP PUSH0 DUP1 DUP3 ADD MLOAD DUP2 PUSH0 ADD SSTORE PUSH1 0x20 DUP3 ADD MLOAD DUP2 PUSH1 0x1 ADD SSTORE SWAP1 POP POP PUSH1 0xA PUSH0 PUSH1 0x1 ADD DUP2 SWAP1 SSTORE POP JUMP JUMPDEST PUSH1 0x40 MLOAD DUP1 PUSH1 0x40 ADD PUSH1 0x40 MSTORE DUP1 PUSH1 0x4 DUP2 MSTORE PUSH1 0x20 ADD PUSH1 0x64 DUP2 MSTORE POP PUSH0 DUP1 DUP3 ADD MLOAD DUP2 PUSH0 ADD SSTORE PUSH1 0x20 DUP3 ADD MLOAD DUP2 PUSH1 0x1 ADD SSTORE SWAP1 POP POP JUMP JUMPDEST PUSH0 PUSH1 0xB DUP2 PUSH0 ADD DUP2 SWAP1 SSTORE POP PUSH1 0x64 DUP2 PUSH1 0x1 ADD DUP2 SWAP1 SSTORE POP POP JUMP JUMPDEST PUSH3 0x563163 PUSH0 DUP1 ADD DUP2 SWAP1 SSTORE POP PUSH1 0xA PUSH0 PUSH1 0x1 ADD DUP2 SWAP1 SSTORE POP JUMP INVALID LOG2 PUSH5 0x6970667358 0x22 SLT KECCAK256 DUP11 PUSH8 0x11EB39EE6181A93D 0xE2 DELEGATECALL PUSH13 0xB1B5043898A0A630C08557CB07 CHAINID 0xC7 0xC0 0xD5 PUSH8 0x3164736F6C634300 ADDMOD BYTE STOP CALLER "
		},
		"gasEstimates": {
			"creation": {
				"codeDepositCost": "64800",
				"executionCost": "115",
				"totalCost": "64915"
			},
			"external": {
				"iniStudent2()": "44425",
				"iniStudent3()": "49449",
				"inistudent4()": "44452",
				"initStudent1()": "44408"
			}
		},
		"methodIdentifiers": {
			"iniStudent2()": "f21fb0d4",
			"iniStudent3()": "298fd62b",
			"inistudent4()": "3b8354cb",
			"initStudent1()": "a8b63e6f"
		}
	},
	"abi": [
		{
			"inputs": [],
			"name": "iniStudent2",
			"outputs": [],
			"stateMutability": "nonpayable",
			"type": "function"
		},
		{
			"inputs": [],
			"name": "iniStudent3",
			"outputs": [],
			"stateMutability": "nonpayable",
			"type": "function"
		},
		{
			"inputs": [],
			"name": "inistudent4",
			"outputs": [],
			"stateMutability": "nonpayable",
			"type": "function"
		},
		{
			"inputs": [],
			"name": "initStudent1",
			"outputs": [],
			"stateMutability": "nonpayable",
			"type": "function"
		}
	]
}